:020000040800F2
:100000003810002099510008992000089B20000812
:100010009D2000089F200008A1200008000000008B
:10002000000000000000000000000000A320000805
:10003000A520000800000000A7200008A920000853
:10004000B3510008B3510008B3510008B351000880
:10005000B3510008B3510008B3510008B351000870
:10006000B3510008B3510008B3510008B351000860
:10007000B3510008B3510008B3510008B351000850
:10008000B3510008B3510008B3510008B351000840
:10009000B3510008B3510008B3510008C72000084D
:1000A000B3510008B3510008B3510008B351000820
:1000B000B3510008B3510008B3510008B351000810
:1000C000B3510008B3510008B3510008B351000800
:1000D000B3510008B3510008B3510008B3510008F0
:1000E00023210008B3510008B3510008B3510008A0
:1000F000B3510008B3510008B3510008B3510008D0
:10010000B3510008B3510008B3510008B3510008BF
:10011000B3510008B3510008B3510008B3510008AF
:10012000B3510008B3510008B3510008B35100089F
:10013000B3510008B3510008B3510008B35100088F
:10014000B3510008B3510008B3510008B35100087F
:10015000B3510008B3510008B3510008B35100086F
:10016000B3510008B3510008B3510008B35100085F
:10017000B3510008B3510008B3510008B35100084F
:10018000B3510008B351000800F002F800F070F815
:100190000AA090E8000C82448344AAF10107DA45E2
:1001A00001D100F065F8AFF2090EBAE80F0013F0C4
:1001B000010F18BFFB1A43F001031847C464000085
:1001C000E46400000A444FF0000C10F8013B13F007
:1001D000070408BF10F8014B1D1108BF10F8015BA0
:1001E000641E05D010F8016B641E01F8016BF9D193
:1001F00013F0080F1EBF10F8014BAD1C0C1B09D1EA
:100200006D1E58BF01F801CBFAD505E014F8016B5B
:1002100001F8016B6D1EF9D59142D6D370470000ED
:100220000023002400250026103A28BF78C1FBD8FF
:10023000520728BF30C148BF0B607047642905F0E2
:100240001D81632905F0D483732905F0D98300202B
:1002500070471FB506F0D7F905F074FE04000020C2
:10026000002105F07BFE401C60601FBD10B510BD75
:1002700005F04CFC1146FFF7ECFF01F041FC05F0E6
:100280004FFE03B4FFF7F2FF03BC02F041F9000098
:100290002749084327490860704770B50F21C47883
:1002A000027801234FF0E026E4B1224C246804F4E4
:1002B000E064C4F5E064C4F30724C4F10405E1403C
:1002C0004478AC4085780D4025431B4C29011155DD
:1002D000007800F01F018B40400906EB8000C0F859
:1002E000003170BD02F01F008340500906EB800012
:1002F000C0F8803170BD114A114001430D48001F04
:10030000016070470B4A121D0029116801D001439A
:1003100000E08143116070474FF0E0210428086934
:1003200003D020F004000861704740F00400FAE7B1
:100330000000FA050CED00E000E400E080FFFF1F84
:1003400010B501210C02204600F093FC2046BDE8C8
:100350001040002100F08DBC30B54268C44B0C79D0
:100360001A400B6842EA0422134343608268C14B7F
:100370004D791A40D1E9034323438C6844EA45048C
:10038000234313438360C26A097D22F47002491E2D
:10039000C9B242EA0151C16230BD00210160017160
:1003A00041718160C1600161012101757047B24BEB
:1003B00010B51A68B1490A40D0E900142143D0E9C8
:1003C0000240044321431143196010BD0021016024
:1003D00041608160C16070470029816802D041F0AE
:1003E000010101E021F00101816070474268A44BE6
:1003F0001A400A4342607047416282627047426815
:1004000022F01F020A43426070479E490028D1F83B
:10041000040302D040F4000001E020F40000C1F821
:100420000403704797490028D1F8040302D040F430
:10043000800001E020F48000C1F80403704770B52B
:10044000072509290AD9C468A1F10A0606EB460660
:10045000B540AC43B3401C43C46007E0046901EB02
:100460004106B540AC43B3401C4304611F23072A37
:1004700009D2446B521E02EB820293409C4391408E
:100480000C43446370BD0D2A09D2046BD21F02EBEA
:10049000820293409C4391400C43046370BDC46A44
:1004A0000D3A02EB820293409C4391400C43C4629C
:1004B00070BD816841F08041816070470146002035
:1004C0008968490200D5012070470029816802D05F
:1004D00041F4806101E021F480618160704700296E
:1004E000816802D041F0020101E021F00201816047
:1004F00070474268491E22F4604242EA413141603D
:1005000070470029416802D041F4006101E021F404
:10051000006141607047C06C80B270475648001D52
:10052000006870470029816802D041F4807101E0C1
:1005300021F48071816070470029816802D041F404
:10054000007101E021F40071816070474D4900287D
:10055000D1F8040302D040F4005001E020F4005030
:10056000C1F80403704770B5072409290AD9C56882
:10057000A1F10A0606EB4606B440A543B3401D436D
:10058000C56007E0056901EB4106B440A543B340EF
:100590001D430561836BC3F30154121B921C02EBD4
:1005A00082041F22A2409343A1400B43836370BD8A
:1005B000826B491E22F4401242EA01518163704766
:1005C00042507047826822F470220A43826070476A
:1005D000826822F440120A4382607047816841F4C5
:1005E000800181607047014600208968490200D57A
:1005F000012070470029416802D041F4806101E088
:1006000021F48061416070470029416802D041F4C3
:10061000805101E021F48051416070470844806AB4
:1006200080B2704701238B4041680AB1194300E052
:100630009943416070470246002012680A4200D088
:1006400001207047C9430160704730B50246002061
:1006500054680B0A01258D4011682C40194202D0C4
:10066000002C00D0012030BD6FEA112101607047DD
:10067000FFFEFFFCFDF7FFC004230140E030FCFF5C
:10068000FFFD3FFF00200140374900200860091DA1
:100690000860091D0860091D08603349334814319A
:1006A0000860704730B530498379026853B30B68EE
:1006B00093430B600A1D13680468A3431360027917
:1006C0000A441368046823431360274A08321368F6
:1006D0000468A3431360131D1C680568AC431C60C9
:1006E0004479102C05D021440A68006802430A604E
:1006F00030BD116804682143116019680068014326
:10070000196030BD0079084401689143016030BD33
:100710000021016001710C22427181717047124900
:1007200010310A6802430A60704701460E4A0020F1
:10073000143212680A4200D0012070470A4914316D
:1007400008607047084A014600201268064B0A40BC
:1007500014331B680B4202D0002A00D001207047DE
:100760000149143108607047003C0140FFFF7F00E1
:100770007A4910B5884206D10121084600F051FAA5
:10078000002101204FE07649884206D10121022054
:1007900000F047FA0021022045E07249884206D164
:1007A0000121042000F03DFA002104203BE06E49C5
:1007B000884206D10121082000F033FA00210820E8
:1007C00031E06A49884206D10121102000F029FA5F
:1007D0000021102027E06649884206D1012120200F
:1007E00000F01FFA002120201DE06249884206D156
:1007F0000121402000F015FA0021402013E05E495D
:10080000884206D10121802000F00BFA00218020CF
:1008100009E05A4988420AD184150121204600F096
:1008200000FA00212046BDE8104000F0FAB910BDE2
:10083000F0B50023012403270D6804FA03F21540E4
:10084000954242D1D0F800C05E0007FA06F52CEAC6
:10085000050CC0F800C091F804C0D0F800E00CFA14
:1008600006FC4CEA0E0CC0F800C091F804C0BCF1C4
:10087000010F02D0BCF1020F1FD1D0F808C02CEA42
:10088000050CC0F808C091F805C0D0F808E00CFAD3
:1008900006FC4CEA0E0CC0F808C0D0F804C02CEAE4
:1008A000020CC0F804C0426891F806C00CFA03FCC0
:1008B0001FFA8CFC42EA0C024260C268AA43C26082
:1008C000CA79C568B2402A43C2605B1C102BB3D3FF
:1008D000F0BD4FF6FF71016000210171417181711E
:1008E000C171704741F48032C261C161C261C169A6
:1008F000C06970470246002012690A4200D00120F8
:100900007047006980B270470246002052690A426F
:1009100000D001207047406980B270470183704762
:10092000418370470AB10183704741837047416139
:10093000704742694A40426170474B07DB0E9A405C
:10094000C90810B500EB8100016A0F249C40A14347
:100950000162016A1143016210BD00000000024003
:100960000004024000080240000C02400010024057
:100970000014024000180240001C02400020024007
:10098000E948016841F001010160E74A00210832AD
:1009900011600268E54B1A400260031DE44A1A60C8
:1009A000026822F480220260DF480C300160704748
:1009B000DD490022891C0A70087070470246002039
:1009C000510901290CD002290CD0D749743109688A
:1009D00002F01F02012393400B4200D00120704718
:1009E000D149F4E7D0497031F1E730B500244FF434
:1009F000A0653120FFF7E2FF641CAC4201D0002863
:100A0000F7D03120FFF7DAFF002800D0012030BDF9
:100A1000C5490A6822F0F80242EAC000086070473F
:100A2000C44908607047C049002270310A700A70DA
:100A3000012802D0042801D1052008707047BE4962
:100A40000860704741EA82115A0810B5BB4B029CFE
:100A500003EB02421143014341EA0460B249091D1C
:100A6000086010BDB34908667047800140EA017014
:100A7000AD49843108607047AE4988667047AD491A
:100A8000C8647047A84A08321368084323F0EC632F
:100A9000184310607047A44A08321368084323F0D3
:100AA00078431843106070479F4A0832116821F05C
:100AB00003010143116070479B480830006800F053
:100AC0000C007047984A0832116821F0F001014388
:100AD00011607047944A0832116821F4E0510143D3
:100AE00011607047904908310A6822F4604242EA76
:100AF000C0000860704770B58B4A08321168904B8F
:100B000011F00C0104D05D10042903D0082903D092
:100B100003601BE0056019E08349091D0C68C4F3FC
:100B200080560C6804F03F0416B1B5FBF4F301E005
:100B3000B3FBF4F30C680968C4F388146343C1F38E
:100B40000141491C4900B3FBF1F1016011687D4B83
:100B500001F0F00109095C5C0168E1404160146842
:100B600004F4E054A40A1C5D21FA04F484601268C1
:100B700002F46042520B9A5CD140C16070BDC0F378
:100B80000121032908D1684A0832116821F4F813B9
:100B90006D49014019431160634970310A68C0F31F
:100BA0000B0002430A60704763494439086070478C
:100BB00061494039086070476449086070475A4A83
:100BC00030320029116801D0014300E081431160F7
:100BD0007047554A34320029116801D0014300E0C2
:100BE000814311607047504A38320029116801D0A2
:100BF000014300E08143116070474B4A40320029B5
:100C0000116801D0014300E0814311607047464AFA
:100C100044320029116801D0014300E08143116092
:100C20007047414A10320029116801D0014300E0A9
:100C30008143116070473C4A14320029116801D089
:100C4000014300E0814311607047374A18320029A0
:100C5000116801D0014300E0814311607047324ABE
:100C600020320029116801D0014300E08143116066
:100C700070472D4A24320029116801D0014300E059
:100C8000814311607047284A50320029116801D011
:100C9000014300E0814311607047234A5432002928
:100CA000116801D0014300E08143116070471E4A82
:100CB00058320029116801D0014300E081431160DE
:100CC0007047194A60320029116801D0014300E0E1
:100CD000814311607047144A64320029116801D0C1
:100CE000014300E08143116070470F4A0D32002933
:100CF000117801D0014300E08143117070470A4828
:100D00007430016841F08071016070470146064A05
:100D100000200C3212680A4200D0012070470249BC
:100D20000E3108707047000000380240FFFFF6FEE9
:100D30001030002400004742800E47420000FFFFB1
:100D40000024F40000000020FFFCFF0F5C0147427C
:100D500010B501218C032046FFF78BFF2046BDE82C
:100D600010400021FFF785BF11490860704710B59A
:100D70008A07130F21F003040F220D499A4008310E
:100D800021440C6894430C600A68984002430A604E
:100D900010BD08490860704707490860704704495A
:100DA000002020310968C90500D5012070470000E6
:100DB00000380140DC00274200042742FE4910B5FC
:100DC000884206D101210846FFF753FF0021012088
:100DD0005BE0B0F1804F09D0F84988420DD1012184
:100DE0000220FFF73CFF0021022070E001210846AD
:100DF000FFF735FF0021012069E0F149884206D163
:100E000001210420FFF72BFF002104205FE0ED49C2
:100E1000884206D101210820FFF721FF0021082088
:100E200055E0E949884206D101211020FFF717FF5C
:100E3000002110204BE0E549884206D10121202005
:100E4000FFF70DFF0021202041E0E149884206D153
:100E500001210220FFF70DFF0021022015E0DD49EE
:100E6000884202D101210C040AE0DB49884202D108
:100E700001214C0404E0D94988420AD101218C04A3
:100E80002046FFF7F6FE00212046BDE81040FFF7A0
:100E9000F0BED349884206D101214020FFF7DFFE92
:100EA0000021402013E0CF49884206D10121802053
:100EB000FFF7D5FE0021802009E0CB4988420AD106
:100EC000841501212046FFF7CAFE00212046BDE817
:100ED0001040FFF7C4BE10BD30B50288B64BBC4C05
:100EE00098420DD0A0420BD0B0F1804F08D0B34D46
:100EF000A84205D0B24DA84202D0B24DA84203D1BB
:100F000022F070054A882A43AF4DA84206D0AF4D63
:100F1000A84203D022F440750A892A4302804A6815
:100F2000C2620A880285984201D0A04201D1897A22
:100F300001860121818230BD4FF0FF3141600021E7
:100F400001800181418081727047018582827047F2
:100F5000028822F070020A430280704741627047A3
:100F6000C1627047406A7047008D70470029018850
:100F700002D041F0020101E021F00201018070473E
:100F80000029018802D041F0040101E021F00401B0
:100F9000018070470029018802D041F0800101E002
:100FA00021F0800101807047028822F0080202804F
:100FB00002880A4302807047028822F4407202804D
:100FC00002880A43028070470029018802D041F05C
:100FD000010101E021F001010180704730B5028C70
:100FE00022F001020284028C8388048B22F0020228
:100FF00024F073050C882C438D8915434A882A43B5
:101000006D4DA84202D0724DA8420DD122F00805C4
:10101000CA8923F440732A4322F004058A882A43AC
:101020000D8A1D434B8A2B43838004838968416367
:10103000028430BD70B5028C22F010020284028C52
:101040008488038B0D8823F4E6464FF6FF7303EA8A
:10105000052535438E8922F0200203EA0616164341
:101060004A8803EA02123243534EB04202D0584E2D
:10107000B04215D122F08006CA8924F4406403EA04
:101080000212324322F040068A8803EA02123243F7
:101090000E8A03EA860626434C8A03EA8404344314
:1010A0008480058389688163028470BD70B5028C79
:1010B00022F480720284028C8488838B0D8823F052
:1010C00073031D4322F400738E894FF6FF7202EA08
:1010D00006261E434B8802EA03233343364EB042B2
:1010E00002D03B4EB04215D123F40066CB8924F4E4
:1010F000405402EA0323334323F480668B8802EAD8
:10110000032333430E8A02EA061626434C8A02EA78
:1011100004143443848085838968C163038470BD6B
:1011200070B5028C22F480520284048C8288838BF6
:101130000D8823F4E6464FF6FF7303EA0525354391
:1011400024F400568C8903EA043434434E8803EABD
:1011500006362643184CA04202D01D4CA04205D1B1
:1011600022F480440A8A03EA821222438280858321
:1011700089680164068470BD0021018041808180FE
:1011800081608181C18101824182704730B5012433
:10119000058C00F118038C40A543058431B3082960
:1011A0002CD0091FC1F34E001844016848F6FF73A4
:1011B0001940016001681AE000000140000400408D
:1011C00000080040000C00400010004000140040E7
:1011D000000401400040014000440140004801403B
:1011E00000180040001C00400020004006E04FF6C0
:1011F000FF7303EA02221143016030BD03EB51008B
:1012000001684FF68F73194001600168F3E741638D
:10121000704781637047C163704701647047028BF8
:1012200022F070020A4302837047028B4FF6FF736D
:1012300022F4E04203EA0121114301837047828BCB
:1012400022F070020A4382837047828B4FF6FF734D
:1012500022F4E04203EA0121114381837047028BAB
:1012600022F008020A4302837047028B4FF6FF7395
:1012700022F4006203EA0121114301837047828B4B
:1012800022F008020A4382837047828B4FF6FF7375
:1012900022F4006203EA0121114381837047028B2B
:1012A00022F004020A4302837047028B4FF6FF7359
:1012B00022F4806203EA0121114301837047828B8B
:1012C00022F004020A4382837047828B4FF6FF7339
:1012D00022F4806203EA0121114381837047028B6B
:1012E00022F080020A4302837047028B4FF6FF739D
:1012F000C2F30E0203EA0121114301837047828B7E
:1013000022F080020A4382837047828B4FF6FF737C
:10131000C2F30E0203EA0121114381837047028C5C
:1013200022F002020A4302847047028C22F0080273
:101330000A4302847047028C4FF6FF7322F02002AA
:1013400003EA0111114301847047028C4FF6FF73C9
:1013500022F0800203EA0111114301847047028CDC
:101360004FF6FF7322F4007203EA01211143018456
:101370007047028C4FF6FF7322F4006203EA0121EA
:10138000114301847047028C4FF6FF7322F4005220
:1013900003EA013111430184704710B50123048C25
:1013A0008B409C430484038C8A401343038410BD08
:1013B00010B50423048C8B409C430484038C8A4026
:1013C0001343038410BD828B22F440628283828B9C
:1013D0004FF6FF7303EA01210A4382837047828B31
:1013E00022F00C028283828B0A4382837047028B35
:1013F00022F440620283028B4FF6FF7303EA01215D
:101400000A4302837047F0B5048C24F0100404846E
:10141000078B068C4FF6FF7404EA011527F4734717
:1014200004EA0331394304EA02220A4326F0A00108
:10143000294341F0100102830184F0BD028B22F0A8
:101440000C020283028B0A43028370472DE9F041AC
:101450000D460E884988AA882B8904460EB3042EAF
:1014600026D0082E268C4FF6FF7028D026F4805602
:101470002684A78B268C00EA022200EA013127F499
:1014800073473A4300EA0330104326F420420A43EC
:1014900042F48051A0832184E9882046BDE8F041D0
:1014A00091E700F061F9E9882046BDE8F041C5E721
:1014B000FFF7A9FFE9882046BDE8F04197E726F449
:1014C00080762684A78B268C00EA012100EA03108F
:1014D000104327F0F307384326F420620A4342F40E
:1014E0008071A0832184E9882046BDE8F04176E739
:1014F00000210180418001228280C18001817047EA
:101500002DE9F0410C46002549880746012601B91E
:101510000225A288012A00D10226208823890028DA
:10152000384610D0FFF76FFFE1883846FFF75FFFBE
:10153000238932462946384600F016F9E1883846B4
:10154000BDE8F0417AE700F00FF9E1883846FFF78F
:1015500075FF2389324629463846FFF754FFE18854
:101560003846BDE8F04142E7406B7047806B7047FA
:10157000C06B7047006C704710B50A884B88CC88E8
:101580001A438B8823431A430B891A434B89898951
:101590001A430A43A0F8442010BD00210180418075
:1015A0008180C1800181418181817047002930F8AB
:1015B000441F02D041F4004101E0C1F30E0101805B
:1015C00070470029818802D041F0040101E021F038
:1015D0000401818070470029818802D041F0010117
:1015E00001E021F0010181807047002A828901D049
:1015F0000A4300E08A438281704781827047024635
:101600000020128A0A4200D001207047C94301829B
:10161000704702460020138A92890B4202EA0102B7
:1016200002D0002A00D001207047C94301827047D0
:101630001143A0F848107047002A828901D00A435C
:1016400000E08A43828170470029818802D041F0FE
:10165000080101E021F0080181807047018921F033
:10166000070101817047028922F070020A4302815A
:10167000704700B50346FFF7F6FF188940F00700F2
:10168000188100BD70B50D4611460446602D4FF01F
:1016900001020AD000F068F829462046FFF7E3FF70
:1016A000208940F00700208170BDFFF7ACFEF3E712
:1016B00030B504894FF6FF7505EA03231343E4B2FE
:1016C0000B432343038130BD10B50446FFF7F0FF01
:1016D000208940F07700208110BD10B50446FFF747
:1016E000E7FF208940F48040208110BD828822F0ED
:1016F0007002828082880A4382807047028922F0C9
:101700000702028102890A4302817047028922F09E
:101710008002028102890A430281704770B50589FF
:10172000048B068C25F007050D434FF6FC410C4059
:1017300040F201110C434FF6FF7101EA031126F04C
:1017400022061143314305810483018470BD0029C1
:10175000818802D041F0800101E021F08001818088
:101760007047A0F85010704770B5048C24F0010445
:101770000484058B048C4FF6FF7606EA03131343AB
:1017800025F0F3052B4324F00A020A4342F001013D
:101790000383018470BD0000CA4910B5884206D198
:1017A00001211020FFF765FA0021102028E0C6492A
:1017B000884202D101214C0410E0C449884202D180
:1017C00001218C040AE0C249884202D10121CC04E3
:1017D00004E0C04988420AD101210C052046FFF7E8
:1017E0003EFA2046BDE810400021FFF738BABA495A
:1017F000884209D101212020FFF73BFA0021202057
:10180000BDE81040FFF735BA10BD7FB50446008A29
:101810000D4620F44051E88808432082A08941F217
:101820000C618843A9882A8911436A8902431143BC
:10183000A181A08A20F44071A8890843A08268464B
:10184000FFF759F99F48844202D0A348844201D14E
:10185000039800E00298A1890904002900EBC00167
:1018600001EB0010296802DA4FEA410101E04FEA7A
:101870008101B0FBF1F26420B2FBF0F14FEA0111FB
:101880004FEA11136FF018056B4302EB8302A38933
:101890001D044FF0320306D503EBC202B2FBF0F099
:1018A00000F0070005E003EB0212B2FBF0F000F0DD
:1018B0000F00084320817FBD4FF4165101600021C5
:1018C0008180C18001810C2242818181704710B5E5
:1018D000028A4C8822F470630A8822438C88C98863
:1018E0000C4322431A43028210BD00210180418033
:1018F0008180C18070470029818902D041F4005164
:1019000001E021F4005181817047028B02F47F4293
:101910000283028B0A43028370470029818902D027
:1019200041F4004101E0C1F30E01818170470029BB
:10193000818A02D041F4006101E021F400618182DA
:101940007047C1F30801818070478088C0F30800A8
:101950007047028A22F00F020282028A0A43028240
:1019600070470029818902D041F0020101E021F095
:10197000020181817047828922F40062828182891A
:101980000A4382817047028A22F020020282028A80
:101990000A43028270470029018A02D041F4804143
:1019A00001E021F4804101827047818941F0010109
:1019B000818170470029818A02D041F0080101E04D
:1019C00021F0080181827047028BD2B20283028B20
:1019D00042EA0121018370470029818A02D041F047
:1019E000200101E021F02001818270470029818AD5
:1019F00002D041F0100101E021F010018182704716
:101A0000828A22F004028282828A0A43828270479A
:101A10000029818A02D041F0020101E021F0020197
:101A200081827047002A828A01D00A4300E08A43FB
:101A30008282704710B5C1F3421301F01F040121E7
:101A4000A140012B07D0022B07D01430002A0268D6
:101A500005D00A4304E00C30F8E71030F6E78A437B
:101A6000026010BD0246002012880A4200D0012008
:101A70007047C9430180704730B501F01F0201244F
:101A80000025C1F3421304FA02F2012B0FD0022BFE
:101A90000FD0838A4FEA11210088134204FA01F41F
:101AA00000EA040001D000B10125284630BD838939
:101AB000F0E7038AEEE70A0A01219140C943018059
:101AC0007047000000100140004400400048004002
:101AD000004C0040005000400014014010B501F0DF
:101AE0003AF901F0FDF8FD4C207808B101F05AF800
:101AF0006078002803D0BDE8104001F05BBF10BD46
:101B000000F048FB00F0BAFB00F008FC4FF4165060
:101B100000F0AEFC00F09EFE00F05AFF00F0D4FE94
:101B200000F0C6FF0421EE48FEF7FAFEED4D4FF43B
:101B300080512846FEF7F4FEE9142846FEF7F0FE31
:101B400029152846FEF7ECFE04212846FEF7E8FE9C
:101B500008212846FEF7E4FEE34E20213046FEF73A
:101B6000DFFE10213046FEF7DBFE4FF47A7000F006
:101B70004EFB4FF47A61C82000F00DFFD74C0120D6
:101B8000C821A0704FF44870A0604620E060642037
:101B9000C4E90601502121623C21616220613220AA
:101BA000606114216FF04E00C4E90A1051202063D7
:101BB0006FF0AE006063AF20C4F8380000F05CFF47
:101BC0004FEAE07100EB51504FEAE0204FEAE0713C
:101BD00000EB917121F00301401A606001D5404291
:101BE0006060B0B101281DD0022828D00328E5D1BB
:101BF00004212846FEF794FE08212846FEF790FEB1
:101C000020213046FEF78CFE10213046FEF786FE7E
:101C1000D4E704212846FEF781FE08212846FEF776
:101C20007FFE07E004212846FEF77AFE08212846B9
:101C3000FEF774FE20213046FEF772FE0BE0042111
:101C40002846FEF76DFE08212846FEF769FE202192
:101C50003046FEF763FE10213046FEF761FEADE729
:101C60002DE9F0474FF4FA71C82000F094FE9FA0D0
:101C700003F0A6FB4FF47A7000F0C9FA02F068F99D
:101C800002F0C7F8642000F0C2FA94480024C8218A
:101C9000D0F80480642350253222994E9FED990A92
:101CA000994FDFF868C24FF07809B8F1000F0DD0F6
:101CB0004FF08C0ADFED960AB8F1010F15D0B8F19C
:101CC000020F23D0B8F1030F41D12EE0846200F15E
:101CD0001C08C3608161A8E82202C0E904323260B6
:101CE00087ED000A8CED000A0DE0846200F11C080B
:101CF000C3608161A8E82204C0E904323260C7ED04
:101D0000000ACCED000A02F095FA20E0846200F1AE
:101D10001C08C3608161A8E82202C0E90432326075
:101D200087ED000A8CED000A0DE0846200F11C08CA
:101D3000C3608161A8E82204C0E904323260C7EDC3
:101D4000000ACCED000A02F075FA02F01DFEBDE8B3
:101D5000F04770A003F034BB2DE9F05F4FF4FA7B3D
:101D60005946C82000F017FE70A003F029FB4FF47D
:101D70007A7000F04CFA5948002250248C25322108
:101D80005F4F4FF0640C4FF4487328269FED600AB4
:101D9000D0F80480DFF87091DFF870A1B8F1000F7F
:101DA00009D0B8F1010F0BD0B8F1020F22D0B8F171
:101DB000030F16D123E0C0F80CC04FF0C80C03E0AD
:101DC000C0F80CC04FF4C87C0161C0E9051C00BF1D
:101DD000C0E90952C0E907343E6089ED000A8AED86
:101DE000000A01F072FA02F0CFFDBDE8F05F54A0E6
:101DF00003F0E6BAC0E903C1C0E9051BE8E7C0F893
:101E00000CC04FF4167CDFE72DE9F0474FF4FA7170
:101E1000C82000F0C0FD50A003F0D2FA4FF47A7051
:101E200000F0F5F92D4800225023D0F804808C24CE
:101E300032212825324E9FED360A334FDFF8CC9001
:101E40004FF0640C4FF4487AB8F1000F09D0B8F1A4
:101E5000010F12D0B8F1020F0FD0B8F1030F15D156
:101E60001DE0C0F80CC04FF42F7C0161C0E9051CD7
:101E7000C0E90942C0E907A303E0C0F80CC0D4469A
:101E800011E0356087ED000A89ED000A01F01DFAC6
:101E900002F07AFDBDE8F04734A003F091BAC0F833
:101EA0000CC04FF4966C0161C0E9051CC0E9094201
:101EB000C0E907C3E5E770B54FF47A61C82000F0C8
:101EC0006AFD4FF47A7000F0A2F92EA003F078FAC0
:101ED0000248314A4068A2F510735FE034000020E8
:101EE000000C024000080240000002404275747479
:101EF0006F6E203020707265737365640A0D000088
:101F00006C01002000004842280100202C01002024
:101F10000000704246696E6973686564204275749A
:101F2000746F6E2030204953520A0D00427574744C
:101F30006F6E203120707265737365640A0D000046
:101F400046696E697368656420427574746F6E20AB
:101F500031204953520A0D00427574746F6E20325D
:101F600020707265737365640A0D000046696E69BE
:101F70007368656420427574746F6E203220495313
:101F8000520A0D00427574746F6E203320707265B2
:101F9000737365640A0D0000C803002010B10128A6
:101FA00015D119E0002101EB410502EB05140020D9
:101FB00003EB051554F8206045F82060401C0C2800
:101FC000F8DB491C0C29EEDB032000F0C3FCBDE864
:101FD000704023A003F0F4B9002101EB410503EBAD
:101FE0000514002002EB051554F8206045F8206028
:101FF000401C0C28F8DB491C0C29EEDBE4E7F0B5AB
:102000001D4C89B004220721204600F0ADFD074693
:1020100004220921204600F0A7FD064604220821DB
:10202000204600F0A1FD054600F022FD044600F028
:1020300023FD124904AA0968E2C2124A1049126833
:102040000968CDE900201048CDE9024103680F4836
:1020500002680F4801680F4803F0B2F909B0F0BDFB
:1020600046696E697368656420427574746F6E208A
:1020700033204953520A0D0000200140DC000020AB
:10208000C4000020CC000020D4000020D00000209C
:10209000C80000201C6600087047FEE7FEE7FEE768
:1020A000FEE770477047704737480168491C016078
:1020B00036490868002802DA354B00221A60401EB3
:1020C0000860FFF70BBD10B52020FEF73BFB4FF477
:1020D000967470B10A2000F09AF82020FEF732FBC7
:1020E00020B1204600F093F8FFF7BAFD2020FEF75C
:1020F00037FB4020FEF726FB002811D00A2000F015
:1021000086F84020FEF71EFB002809D0204600F08C
:102110007EF8FFF7D0FEBDE810404020FEF720BB60
:1021200010BD70B54FF480442046FEF70BFB4FF412
:10213000967570B10A2000F06AF82046FEF702FB9F
:1021400038B1284600F063F8FFF706FE2046FEF798
:1021500007FB4FF400442046FEF7F4FA002811D0A4
:102160000A2000F054F82046FEF7ECFA002809D0C7
:10217000284600F04CF8FFF747FE2046BDE87040C7
:10218000FEF7EEBA70BD0000A4000020B8000020E9
:102190003404004070B503F0A1F803F0C4F83348EC
:1021A0004FF47A710068B0FBF1F0401EB0F1807F0F
:1021B00016D24FF0E024606166170F21304600F020
:1021C00049F80025A561072020614FF44070FEF713
:1021D0005FF80021304600F03DF82548456070BDAD
:1021E000FEE74FF0E0208069A821B0FBF1F1204824
:1021F000426802EB4203C3EBC212C1EBC20101F51C
:102200007A71016000687047194840687047184A41
:10221000516853685B1A8342FBD1704730B505465D
:10222000FFF7DFFF4FEA0004FFF7DBFF001BA842C8
:10223000FAD130BD30B50C464FEA0005FFF7D1FFAB
:10224000001BA842FAD330BD094A53685B1A834287
:10225000FBD370470907090E002803DA00F00F00CE
:10226000044A00E0044A81547047000074010020D1
:10227000A000002014ED00E000E400E07CB50121A6
:102280000846FEF79CFC01210420FEF798FC012182
:102290000820FEF794FC3020009001208DF8040007
:1022A00000208DF8060003218DF805108DF8070039
:1022B00069461748FEF7BCFA0C20164D0090694697
:1022C0002846FEF7B5FA0420134E022400908DF83C
:1022D000074069463046FEF7ABFA4FF4E0500090F5
:1022E0008DF8074069462846FEF7A2FA04213046D9
:1022F000FEF716FBE1022846FEF712FBA102284674
:10230000FEF70EFB61022846FEF70AFB7CBD0000CB
:102310000000024000080240000C02402DE9F04796
:1023200001218F0386B03846FEF771FC012106209B
:10233000FEF745FC0024DFF830A18DF81040202581
:102340008DF8134003A950460395FEF771FA052155
:102350000120FEF70CFD00958DF8044008268DF84D
:10236000056001258DF806506846FEF79BF94FF091
:1023700017098DF808908DF809508DF80A408DF8EE
:102380000B5002A8FDF789FF8DF810408DF813401F
:1023900003A950460397FEF74BFA0E210120FEF7E2
:1023A000E6FC8DF804408DF8056000978DF8065026
:1023B0006846FEF777F928278DF808708DF80950E0
:1023C0008DF80A408DF80B5002A8FDF766FF8DF8D6
:1023D00010404FF400488DF8134003A95046CDF843
:1023E0000C80FEF725FA0F210120FEF7C0FC8DF8C6
:1023F00004408DF80560CDF800808DF806506846E1
:10240000FEF750F98DF808708DF809508DF80A40E4
:102410008DF80B5002A8FDF740FF8DF810404027C3
:102420008DF8134003A911480397FEF701FA06211E
:102430000220FEF79CFC8DF804408DF805600097A3
:102440008DF806506846FEF72DF98DF808908DF846
:1024500009508DF80A408DF80B5002A8FDF71DFFBA
:1024600006B0BDE8F087000000040240000802400A
:1024700070B5054688B001210220FEF7A0FB0121BE
:102480001020FEF7C4FB6D4E072209213046FEF7EF
:1024900054FA07220A213046FEF74FFA00248DF83D
:1024A000164001208DF8170002208DF814004FF41B
:1024B000C06104918DF8150004A93046FEF7B8F903
:1024C0005F4E01213046FFF728FAADF808400C2096
:1024D000ADF80A00ADF80440ADF80640ADF818407C
:1024E0003015ADF81A00ADF81E400095ADF80C405F
:1024F000ADF81C4069463046FFF787F906A930461B
:10250000FFF7E5F901213046FFF7F5F908B070BD96
:102510000020704770B54A4D0446C1B22846FFF707
:1025200010FA80212846FFF79DFA0028F9D02046AE
:1025300070BD434801888906FCD58088C0F3080037
:10254000704770B53E4D044680212846FFF78AFA51
:102550000028F9D0A1B22846FFF7F3F9204670BD54
:1025600010B538A002F02CFF354C20212046FFF793
:1025700079FA0028F9D02046FFF7E7F9C0B210BD7C
:1025800010B539A002F01CFF2D4C20212046FFF78A
:1025900069FA0028F9D02046FFF7D7F901463AA09A
:1025A00002F00EFF2046FFF7D0F9C0B210BD10B503
:1025B00037A002F005FF224C20212046FFF752FAF7
:1025C0000028F9D02046FFF7C0F9A0F1300137A06C
:1025D00002F0F6FE2046FFF7B8F9303810BD10B50E
:1025E0000446014686B033A001E0214638A002F03F
:1025F000E7FE694641A003F005F8694640A002F0F5
:10260000DFFE2146684603F049F90028EDD106B007
:1026100010BD38B5044601463BA001E0214641A06B
:1026200002F0CEFE69464AA002F0ECFF1FA000991E
:1026300002F0C6FE0098A042F0D138BD0000024072
:10264000001001400D0A707265737320616E79206D
:102650006B657920746F20636F6E74696E75652E7B
:102660002E2E0D0A0D0A0000706C656173652065E1
:102670006E74657220612063686172616374657253
:102680002E2E2E0D0A00000025630D0A000000000A
:10269000706C6561736520656E746572206120647D
:1026A000696769742E2E2E0D0A00000025640D0A3C
:1026B00000000000507265737320257320746F2032
:1026C000436F6E74696E75652E2E2E203A000000E1
:1026D000496E76616C696420696E7075742C207027
:1026E0007265737320257320746F20436F6E746955
:1026F0006E75652E2E2E203A000000002573000016
:1027000025730D0A00000000507265737320256464
:1027100020746F20436F6E74696E75652E2E2E20A7
:102720003A000000496E76616C696420696E7075CC
:10273000742C20707265737320256420746F20439D
:102740006F6E74696E75652E2E2E203A00000000A3
:10275000256400001CB501210420FEF74EFA4FF459
:102760007070009002208DF8040003208DF80500A1
:1027700000208DF80600504C8DF807006946204671
:10278000FEF756F8022206212046FEF7D6F802226E
:1027900007212046FEF7D1F8022208212046FEF745
:1027A000CCF8022209212046FEF7C7F81CBDF0B57F
:1027B00089B040F2E73006900320ADF814000026FF
:1027C0003E4FADF81C60ADF8166005A93846FEF71F
:1027D00083FB60203A4DADF800000124ADF80240C3
:1027E00028880290ADF80C6069463846FEF7F6FB83
:1027F00008213846FEF733FDADF8024068880290A4
:1028000069463846FEF716FC08213846FEF72DFDCE
:10281000ADF80240A888029069463846FEF746FCAB
:1028200008213846FEF72BFDADF80240E8880290FB
:1028300069463846FEF774FC08213846FEF725FD48
:1028400001213846FEF7A6FB01213846FEF7BCFB06
:1028500009B0F0BD10B5FFF77DFFBDE81040A6E759
:1028600018490968884200DD08464942884200DA72
:102870000846124A00213C32131D002802DB10607A
:102880001960704711604042186070470D4909682F
:10289000884200DD08464942884200DA0846074A75
:1028A00000213432131D002802DB116018607047CC
:1028B0004042106019607047000402400008004068
:1028C000B00000203C00002030B58BB00121022078
:1028D000FEF793F94020059002208DF8180003219F
:1028E0008DF8191000248DF81A40354D8DF81B0015
:1028F00005A92846FDF79CFF022206212846FEF77F
:102900001CF8952008908B20ADF81C002D4DADF8DB
:102910002440ADF81E4007A92846FEF7DDFA6020E6
:10292000ADF800000120ADF802000294ADF80C40B3
:1029300069462846FEF752FB08212846FEF78FFC21
:1029400001212846FEF726FB01212846FEF73CFB25
:102950000BB030BD2DE9F04105461B498C20684382
:102960000860184F95202C3738600024154EA0467B
:1029700034360CE03868401CC00830604620FFF751
:1029800046FCC6F800804620FFF741FC641CAC42C0
:10299000F0DBBDE8F0810B4A10B52C321368094C0E
:1029A0005B1C9B0834342360084B93FBF1F18C23B0
:1029B00091FBF3F1491E11600349086010BD00004E
:1029C0000000024000040040B800002000BD0105E6
:1029D0007CB501210920FEF710F902208DF80400D2
:1029E00001208DF8070048F203002E4C0090694644
:1029F0002046FDF71DFF08202B4D00906946284614
:102A0000FDF716FF022200212046FDF796FF022265
:102A100001212046FDF791FF01220F212046FDF7FD
:102A20008CFF012203212846FDF787FF1F4C4FF042
:102A3000FF3529462046FEF793FA29464FF0804598
:102A40002846FEF78DFA0223002203212046FEF7D6
:102A500065FE00231A4603212846FEF75FFE01218A
:102A60002046FEF7B1FA01212846FEF7ADFA7CBDFB
:102A70000E482430006870474FF08040406A70472D
:102A80000A4900202431086070474FF0804100203F
:102A90004862704705492431086070474FF0804113
:102AA000486270470000024000040240000C0040F1
:102AB00030B501218DB00802FEF7A9F88820032562
:102AC00000908DF8045000248DF807406946304886
:102AD000FDF7AEFE8DF8045000958DF8074069466D
:102AE0002C48FDF7A5FE8DF8045033202A4D0090A8
:102AF0008DF8074069462846FDF79AFE4FF480306E
:102B0000CDE908404FF47060CDE90A4008A8FDF710
:102B10004EFC8DF80C4002948DF80D4005940694FF
:102B200001201E4C8DF81C0002A92046FDF714FC64
:102B3000012240F205212046FDF774FD01212046C7
:102B4000FDF74AFC04211648FDF7EAFEA1142846C9
:102B5000FDF7E6FEE1142846FDF7E2FE21152846C2
:102B6000FDF7DEFE0DB030BD10B513460446012260
:102B7000FDF765FC2046FDF79CFC02212046FDF791
:102B80005AFD0028F9D02046BDE81040FDF7C3BC2F
:102B90000000024000040240000802400020014002
:102BA000000C02402DE9F0477C4D04220A21284602
:102BB000FFF7DAFF7A4C04220E21E0602846FFF787
:102BC000D3FF206104220B212846FFF7CDFF60616F
:102BD00004220F212846FFF7C7FFA061FFF701FB82
:102BE000704F824604213846FDF798FE6E4E4FF432
:102BF000806841463046FDF791FE51463C20FFF784
:102C000019FB04220A212846FFF7AEFFE1680422DF
:102C1000401AE0600E212846FFF7A6FF2169401AFE
:102C2000206104213846FDF77BFE41463046FDF722
:102C300077FEE0680027002800DAE76020690028B6
:102C400000DA27615146FA20FFF7F4FA4FF4805971
:102C500049463046FDF762FE4FF400684146304673
:102C6000FDF75CFE51464FF4AA70FFF7E3FA042229
:102C70000B212846FFF778FF61690422401A606142
:102C80000F212846FFF770FFA169401AA06149464D
:102C90003046FDF745FE41463046FDF741FE60698E
:102CA000002800DA6761A069002800DAA761E268FD
:102CB00021684FF47A704A4392FBF0F2E260226995
:102CC0004A4392FBF0F2226162694A4392FBF0F2BE
:102CD0006261A2694A4392FBF0F0A061BDE8F0870F
:102CE0002DE9F04128262E4C00202C4F0546E061AE
:102CF000042208213846FFF737FFE1696D1C0844BC
:102D0000E061B542F4DB4CF2503191FBF6F0E26940
:102D10005043264A104490FBF1F0C11700EB51706C
:102D2000C010E061216A08442062BDE8F08110B55E
:102D3000042203211948FFF717FF194C606003F0C4
:102D4000DCFA9FED1B1B53EC112B03F04FF903F042
:102D5000A5FAA06010BD10B5FFF7E9FF104841F6D5
:102D600058318068884218DA0F4C04212046FDF75C
:102D7000D5FD08212046FDF7D1FD0F4C202120462E
:102D8000FDF7CCFD10212046FDF7C8FDBDE8104041
:102D90004FF47A71C820FFF7FEBD10BD002001403E
:102DA000BC000020000C024000080240805274FA6F
:102DB000AC1C5A643BDFD33F00000240FF4FDFF8FA
:102DC00000840D4606464FF47A7900BFFFF709FAF2
:102DD0000446FFF7E7FE3868301AFFF741FDD8F8E0
:102DE0000000281AFFF752FD21464846FFF722FA55
:102DF000ECE710B5F148F349F34C006809688842E4
:102E00004FF00801204602DDFDF788FD01E0FDF7E7
:102E100087FDEE48EE490068096888424FF00401DA
:102E2000204602DDFDF77AFD01E0FDF779FDE94876
:102E3000E949EA4C0068096888424FF010012046D1
:102E400002DDFDF76BFD01E0FDF76AFDDC48E449BA
:102E50000068096888424FF02001204603DDBDE884
:102E60001040FDF75BBDBDE81040FDF759BD70B5E2
:102E70000D460446FFF709FEFFF702FE2046FFF766
:102E8000EFFC2046FFF702FD2846FFF7C0F90020BF
:102E9000FFF7E6FC0020FFF7F9FC6420FFF7B7F925
:102EA000FFF7E6FD0446FFF7E7FD201A70BD0EB5FB
:102EB0000020CC49CC4A8246087001211170CB49D0
:102EC00007468346087080460546009004460190F8
:102ED000C7484FF001090168C6480160C648C74AA3
:102EE0000068126809FB00F18E1ABAF1000F40D198
:102EF00086423EDCC2494FF0010AC24A81F800A076
:102F000000211170C04981F800A02DB9022C03D016
:102F1000032C01D0042C26D1BC4890ED000AB8EE59
:102F2000C00A00F0CBFDBDEEC00A10EE100A00B2E0
:102F30000290B74890ED000A00F0C0FDBDEEC00A57
:102F4000029A10EE100A01B2304600F045FD00EE84
:102F5000100AB048B8EEC00AD0ED000AB4EEE00A9C
:102F6000F1EE10FA01D2A24800E0A8480168A14899
:102F7000016057B9A048006800EB4000C11700EBA2
:102F80009170B6EBA00F00DC012737EA080002D0F1
:102F90009B4901200870BBF1000F38D196480068AA
:102FA00000EBD070B6EB600F31DC844885494FF000
:102FB000010B00680968884205DC8148884900687F
:102FC0000968884200DD0125804881490068096858
:102FD000884201DD012000907E487F490068096831
:102FE000884201DD01200190FFF70EF900F0030493
:102FF000641C012C0FD0022C10D0032C10D0042CF8
:10300000F2D1009905EA010001990842ECD0B8F12B
:10301000000F09D012E0002DE6D1F8E7009800E09B
:1030200001980028E0D1F2E773480068C11700EB6F
:103030009170B6EBA00F05DC4FF0010815B1704898
:1030400000210170002E0ADD5C4801684FF4FA602F
:10305000814204DC5A49096881427FF73FAF09F198
:1030600001094FF47A71C820FFF795FC3DB16A4819
:1030700002686A4801686A48006800F01DFB022C7B
:1030800004D0032C04D0042C04D00AE0654802E0EC
:10309000654800E0654890ED000AB8EEC00A00F00F
:1030A00071FA4FF0000A5746D346D0465546CDF840
:1030B00000A0CDF804A011E72DE9F05F5C495D4860
:1030C000DFF874A10A684FF0FC0902EB420300EB41
:1030D000031CDAF800004F464E465CF820404D468F
:1030E0000CEB800C0B2A01DADCF830900B2801DAAB
:1030F000DCF80470002801DD5CF8306C002A01DD8A
:103100005CF8045CDFF834A18B460AEB031151F83C
:10311000200000F0B7FDDFF8288140B9611E894525
:1031200005D14E2188F800100520BDE8F09FDBF89E
:103130000000DFF804A100EB40014048D94600EB55
:103140000111DAF8000051F8200000F09EFD38B9B6
:10315000601E874204D1452188F800100620E4E76C
:10316000CB46D9F80000DFF8D49000EB400109EB22
:103170000110DAF80010574650F8210000F088FDE1
:1031800038B9601E864204D1532188F80010072008
:10319000CBE7DBF8000000EB400109EB01103968D8
:1031A00050F8210000F077FD30B9641EA5424BD1E4
:1031B000572188F8001045E046E00000C8000020D4
:1031C000CC0000207800002000080240D000002041
:1031D00080000020D4000020840000200000024075
:1031E0007C000020360000207300002074000020C6
:1031F00058000020E80000202C0000206001002082
:103200003400002070000020350000205C00002009
:10321000E00000202C010020440000209400002049
:103220009000002060000020640000206800002062
:10323000140000200806002010000020C803002011
:1032400024000020082070E700206EE72DE9F041FF
:10325000BC4F002606EB4600002407EB001500BF1C
:1032600055F8240000F01AFD38BB55F824000B2E49
:1032700040F00F0045F8240005DA05EB8400016BEF
:1032800041F004010163002E06DD05EB840050F8D7
:10329000301D41F0010101600B2C05DA05EB8400C3
:1032A000416841F008014160002C06DD05EB840017
:1032B00050F8041D41F002010160641C0C2CCFDBAE
:1032C000761C0C2EC6DBBDE8F0812DE9F04FDFF84F
:1032D00078B2E5B001248BF8004000F0A4FB9B48D5
:1032E0004FF4C87104709A480470684602F0AFFA4F
:1032F000984D00249849994E2C604FF04E0A0C606E
:10330000A04686F800A0FFF7A1FF00F09DFE00F0A8
:1033100080FD0027B14699E099F800004E280AD0B8
:1033200045282AD0532849D0572869D085E0641C05
:10333000401C306001E0884E306800EB400181485D
:1033400000EB0110296850F8210000F09BFC0028D8
:1033500073D13068824900EB400201EB02112A6808
:1033600001EB820351F822101B6B491E8B42DED009
:1033700063E0641C401C286000E0774E306800EB7E
:103380004001704800EB0110296850F8210000F05E
:103390007CFC80BB306800EB4001714800EB011100
:1033A000286801EB800251F820105268491E8A42B9
:1033B000DFD042E0641C401E306001E0664E3068A1
:1033C00000EB40015F4800EB0110296850F8210034
:1033D00000F05EFC78B93068614900EB400201EB17
:1033E00002112A6801EB820351F8221053F8303C95
:1033F000491E8B42DED020E0641C401E286000E0A5
:10340000554E5049306800EB400001EB0010296830
:1034100050F8210000F03FFC78B9306800EB400123
:103420004F4800EB0111286801EB800251F8201091
:1034300052F8042C491E8A42DED04A4840F8274000
:10344000FFF73AFE4DF8270000247F1C00F02CFC0B
:1034500000283FF461AF89F800A00024414D2EE020
:1034600000F03AFBFFF79EFB3F48404900680968BF
:1034700088420DDD3E483F4900680968884207DD03
:103480003D4802683D4801683D48006800F014F975
:103490005DF82400052806D0062807D0072808D0A4
:1034A000082809D00AE000F06FFB07E000F086FB77
:1034B00004E000F09DFB01E000F0B2FB641C55F855
:1034C00024000028CCD12248444680F80080002007
:1034D000FFF7C6F90020FFF7D9F90320FFF73AFA02
:1034E0008BF8004065B0BDE8F08F70B51A481549FB
:1034F0001A4C006800EB400001EB00101549096808
:1035000050F8215020784E2803D1284600F0BAFB0D
:10351000A0B92078452803D1284600F0B6FB68B949
:103520002078532803D1284600F0B2FB30B9207828
:10353000572805D1284600F0AEFB08B1012070BD28
:10354000002070BDC803002074000020340000205B
:10355000350000201000002014000020240000206E
:103560000806002048080020C8000020980000201D
:10357000CC0000209C00002044000020940000208B
:10358000900000202DE9F05F3E4800252DED088BCE
:103590004FF0010AB0EE40BA0570DFF8ECB03B48DE
:1035A0008BF800A00560FEF72FFE394C064600BFE1
:1035B000FEF72AFE2168801B8842F9D33548364938
:1035C0008046076889469FED359B9FED36AB0E68B8
:1035D0000CE000BFB5EEC0BA3448F1EE10FA01D2EB
:1035E000016801E00068414231480160D8F80000FC
:1035F000C01B00EE100AB8EEC00A00F065FAD9F858
:103600000000B0EE408A801B00EE100AB8EEC00A3F
:1036100000F05AFA78EE00BAB0EE4B0A00F054FA15
:1036200010EE100A02F07EFF41EC180B21480068F2
:1036300002F078FF53EC192B02F076FE53EC182BB6
:1036400002F072FE53EC1A2B02F0D0FC02F09CFC4C
:1036500000EE100A00F032FAF4EEC0BAF1EE10FA01
:10366000B8D313480560FEF7CFFD0546FEF7CCFD45
:103670002168401B8842F9D38BF800A0BDEC088B71
:10368000BDE8F09F3400002035000020E800002055
:103690004800002040010020440100201F85EB511C
:1036A000B81E094000000000008066405400002061
:1036B000EC000020280000202DE9F74FDFF87C9077
:1036C0001F490120D9F800600968C9F800101D4998
:1036D000174608701C4900200870FEF795FD054646
:1036E000DFF868A0DFF868B04FF47A7815E000BF23
:1036F000FEF777FD04460098DAF80010401AFFF74D
:10370000AFF80198DBF80010401AFFF7BFF800BFD0
:10371000FEF767FD001B4045FAD3FEF775FD401B21
:10372000B842E5D30B480068FFF7B8F90A480068CB
:10373000FFF7B0F9C9F80060BDE8FE8F3C0000203B
:10374000400000203400002035000020C800002088
:10375000CC000020400100204401002030B5FB488F
:10376000FE49FC4B0268FA4809680468FA48A2421C
:10377000006803DD884201DD851A9D60A24201DDFB
:10378000A01A04E0884201DD401A00E000209860A1
:1037900030BD70B5EF4CEF4D803CD4E91C010A18E8
:1037A000091AC4E90421EE482B69006890FBF3F084
:1037B000EC4B1B782BB9EC4B1B780BB1084600E0A7
:1037C000084400EE102AD4ED000AB8EEC00A30EE2C
:1037D000C00AD4ED080A30EE200A84ED080A00EE93
:1037E000100AD4ED010AE148B8EEC00A30EEC00A72
:1037F000D4ED090A30EE200A84ED090A007878B188
:10380000FFF7ACFFD5E9020190FBF1F000EE100AE2
:10381000D4ED090AB8EEC00A30EE800A84ED090A38
:10382000D4ED080A94ED0E0A94ED0A1AD4ED0F1A9D
:1038300020EE200A30EEC11A04F1280301EE810ABD
:10384000BDEEC00A10EE101A216394ED091A94ED32
:10385000100AD4ED0B1A94ED112A20EE010A71EE34
:10386000611A02EE210ABDEEC00A10EE102A626350
:10387000881AC3EC020A1144C4E91601FEF7F0FFEE
:10388000E06DBDE87040FFF701B8B248B0EE001A35
:10389000803890ED020AD0ED000AB8EEC02ADFEDC4
:1038A000B41AF4EEC20AF1EE10FA11D290ED122A17
:1038B00022EE011A81EE212AB8EEC01A72EE200A19
:1038C000C0ED000AF4EEC10AF1EE10FA18DC1BE0BC
:1038D000B8EEC02AF4EEC20AF1EE10FA14DD90ED53
:1038E000132A22EE011A81EE212AB8EEC01A70EED8
:1038F000C20AC0ED000AF4EEC10AF1EE10FA03D2DA
:10390000B8EEC00A80ED000A90ED030AD0ED010A7E
:10391000B8EEC01AF4EEC10AF1EE10FA11D290ED31
:10392000141A70EE810AB8EEC01AC0ED010AF4EE66
:10393000C10AF1EE10FA03DDB8EEC00A80ED010A0B
:103940007047B8EEC01AF4EEC10AF1EE10FAF7DDD6
:1039500090ED151A70EEC10AB8EEC01AC0ED010A5A
:10396000F4EEC10AF1EE10FAE6D3704770B5FFF736
:1039700083F8784C803C2066FFF77AF8226EA16EBF
:10398000511A2167E36EC4E91A20C31ACD1805EB5A
:10399000D5756D10C4E91D3511441844C4E91810DB
:1039A00008446C4900EBD07040100860E06F401B89
:1039B000E06770BD10B5FFF7D9FFFFF766FFBDE800
:1039C0001040E6E600EE100A6A48F8EEC00A90EDF4
:1039D000001A80EE810A704700B5002901DA4942D9
:1039E00009B2002A01DA524212B2002801DC4FF07B
:1039F0000100FFF7E7FF11FB01F002FB1200642159
:103A0000484300EE900AB8EEE01AC1EE000AB5EEA7
:103A1000000A20EE800ABDEEC00A10EE100A00284F
:103A200000DA404200BD10B55048002404705248EE
:103A300004702046FEF714FF0020FEF727FF9FEDDD
:103A40004F0A44484349803880ED060A80ED070A52
:103A500080ED000A80ED010A8460C46080ED080AF0
:103A600080ED090A80ED0A0A80ED0B0A8466C466BF
:103A7000046644660C604C608465C465C467FFF7E7
:103A800004F8BDE81040FEF7FBBFB5EEC00AF1EE4A
:103A900010FA01D8B7EE000A60EEA00A41EE410A22
:103AA00080EE801AB4EE000A21EE000AB5EEC00ADC
:103AB000F1EE10FA01D2B1EE400A70472D48D0ED78
:103AC000000A20EE200A7047B5EEC00AF1EE10FAA7
:103AD00001D2B1EE400A70472DE9F0410546FFF7EB
:103AE000A2FF224F24490120387008701949002292
:103AF000234B8039174EDFED211ADFF888801AE05A
:103B0000201A0CEBDC74B0EB640F00DA3A70FFF7AC
:103B100059FFB0EE611AD1ED000AFFF7B6FFD1ED03
:103B2000130AB4EEE00AF1EE10FA03D2D8F800005E
:103B3000886000E08A60D3F800C0306805FB0CF4B0
:103B40008442DDDC8A60BDE8F0810000D000002006
:103B50008800002060010020D40000208C0000209C
:103B6000D8000020710000207200002034000020E6
:103B70000000C84230000020350000200000000096
:103B80002C0000204C00002010B53A4C20784E2824
:103B900011D0572804D0452804D0532804D00AE077
:103BA000354802E0354800E0354890ED000AB8EEAF
:103BB000C00AFFF7E7FC4E20207010BD10B52D4C59
:103BC00020784E2806D0572806D045280DD05328F7
:103BD00004D00AE0284802E0294800E0274890ED98
:103BE000000AB8EEC00AFFF7CDFC4520207010BDDA
:103BF00010B5204C20784E2804D0572804D04528F2
:103C000004D00AE01E4802E01C4800E01A4890ED8B
:103C1000000AB8EEC00AFFF7B5FC5320207010BDB3
:103C200010B5144C20784E2806D057280FD04528C0
:103C300004D0532804D00AE0104802E0104800E005
:103C40000D4890ED000AB8EEC00AFFF79BFC572024
:103C5000207010BD074800784E2806D0452805D0B2
:103C6000532804D0572803D1A8E7C1E7D8E78BE74A
:103C70007047000024000020640000206000002045
:103C80006800002000F001007047C0F3400070475A
:103C9000C0F380007047C0F3C0007047C0F300104D
:103CA0007047C0F34010704749480168052901D0AA
:103CB000062906D1474802684748052A03D0062A44
:103CC00003D000207047052911D0D430036B43F096
:103CD0000C030363036843F001030360C36A43F00A
:103CE0000203C362D438062A01D1052913D000F596
:103CF0009870062A436843F009034360436B43F01E
:103D000004034363036843F002030360A0F5987063
:103D100001D1062913D000F59C70052A036843F0F1
:103D200003030360036B43F004030363436843F03E
:103D300008034360A0F59C7001D106290CD0D8304F
:103D4000016B41F004010163016841F00101016070
:103D5000416B41F008014163012070471C481D4937
:103D600000680968084301D00020704701207047AF
:103D7000194A01EB410110B502EB011252F8202063
:103D80006FEA0204154AE30702EB011101EB80011F
:103D900004D0086BA20703D4FC2302E0FC20F9E75F
:103DA0004B68620701D4FC2201E051F8302C240753
:103DB00001D4FC2101E051F8041C834200DA1846CA
:103DC000824200DA1046814200DA084610BD000047
:103DD0001000002014000020C80300200806002066
:103DE0002DE9F041474F0B2505EB4500002407EB7B
:103DF000001600BF56F8241043A001F0E1FA641C3D
:103E00000C2CF7DB41A001F0DBFA6D1EECD5BDE810
:103E1000F0812DE9F05FDFF8F8B0DFF8E890DFF827
:103E2000F4A00B2505EB4507002409EB071600BF9E
:103E300056F82400FFF726FF08B137A000E038A0AD
:103E400001F0BEFA641C0C2CF2DB37A001F0B8FACA
:103E50002EA001F0B5FADFF8D480002456F8240033
:103E6000FFF719FF08B132A000E032A001F0A8FA74
:103E7000D8F80000854216D12F480068844212D13C
:103E80009BF800004E2806D0452806D0532806D0BF
:103E9000572806D01BE029A00BE029A009E029A0A3
:103EA00007E029A005E056F82400FFF7FAFE18B154
:103EB00026A001F085FA0AE056F82400FFF7EEFE8E
:103EC0000AEB071050F824100FA001F079FA641CD7
:103ED0000C2CC3DB16A001F073FA0CA001F070FAF1
:103EE0006D1E9FD500240CA001F06AFA641C0C2CF6
:103EF000F9DB0DA001F064FABDE8F05F03A001F06A
:103F00005FBA0000C8030020253364000A0D0000DA
:103F100024000020080600202B2D2D2D000000007D
:103F20002B202020000000002B00000014000020A7
:103F30007C0000002000000010000020205E200017
:103F4000203E200020762000203C20002078200009
:103F500030B52D48016841F00E010160416841F023
:103F60000C0141605FF0000100EB8102491CD2F8B6
:103F700010320C2943F00103C2F81032F4DB0021A7
:103F800001EB410200EB0212491CD36A0C2943F0F9
:103F90000203D362F4DB002150F8212042F0040236
:103FA00040F82120491C0C29F6DB002101EB4102DD
:103FB00000EB0212491C13680C2943F0080313603C
:103FC000F4DB0A21114C002202EB4203002004EB37
:103FD000031300BF43F82010052801DA491E03E04F
:103FE000851F052D00D2491C401C0C28F2DB052A38
:103FF00001DA491E03E0901F052800D2491C521C1B
:104000000C2AE1DB30BD0000C803002008060020B8
:10401000F9480178F9484E29006806D0452907D0AB
:10402000532908D0572909D00AE005280AD007E00B
:10403000062807D004E0072804D001E0082801D0B2
:1040400001207047002070472DE9F041902600259F
:10405000EB4F02E000252C4608E00024052D01D09E
:10406000062D03D1052C18D0062C14D02946204645
:10407000FFF77EFE05EB450107EB0111401C41F8FF
:104080002400641C0C2CE9DB6D1C0C2DE5DB761E7A
:10409000E0D5BDE8F0810724E0E70624DEE7F0B5CF
:1040A000D548D84AD8490778D8481678D84A0478E5
:1040B000D9480D781368D74903EB4302006801EB38
:1040C000021202EB80014E2F32D0452F5BD0532FCE
:1040D0007ED0572F2BD16EB152F82060002846F0C9
:1040E000080642F8206005DD51F8046C46F002062F
:1040F00041F8046C6DB152F82050002B45F00405D6
:1041000042F8205005DD51F8305C45F0010541F8DA
:10411000305C002C0BD052F820400B2B44F00104F3
:1041200042F8204003DA086B40F004000863F0BD59
:104130005EB152F820600B2B46F0010642F8206079
:1041400003DA0B6B43F004030B636DB152F82030BC
:10415000002843F0080342F8203005DD51F8043C04
:1041600043F0020341F8043C002CE0D052F8203028
:104170000B2843F0020342F82030D8DA486840F0B8
:1041800008004860F0BD5EB152F820600B2846F090
:10419000020642F8206003DA4E6846F008064E60D8
:1041A0005DB152F820500B2B45F0010542F820502C
:1041B00003DA0D6B45F004050D63002CE2D052F8D4
:1041C0002040002B44F0040442F82040DADD00E0F7
:1041D00004E051F8300D40F0010029E06EB152F8D2
:1041E0002060002B46F0040642F8206005DD51F8FF
:1041F000303C43F0010341F8303C5DB152F82030CF
:104200000B2843F0020342F8203003DA4B6843F0F6
:1042100008034B60002CB5D052F82030002843F042
:10422000080342F82030ADDD51F8040D40F00200E3
:104230000860F0BD2DE9FE4F784901200870FFF7B6
:10424000F2FB0024DFF8D0A1DFF8C4B16A49CAF854
:1042500000404E20CBF8004008706E4801252746EC
:10426000A0462646A1460068FFF718FD90B9DBF886
:10427000000000EB4001674800EB0111DAF8000094
:1042800051F8202042F0100241F8202064480168D3
:10429000491C01606348016863480160CAE26348E1
:1042A00063490068096805FB00F2541A57BB844251
:1042B00040DC604901270F705F490F70DBF8000098
:1042C00000EB40024E4800EB0212DAF8000052F810
:1042D0002000FC280CDB4948002202600A701046CE
:1042E000FEF7BEFA0020FEF7D1FA0A20FEF732FBF5
:1042F000414800784E2806D045280AD053280ED0D1
:10430000572812D016E0DBF80010491CCBF800103B
:1043100010E0DAF80010491CCAF800100AE0DBF8D7
:104320000000401ECBF8000004E0DAF80000401E58
:10433000CAF80000B8F1000F1DD13C48006800EB3E
:104340004000C11700EB9170B4EBA00F13DC3B48A9
:104350003B494FF0010800680968884202DD2A499C
:10436000012008703748384900680968884202DD32
:10437000264901200870002E70D12C48006800EBFF
:10438000D070B4EB600F69DC304831490126006819
:104390000968884208DD2F482F490068096888426B
:1043A00002DD184901200870FFF779FEDBF80010E4
:1043B000DAF80000FFF7DCFC411CDBF8000000EB42
:1043C00040020F4800EB0212DAF8000042F8201019
:1043D000FFF73AFEDBF8000000EB40010D4800EB70
:1043E0000111DAF8000051F82000FFF74BFC10B182
:1043F0004FF4FA703FE032E024000020200000205B
:10440000080600201C0000201D0000201E000020C7
:1044100014000020C80300201000002073000020BA
:104420001800002058000020E80000202C00002088
:10443000600100203400002035000020D000002062
:1044400080000020D400002084000020C80000204C
:1044500078000020CC0000207C0000205AE1DBF82E
:10446000000000EB4001FE4800EB0111DAF800000B
:1044700001EB8000006B0290DBF8000000EB4001D4
:10448000F84800EB0111DAF8000051F82000FFF7BE
:10449000FCFB10B14FF4FA700BE0DBF8000000EB0E
:1044A0004001EF4800EB0111DAF8000001EB800059
:1044B00040680190DBF8000000EB4001E94800EBA8
:1044C0000111DAF8000051F82000FFF7E1FB10B10C
:1044D0004FF4FA700CE0DBF8000000EB4001E0481C
:1044E00000EB0111DAF8000001EB800050F8300C0D
:1044F0000090DBF8000000EB4001DA4800EB01110E
:10450000DAF8000051F82000FFF7C5FB10B14FF4B6
:10451000FA700CE0DBF8000000EB4001D04800EB43
:104520000111DAF8000001EB800050F8040CDDE91D
:104530000121914206DA009A914203DA814201DABE
:10454000052020E0DDE90112914206DA009A91424D
:1045500003DA814201DA062015E0DDE9001291421A
:1045600007DA0A4602998A4203DA824201DA072010
:1045700009E00199884209DA0099884206DA02992D
:10458000884203DA0820B8490860C3E0DBF800007D
:1045900000EB4001B34800EB0111DAF8000051F8DC
:1045A0002000FFF76FFB78B9DBF8000000EB40015B
:1045B000AC4800EB0111DAF8000001EB8000006B61
:1045C000FFF76CFB0028BBD0DBF8000000EB4001DC
:1045D000A44800EB0111DAF8000051F82000FFF7C1
:1045E00054FB78B9DBF8000000EB40019D4800EB7C
:1045F0000111DAF8000001EB80004068FFF74EFB84
:104600000028A8D0DBF8000000EB4001954800EB43
:104610000111DAF8000051F82000FFF739FB80B9EA
:10462000DBF8000000EB40018E4800EB0111DAF8E6
:10463000000001EB800050F8300CFFF72FFB002842
:1046400095D0DBF8000000EB4001864800EB01113B
:10465000DAF8000051F82000FFF71DFB80B9DBF805
:10466000000000EB40017F4800EB0111DAF8000088
:1046700001EB800050F8040CFFF710FB002881D0FC
:10468000DBF8000000EB4001764800EB0111DAF89E
:10469000000051F82000FFF7F5FA002893D0DBF86E
:1046A000000000EB40016F4800EB0111DAF8000058
:1046B00051F82000FFF7E9FA0028A2D0DBF800004B
:1046C00000EB4001674800EB0111DAF8000051F8F7
:1046D0002000FFF7DDFA0028B2D0DBF8000000EB85
:1046E0004001604800EB0111DAF8000051F82000A9
:1046F000FFF7D1FA0028C2D05B48002101605B4877
:1047000001700846FEF7ACF80020FEF7BFF80A205B
:10471000FEF720F95648006800EBD070B4EB600F4C
:1047200000DC01265348007810B9FFF771FCE0B1B6
:104730002046FFF747F95048D0ED000A4F48B8EE41
:10474000E01AD0ED000AFFF7A0F94D48D0ED000ABD
:10475000B4EEE00AF1EE10FA07D347484949B9F13F
:10476000000F0068086002D00BE04748F6E74048B9
:104770000068C11700EB9170B4EBA00F07DC4FF09D
:1047800001093C48007810B1404800210170002C1C
:1047900050DC6D1C4FF47A71C820FEF7FCF8DBF892
:1047A0000000304E00EB400006EB0011DAF800008C
:1047B000574651F82000FFF771FA80B9DBF8000086
:1047C0003A6800EB400006EB001050F8221041F070
:1047D000100140F822102E480168491C016025484C
:1047E000007838B12B4802682B4801682B480068D4
:1047F000FEF762FF1C480068052806D0062807D08F
:10480000072808D0082809D00AE0FFF7BDF907E01B
:10481000FFF7D4F904E0FFF7EBF901E0FFF700FA46
:1048200014490027B8460F701D493E46B9460F701F
:104830001C490F70FFF738FA00283FF430ADDFF85D
:104840004090DFF840800C4F0026002C4CDD0848DB
:10485000006800EBD071B4EB610F26DA0B4923E05E
:1048600008060020C803002020000020350000209A
:104870002C0000201C0000205C000020E000002034
:104880002C010020E8000020580000203400002007
:104890001800002044000020940000209000002018
:1048A0001D0000201E0000200E7005FB00F1FE48D8
:1048B00000680C1A2046FFF785F8D7ED000AFB4880
:1048C000B8EEE01AD0ED000AFFF7DFF8D9ED000AE4
:1048D000B4EEE00AF1EE10FA02D2F548016800E009
:1048E0003968C8F80010B0E7DBF80000F14D00EBC4
:1048F000400005EB0011DAF800005C46574651F81D
:104900002000FFF7CBF978B92068396800EB400048
:1049100005EB001050F8212042F0100240F8212051
:10492000E5480168491C0160E44806700020FDF775
:1049300097FF0020FDF7AAFFFFF76BFA0320FEF7B1
:1049400009F8DF480670BDE8FE8F2DE9F041DFF879
:1049500074839026002404EB4400002508EB001724
:1049600054EA050006D021462846FFF701FA401C0C
:1049700047F825006D1C0C2DF2DB641C0C2CEADBC7
:10498000761EE7D5BDE8F0812DE9FE4FCC49012028
:104990000870FFF748F801250024DFF82883274630
:1049A000A1462646A2462046002200EB40031146BF
:1049B00008EB031302EB000C43F821C0521C491C06
:1049C0000C29F7DB401C0C28EEDBFFF7BEFFFFF7DE
:1049D00041F9B748BC4900680860E5E2DFF8ECB28D
:1049E000B149DBF80000096805FB00F2541A47BB27
:1049F000844234DCB6490127B6480F70AF490F70C6
:104A0000006800EB4002B44808EB0212006852F85C
:104A10002000FC280BDBB14A002010600870FDF775
:104A20001FFF0020FDF732FF0A20FDF793FFAC487F
:104A300000784E2806D0452806D0532809D057289C
:104A400009D00CE0A34900E0A3490868401C0860B5
:104A500005E0A04800E0A0480168491E0160B9F1E6
:104A6000000F1DD1DBF8000000EB4000C11700EB88
:104A70009170B4EBA00F13DC9A489B494FF00109E9
:104A800000680968884202DD98490120087098484A
:104A9000984900680968884202DD9749012008703A
:104AA000002E76D1DBF8000000EBD070B4EB600F85
:104AB0006FDC92480126016891480068814208DD58
:104AC0009048914900680968884202DD8F490120B9
:104AD0000870FFF7E4FA7F4801687F480068FFF735
:104AE00047F97C49401C096801EB41027A4908EB0F
:104AF0000212096842F82100FFF727FF7548006895
:104B000000EB40016B4800EB01117348006851F85D
:104B10002000FFF7B7F810B14FF4FA700AE06D48C3
:104B2000006800EB40016C4808EB0111006801EBE4
:104B30008000006B02906748006800EB40015D4810
:104B400000EB01116448006851F82000FFF79DF860
:104B500010B14FF4FA700AE05E48006800EB4001C3
:104B60005D4808EB0111006801EB8000406801908E
:104B70005848006800EB40014E4800EB01115648D0
:104B8000006851F82000FFF783F818B14FF4FA706D
:104B90000CE072E14F48006800EB40014E4808EB22
:104BA0000111006801EB800050F8300C009049487A
:104BB000006800EB40013F4800EB011146480068E7
:104BC00051F82000FFF767F810B14FF4FA700BE0CE
:104BD0004048006800EB40013F4808EB01110068C5
:104BE00001EB800050F8040CDDE901128A4207DA7B
:104BF0001146009A914203DA814201DA052020E051
:104C0000DDE90112914206DA009A914203DA81420B
:104C100001DA062015E0DDE90012914207DA0A46C2
:104C200002998A4203DA824201DA072009E00199F7
:104C3000884209DA0099884206DA0299884203DA42
:104C400008202649086018E1254800784E280ED132
:104C50002048006800EB4001164800EB01111E4897
:104C6000006851F82000FFF70DF80028C6D01C4856
:104C7000007845280ED11748006800EB40010D4828
:104C800000EB01111448006851F82000FEF7FDFF09
:104C90000028BED012480078532843D10D48006840
:104CA00000EB4001034833E060010020E0000020F9
:104CB00058000020C8030020180000203500002004
:104CC0007300002008060020E80000202C000020CF
:104CD00034000020140000201000002020000020DC
:104CE00024000020D0000020800000201D000020B3
:104CF000D4000020840000201E000020C8000020F6
:104D000078000020CC0000207C0000201C00002047
:104D100000EB0111FE48006851F82000FEF7B8FFD3
:104D2000002882D0FB48007857280FD1FA48006845
:104D300000EB4001F94800EB0111F548006851F81B
:104D40002000FEF7A8FF00283FF47AAFF148007872
:104D50004E280FD1F048006800EB4001EF4800EB0F
:104D60000111EB48006851F82000FEF78BFF002886
:104D70003FF444AFE748007845280FD1E648006883
:104D800000EB4001E54800EB0111E148006851F8F3
:104D90002000FEF77AFF00283FF43BAFDD480078A3
:104DA00053280ED1DC48006800EB4001DB4800EBE3
:104DB0000111D748006851F82000FEF769FF00286C
:104DC000AFD0D448007857280ED1D348006800EB04
:104DD0004001D24800EB0111CD48006851F8200095
:104DE000FEF759FF0028AFD0CB48006800EB400128
:104DF000CA4800EB0111C648006851F82000FEF7D0
:104E000041FF0028B4D0C448006800EB4001C3480B
:104E100000EB0111BE48006851F82000FEF735FF95
:104E20000028B9D0BC48006800EB4001BB4800EB4B
:104E30000111B748006851F82000FEF729FF00284B
:104E4000BED0B548006800EB4001B44800EB01114A
:104E5000AF48006851F82000FEF71DFF0028C2D0BF
:104E6000AF4900200860AF490870FDF7F9FC002049
:104E7000FDF70CFD0A20FDF76DFDAB48006800EB67
:104E8000D070B4EB600F00DC0126DFF8A0B29BF815
:104E9000000010B9FFF7BCF8D8B12046FEF792FD2C
:104EA000A348D0ED000AA348B8EEE01AD0ED000AFE
:104EB000FEF7EBFDA048D0ED000AB4EEE00AF1EEFB
:104EC00010FA01D29D4800E0994801689C480160B1
:104ED00003E09A489A4900680860BAF1000F09D1C6
:104EE00091480068C11700EB9170B4EBA00F07DC8C
:104EF0004FF0010A9BF8000010B1924900200870A1
:104F0000002C51DC6D1C4FF47A71C820FDF743FD75
:104F1000DFF804927E4F814ED9F80000396800EB2B
:104F2000400006EB001050F82100FEF7B7FE80B9F4
:104F3000D9F80000396800EB400006EB001050F88B
:104F4000212042F0100240F821207F480168491CCE
:104F500001609BF8000038B17C4802687C48016819
:104F60007C480068FEF7A8FB6D480068052806D05D
:104F7000062807D0072808D0082809D00AE0FEF73D
:104F800003FE07E0FEF71AFE04E0FEF731FE01E043
:104F9000FEF746FE002770498BF80070B9460F7087
:104FA0006E493E46BA460F70FEF7D8FE00283FF421
:104FB00015ADDFF87481DFF8A8A1DFF878B1DFF86C
:104FC00080915B4F0026002C26DDD8F8000000EB16
:104FD000D071B4EB610F01DA5A490E70DAF80010A3
:104FE0006843441A2046FEF7EDFCD7ED000AB8EE00
:104FF000E01ADBED000AFEF748FD4F48D0ED000A4D
:10500000B4EEE00AF1EE10FA02D24C48016800E07A
:105010003968C9F80010D6E73F4C3D4F3F4D206836
:10502000396800EB400005EB001050F82100FEF756
:1050300035FE78B92068396800EB400005EB0010B8
:1050400050F8212042F0100240F821203E4801682B
:10505000491C0160FEF7FEFD324806700020FDF796
:10506000FFFB0020FDF712FCFEF7D3FE0320FDF747
:1050700071FC3C48067066E42DE9F047DFF89C902F
:10508000902600255FF0000455EA040077D0052E35
:1050900001D0062E03D1052D71D0062D6FD005EB62
:1050A000450109EB011858F82400FEF7EBFD07460F
:1050B00058F82400FEF7E9FD074458F82400FEF7ED
:1050C000E7FD074458F82400FEF7E5FD38440328BF
:1050D00055DB58F824000B2D40F02F0148F8241020
:1050E00005DA08EB8400016B41F0040101630B2C2D
:1050F00005DA08EB8400416841F008014160002DA9
:1051000034DD08EB840050F8301D41F001012CE043
:10511000100000202400002014000020C8030020FC
:1051200020000020350000202C0000201C00002062
:105130005C000020E00000202C010020580000202E
:10514000E800002034000020180000204400002067
:1051500094000020900000201D0000201E00002070
:10516000600100207300002009E00160002C06DDD2
:1051700008EB840050F8041D41F002010160641C3A
:105180000C2C81DB6D1C0C2DFFF67CAF761E7FF5A1
:1051900078AFBDE8F087000009488047094800471C
:1051A000FEE7FEE7FEE7FEE7FEE7FEE7FEE7FEE7D7
:1051B000FEE7FEE704480549054A064B7047000034
:1051C000DD52000889010008380A0020381000204C
:1051D000380C0020380C0020F0B56D4900200A681A
:1051E00042F480320A604FF4A0630A6800F10100C3
:1051F00012F4003F01D19842F7D10868684D5FEA88
:10520000803C644A644B654C664F40F2056605F18C
:1052100004002AD5D2F800C04CF0805CC2F800C06F
:105220001A6842F480421A6002680260026842F41E
:1052300000420260026842F4A05202602C600A68D8
:1052400042F080720A600A689201FCD53E600168F3
:1052500021F003010160016841F002010160016871
:10526000C1F381010229FAD1F0BDD1F800C0DFF805
:1052700038E10CEA0E0CC1F800C0D1F800C04CF0C7
:10528000010CC1F800C0D2F800C04CF0805CC2F83C
:1052900000C01A6842F480421A6002680260026824
:1052A00042F400420260026842F4A05202602C60A4
:1052B0000A6842F080720A600A689201FCD53E607A
:1052C000016821F003010160016841F00201016001
:1052D0000168C1F381010229FAD1F0BD334810B54C
:1052E000016841F4700101602948016841F0010141
:1052F00001602B4A0021121D116002682A4B1A40DE
:105300000260031D2A4A1A60026822F480220260A9
:10531000234808300160FFF75FFF24494FF0006029
:105320008039086010BD70B51D4C241D2068214ACD
:1053300010F00C01204804D05510042903D008298E
:1053400003D002601AE0056018E015490B68C3F34A
:1053500080560B6803F03F0316B1B5FBF3F201E092
:10536000B2FBF3F20B680968C3F388135A43C1F325
:105370000141491C4900B2FBF1F1016021680E4A6C
:10538000C1F30311121D515C0268CA40026070BD76
:1053900000380240403802400070004010540007BE
:1053A00004380240003C0240FFFFF6FE88ED00E0BA
:1053B000103000240024F400740100207047000025
:1053C0000FB4044910B503AA029800F01DFB10BCED
:1053D0005DF814FBA800002070B5044685690068DC
:1053E000C10601D5302600E02026C00708D070BDD8
:1053F000D4E9012130469047206A00F10100206283
:105400006D1EF5D570BD70B5044685690078C0077E
:1054100008D170BDD4E9012120209047206A00F115
:10542000010020626D1EF5D570BD70B50C460546B5
:10543000012A05D02878800600D5EA69002302E019
:10544000012305E05B1C934202D2E05C0028F9D105
:10545000A869E618C01AA861286A18442862284674
:10546000FFF7BAFF04E0D5E9012114F8010B9047DA
:10547000B442F8D32846FFF7C6FF70BD2DE9F041CE
:105480000646002410687529314616A511D0AFF3E1
:105490000080002803DAC0F1000013A507E031689E
:1054A0008A0701D511A502E0490704D510A50124FA
:1054B00001E0AFF3008000210A2306F1240707E092
:1054C000B0FBF3F203FB1200303078541046491C55
:1054D0000028F5D123462A463046BDE8F04100F0C9
:1054E00021BA0000000000002D0000002B00000089
:1054F000200000002DE9F0474FF0000A89460446DD
:10550000C0F820A02046E1688847002876D02528EA
:1055100006D0D4E901219047206A401C2062F1E7BF
:10552000E168204600258847C4F81CA006460027ED
:10553000C4F818A02A2E09D0304600F007FD38B371
:1055400004EB8708303EC8F8186019E059F8041BCE
:10555000204604EB87029161E1688847012F0646E7
:1055600018D1E069002820DA25F020051DE0D8F8E0
:10557000180000EB800006EB40003038C8F8180037
:105580002046E1688847064600F0E0FC0028EED19E
:10559000012F0AD02E2E08D12046E16888477F1CB3
:1055A0000646022F45F02005C4DBA069002803DA77
:1055B000404245F00105A061E80701D025F0100543
:1055C000B6B1A6F14100192802D8203645F400658D
:1055D0004A463146204625604D46FAF72FFE58B11F
:1055E000012806D0ED1D25F0070000F1080989E724
:1055F00004E005F1040985E730468AE7206ABDE842
:10560000F08700000FB400B589B00BA86A4600907F
:1056100003480A9900F018FA09B05DF814FB00007D
:10562000AC0000202DE9FF5F1D464FF0FF3B914687
:105630004FF000085F46D5E90146A96901987F1C33
:105640008847296A824688470028F6D11AF1010066
:105650000CD0002E24F4C06419DD600614D5BAF114
:105660002B0F09D0BAF12D0F0ED103E0584604B02C
:10567000BDE8F09F44F48064A96901987F1C8847C5
:10568000761E8246002E02DDBAF1300F03D0B9F14A
:10569000000F26D032E0A969761E01987F1C44F4E1
:1056A00000748847002E824605DDBAF1780F06D0D7
:1056B000BAF1580F03D0B9F1000F10D01EE0B9F1C4
:1056C000000F02D0B9F1100F18D1A969761E019808
:1056D0007F1C24F4007488478246102002E00820D2
:1056E00000E00A20814609E0A96908FB0908761E46
:1056F00001987F1C44F4007488478246002E05DD23
:105700004946504600F092F90028EDDAE96901981F
:105710008847A00502D46FF00100A8E7E00727D171
:10572000600614D5600502D5C8F1000000E04046CF
:10573000296801F104022A600968220501D5087070
:1057400016E0220701D5088012E0086010E0286802
:1057500000F1040129600068210502D580F800806D
:1057600006E0210702D5A0F8008001E0C0F8008023
:1057700038467CE72DE9FF5F4FF000089946144654
:1057800046469169D2E901A7DDF838B0019888470B
:10579000054659EA0B0005D009E0A1690198761C7D
:1057A00088470546216A284688470028F5D1681CA5
:1057B00003D05FEACA7005D015E04FF0FF3004B0A7
:1057C000BDE8F09F2068011D2160D0F800800AE04C
:1057D0005FEACA7001D108F8015BA1697F1E0198D8
:1057E000761C88470546002F1ADD681C18D0B9F1D1
:1057F000000F0DD0E81705EBD060421120F01F001C
:1058000059F822102A1A012090400142E0D107E005
:10581000BBF1000FDCD12846216A88470028D7D089
:10582000E169019888470AF0010050EA0B0002D1B3
:10583000002188F80010A068B84203DDBBF1000F1A
:1058400003D017B16FF00100B9E73046B7E74FF06A
:10585000000200B5134694469646203922BFA0E8C0
:105860000C50A0E80C50B1F12001BFF4F7AF0907CC
:1058700028BFA0E80C5048BF0CC05DF804EB8900BD
:1058800028BF40F8042B08BF704748BF20F8022B00
:1058900011F0804F18BF00F8012B70474FF0013C0A
:1058A00050F8042B51F8043B9A4221D1A2EB0C038F
:1058B000934313EACC1317D150F8042B51F8043B4F
:1058C0009A4215D1A2EB0C03934313EACC130BD1EC
:1058D00050F8042B51F8043B9A4209D1A2EB0C0377
:1058E000934313EACC13DBD04FF00000704700BFA6
:1058F000D01A01BAB1FA81F101F0180122FA01F0CF
:10590000CB40C1F12001DBB2C0B2C01A2CFA01F3C6
:10591000D11A914311EAC311E6D17047704770471D
:10592000704770472DE9F0470D4699469246044668
:1059300000F124080168880604D5E06921F010010F
:10594000216000E00120A84202DDA0EB050700E095
:105950000027A16907EB050202EB0900A1EB00009B
:10596000A0612078C00602D42046FFF735FD00264E
:1059700008E0D4E901211AF806009047206A401C8B
:10598000761C20624E45F4DB2078C0060AD52046FE
:10599000FFF722FD06E0D4E9012130209047206A7C
:1059A000401C2062381EA7F10107F4DC07E0D4E9AF
:1059B000012118F805009047206A401C2062281E2B
:1059C000A5F10105F3DC2046FFF71DFD2078000658
:1059D00002D50220BDE8F0870120FBE710B543693E
:1059E00013B1AFF3008001E0FFF71FFD012010BDF0
:1059F000127800F124010A7000224A700122EDE7BA
:105A000011684FF0FF32E9E7074B70B50D467B4454
:105A100000F02BF80446284600F074F810B14FF05F
:105A2000FF3070BD204670BD03CBFFFF3A2800D287
:105A3000303820F02002412A01D3A2F137008842F9
:105A400001D34FF0FF307047034B7B449361034B0E
:105A50007B44D36100F022B8E5CAFFFF6B00000071
:105A600001694A1C02610878704700B58FB0CDE922
:105A700001310021059105497944CDE90310114612
:105A80006846FFF737FD0FB000BD0000E5FFFFFFE0
:105A9000026811441378016018467047D1600549C7
:105AA0007944516104497944116200211161114620
:105AB00000F05AB8EDFFFFFFAD000000704710B5D1
:105AC0004FF0FF34C1688A020FD5036B42689A42D7
:105AD0000BD1014690F82520104600F0FDF9401C3E
