:020000040800F2
:10000000C00B0020ED610008392600083B260008DF
:100010003D2600083F260008412600080000000099
:10002000000000000000000000000000432600085F
:100030004526000800000000472600084926000861
:1000400007620008076200080762000807620008EC
:1000500007620008076200080762000807620008DC
:1000600007620008076200080762000807620008CC
:1000700007620008076200080762000807620008BC
:1000800007620008076200080762000807620008AC
:100090000762000807620008076200086726000878
:1000A000076200080762000807620008076200088C
:1000B000076200080762000807620008076200087C
:1000C000076200080762000807620008076200086C
:1000D000076200080762000807620008076200085C
:1000E000C3260008076200080762000807620008CC
:1000F000076200080762000807620008076200083C
:10010000076200080762000807620008076200082B
:10011000076200080762000807620008076200081B
:10012000076200080762000807620008076200080B
:1001300007620008076200080762000807620008FB
:1001400007620008076200080762000807620008EB
:1001500007620008076200080762000807620008DB
:1001600007620008076200080762000807620008CB
:1001700007620008076200080762000807620008BB
:10018000076200080762000800F002F800F070F84B
:100190000AA090E8000C82448344AAF10107DA45E2
:1001A00001D100F065F8AFF2090EBAE80F0013F0C4
:1001B000010F18BFFB1A43F0010318477C780000B9
:1001C0009C7800000A444FF0000C10F8013B13F03B
:1001D000070408BF10F8014B1D1108BF10F8015BA0
:1001E000641E05D010F8016B641E01F8016BF9D193
:1001F00013F0080F1EBF10F8014BAD1C0C1B09D1EA
:100200006D1E58BF01F801CBFAD505E014F8016B5B
:1002100001F8016B6D1EF9D59142D6D370470000ED
:100220000023002400250026103A28BF78C1FBD8FF
:10023000520728BF30C148BF0B607047642906F0E1
:100240004781632906F0FE83732906F003840020AA
:1002500070471FB507F0B3FB06F09EFE04000020B8
:10026000002106F0A5FE401C60601FBD10B510BD4A
:1002700006F076FC1146FFF7ECFF01F0FFFD06F0FB
:1002800079FE03B4FFF7F2FF03BC02F011FC00009B
:100290002749084327490860704770B50F21C47883
:1002A000027801234FF0E026E4B1224C246804F4E4
:1002B000E064C4F5E064C4F30724C4F10405E1403C
:1002C0004478AC4085780D4025431B4C29011155DD
:1002D000007800F01F018B40400906EB8000C0F859
:1002E000003170BD02F01F008340500906EB800012
:1002F000C0F8803170BD114A114001430D48001F04
:10030000016070470B4A121D0029116801D001439A
:1003100000E08143116070474FF0E0210428086934
:1003200003D020F004000861704740F00400FAE7B1
:100330000000FA050CED00E000E400E080FFFF1F84
:1003400010B501210C02204600F051FE2046BDE808
:100350001040002100F04BBE30B54268C44B0C7910
:100360001A400B6842EA0422134343608268C14B7F
:100370004D791A40D1E9034323438C6844EA45048C
:10038000234313438360C26A097D22F47002491E2D
:10039000C9B242EA0151C16230BD00210160017160
:1003A00041718160C1600161012101757047B24BEB
:1003B00010B51A68B1490A40D0E900142143D0E9C8
:1003C0000240044321431143196010BD0021016024
:1003D00041608160C16070470029816802D041F0AE
:1003E000010101E021F00101816070474268A44BE6
:1003F0001A400A4342607047416282627047426815
:1004000022F01F020A43426070479E490028D1F83B
:10041000040302D040F4000001E020F40000C1F821
:100420000403704797490028D1F8040302D040F430
:10043000800001E020F48000C1F80403704770B52B
:10044000072509290AD9C468A1F10A0606EB460660
:10045000B540AC43B3401C43C46007E0046901EB02
:100460004106B540AC43B3401C4304611F23072A37
:1004700009D2446B521E02EB820293409C4391408E
:100480000C43446370BD0D2A09D2046BD21F02EBEA
:10049000820293409C4391400C43046370BDC46A44
:1004A0000D3A02EB820293409C4391400C43C4629C
:1004B00070BD816841F08041816070470146002035
:1004C0008968490200D5012070470029816802D05F
:1004D00041F4806101E021F480618160704700296E
:1004E000816802D041F0020101E021F00201816047
:1004F00070474268491E22F4604242EA413141603D
:1005000070470029416802D041F4006101E021F404
:10051000006141607047C06C80B270475648001D52
:10052000006870470029816802D041F4807101E0C1
:1005300021F48071816070470029816802D041F404
:10054000007101E021F40071816070474D4900287D
:10055000D1F8040302D040F4005001E020F4005030
:10056000C1F80403704770B5072409290AD9C56882
:10057000A1F10A0606EB4606B440A543B3401D436D
:10058000C56007E0056901EB4106B440A543B340EF
:100590001D430561836BC3F30154121B921C02EBD4
:1005A00082041F22A2409343A1400B43836370BD8A
:1005B000826B491E22F4401242EA01518163704766
:1005C00042507047826822F470220A43826070476A
:1005D000826822F440120A4382607047816841F4C5
:1005E000800181607047014600208968490200D57A
:1005F000012070470029416802D041F4806101E088
:1006000021F48061416070470029416802D041F4C3
:10061000805101E021F48051416070470844806AB4
:1006200080B2704701238B4041680AB1194300E052
:100630009943416070470246002012680A4200D088
:1006400001207047C9430160704730B50246002061
:1006500054680B0A01258D4011682C40194202D0C4
:10066000002C00D0012030BD6FEA112101607047DD
:10067000FFFEFFFCFDF7FFC004230140E030FCFF5C
:10068000FFFD3FFF00200140374900200860091DA1
:100690000860091D0860091D08603349334814319A
:1006A0000860704730B530498379026853B30B68EE
:1006B00093430B600A1D13680468A3431360027917
:1006C0000A441368046823431360274A08321368F6
:1006D0000468A3431360131D1C680568AC431C60C9
:1006E0004479102C05D021440A68006802430A604E
:1006F00030BD116804682143116019680068014326
:10070000196030BD0079084401689143016030BD33
:100710000021016001710C22427181717047124900
:1007200010310A6802430A60704701460E4A0020F1
:10073000143212680A4200D0012070470A4914316D
:1007400008607047084A014600201268064B0A40BC
:1007500014331B680B4202D0002A00D001207047DE
:100760000149143108607047003C0140FFFF7F00E1
:10077000D94908707047D8490028086802D040F469
:10078000807001E020F4807008607047D249002832
:10079000086802D040F4007001E020F400700860A6
:1007A0007047CD490028086802D040F4806001E01D
:1007B00020F4806008607047C748016841F4006118
:1007C00001607047C448016841F48051016070477E
:1007D000C14810300068002805DABF48BF49001D35
:1007E0000160BF4901607047BB481030016841F0AB
:1007F000004101607047B84908200C310A68D203F3
:1008000001D5012070470A68D20601D5052070473E
:100810000A6812F0EF0F01D00620704709688907B7
:10082000FBD50720704700B5FFF7E5FF0128FBD097
:1008300000BD30B50546002429B1012928D0022980
:1008400029D04FF44074FFF7EEFF08281FD1A24BC8
:100850001033186820F4407018601868204318603E
:10086000186820F0F8001860186845F00201084385
:100870001860186840F480301860FFF7D4FF1968DA
:1008800021F002011960196821F0F801196030BDEA
:100890004FF48074D7E74FF40074D4E710B50346E3
:1008A0000024FFF7C0FF2BB1012B1DD0022B1ED05F
:1008B0004FF44074082816D1874B1033186820F481
:1008C00040701860186820431860186840F00400F1
:1008D0001860186840F480301860FFF7A4FF1968AA
:1008E00021F00401196010BD4FF48074E2E74FF469
:1008F0000074DFE770B515460646FFF794FF082839
:1009000015D1754C1034206820F4407020602068A8
:1009100040F440702060206840F0010020603560A5
:100920007360FFF780FF216821F00101216070BD35
:1009300030B50C460546FFF776FF082814D1664B04
:100940001033186820F440701860186840F4007084
:100950001860186840F0010018602C60FFF763FF12
:10096000196821F00101196030BD30B50C4605460B
:10097000FFF759FF082814D1574B1033186820F49B
:1009800040701860186840F480701860186840F073
:10099000010018602C80FFF746FF196821F0010163
:1009A000196030BD30B50C460546FFF73CFF0828FE
:1009B00012D1494B1033186820F440701860186841
:1009C0001860186840F0010018602C70FFF72BFFCA
:1009D000196821F00101196030BD3F4814300068EA
:1009E000C00705D03C483F49083001603E490160DE
:1009F000704739481430016841F0010101607047C7
:100A000010B50C460346FFF70EFF082807D1324801
:100A1000163001880CB1994300E01943018010BDE4
:100A200000B50346FFF7FFFE082802D12A4815301B
:100A3000037000BD30B515460B460446FFF7F3FEC4
:100A4000082808D124491431087800F00F00034326
:100A50002B4323430B7030BD1F4914310A7822F019
:100A60000C020A700A7802430A7070471A48143060
:100A7000017841F002010170D5E617481430006892
:100A8000C0F3471070471448163000887047124969
:100A9000002015310978AA2900D0012070470E489E
:100AA0001430007800F00C0070470B4A1032002917
:100AB000116801D0014300E0814311607047014695
:100AC000054A00200C3212680A4200D0012070470B
:100AD00001490C3108607047003C02402301674522
:100AE000AB89EFCD3B2A19087F6E5D4C7A4910B572
:100AF000884206D10121084600F051FA0021012068
:100B00004FE07649884206D10121022000F047FAE1
:100B10000021022045E07249884206D101210420CB
:100B200000F03DFA002104203BE06E49884206D1E6
:100B30000121082000F033FA0021082031E06A4941
:100B4000884206D10121102000F029FA002110204E
:100B500027E06649884206D10121202000F01FFAD3
:100B6000002120201DE06249884206D10121402059
:100B700000F015FA0021402013E05E49884206D1BA
:100B80000121802000F00BFA0021802009E05A4961
:100B900088420AD184150121204600F000FA002184
:100BA0002046BDE8104000F0FAB910BDF0B50023B2
:100BB000012403270D6804FA03F21540954242D13F
:100BC000D0F800C05E0007FA06F52CEA050CC0F864
:100BD00000C091F804C0D0F800E00CFA06FC4CEA22
:100BE0000E0CC0F800C091F804C0BCF1010F02D097
:100BF000BCF1020F1FD1D0F808C02CEA050CC0F8D8
:100C000008C091F805C0D0F808E00CFA06FC4CEAE0
:100C10000E0CC0F808C0D0F804C02CEA020CC0F8D2
:100C200004C0426891F806C00CFA03FC1FFA8CFC61
:100C300042EA0C024260C268AA43C260CA79C5682F
:100C4000B2402A43C2605B1C102BB3D3F0BD4FF6F9
:100C5000FF7101600021017141718171C1717047A3
:100C600041F48032C261C161C261C169C06970472B
:100C70000246002012690A4200D001207047006934
:100C800080B270470246002052690A4200D001201B
:100C90007047406980B27047018370474183704755
:100CA0000AB10183704741837047416170474269CF
:100CB0004A40426170474B07DB0E9A40C90810B5A5
:100CC00000EB8100016A0F249C40A1430162016A8C
:100CD0001143016210BD0000000002400004024008
:100CE00000080240000C02400010024000140240C4
:100CF00000180240001C024000200240E948016840
:100D000041F001010160E74A0021083211600268E8
:100D1000E54B1A400260031DE44A1A60026822F49F
:100D200080220260DF480C3001607047DD490022FC
:100D3000891C0A7008707047024600205109012979
:100D40000CD002290CD0D7497431096802F01F0277
:100D5000012393400B4200D001207047D149F4E7B2
:100D6000D0497031F1E730B500244FF4A06531204F
:100D7000FFF7E2FF641CAC4201D00028F7D031201D
:100D8000FFF7DAFF002800D0012030BDC5490A680E
:100D900022F0F80242EAC00008607047C4490860C7
:100DA0007047C049002270310A700A70012802D0D1
:100DB000042801D1052008707047BE4908607047BB
:100DC00041EA82115A0810B5BB4B029C03EB024268
:100DD0001143014341EA0460B249091D086010BD96
:100DE000B34908667047800140EA0170AD4984311B
:100DF00008607047AE4988667047AD49C86470475F
:100E0000A84A08321368084323F0EC6318431060C3
:100E10007047A44A08321368084323F07843184304
:100E2000106070479F4A0832116821F003010143A6
:100E3000116070479B480830006800F00C00704754
:100E4000984A0832116821F0F0010143116070479F
:100E5000944A0832116821F4E0510143116070474F
:100E6000904908310A6822F4604242EAC0000860F2
:100E7000704770B58B4A08321168904B11F00C0125
:100E800004D05D10042903D0082903D003601BE0BF
:100E9000056019E08349091D0C68C4F380560C688D
:100EA00004F03F0416B1B5FBF4F301E0B3FBF4F337
:100EB0000C680968C4F388146343C1F30141491CF9
:100EC0004900B3FBF1F1016011687D4B01F0F001C5
:100ED00009095C5C0168E1404160146804F4E05475
:100EE000A40A1C5D21FA04F48460126802F46042D2
:100EF000520B9A5CD140C16070BDC0F3012103293F
:100F000008D1684A0832116821F4F8136D4901408C
:100F100019431160634970310A68C0F30B00024342
:100F20000A60704763494439086070476149403935
:100F3000086070476449086070475A4A3032002997
:100F4000116801D0014300E0814311607047554AA8
:100F500034320029116801D0014300E0814311605F
:100F60007047504A38320029116801D0014300E02F
:100F70008143116070474B4A40320029116801D00B
:100F8000014300E0814311607047464A4432002922
:100F9000116801D0014300E0814311607047414A6C
:100FA00010320029116801D0014300E08143116033
:100FB00070473C4A14320029116801D0014300E017
:100FC000814311607047374A18320029116801D0F7
:100FD000014300E0814311607047324A203200290A
:100FE000116801D0014300E08143116070472D4A30
:100FF00024320029116801D0014300E081431160CF
:101000007047284A50320029116801D0014300E09E
:10101000814311607047234A54320029116801D07E
:10102000014300E08143116070471E4A5832002995
:10103000116801D0014300E0814311607047194AF3
:1010400060320029116801D0014300E08143116042
:101050007047144A64320029116801D0014300E04E
:101060008143116070470F4A0D320029117801D079
:10107000014300E08143117070470A4874300168F1
:1010800041F08071016070470146064A00200C3231
:1010900012680A4200D00120704702490E310870E0
:1010A0007047000000380240FFFFF6FE10300024B9
:1010B00000004742800E47420000FFFF0024F4007A
:1010C00000000020FFFCFF0F5C01474210B501212A
:1010D0008C032046FFF78BFF2046BDE8104000211F
:1010E000FFF785BF11490860704710B58A07130FD5
:1010F00021F003040F220D499A40083121440C6865
:1011000094430C600A68984002430A6010BD084985
:101110000860704707490860704704490020203183
:101120000968C90500D5012070470000003801405A
:10113000DC00274200042742FE4910B5884206D150
:1011400001210846FFF753FF002101205BE0B0F1C9
:10115000804F09D0F84988420DD101210220FFF7C4
:101160003CFF0021022070E001210846FFF735FF17
:101170000021012069E0F149884206D101210420C3
:10118000FFF72BFF002104205FE0ED49884206D1E4
:1011900001210820FFF721FF0021082055E0E9493F
:1011A000884206D101211020FFF717FF00211020EF
:1011B0004BE0E549884206D101212020FFF70DFFD1
:1011C0000021202041E0E149884206D1012102208E
:1011D000FFF70DFF0021022015E0DD49884202D112
:1011E00001210C040AE0DB49884202D101214C04B0
:1011F00004E0D94988420AD101218C042046FFF736
:10120000F6FE00212046BDE81040FFF7F0BED349AE
:10121000884206D101214020FFF7DFFE0021402057
:1012200013E0CF49884206D101218020FFF7D5FE87
:101230000021802009E0CB4988420AD18415012190
:101240002046FFF7CAFE00212046BDE81040FFF708
:10125000C4BE10BD30B50288B64BBC4C98420DD010
:10126000A0420BD0B0F1804F08D0B34DA84205D0BA
:10127000B24DA84202D0B24DA84203D122F070056F
:101280004A882A43AF4DA84206D0AF4DA84203D0AA
:1012900022F440750A892A4302804A68C2620A8899
:1012A0000285984201D0A04201D1897A01860121AC
:1012B000818230BD4FF0FF3141600021018001810A
:1012C000418081727047018582827047028822F0D6
:1012D00070020A430280704741627047C1627047E2
:1012E000406A7047008D70470029018802D041F0A4
:1012F000020101E021F0020101807047002901880C
:1013000002D041F0040101E021F0040101807047A6
:101310000029018802D041F0800101E021F0800124
:1013200001807047028822F00802028002880A4386
:1013300002807047028822F44072028002880A43C9
:10134000028070470029018802D041F0010101E0CC
:1013500021F001010180704730B5028C22F00102BA
:101360000284028C8388048B22F0020224F073052D
:101370000C882C438D8915434A882A436D4DA84219
:1013800002D0724DA8420DD122F00805CA8923F47B
:1013900040732A4322F004058A882A430D8A1D439C
:1013A0004B8A2B438380048389684163028430BD68
:1013B00070B5028C22F010020284028C8488038BA8
:1013C0000D8823F4E6464FF6FF7303EA05253543FF
:1013D0008E8922F0200203EA061616434A8803EAA1
:1013E00002123243534EB04202D0584EB04215D191
:1013F00022F08006CA8924F4406403EA02123243D0
:1014000022F040068A8803EA021232430E8A03EA77
:10141000860626434C8A03EA840434438480058389
:1014200089688163028470BD70B5028C22F4807279
:101430000284028C8488838B0D8823F073031D4300
:1014400022F400738E894FF6FF7202EA06261E43CD
:101450004B8802EA03233343364EB04202D03B4E60
:10146000B04215D123F40066CB8924F4405402EA3B
:101470000323334323F480668B8802EA0323334338
:101480000E8A02EA061626434C8A02EA0414344302
:10149000848085838968C163038470BD70B5028CC4
:1014A00022F480520284048C8288838B0D8823F47A
:1014B000E6464FF6FF7303EA0525354324F400564C
:1014C0008C8903EA043434434E8803EA0636264303
:1014D000184CA04202D01D4CA04205D122F48044F9
:1014E0000A8A03EA82122243828085838968016422
:1014F000068470BD002101804180818081608181EE
:10150000C18101824182704730B50124058C00F110
:1015100018038C40A543058431B308292CD0091F3A
:10152000C1F34E001844016848F6FF73194001608A
:1015300001681AE00000014000040040000800407B
:10154000000C004000100040001400400004014066
:1015500000400140004401400048014000180040A4
:10156000001C00400020004006E04FF6FF7303EA35
:1015700002221143016030BD03EB510001684FF6B8
:101580008F73194001600168F3E74163704781631D
:101590007047C163704701647047028B22F070028C
:1015A0000A4302837047028B4FF6FF7322F4E04236
:1015B00003EA0121114301837047828B22F07002FC
:1015C0000A4382837047828B4FF6FF7322F4E04216
:1015D00003EA0121114381837047028B22F0080244
:1015E0000A4302837047028B4FF6FF7322F40062B6
:1015F00003EA0121114301837047828B22F0080224
:101600000A4382837047828B4FF6FF7322F4006295
:1016100003EA0121114381837047028B22F0040207
:101620000A4302837047028B4FF6FF7322F48062F5
:1016300003EA0121114301837047828B22F00402E7
:101640000A4382837047828B4FF6FF7322F48062D5
:1016500003EA0121114381837047028B22F080024B
:101660000A4302837047028B4FF6FF73C2F30E02E8
:1016700003EA0121114301837047828B22F080022B
:101680000A4382837047828B4FF6FF73C2F30E02C8
:1016900003EA0121114381837047028C22F0020288
:1016A0000A4302847047028C22F008020A43028433
:1016B0007047028C4FF6FF7322F0200203EA0111FB
:1016C000114301847047028C4FF6FF7322F08002B1
:1016D00003EA0111114301847047028C4FF6FF7336
:1016E00022F4007203EA0121114301847047028C45
:1016F0004FF6FF7322F4006203EA012111430184D3
:101700007047028C4FF6FF7322F4005203EA013156
:1017100011430184704710B50123048C8B409C4316
:101720000484038C8A401343038410BD10B5042342
:10173000048C8B409C430484038C8A4013430384B1
:1017400010BD828B22F440628283828B4FF6FF733E
:1017500003EA01210A4382837047828B22F00C0244
:101760008283828B0A4382837047028B22F4406219
:101770000283028B4FF6FF7303EA01210A430283BF
:101780007047F0B5048C24F010040484078B068C99
:101790004FF6FF7404EA011527F4734704EA033196
:1017A000394304EA02220A4326F0A001294341F00A
:1017B000100102830184F0BD028B22F00C0202832F
:1017C000028B0A43028370472DE9F0410D460E88D3
:1017D0004988AA882B8904460EB3042E26D0082EE9
:1017E000268C4FF6FF7028D026F480562684A78BCF
:1017F000268C00EA022200EA013127F473473A43BB
:1018000000EA0330104326F420420A4342F4805198
:10181000A0832184E9882046BDE8F04191E700F0EB
:1018200061F9E9882046BDE8F041C5E7FFF7A9FF67
:10183000E9882046BDE8F04197E726F480762684C3
:10184000A78B268C00EA012100EA0310104327F041
:10185000F307384326F420620A4342F48071A083E0
:101860002184E9882046BDE8F04176E70021018027
:10187000418001228280C180018170472DE9F041C1
:101880000C46002549880746012601B90225A28891
:10189000012A00D10226208823890028384610D04A
:1018A000FFF76FFFE1883846FFF75FFF2389324675
:1018B0002946384600F016F9E1883846BDE8F0417F
:1018C0007AE700F00FF9E1883846FFF775FF2389C2
:1018D000324629463846FFF754FFE1883846BDE8CE
:1018E000F04142E7406B7047806B7047C06B7047B8
:1018F000006C704710B50A884B88CC881A438B88D7
:1019000023431A430B891A434B8989891A430A4393
:10191000A0F8442010BD0021018041808180C18059
:101920000181418181817047002930F8441F02D034
:1019300041F4004101E0C1F30E010180704700292C
:10194000818802D041F0040101E021F0040181808E
:1019500070470029818802D041F0010101E021F0A7
:10196000010181807047002A828901D00A4300E08A
:101970008A43828170478182704702460020128A22
:101980000A4200D001207047C943018270470246D5
:101990000020138A92890B4202EA010202D0002A37
:1019A00000D001207047C943018270471143A0F85D
:1019B00048107047002A828901D00A4300E08A4318
:1019C000828170470029818802D041F0080101E03E
:1019D00021F0080181807047018921F00701018110
:1019E0007047028922F070020A430281704700B5F5
:1019F0000346FFF7F6FF188940F00700188100BD85
:101A000070B50D4611460446602D4FF001020AD014
:101A100000F068F829462046FFF7E3FF208940F0F0
:101A20000700208170BDFFF7ACFEF3E730B50489F5
:101A30004FF6FF7505EA03231343E4B20B43234338
:101A4000038130BD10B50446FFF7F0FF208940F058
:101A50007700208110BD10B50446FFF7E7FF20890D
:101A600040F48040208110BD828822F07002828084
:101A700082880A4382807047028922F0070202812D
:101A800002890A4302817047028922F080020281A2
:101A900002890A430281704770B50589048B068C60
:101AA00025F007050D434FF6FC410C4040F20111B3
:101AB0000C434FF6FF7101EA031126F02206114391
:101AC000314305810483018470BD0029818802D0DF
:101AD00041F0800101E021F0800181807047A0F891
:101AE0005010704770B5048C24F001040484058BF9
:101AF000048C4FF6FF7606EA0313134325F0F30533
:101B00002B4324F00A020A4342F0010103830184BB
:101B100070BD0000CA4910B5884206D101211020CD
:101B2000FFF765FA0021102028E0C649884202D15B
:101B300001214C0410E0C449884202D101218C04E7
:101B40000AE0C249884202D10121CC0404E0C04924
:101B500088420AD101210C052046FFF73EFA2046B3
:101B6000BDE810400021FFF738BABA49884209D1D0
:101B700001212020FFF73BFA00212020BDE8104082
:101B8000FFF735BA10BD7FB50446008A0D4620F434
:101B90004051E88808432082A08941F20C618843C3
:101BA000A9882A8911436A8902431143A181A08A25
:101BB00020F44071A8890843A0826846FFF759F9CC
:101BC0009F48844202D0A348844201D1039800E098
:101BD0000298A1890904002900EBC00101EB001063
:101BE000296802DA4FEA410101E04FEA8101B0FBC6
:101BF000F1F26420B2FBF0F14FEA01114FEA111348
:101C00006FF018056B4302EB8302A3891D044FF0AC
:101C1000320306D503EBC202B2FBF0F000F007007E
:101C200005E003EB0212B2FBF0F000F00F000843F6
:101C300020817FBD4FF41651016000218180C18059
:101C400001810C2242818181704710B5028A4C8843
:101C500022F470630A8822438C88C9880C4322438B
:101C60001A43028210BD0021018041808180C18021
:101C700070470029818902D041F4005101E021F42C
:101C8000005181817047028B02F47F420283028BF4
:101C90000A43028370470029818902D041F4004140
:101CA00001E0C1F30E01818170470029818A02D0D1
:101CB00041F4006101E021F4006181827047C1F3C9
:101CC0000801818070478088C0F308007047028A4D
:101CD00022F00F020282028A0A4302827047002920
:101CE000818902D041F0020101E021F002018181ED
:101CF0007047828922F40062828182890A4382814C
:101D00007047028A22F020020282028A0A4302827B
:101D100070470029018A02D041F4804101E021F49A
:101D2000804101827047818941F0010181817047C2
:101D30000029818A02D041F0080101E021F0080168
:101D400081827047028BD2B20283028B42EA012168
:101D5000018370470029818A02D041F0200101E00F
:101D600021F02001818270470029818A02D041F050
:101D7000100101E021F0100181827047828A22F077
:101D800004028282828A0A43828270470029818A01
:101D900002D041F0020101E021F00201818270478E
:101DA000002A828A01D00A4300E08A438282704777
:101DB00010B5C1F3421301F01F040121A140012B12
:101DC00007D0022B07D01430002A026805D00A433E
:101DD00004E00C30F8E71030F6E78A43026010BDEB
:101DE0000246002012880A4200D001207047C943F1
:101DF0000180704730B501F01F0201240025C1F3B6
:101E0000421304FA02F2012B0FD0022B0FD0838A67
:101E10004FEA11210088134204FA01F400EA040099
:101E200001D000B10125284630BD8389F0E7038A3F
:101E3000EEE70A0A01219140C94301807047000082
:101E4000001001400044004000480040004C0040A9
:101E5000005000400014014010B501F04DFA01F0AF
:101E60000FFAFD4C207808B101F06CF9A078002839
:101E700003D0BDE8104002F0A3B910BD00F05AFC39
:101E800000F0CCFC00F01AFD4FF4165000F0C0FD3D
:101E900000F0B0FF01F06CF800F0E6FF01F0D8F8B8
:101EA0000421EE48FEF7FAFEED4E4FF48051304625
:101EB000FEF7F4FEF1143046FEF7F0FE3115304621
:101EC000FEF7ECFE04213046FEF7E8FE082130461E
:101ED000FEF7E4FEE34F20213846FEF7DFFE102137
:101EE0003846FEF7DBFE4FF47A78404600F05FFCA0
:101EF0004FF47A61C82001F01EF8D74C012000256C
:101F0000E07040F2E730C4E905056562A562E5626C
:101F100025636563E561D4482562A063D348E06327
:101F2000D348206440426064D248A0644042E064E8
:101F3000D14820654FF44840606502F049F9CF4828
:101F4000C0F8005001F068F801466068814206DD83
:101F50002069032801D0401C0AE0256109E001F056
:101F60005BF861684942884209DA206900B3401E83
:101F7000206101F05AF84146322000F0DCFF206970
:101F8000C0B101281FD002282AD00328DAD10421A9
:101F90003046FEF783FE08213046FEF77FFE202103
:101FA0003846FEF77BFE10213846FEF775FEC9E77E
:101FB0000320DDE704213046FEF76EFE082130469F
:101FC000FEF76CFE07E004213046FEF767FE0821AD
:101FD0003046FEF761FE20213846FEF75FFE0BE03B
:101FE00004213046FEF75AFE08213046FEF756FE21
:101FF00020213846FEF750FE10213846FEF74EFEEF
:10200000A0E72DE9F05F4FF47A61C82000F093FF5C
:102010009BA004F0FFF94FF47A7000F0C8FB01F0C8
:102020006EFD02F04DFC02F0A7FB02F0D1F8642037
:1020300000F0BDFB88480023C822D0F8108064213E
:1020400050249625934E9FED940A944FDFF850C28A
:102050004FF08C0AB8F1000F2CD04FF4C87B4FF032
:10206000280E4FF00C09B8F1010F30D0B8F1020F73
:102070003FD0B8F1030F46D1C462C0E90615AC00E9
:10208000C0E908143C21C0E90C233160C0F80C9071
:1020900087ED000A8CED000A03F03DF801F02BFDFE
:1020A000032000F027FF03F049FCBDE8F05F0320A8
:1020B00000F020BF00F11808C4624262A8E82600C0
:1020C000C0E90CA33C2131600821C1600AE0C46270
:1020D000C0E90615C0E9081BC0E90C23C6F800E0FA
:1020E000C0F80C9087ED000A8CED000A03F013F89D
:1020F000DBE700F11808C462A8E82608C0E90CA3D1
:10210000C6F800E0C2E7BDE8F09F2DE9F05F4FF4AC
:102110007A612DED028BC82000F00DFF61A004F064
:1021200079F94FF47A7000F042FB01F0E8FC02F01C
:102130004FF8642000F03BFB474C32200E219FED0E
:10214000568A00256426DFF84C91DFF850A1DFF8AD
:1021500050B122694FF05008282742B1012A17D008
:102160009FED550A022A26D0032A38D160E0A661E5
:10217000C4F82C80E6614FF4C8726563C4E90802B4
:10218000C9F80070E1608AED008A8BED008A26E0D4
:10219000C4F82C806563C4E906604FF41672C4E984
:1021A0000802C9F800709FED450AE1608AED000A57
:1021B0009FED430A11E04FF47A72C4F82C806262FA
:1021C000C4E906608C222062C4E90C25C9F80070BD
:1021D000DFED3C0AE160CAED000A8BED000A01F078
:1021E0009EF901F08AFC03F081FB032000F082FEDF
:1021F00001F0EEFF8C202063C4F82C804FF4C870EF
:1022000065636062C820C4E90660962020620C20E5
:10221000C9F80070E0608AED008A8BED008A03F057
:102220008DFBBDEC028B0320BDE8F05F00F062BEC9
:1022300040F24C40C4F82C8060628C20C4E90C054C
:102240002762C4E90665C9F80070E1608AED000AFA
:102250009FED1D0AC1E7000028000020000C02408D
:102260000008024000000240B0F1FEFF7C0F0100B8
:1022700068D1FDFF6073FFFFA81CFFFF180100205D
:10228000427574746F6E203020707265737365646C
:102290000A0D0000B0010020000070426C01002017
:1022A00070010020427574746F6E20312070726569
:1022B000737365640A0D00000000DC420000A04258
:1022C0000000C8420000B4420000F0422DE9F05F77
:1022D0004FF47A612DED028BC82000F02CFEBEA0D9
:1022E00004F098F84FF47A7000F061FA01F007FCFE
:1022F00001F06EFF642000F05AFABC4C19211FED6A
:10230000110AD4F810C01FED1C8A7822B84D0C2693
:10231000B84FDFF8E4824FF4C87B4FF0C80A4FF0A3
:102320002809BCF1000F0DD014205C23BCF1010F73
:102330001AD0BCF1020F1FED200A4AD0BCF1030FE6
:1023400021D153E0C4F824B062632960E66087EDD0
:10235000008A88ED000A4120A0652D201E2104F18D
:102360005C03DC2207C30CE04FF4167CC4F824C0E5
:10237000C4F834A02960E66087ED000A1FED300A3A
:1023800040E0C4E91A1001F057FA01F0B6FB03F07F
:10239000ADFA032000F0AEFD6420A0618C20C4F8EB
:1023A00024B020635020E062002060639620C4E9DE
:1023B00007A0C5F80090E66087ED008A88ED008AE6
:1023C00003F0BCFABDEC028B0320BDE8F05F00F027
:1023D00091BD4FF47A7CC4F824C0C4F834A02960BD
:1023E0005FED480AE660C7ED000A0BE040F24C4C96
:1023F000C4F824C0C4F834A02960E66087ED000A60
:102400001FED4F0A04F15C0C88ED000A4946A265F5
:10241000ACE80B00B5E7F0B5784C072289B011465F
:10242000204600F071FE074607220921204600F0F1
:102430006BFE064607220821204600F065FE054691
:1024400000F0E6FD044600F0E7FD6D4904AA0968C6
:10245000E2C26D4A6B4912680968CDE900206B48F9
:10246000CDE9024103686A4802686A4801686A481F
:1024700003F0D0FF09B0F0BD70B54FF47A61C82009
:1024800000F059FD4FF47A76304600F090F963A0E1
:1024900003F0C0FF554C206958B301282CD000250B
:1024A000022834D003287CD101F092FE304600F09F
:1024B0007EF95348056000F03DFF00BF00F042FE8A
:1024C000FFF7A9FF012000F072F900F0A5FDD4E9A3
:1024D00001215143884207DC00F09EFDA16862683B
:1024E000494251438842E9DABDE87040642000F077
:1024F0005EB901F000FB05E001F0FFFA02F02DFDEE
:1025000002F03AF9BDE87040032000F0F3BC01F09E
:102510005FFE5021E1626420A06178212163E061C7
:1025200032201FED980A20623248A42280ED000A72
:10253000314880ED000A61632D492820B2EE000A7F
:1025400008603B4981ED000A3A4981ED000A5121BA
:10255000A1653C216266C4E91710C4E91A0100F0C4
:10256000E9FE657001F083FF642000F020F901F0BE
:102570009FFF642000F01BF901F0B9FF642000F018
:1025800016F901F053FF304600F011F901F0AFFFEA
:10259000642000F00CF901F08BFF642000F007F9D3
:1025A00000E018E001F063FF642000F000F901F0A2
:1025B0003DFF304600F0FBF801F07AFF642000F0A8
:1025C000F6F801F033FFA570002000F019FC0020A0
:1025D00000F02CFC657070BD427574746F6E203213
:1025E00020707265737365640A0D00002800002076
:1025F000B00100206C01002070010020002001408B
:102600001801002000010020080100201001002016
:102610000C01002004010020D47900084275747474
:102620006F6E203320707265737365640A0D00004D
:1026300074010020780100207047FEE7FEE7FEE706
:10264000FEE770477047704737480168491C0160D2
:1026500036490868002802DA354B00221A60401E0D
:102660000860FFF7F9BB10B52020FEF76BF84FF4B8
:10267000967470B1462000F09AF82020FEF762F8B8
:1026800020B1204600F093F8FFF7BBFC2020FEF7B6
:1026900067F84020FEF756F8002811D0462000F0D9
:1026A00086F84020FEF74EF8002809D0204600F0BA
:1026B0007EF8FFF7E1FEBDE810404020FEF750B87D
:1026C00010BD70B54FF480442046FEF73BF84FF440
:1026D000967570B1462000F06AF82046FEF732F891
:1026E00038B1284600F063F8FFF70FFD2046FEF7EB
:1026F00037F84FF400442046FEF724F8002811D0A4
:10270000462000F054F82046FEF71CF8002809D0B7
:10271000284600F04CF8FFF7D9FD2046BDE8704090
:10272000FEF71EB870BD0000E0000020F40000209D
:102730003404004070B503F0FBFD03F01EFE334887
:102740004FF47A710068B0FBF1F0401EB0F1807F69
:1027500016D24FF0E024606166170F21304600F07A
:1027600049F80025A561072020614FF44070FDF76E
:102770008FFD0021304600F03DF82548456070BDD2
:10278000FEE74FF0E0208069A821B0FBF1F120487E
:10279000426802EB4203C3EBC212C1EBC20101F576
:1027A0007A71016000687047194840687047184A9C
:1027B000516853685B1A8342FBD1704730B50546B8
:1027C000FFF7DFFF4FEA0004FFF7DBFF001BA84223
:1027D000FAD130BD30B50C464FEA0005FFF7D1FF06
:1027E000001BA842FAD330BD094A53685B1A8342E2
:1027F000FBD370470907090E002803DA00F00F0029
:10280000044A00E0044A815470470000BC010020E3
:10281000DC00002014ED00E000E400E07CB50121C4
:102820000846FEF78AFB01210420FEF786FB012102
:102830000820FEF782FB3020009001208DF8040074
:1028400000208DF8060003218DF805108DF8070093
:1028500069461748FEF7AAF90C20164D0090694604
:102860002846FEF7A3F90420134E022400908DF8A9
:10287000074069463046FEF799F94FF4E050009062
:102880008DF8074069462846FEF790F90421304646
:10289000FEF704FAE1022846FEF700FAA1022846F4
:1028A000FEF7FCF961022846FEF7F8F97CBD00004E
:1028B0000000024000080240000C02402DE9F047F1
:1028C00001218F0386B03846FEF75FFB0121062009
:1028D000FEF733FB0024DFF830A18DF810402025EF
:1028E0008DF8134003A950460395FEF75FF90521C3
:1028F0000120FEF7FAFB00958DF8044008268DF8BC
:10290000056001258DF806506846FDF7CBFE4FF0B7
:1029100017098DF808908DF809508DF80A408DF848
:102920000B5002A8FDF7B9FC8DF810408DF813404C
:1029300003A950460397FEF739F90E210120FEF74F
:10294000D4FB8DF804408DF8056000978DF8065093
:102950006846FDF7A7FE28278DF808708DF8095006
:102960008DF80A408DF80B5002A8FDF796FC8DF803
:1029700010404FF400488DF8134003A95046CDF89D
:102980000C80FEF713F90F210120FEF7AEFB8DF846
:1029900004408DF80560CDF800808DF8065068463B
:1029A000FDF780FE8DF808708DF809508DF80A400B
:1029B0008DF80B5002A8FDF770FC8DF810404027F1
:1029C0008DF8134003A911480397FEF7EFF806218D
:1029D0000220FEF78AFB8DF804408DF80560009711
:1029E0008DF806506846FDF75DFE8DF808908DF86D
:1029F00009508DF80A408DF80B5002A8FDF74DFCE8
:102A000006B0BDE8F0870000000402400008024064
:102A100070B5054688B001210220FEF78EFA01212B
:102A20001020FEF7B2FA6D4E072209213046FEF75C
:102A300042F907220A213046FEF73DF900248DF8BD
:102A4000164001208DF8170002208DF814004FF475
:102A5000C06104918DF8150004A93046FEF7A6F870
:102A60005F4E01213046FFF716F9ADF808400C2003
:102A7000ADF80A00ADF80440ADF80640ADF81840D6
:102A80003015ADF81A00ADF81E400095ADF80C40B9
:102A9000ADF81C4069463046FFF775F806A9304688
:102AA000FFF7D3F801213046FFF7E3F808B070BD17
:102AB0000020704770B54A4D0446C1B22846FFF762
:102AC000FEF880212846FFF78BF90028F9D0204630
:102AD00070BD434801888906FCD58088C0F3080092
:102AE000704770B53E4D044680212846FFF778F9BF
:102AF0000028F9D0A1B22846FFF7E1F8204670BDC2
:102B000010B538A003F086FC354C20212046FFF795
:102B100067F90028F9D02046FFF7D5F8C0B210BDFC
:102B200010B539A003F076FC2D4C20212046FFF78C
:102B300057F90028F9D02046FFF7C5F801463AA01A
:102B400003F068FC2046FFF7BEF8C0B210BD10B518
:102B500037A003F05FFC224C20212046FFF740F90C
:102B60000028F9D02046FFF7AEF8A0F1300137A0D9
:102B700003F050FC2046FFF7A6F8303810BD10B522
:102B80000446014686B033A001E0214638A003F098
:102B900041FC694641A003F05FFD694640A003F097
:102BA00039FC2146684603F0A3FE0028EDD106B0AB
:102BB00010BD38B5044601463BA001E0214641A0C6
:102BC00003F028FC69464AA003F046FD1FA00099C7
:102BD00003F020FC0098A042F0D138BD0000024074
:102BE000001001400D0A707265737320616E7920C8
:102BF0006B657920746F20636F6E74696E75652ED6
:102C00002E2E0D0A0D0A0000706C6561736520653B
:102C10006E746572206120636861726163746572AD
:102C20002E2E2E0D0A00000025630D0A0000000064
:102C3000706C6561736520656E74657220612064D7
:102C4000696769742E2E2E0D0A00000025640D0A96
:102C500000000000507265737320257320746F208C
:102C6000436F6E74696E75652E2E2E203A0000003B
:102C7000496E76616C696420696E7075742C207081
:102C80007265737320257320746F20436F6E7469AF
:102C90006E75652E2E2E203A000000002573000070
:102CA00025730D0A000000005072657373202564BF
:102CB00020746F20436F6E74696E75652E2E2E2002
:102CC0003A000000496E76616C696420696E707527
:102CD000742C20707265737320256420746F2043F8
:102CE0006F6E74696E75652E2E2E203A00000000FE
:102CF000256400001CB501210420FEF73CF94FF4C7
:102D00007070009002208DF8040003208DF80500FB
:102D100000208DF80600504C8DF8070069462046CB
:102D2000FDF744FF022206212046FDF7C4FF0222E0
:102D300007212046FDF7BFFF022208212046FDF7AC
:102D4000BAFF022209212046FDF7B5FF1CBDF0B5F0
:102D500089B040F2E73006900320ADF81400002659
:102D60003E4FADF81C60ADF8166005A93846FEF779
:102D700071FA60203A4DADF800000124ADF8024030
:102D800028880290ADF80C6069463846FEF7E4FAF0
:102D900008213846FEF721FCADF802406888029011
:102DA00069463846FEF704FB08213846FEF71BFC4F
:102DB000ADF80240A888029069463846FEF734FB19
:102DC00008213846FEF719FCADF80240E888029069
:102DD00069463846FEF762FB08213846FEF713FCC9
:102DE00001213846FEF794FA01213846FEF7AAFA87
:102DF00009B0F0BD10B5FFF77DFFBDE81040A6E7B4
:102E000018490968884200DD08464942884200DACC
:102E10000846124A00213C32131D002802DB1060D4
:102E20001960704711604042186070470D49096889
:102E3000884200DD08464942884200DA0846074ACF
:102E400000213432131D002802DB11601860704726
:102E500040421060196070470004024000080040C2
:102E6000EC0000203C00002030B58BB00121022096
:102E7000FEF781F84020059002208DF8180003210C
:102E80008DF8191000248DF81A40354D8DF81B006F
:102E900005A92846FDF78AFE022206212846FDF7ED
:102EA0000AFF952008908B20ADF81C002D4DADF841
:102EB0002440ADF81E4007A92846FEF7CBF9602054
:102EC000ADF800000120ADF802000294ADF80C400E
:102ED00069462846FEF740FA08212846FEF77DFBA2
:102EE00001212846FEF714FA01212846FEF72AFAA6
:102EF0000BB030BD2DE9F04105461B498C206843DD
:102F00000860184F95202C3738600024154EA046D5
:102F100034360CE03868401CC00830604620FFF7AB
:102F200046FCC6F800804620FFF741FC641CAC421A
:102F3000F0DBBDE8F0810B4A10B52C321368094C68
:102F40005B1C9B0834342360084B93FBF1F18C230A
:102F500091FBF3F1491E11600349086010BD0000A8
:102F60000000024000040040F400002000BD010504
:102F70007CB501210920FDF7FEFF02208DF8040039
:102F800001208DF8070048F203002E4C009069469E
:102F90002046FDF70BFE08202B4D00906946284681
:102FA000FDF704FE022200212046FDF784FE0222E6
:102FB00001212046FDF77FFE01220F212046FDF76B
:102FC0007AFE012203212846FDF775FE1F4C4FF0C3
:102FD000FF3529462046FEF781F929464FF0804506
:102FE0002846FEF77BF90223002203212046FEF744
:102FF00053FD00231A4603212846FEF74DFD01210B
:103000002046FEF79FF901212846FEF79BF97CBD7B
:103010000E482430006870474FF08040406A704787
:103020000A4900202431086070474FF08041002099
:103030004862704705492431086070474FF080416D
:10304000486270470000024000040240000C00404B
:1030500030B501218DB00802FDF797FF88200325C8
:1030600000908DF8045000248DF8074069463048E0
:10307000FDF79CFD8DF8045000958DF807406946DA
:103080002C48FDF793FD8DF8045033202A4D009015
:103090008DF8074069462846FDF788FD4FF48030DB
:1030A000CDE908404FF47060CDE90A4008A8FDF76B
:1030B0007EF98DF80C4002948DF80D40059406942D
:1030C00001201E4C8DF81C0002A92046FDF744F992
:1030D000012240F205212046FDF7A4FA01212046F5
:1030E000FDF77AF904211648FDF7D8FDA11428460A
:1030F000FDF7D4FDE1142846FDF7D0FD2115284643
:10310000FDF7CCFD0DB030BD10B5134604460122CD
:10311000FDF795F92046FDF7CCF902212046FDF791
:103120008AFA0028F9D02046BDE81040FDF7F3B92F
:10313000000002400004024000080240002001405C
:10314000000C02402DE9F047934D04220A21284645
:10315000FFF7DAFF914C04220E21E0602846FFF7CA
:10316000D3FF206104220B212846FFF7CDFF6061C9
:1031700004220F212846FFF7C7FFA061FFF701FBDC
:10318000874F824604213846FDF786FD854E4FF471
:10319000806841463046FDF77FFD51463C20FFF7F1
:1031A00019FB04220A212846FFF7AEFFE16804223A
:1031B000401AE0600E212846FFF7A6FF2169401A59
:1031C000206104213846FDF769FD41463046FDF790
:1031D00065FDE0680027002800DAE7602069002824
:1031E00000DA27615146FA20FFF7F4FA4FF48059CC
:1031F00049463046FDF750FD4FF4006841463046E1
:10320000FDF74AFD51464FF4AA70FFF7E3FA042296
:103210000B212846FFF778FF61690422401A60619C
:103220000F212846FFF770FFA169401AA0614946A7
:103230003046FDF733FD41463046FDF72FFD60690E
:10324000002800DA6761A069002800DAA761E26857
:1032500021684FF47A704A4392FBF0F2E2602269EF
:103260004A4392FBF0F2226162694A4392FBF0F218
:103270006261A2694A4392FBF0F0A061BDE8F08769
:103280002DE9F0411426454C0020434F0546E061EE
:10329000072208213846FFF737FFE1696D1C084413
:1032A000E061B542F4DB4CF2503191FBF6F0E2699B
:1032B00050433D4A1268801A90FBF1F04042E061B1
:1032C000216A01442162616A08446062BDE8F081BC
:1032D00010B5042203213048FFF716FF2F4C606021
:1032E00004F0DDF89FED311B53EC112B03F050FF80
:1032F00004F0A6F8A06010BD10B5FFF7E9FF27485D
:1033000041F658318068884213DA264C0421204661
:10331000FDF7C2FC08212046FDF7BEFC254C20210C
:103320002046FDF7B9FC2046BDE810401021FDF70E
:10333000B3BC10BD70B5184D00242DED028B4FF4B9
:103340007A769FED1D8B072208212846FFF7DCFEC9
:1033500004F0BCF853EC182B03F072FE41EC180B90
:103360000120FFF724FA641CB442ECDB51EC180B8B
:103370009FED130B53EC102B03F00AFF9FED121B74
:1033800053EC112B04F0B6F804F05AF80649086023
:10339000BDEC028B70BD000000200140F800002051
:1033A000000C024000080240D8000020AC1C5A6407
:1033B0003BDFD33F0000024000000000000000009F
:1033C0000000000000408F4000000000006AE8405C
:1033D00070472DE9F05FF94AF748F94B1168FC276F
:1033E00000EB011C1868B8463E461CF800403D46FC
:1033F00084440F2901DA9CF810700F2801DA9CF838
:103400000180002801DD1CF8106C002901DD1CF88A
:10341000015CDFF8B0A393460AEB0111085C01F0F0
:10342000A1F8DFF8A49340B9601E874205D14E2170
:1034300089F800100520BDE8F09F5746DA46DBF812
:103440000000DFF87CB307EB0011DBF80000085C3C
:1034500001F08BF838B9611E884504D1452189F8FF
:1034600000100620E7E7DAF80010B84607EB011075
:10347000DBF800105F46405C01F07AF838B9601E56
:10348000864204D1532189F800100720D3E7DAF8E7
:10349000001008EB01103968405C01F06CF838B995
:1034A000641EA54204D1572189F800100820C2E704
:1034B0000020C0E72DE9F041C24F0026002407EBB1
:1034C0000615285D01F05AF808BB285D0F2E40F064
:1034D0000F00285504DA2819017C41F00401017419
:1034E000002E05DD281910F8101D41F001010170B2
:1034F0000F2C04DA2819417841F008014170002CA2
:1035000005DD281910F8011D41F002010170641C4D
:10351000102CD6DB761C102ED0DBBDE8F0812DE917
:10352000F04F4FF4C8712DED028BE5B0684603F003
:10353000B8F9A34D0026A14CA34F2E604FF04E0BBF
:103540002660B24687F800B0FFF7B4FF01F005FD32
:1035500001F012F9B146DFF86082A7E0216828681F
:1035600008EB0111085CFC2803D30A20FFF7C2FC1A
:10357000A1E0954800784E280BD045282BD0532841
:103580004AD057286BD087E02068761C401C20600A
:1035900001E08C4F2068296807EB0010405C00F0C8
:1035A000E1FF002878D12268286808EB02110B1887
:1035B000095C1B7C491E8B426ED107EB021108444B
:1035C000007C00F0DBFF0028DED165E02868761C77
:1035D000401C286000E07B4F2068296807EB001042
:1035E000405C00F0C2FFA0BB2268286808EB021113
:1035F0000B18095C5B78491E8B424DD107EB021119
:103600000844407800F0BAFF0028DFD144E0206889
:10361000761C401E206001E06A4F2068296807EB95
:103620000010405C00F0A4FF98B92268286808EBFD
:1036300002110B18095C13F8103C491E8B422BD168
:1036400007EB0211084410F8100C00F097FF002857
:10365000DDD121E02868761C401E286000E0594F2B
:103660002068296807EB0010405C00F084FF98B9DF
:103670002268286808EB02110B18095C13F8013C5A
:10368000491E8B4208D107EB0211084410F8010CC7
:1036900000F074FF0028DDD14C4840F82960FFF7A6
:1036A00098FE4DF82900002609F1010900F06CFF91
:1036B00000283FF453AF4FF47A70FFF778F8FFF724
:1036C00039FE41494248012481F800B0047000F0FD
:1036D0007FFD404E404F3D4D34703C70002498E0DB
:1036E0004CB305EB84014968F1B300EE100AB8EE63
:1036F000C00A00BF00F0C7FD3848394900680968B2
:1037000088420DDD3748384900680968884207DD7E
:1037100036480268364801683648006800F0B0FB59
:103720005DF8240005283DD006283ED007283FD06C
:1037300008286BD06CE0304890ED000AB8EEC00A63
:1037400000F09BFD2D48D0ED000AB8EEE01AC0EE67
:10375000010A10EE900A04F0C1F89FED291B53EC0A
:10376000112B03F0C5FF00E00DE041EC180B2868B9
:1037700003F095FE53EC182B03F062FC03F02EFCD3
:1037800000EE100AB6E7DFF8808000EE100AD8F8E5
:103790000090B8EEC00AC8F800A000F074FDC8F8A8
:1037A0000090A9E700F042FE32E000F060FE2FE05A
:1037B00000F07EFE2CE029E0D00200201400002062
:1037C00010000020D001002024000020D0030020A1
:1037D00028000020A60000202A000020040100206C
:1037E000D000002008010020D40000204400002068
:1037F000CC000020C8000020A0000020980000207D
:10380000CAC342AD69DEDD3F5C00002000F06FFE00
:10381000641C55F8240000287FF462AF544687F8F2
:1038200000A0FFF7EDFA0020FFF700FB347065B051
:10383000BDEC028BBDE8F08F2DE9F04F4FF4C8715D
:103840002DED028BE5B0684603F02BF8BC4D002649
:10385000BC4CBD4F2E604FF04E0B2660B24687F831
:1038600000B0FFF727FE01F078FB00F085FFB146BE
:10387000DFF8D882A7E0216808EB01102968405CD6
:10388000FC2803D30A20FFF735FBA1E0AE480078FF
:103890004E280BD045282BD053284AD057286BD020
:1038A00087E02068761C401C206001E0A84F20685B
:1038B000296807EB0010405C00F054FE002878D126
:1038C0002268286808EB02110B18095C1B7C491E52
:1038D0008B426ED107EB02110844007C00F04EFED3
:1038E0000028DED165E02868761C401C286000E0D6
:1038F000974F2068296807EB0010405C00F035FE08
:10390000A0BB2268286808EB02110B18095C5B78E1
:10391000491E8B424DD107EB02110844407800F05C
:103920002DFE0028DFD144E02068761C401E206078
:1039300001E0874F2068296807EB0010405C00F029
:1039400017FE98B92268286808EB02110B18095C69
:1039500013F8103C491E8B422BD107EB021108448F
:1039600010F8100C00F00AFE0028DDD121E02868D4
:10397000761C401E286000E0754F2068296807EB20
:103980000010405C00F0F7FD98B92268286808EB49
:1039900002110B18095C13F8013C491E8B4208D137
:1039A00007EB0211084410F8010C00F0E7FD0028B5
:1039B000DDD1684840F82960FFF70BFD4DF829007C
:1039C000002609F1010900F0DFFD00283FF453AFA4
:1039D0004FF47A70FEF7EBFEFFF7ACFC5A49DFF8C4
:1039E0007891012781F800B089F8007000F0F0FBB1
:1039F0005446DFF86CA1DFF8648100258AF8007076
:103A000088F80070DFF85CB1524E64E0BDB106EB9F
:103A100085014968C9B3401E00EE100AB8EEC00A1D
:103A200000F031FC8BF800705DF82500052844D0CB
:103A3000062845D0072846D0082847D048E04A48FD
:103A400090ED000AB8EEC00A00F017FC4748D0ED30
:103A5000000AB8EEE01AC0EE010A10EE900A03F078
:103A60003DFF41EC180B306803F019FD1FED9C1B66
:103A700053EC112B03F048FE53EC182B03F0E0FA43
:103A800003F0ACFA00EE100ACAE7FFE7384909680C
:103A9000649137490C6003F002FD9FED361B53EC37
:103AA000112B03F031FE03F099FA00EE100A00F03A
:103AB000EAFB2F4864990160B4E700F0B7FC07E027
:103AC00000F0D5FC04E000F0F3FC01E000F00FFD95
:103AD0008BF800406D1C56F82500002896D188F818
:103AE00000408AF80040FFF78BF90020FFF79EF9AD
:103AF00089F800409BE602F037BB02F05FBB70B56F
:103B00004FF42F741D4D04E0FFF71CFB0A20FEF755
:103B10004EFE2868A042F7DB0220FFF7EBF9184DB4
:103B200005E000BFFFF70EFB0A20FEF740FE286805
:103B3000A042F7DBBDE870400220FFF7DBB90000D0
:103B4000100000201400002024000020D0020020DB
:103B5000D0010020D0030020A60000202800002073
:103B60002A000020A7000020A000002098000020CC
:103B70005C000020000000000000E03F0401002085
:103B8000080100202DE9F05F04462DED028B00F0C6
:103B90001FFBA1490020DFF88CA208709F49DFF8C5
:103BA00088B2002608609E49012008709AED000A3C
:103BB000FDEEC08A9BED000ABDEEC08A9FED9B0A18
:103BC0008AED000A8BED000AFEF7EEFD0746984DE0
:103BD000FEF7EAFD2968C01B8842F9D3FEF7E4FD31
:103BE000074694480021DFF850820160002C81468E
:103BF0000BDC1BE0914800684142C8F80010FEF75A
:103C0000D3FDC01BB0F57A7F0ED8D9F80000A042D2
:103C1000F0DB0FE089480168C8F80010FEF7C4FD2A
:103C2000C01BB0F57A7F01D9012603E0D9F8000066
:103C3000A042EFDCB8EEE80A0020C8F800008AEDE8
:103C4000000AB8EEC80A8BED000AFEF7ADFD044687
:103C5000FEF7AAFD2968001B8842F9D370490120AC
:103C600008703046BDEC028BBDE8F09F2DE9F05F97
:103C7000DFF8AC816848012688F8006000240470F1
:103C80006F486649DFF8BC910068DFF8BCA10860A6
:103C9000C9F80040CAF80040FEF786FD0546DFF887
:103CA000ACB16B4F17E000BFFFF74CFA69480168F1
:103CB000DBF8000081420BDD674801686748006857
:103CC000814205DD4FF47A613220FFF734F908E0D4
:103CD0000120FEF76CFDFEF767FD3968401B884246
:103CE000E2D35F48544F006840423860FEF75CFD05
:103CF000DFF870B1054600BFFEF756FD411B5A487C
:103D0000DBF80020006810448142F5D35748584939
:103D10003C6000680860FEF747FDDFF858B1564F79
:103D2000054600BFFEF740FD411BDBF800003A6886
:103D300010448142F6D388F80060C9F80040CAF800
:103D4000004091E72DE9F05FDFF8D480324801268A
:103D500088F800600024047039483049DFF8E490A6
:103D60000068DFF8E4A00860C9F80040CAF8004025
:103D7000FEF71AFD0546DFF8D4B0354F17E000BF57
:103D8000FFF7E0F933480168DBF8000081420BDD02
:103D90003148016831480068814205DD4FF47A619D
:103DA0003220FFF7C8F808E00120FEF700FDFEF71B
:103DB000FBFC3968401B8842E2D329481E4F00684B
:103DC0003860FEF7F1FC0546DFF898B0FEF7ECFC32
:103DD000411B2548DBF80020006810448142F5D3E0
:103DE000264823493C6000680860FEF7DDFCDFF8E8
:103DF00084B0214F054600BFFEF7D6FC411BDBF81F
:103E000000003A6810448142F6D388F80060C9F88F
:103E10000040CAF8004027E7280000202C010020BD
:103E20002A00002074010020780100200000C84210
:103E3000480000201801002030010020540000201C
:103E40005C0000209401002098010020D000002098
:103E5000840000200401002008010020D40000207C
:103E600080000020880000208C0000207C000020C2
:103E70002001002090000020940000207800002005
:103E80002DE9F74F82B09046FFF7C6F80190FFF793
:103E9000BFF8DFF87C901F490090D9F800600968EE
:103EA000C9F800101C49012008701C490020087046
:103EB000FEF77AFC0546DFF868A0DFF868B01A4F15
:103EC00016E000BFFEF75DFC04460298DAF8001029
:103ED000401AFEF795FF0398DBF80010401AFEF732
:103EE000A5FF00BFFEF74DFC3968001B8842F9D3DF
:103EF000FEF75AFC411B4145E4D30198FFF79EF8B9
:103F00000098FFF797F8C9F8006005B0BDE8F08F9A
:103F10003C00002040000020280000202A00002053
:103F200004010020080100204400002070B5FB4877
:103F30000168FB480268FB4802F13203994201DD47
:103F4000511A08E0F94BF84A1B68126803F1320471
:103F5000A24202DDD11A816070BDF54B00241B68BE
:103F6000994222DAF34909688A421EDAF249F64A8E
:103F70000B68F24912680E68F149B3420D68F149C5
:103F8000096808DD914206DA591A711A694381609D
:103F900000290ADC70BD9142FCDDB342FADAC91A8D
:103FA000891A694381600029F4DA846070BD70B5B4
:103FB000DC4CDC4D803CD4E91C021118101AC4E919
:103FC000041000EE101AE14AD4ED000AB8EEC00A5F
:103FD00012682B6930EEC00A92FBF3F2D4ED080AA6
:103FE000104430EE200A84ED080A00EE100AD4EDE9
:103FF000010AD748B8EEC00A30EEC00AD4ED090A6B
:1040000030EE200A84ED090A007878B1FFF78EFFC0
:10401000D5E9020190FBF1F000EE100AD4ED090A97
:10402000B8EEC00A30EE800A84ED090AD4ED080A21
:1040300094ED0E0A94ED0A1AD4ED0F1A20EE200A20
:1040400030EEC11A04F1280301EE810ABDEEC00A68
:1040500010EE102A226394ED091A94ED100AD4EDA3
:104060000B1A94ED112A20EE010A71EE611A02EE8C
:10407000210ABDEEC00A10EE101A6163501AC3EC9B
:10408000020A1144C4E91601FEF7BAFEE06DBDE86C
:104090007040FEF7CBBEA348B0EE001A803890ED1A
:1040A000020AD0ED000AB8EEC02ADFEDAA1AF4EE3B
:1040B000C20AF1EE10FA11D290ED122A22EE011A84
:1040C00081EE212AB8EEC01A72EE200AC0ED000A75
:1040D000F4EEC10AF1EE10FA18DC1BE0B8EEC02ACB
:1040E000F4EEC20AF1EE10FA14DD90ED132A22EE7E
:1040F000011A81EE212AB8EEC01A70EEC20AC0ED94
:10410000000AF4EEC10AF1EE10FA03D2B8EEC00ACA
:1041100080ED000A90ED030AD0ED010AB8EEC01A56
:10412000F4EEC10AF1EE10FA11D290ED141A70EE0D
:10413000810AB8EEC01AC0ED010AF4EEC10AF1EE30
:1041400010FA03DDB8EEC00A80ED010A7047B8EE40
:10415000C01AF4EEC10AF1EE10FAF7DD90ED151A6F
:1041600070EEC10AB8EEC01AC0ED010AF4EEC10A41
:10417000F1EE10FAE6D3704770B5FEF74DFF694CCB
:10418000803C2066FEF744FF226EA16E511A216723
:10419000E36EC4E91A20C31ACD1805EBD5756D106E
:1041A000C4E91D3511441844C4E9181008445D4998
:1041B00000EBD07040100860E06F401BE06770BDFE
:1041C00010B5FFF7D9FFFFF766FFBDE81040EEE638
:1041D00010B55F48002404705F4804702046FEF765
:1041E0000FFE0020FEF722FE9FED5C0A4D484D4970
:1041F000803880ED060A80ED070A80ED000A80ED28
:10420000010A8460C46080ED080A80ED090A80ED2F
:104210000A0A80ED0B0A8466C466046644660C6074
:104220004C608465C465C467FEF7FFFEBDE81040BE
:10423000FEF7F6BEB5EEC00AF1EE10FA01D8B7EE01
:10424000000A60EEA00A41EE410A80EE801AB4EE48
:10425000000A21EE000AB5EEC00AF1EE10FA01D212
:10426000B1EE400A704700EE100A3D48F8EEC00A71
:1042700090ED001A80EE810A70473948D0ED000AAF
:1042800020EE200A70472DE9F0412DED028BB0EEB3
:10429000408AB5EEC08AF1EE10FA01D29FED2F8A66
:1042A0002B4C2D49012020700870FEF7B5FE054605
:1042B000FEF7AEFE284400EBD0701A494710294D96
:1042C000294A8039174E55E000EE100AF8EEC00A70
:1042D00000EE103A03EBD373B8EEC00A58EE000AB2
:1042E000BDEEE00A10EE100AB0EB630F01DA002316
:1042F0002370FFF7B8FFD2ED000AB8EEE01AD1ED57
:10430000000AFFF797FFD1ED130AB4EEE00AF1EED1
:1043100010FA2DD2154800682BE000000C01002097
:10432000B8000020A401002010010020BC000020E3
:10433000B0000020B400002004010020C0000020D4
:104340003400002008010020C400002014010020D7
:10435000280000200000C8422A00002000000000C1
:104360009C000020980000205C0000204C000020F1
:104370001068886030682B68C01B00EE100AF8EEE9
:10438000C00A00EE103AB8EEC00A28EE000AF4EEB9
:10439000C00AF1EE10FA97D310688860BDEC028B6A
:1043A000BDE8F0812DE9F04719490120DFF86C8064
:1043B0000870184908701849097809B188F8000090
:1043C000174C184D2068A860FEF726FE0646FEF73B
:1043D0001FFE304400EBD070DFF84C90461000BF59
:1043E000FEF71AFE0746FEF713FED9F80010384410
:1043F00001EBD17106EB610100EBD070B1EB600F06
:104400002068A860ECDC002188F80010BDE8F08787
:10441000280000202A000020A400002029000020FD
:104420005C000020240100209800002010B5484CBA
:1044300020784E2818D047495728097804D04528B5
:1044400008D053280CD00FE011B1FFF70FFC0BE0A0
:10445000414806E011B1FFF775FC05E03F4800E078
:104460003F480068FFF78EFB4E20207010BD10B54E
:10447000374C3849207809784E2806D057280AD07A
:10448000452812D0532808D00FE011B1FFF7EEFBFA
:104490000BE0314806E0324804E011B1FFF752FC6E
:1044A00003E02E480068FFF76DFB4520207010BD2B
:1044B00010B5274C21784E2906D026485729007878
:1044C00004D0452908D00FE025480AE010B1FFF7D5
:1044D00039FC09E0214804E010B1FFF7C7FB03E015
:1044E0001D480068FFF74EFB5320207010BD10B52B
:1044F000174C1849207809784E2806D0572814D030
:10450000452808D0532808D00FE011B1FFF71AFC56
:104510000BE0124806E0124804E011B1FFF7A6FBD9
:1045200003E00D480068FFF72DFB5720207010BDF9
:10453000074800784E2806D0452805D0532804D0D7
:10454000572803D193E7B3E7D1E76FE7704700003F
:1045500024000020A700002064000020600000204C
:104560006800002000F001007047C0F34000704771
:10457000C0F380007047C0F3C0007047C0F3001064
:104580007047C0F3401070472DE9FC4F7548026832
:10459000072A01D0082A2BD173480368734810F802
:1045A000031C477B41F00109017B467F41F0020C6F
:1045B00090F82D1041F0040E017F41F002010191AD
:1045C00090F82E10857F41F004010091C17F847B1B
:1045D00041F0080B10F8021C41F0010AC17B6A3857
:1045E00041F008086249072B097804D0082B04D051
:1045F0000020BDE8FC8F072A0AD047F00C0780F89E
:10460000777080F8679080F876C0082B15D112E09B
:104610004E2902D0452907D00FE047F0080780F85F
:10462000777080F876C008E047F0040780F877706C
:1046300080F8679001E0072A0BD046F0090680F861
:10464000876080F897E0019E80F88660082B16D17D
:1046500013E0532902D0452908D010E046F008069F
:1046600080F88760019E80F8866008E046F00106C9
:1046700080F8876080F897E001E0082A0BD045F0C9
:10468000030580F88850009D80F8985080F889B024
:10469000072B16D113E0532902D0572907D010E079
:1046A00045F0020180F8881080F889B009E045F0F3
:1046B000010180F88810009980F8981001E0082A1C
:1046C00006D044F0060180F8781080F868A008E071
:1046D0004E2902D0572907D00CE044F0020180F89F
:1046E000781080F8798005E044F0040180F87810B3
:1046F00080F868A001207CE71A481B490068096817
:10470000084301D00020704701207047174A10B5B8
:104710006A3A02EB0112125C6FEA0204154AE307DF
:1047200002EB0111014404D0087CA20703D4FC234E
:1047300002E0FC20F9E74B78620701D4FC2201E09B
:1047400011F8102C240701D4FC2101E011F8011C00
:10475000834200DA1846824200DA1046814200DACB
:10476000084610BD10000020140000203A0200206E
:1047700024000020D00200202DE9F047DFF8DCA063
:10478000DFF8DC80DFF8DC900F25002408EB05164D
:10479000305DFFF7E7FE08B133A000E034A001F080
:1047A00039FE641C102CF3DB33A001F033FE33A080
:1047B00001F030FE324F0024305DFFF7DCFE08B11F
:1047C00030A000E02BA001F025FE3868854216D10C
:1047D0002D480068844212D19AF800004E2806D075
:1047E000452806D0532806D0572806D01CE027A01D
:1047F0000AE028A008E029A006E02AA004E0305D35
:10480000FFF7BFFE18B129A001F004FE0CE0305DF7
:10481000FFF7B4FE002809EB0510015D01D025A0CB
:1048200000E026A001F0F6FD641C102CC4DB15A0EE
:1048300001F0F0FD11A001F0EDFD6D1EA5D50024E5
:1048400009A001F0E7FD641C102CF9DB0AA001F0BF
:10485000E1FDBDE8F04709A001F0DCBD2400002027
:10486000D0010020D00200202B2D2D2D2D00000086
:104870002B202020200000002B0000000A0D00004B
:10488000140000207C0000001000002020205E208A
:104890000000000020203E200000000020207620A4
:1048A0000000000020203C20000000002020782094
:1048B000000000002533642E000000002534640051
:1048C00030B52848017841F00E010170417841F07F
:1048D0000C01417000214218491C12F8F03F1029C8
:1048E00043F001031370F6DB5FF0000100EB0112EF
:1048F000491CD37B102943F00203D373F6DB00215C
:10490000425C42F004024254491C1029F8DB0021A9
:1049100000EB0112491C1378102943F008031370AF
:10492000F6DB0E21104C0022002004EB02130728B6
:10493000195401DA491E04E0A0F10805072D00D240
:10494000491C401C1028F2DB072A01DA491E04E04A
:10495000A2F10800072800D2491C521C102AE3DBF0
:1049600030BD0000D0010020D00200202DE9F05F12
:10497000FD48DFF8FC93DFF8FC830468FB48FE4E3B
:10498000DFF8F8A3056899F800004FF0000B4E28F7
:1049900009D0452836D0532865D057287ED0BBE0B3
:1049A0000BF1010B6D1C0AEB0517385DFFF7DAFD03
:1049B000A0B93819007CFFF7E1FD78B106EB0510CE
:1049C0000119005D097C401E814207D1072C01D0EE
:1049D000082CE5D1062D01D0072DE1D10AEB0510F9
:1049E000005DFFF7BFFD002859D129462046FFF79B
:1049F0008DFE06EB05112144097C2AE00BF1010B29
:104A0000641C01E00AEB0517385DFFF7AEFDA0B9A5
:104A100038194078FFF7B2FD78B106EB051001199F
:104A2000005D4978401E814207D1062C01D0072C39
:104A3000E4D1072D01D0082DE0D1385DFFF795FDB9
:104A400068BB29462046FFF761FE06EB05112144AD
:104A5000497888425DD1CA480168C8F800105BE017
:104A60000BF1010B6D1E0AEB0517385DFFF780FD9A
:104A7000C8B9381910F8100CFFF780FD98B106EB93
:104A800005100119005D11F8101C401E81420AD169
:104A9000072C01D0082CE3D1082D01E018E038E004
:104AA00001D0092DDCD10AEB0510005DFFF760FD98
:104AB00078BB29462046FFF729FE06EB0511214465
:104AC00011F8101CC5E700BF0BF1010B641E01E0DB
:104AD0000AEB0517385DFFF74EFDB0B9381910F82D
:104AE000010CFFF74BFD80B106EB05100119005DCD
:104AF00011F8011C401E814207D1082C01D0092C5D
:104B0000E2D1072D01D0082DDED1385DFFF733FD4E
:104B1000B0B10020C8F8000000EE10BAB8EEC00A2C
:104B2000FFF7B1FB904FDFF844820AEB05103C60C1
:104B3000C8F80050005DFFF715FD58B1FC2410E0E7
:104B400029462046FFF7E2FD06EB0511214411F846
:104B5000011C7EE7D8F80000396806EB0010084415
:104B6000047CD8F800100AEB01103968405CFFF7AC
:104B7000FCFC08B1FC2506E0D8F80000396806EB1B
:104B8000001008444578D8F8001038680AEB011185
:104B9000D346BA46085CFFF7EBFC08B1FC2708E0F7
:104BA000D8F8000006EB0011DAF80000084410F80D
:104BB000107CD8F80010DAF800000BEB0111085C4B
:104BC000FFF7D9FC08B1FC2008E0D8F8000006EB9C
:104BD0000011DAF80000084410F8010C694EAC42EC
:104BE00005DABC4203DA844201DA052016E0A54268
:104BF00005DABD4203DA854201DA06200EE0AF4253
:104C000005DAA74203DA874201DA072006E0A84264
:104C10000BDAB84209DAA04207DA0820C6F8000029
:104C200099F800004E2825D02EE1D8F80000DAF8D7
:104C300000100BEB00105C4645465746405CFFF702
:104C400091FC60B92868396804EB00100844007CC6
:104C5000FFF794FC18B999F800004E2808D028688E
:104C6000396804EB0010405CFFF77FFC70B11AE07C
:104C700005203060D8F80010DAF800000BEB0111C5
:104C8000085CFFF76FFC00286DD1FDE028683968EB
:104C900004EB001008444078FFF770FC18B999F84D
:104CA0000000452808D02868396804EB0010405CF3
:104CB000FFF75EFC18B110E006203060E8E02868DD
:104CC000396804EB0010084410F8100CFFF756FC8C
:104CD00018B999F80000532808D02868396804EBFF
:104CE0000010405CFFF747FC18B110E0072030606F
:104CF000DCE02868396804EB0010084410F8010C67
:104D0000FFF73CFC18B999F80000572808D028682C
:104D1000396804EB0010405CFFF724FC18B10DE08B
:104D200008203060D0E02868396804EB001008449F
:104D3000007CFFF723FC00283FF457AF2868396850
:104D400004EB0010405CFFF710FC50B9286839688C
:104D500004EB001008444078FFF710FC00283FF4F3
:104D60004CAF286810E0B9E01000002014000020CB
:104D7000240000205C000020D0020020D001002090
:104D80005800002020000020396804EB0010405C2F
:104D9000FFF7EEFB58B92868396804EB00100844A7
:104DA00010F8100CFFF7EAFB00283FF42EAF28683C
:104DB000396804EB0010405CFFF7DDFB58B9286848
:104DC000396804EB0010084410F8010CFFF7D6FB1B
:104DD00000283FF422AF99F800004E2808D1286837
:104DE000396804EB0010405CFFF7BCFB0028A3D03F
:104DF00099F80000452808D12868396804EB0010AC
:104E0000405CFFF7B2FB0028A9D099F800005328B6
:104E100008D12868396804EB0010405CFFF7A8FB54
:104E20000028C2D099F80000572808D128683968AE
:104E300004EB0010405CFFF79EFB0028C9D02868F7
:104E4000396804EB0010405CFFF78CFB0028CED0E3
:104E50002868396804EB0010405CFFF786FB0028E7
:104E6000D2D02868396804EB0010405CFFF780FB63
:104E700000289AD02868396804EB0010405CFFF7DE
:104E80007AFB0028A5D0CBE699F80000452809D187
:104E9000D8F80010DAF800000BEB0111085CFFF7FE
:104EA00064FBD8B999F80000532809D1D8F800104C
:104EB000DAF800000BEB0111085CFFF759FB68B949
:104EC00099F80000572811D1D8F80010DAF800003E
:104ED0000BEB0111085CFFF74EFB38B1FB48026891
:104EE000FB480168FB480068FEF7CAFF30680528E8
:104EF00009D006280BD007280DD008280FD1BDE80F
:104F0000F05FFFF7F4BABDE8F05FFFF78FBABDE8D6
:104F1000F05FFFF7ACBABDE8F05FFFF7C9BABDE8D4
:104F2000F09FED480178ED484E29006806D04529EC
:104F300007D0532908D0572909D00AE005280AD0FC
:104F400007E0062807D004E0072804D001E008287D
:104F500001D001207047002070472DE9F0474FF441
:104F6000807900273D46DE48002400EB0516072D1A
:104F700001D0082D03D1072C1CD0082C18D016F80E
:104F8000048029462046FFF7C1FB401CC0B23055C3
:104F9000404500D00127641C102CE8DB6D1C102D4F
:104FA000E1DB002F02D0B9F10109DAD5BDE8F087C5
:104FB0000924DCE70824DAE7F0B5C748C94ACB4939
:104FC0000778C9481678CB4A0578CB480C78C84989
:104FD0001368006801EB031211184E2F2CD0452FD7
:104FE0004FD0532F71D0572F25D15EB1165C0028BA
:104FF00046F00806165405DD11F8016C46F002066D
:1050000001F8016C5DB1155C002B45F004051554E9
:1050100005DD11F8105C45F0010501F8105C002C6D
:1050200009D0145C0F2B44F00104145403DA087CFB
:1050300040F004000874F0BD4EB1165C0F2B46F032
:105040000106165403DA0B7C43F004030B745DB1C4
:10505000135C002843F00803135405DD11F8013CEC
:1050600043F0020301F8013C002CE4D0135C0F284C
:1050700043F002031354DEDA487840F00800487029
:10508000F0BD4EB1165C0F2846F00206165403DA46
:105090004E7846F008064E704DB1155C0F2B45F06A
:1050A0000105155403DA0D7C45F004050D74002C40
:1050B000E6D0145C002B44F004041454E0DD11F835
:1050C000100D40F0010024E0FFE75EB1165C002BFC
:1050D00046F00406165405DD11F8103C43F00103B8
:1050E00001F8103C4DB1135C0F2843F00203135438
:1050F00003DA4B7843F008034B70002CC0D0135CEC
:10510000002843F008031354BADD11F8010D40F0F4
:1051100002000870F0BD2DE9F04F4FF47A702DEDCC
:10512000028B83B0FDF743FBFEF704F973480124BB
:105130000470FFF74DF8724800254E210470714845
:10514000A946AA4607686C482E46AB4605606948E2
:105150002C4605606048017065480078FFF70EFA3C
:1051600070B964496248096800EB01106249096836
:10517000425C42F01002425463480168491C0160DD
:105180006248016862489FED638A016053E36248A8
:105190005C49006809683A18551AB9F1000F30D116
:1051A00085422EDC5D494FF00109524A81F800909A
:1051B0005B49514B81F800904949D2F80080D3F8FF
:1051C00000C001EB081111F80C10FC297CD24249F7
:1051D00009784E2906D0452907D0532908D05729E8
:1051E0000BD00EE008F1010804E00CF1010C06E020
:1051F000A8F10108C2F8008003E0ACF1010CC3F88B
:1052000000C0BAF1000F09D100EB4001CA1701EB51
:105210009271B5EBA10F01DC4FF0010A002E54D1C1
:1052200000EBD070B5EB600F4FDC3E483E490126E5
:1052300000680968884202DD2B49012008703B485C
:105240003B4900680968884202DD2849012008704E
:105250003848016838480068814208DD37480168ED
:1052600037480068814202DD1E4901200870DFF8DE
:1052700084801F49D8F8000001EB00111E48006827
:10528000085CFFF77BF908B9FFF796FE1A48D8F8D3
:1052900000100068FFF73AFA1149D8F80020401CC6
:1052A00001EB0212144909685054FFF756FE1048EA
:1052B000D8F8001000EB01110F480068085CFFF7F8
:1052C00051F9F8B3FC2047E024E2B6E044000020A6
:1052D000CC000020C8000020240000202000002076
:1052E000D00200201C0000201D0000201E00002015
:1052F000D00100201400002010000020A500002094
:1053000029000020A40100201800002058000020DF
:105310002C01002000000000980000202800002040
:105320002A0000200C010020B00000201001002005
:10533000B400002004010020A80000200801002083
:10534000AC000020FFE7FE48D8F8001000EB011188
:10535000FC4800680844007CFC490190FA48096850
:1053600000EB0111F7480068085CFFF7FEF808B190
:10537000FC2008E0F549F248096800EB0111F1480A
:10538000006808444078F1498046EF48096800EB1E
:105390000111EC480068085CFFF7EAF808B1FC204E
:1053A00009E0EA49E648096800EB0111E5480068B0
:1053B000084410F8100CE5490090E348096800EB38
:1053C0000111E0480068085CFFF7D5F808B1FC203F
:1053D00009E0DE49DA48096800EB0111D9480068A4
:1053E000084410F8010C019A424507DA1146009A68
:1053F000914203DA814201DA05201CE0019A9045CE
:1054000006DA009A904503DA804501DA062012E0B8
:105410000099414506DA019A914203DA814201DAA4
:10542000072008E040452CDA0099884229DA0199E2
:10543000884226DA0820C6490860DFF81883D8F8C1
:10544000000000EBD070B5EB600F00DC0126FFF729
:1054500068FD88B12846FEF706FFBF48B0EE481A3F
:10546000D0ED000AFEF7E6FEBC48D0ED000AB4EE2F
:10547000E00AF1EE10FA7DD2B948BA490068086036
:1054800077E1B249AF48DFF8C0820968006808EBED
:105490000111085CFFF766F870B9AC48006808EBCA
:1054A0000011A84800680844007CFFF767F818B9A5
:1054B000AD4800784E289FD0A449A24809680068EA
:1054C00008EB0111085CFFF750F870B99F499D483F
:1054D0000968006808EB011108444078FFF74EF8AE
:1054E00018B9A1480078452890D0DFF86082964826
:1054F000D8F8001000EB011192480068085CFFF733
:1055000037F888B99048D8F8001000EB01118D48A1
:105510000068084410F8100CFFF730F820B99248E2
:10552000007853283FF47CAF88498748DFF814821D
:10553000096800EB0111D8F80000085CFFF71BF8C0
:1055400088B982498048096800EB0111D8F8000049
:10555000084410F8010CFFF711F820B982480078D0
:1055600057283FF467AF79497748096800EB011184
:10557000744800E0E2E00068085CFEF7F3FF60B901
:1055800072497148096800EB01116E4800680844CF
:10559000007CFEF7F3FF00288DD06C496948DFF8E6
:1055A000A8810968006808EB0111085CFEF7DDFFBF
:1055B00058B9664963480968006808EB0111084456
:1055C0004078FEF7DBFF00288ED060495D4809680F
:1055D000006808EB0111085CFEF7CAFF60B95B497F
:1055E00058480968006808EB0111084410F8100CCD
:1055F000FEF7C4FF002895D0DFF850815249D8F853
:10560000000001EB00114F480068085CFEF7B3FF93
:1056100068B94D48D8F8001000EB011149480068FE
:10562000084410F8010CFEF7A9FF002899D04E4855
:1056300000784E280BD14448D8F8001000EB011137
:1056400040480068085CFEF78DFF0028A4D046485B
:10565000007845280BD13C48D8F8001000EB011128
:1056600038480068085CFEF780FF0028ACD03E4850
:10567000007853280BD13448D8F8001000EB011102
:1056800030480068085CFEF773FF0028B3D0364846
:10569000007857280BD12C48D8F8001000EB0111E6
:1056A00028480068085CFEF766FF0028BED027493E
:1056B0002548096800EB011122480068085CFEF7E4
:1056C00051FF0028C2D021491E48DFF87C800968BC
:1056D000006808EB0111085CFEF747FF0028C5D001
:1056E0001A494046DFF85C80096800EB0111D8F8E0
:1056F0000000085CFEF73CFF0028C7D013491248A1
:10570000096800EB0111D8F80000085CFEF733FFD0
:1057100000288BD00E480460144804700020FDF768
:105720006FFB0020FDF782FB0A20FDF7E3FB03B0CF
:10573000BDEC028BBDE8F04FFFF71EB8094817E03B
:10574000D002002010000020D00100201400002012
:10575000200000209800002024010020700100207B
:10576000580000202C010020240000202A000020E6
:105770000460BBF1000F09D1D8F80000C11700EB9D
:105780009170B5EBA00F06DC4FF0010BFD480078DF
:1057900008B1FD480470002D4DDCDFF8F483FD4FA7
:1057A000FA4ED8F80000396806EB0010405CFEF7AE
:1057B000E5FE60B9D8F8000006EB001138680A5C15
:1057C00042F010020A54F4480168491C0160DFF8F5
:1057D000B48398F8000038B1F0480268F0480168D6
:1057E000F0480068FEF74CFBEF480068052806D03B
:1057F000062807D0072808D0082809D00AE0FEF7B5
:1058000015FE07E0FEF733FE04E0FEF751FE01E06F
:10581000FEF76DFEFFF7AAF8E4484FF00009CA460C
:105820000460E3484E46CB460768E24888F80040EB
:105830000470E1480470FEF7A7FE00283FF4A7AC0F
:10584000DFF86CB3DFF87493DFF874A3DFF87483C8
:10585000DD4E002D22DDD9F8000000EBD071B5EB54
:10586000610F01DAC8490C703918DBF800000D1A15
:105870002846FEF7F8FCB0EE481ADAED000AFEF70B
:10588000D9FCD8ED000AB4EEE00AF1EE10FA03D22A
:10589000CE4800683060DCE73460DAE7BC4EBD4FCC
:1058A000BA4D3068396805EB0010405CFEF766FEC3
:1058B00058B93068396805EB0010425C42F01002BC
:1058C0004254B5480168491C0160C1480470002079
:1058D000FDF796FA0020FDF7A9FAFEF74DFFBD4847
:1058E000047003B0BDEC028BBDE8F08F2DE9F047EA
:1058F0004FF480780027DFF8E0A23D4600240AEB51
:10590000051600BF55EA04000BD016F8049029468E
:105910002046FEF7FBFE401CC0B23055484500D083
:105920000127641C102CEDDB6D1C102DE6DB002F15
:1059300002D0B8F10108DDD5BDE8F0872DE9F04FC0
:105940004FF47A702DED028B83B0FCF730FFFDF73A
:10595000F1FCA04801210170FEF73AFC00249448B4
:10596000DFF8748227460668A3462546A2462046ED
:1059700000221146C14608EB001300BF02EB000CE9
:1059800003F801C0521C491C1029F7DB401C1028E9
:10599000EEDBFFF7ABFFFEF7CBFD8C488A490068D2
:1059A0009FED8E8A08603FE384488149006809685A
:1059B0003218541A27BB844227DC734A0127744BE0
:1059C0001770834ADFF8CCC117701A68DCF80080C2
:1059D00009EB021111F80810FC297AD280490978E4
:1059E0004E2906D0452906D0532907D0572908D07B
:1059F0000BE0521C03E008F1010804E0521E1A609B
:105A000003E0A8F10108CCF80080BBF1000F09D138
:105A100000EB4001CA1701EB9271B4EBA10F01DC5E
:105A20004FF0010B002D7DD100EBD070B4EB600F77
:105A300078DC6C48012501686B480068814202DD12
:105A40005C49012008706948694900680968884212
:105A500002DD5949012008706648674900680968F5
:105A6000884208DD6548664900680968884202DDA9
:105A7000444901200870DFF818814448D8F8001024
:105A800000EB011143480068085CFEF777FD08B998
:105A9000FFF792FA3E48DFF8FC800168D8F8000072
:105AA000FEF734FE3A4AD8F80010401C126809EBA1
:105AB00002125054FFF71AFF35483449006801EBD1
:105AC0000011D8F80000085CFEF74CFD10B1FC2076
:105AD00008E02EE22E48006809EB0011D8F800001B
