:020000040800F2
:10000000000C002071630008992200089B22000860
:100010009D2200089F220008A12200080000000085
:10002000000000000000000000000000A322000803
:10003000A522000800000000A7220008A92200084D
:100040008B6300088B6300088B6300088B630008D8
:100050008B6300088B6300088B6300088B630008C8
:100060008B6300088B6300088B6300088B630008B8
:100070008B6300088B6300088B6300088B630008A8
:100080008B6300088B6300088B6300088B63000898
:100090008B6300088B6300088B630008C72200088D
:1000A0008B6300088B6300088B6300088B63000878
:1000B0008B6300088B6300088B6300088B63000868
:1000C0008B6300088B6300088B6300088B63000858
:1000D0008B6300088B6300088B6300088B63000848
:1000E000232300088B6300088B6300088B630008E0
:1000F0008B6300088B6300088B6300088B63000828
:100100008B6300088B6300088B6300088B63000817
:100110008B6300088B6300088B6300088B63000807
:100120008B6300088B6300088B6300088B630008F7
:100130008B6300088B6300088B6300088B630008E7
:100140008B6300088B6300088B6300088B630008D7
:100150008B6300088B6300088B6300088B630008C7
:100160008B6300088B6300088B6300088B630008B7
:100170008B6300088B6300088B6300088B630008A7
:100180008B6300088B63000800F002F800F060F851
:100190000AA090E8000C82448344AAF10107DA45E2
:1001A00001D100F055F8AFF2090EBAE80F0013F0D4
:1001B000010F18BFFB1A43F001031847007A000033
:1001C000207A00000A4410F8014B14F00F0508BF14
:1001D00010F8015B240908BF10F8014B6D1E05D013
:1001E00010F8013B6D1E01F8013BF9D1641E03D0EC
:1001F000641E01F8015BFBD19142E4D3704700001B
:100200000023002400250026103A28BF78C1FBD81F
:10021000520728BF30C148BF0B607047642906F001
:100220001982632906F0D084732906F0D584002052
:1002300070471FB507F085FC06F070FF0400002032
:10024000002106F077FF401C60601FBD10B510BD97
:1002500006F048FD1146FFF7ECFF01F041FC06F007
:100260004BFF03B4FFF7F2FF03BC02F051FA0000AA
:100270002749084327490860704770B50F21C478A3
:10028000027801234FF0E026E4B1224C246804F404
:10029000E064C4F5E064C4F30724C4F10405E1405C
:1002A0004478AC4085780D4025431B4C29011155FD
:1002B000007800F01F018B40400906EB8000C0F879
:1002C000003170BD02F01F008340500906EB800032
:1002D000C0F8803170BD114A114001430D48001F24
:1002E000016070470B4A121D0029116801D00143BB
:1002F00000E08143116070474FF0E0210428086955
:1003000003D020F004000861704740F00400FAE7D1
:100310000000FA050CED00E000E400E080FFFF1FA4
:1003200010B501210C02204600F093FC2046BDE8E8
:100330001040002100F08DBC30B54268C44B0C79F0
:100340001A400B6842EA0422134343608268C14B9F
:100350004D791A40D1E9034323438C6844EA4504AC
:10036000234313438360C26A097D22F47002491E4D
:10037000C9B242EA0151C16230BD00210160017180
:1003800041718160C1600161012101757047B24B0B
:1003900010B51A68B1490A40D0E900142143D0E9E8
:1003A0000240044321431143196010BD0021016044
:1003B00041608160C16070470029816802D041F0CE
:1003C000010101E021F00101816070474268A44B06
:1003D0001A400A4342607047416282627047426835
:1003E00022F01F020A43426070479E490028D1F85C
:1003F000040302D040F4000001E020F40000C1F842
:100400000403704797490028D1F8040302D040F450
:10041000800001E020F48000C1F80403704770B54B
:10042000072509290AD9C468A1F10A0606EB460680
:10043000B540AC43B3401C43C46007E0046901EB22
:100440004106B540AC43B3401C4304611F23072A57
:1004500009D2446B521E02EB820293409C439140AE
:100460000C43446370BD0D2A09D2046BD21F02EB0A
:10047000820293409C4391400C43046370BDC46A64
:100480000D3A02EB820293409C4391400C43C462BC
:1004900070BD816841F08041816070470146002055
:1004A0008968490200D5012070470029816802D07F
:1004B00041F4806101E021F480618160704700298E
:1004C000816802D041F0020101E021F00201816067
:1004D00070474268491E22F4604242EA413141605D
:1004E00070470029416802D041F4006101E021F425
:1004F000006141607047C06C80B270475648001D73
:10050000006870470029816802D041F4807101E0E1
:1005100021F48071816070470029816802D041F424
:10052000007101E021F40071816070474D4900289D
:10053000D1F8040302D040F4005001E020F4005050
:10054000C1F80403704770B5072409290AD9C568A2
:10055000A1F10A0606EB4606B440A543B3401D438D
:10056000C56007E0056901EB4106B440A543B3400F
:100570001D430561836BC3F30154121B921C02EBF4
:1005800082041F22A2409343A1400B43836370BDAA
:10059000826B491E22F4401242EA01518163704786
:1005A00042507047826822F470220A43826070478A
:1005B000826822F440120A4382607047816841F4E5
:1005C000800181607047014600208968490200D59A
:1005D000012070470029416802D041F4806101E0A8
:1005E00021F48061416070470029416802D041F4E4
:1005F000805101E021F48051416070470844806AD5
:1006000080B2704701238B4041680AB1194300E072
:100610009943416070470246002012680A4200D0A8
:1006200001207047C9430160704730B50246002081
:1006300054680B0A01258D4011682C40194202D0E4
:10064000002C00D0012030BD6FEA112101607047FD
:10065000FFFEFFFCFDF7FFC004230140E030FCFF7C
:10066000FFFD3FFF00200140374900200860091DC1
:100670000860091D0860091D0860334933481431BA
:100680000860704730B530498379026853B30B680E
:1006900093430B600A1D13680468A3431360027937
:1006A0000A441368046823431360274A0832136816
:1006B0000468A3431360131D1C680568AC431C60E9
:1006C0004479102C05D021440A68006802430A606E
:1006D00030BD116804682143116019680068014346
:1006E000196030BD0079084401689143016030BD54
:1006F0000021016001710C22427181717047124921
:1007000010310A6802430A60704701460E4A002011
:10071000143212680A4200D0012070470A4914318D
:1007200008607047084A014600201268064B0A40DC
:1007300014331B680B4202D0002A00D001207047FE
:100740000149143108607047003C0140FFFF7F0001
:100750007A4910B5884206D10121084600F051FAC5
:10076000002101204FE07649884206D10121022074
:1007700000F047FA0021022045E07249884206D184
:100780000121042000F03DFA002104203BE06E49E5
:10079000884206D10121082000F033FA0021082008
:1007A00031E06A49884206D10121102000F029FA7F
:1007B0000021102027E06649884206D1012120202F
:1007C00000F01FFA002120201DE06249884206D176
:1007D0000121402000F015FA0021402013E05E497D
:1007E000884206D10121802000F00BFA00218020F0
:1007F00009E05A4988420AD184150121204600F0B7
:1008000000FA00212046BDE8104000F0FAB910BD02
:10081000F0B50023012403270D6804FA03F2154004
:10082000954242D1D0F800C05E0007FA06F52CEAE6
:10083000050CC0F800C091F804C0D0F800E00CFA34
:1008400006FC4CEA0E0CC0F800C091F804C0BCF1E4
:10085000010F02D0BCF1020F1FD1D0F808C02CEA62
:10086000050CC0F808C091F805C0D0F808E00CFAF3
:1008700006FC4CEA0E0CC0F808C0D0F804C02CEA04
:10088000020CC0F804C0426891F806C00CFA03FCE0
:100890001FFA8CFC42EA0C024260C268AA43C260A2
:1008A000CA79C568B2402A43C2605B1C102BB3D31F
:1008B000F0BD4FF6FF71016000210171417181713E
:1008C000C171704741F48032C261C161C261C169C6
:1008D000C06970470246002012690A4200D0012018
:1008E0007047006980B270470246002052690A4290
:1008F00000D001207047406980B270470183704783
:10090000418370470AB10183704741837047416159
:10091000704742694A40426170474B07DB0E9A407C
:10092000C90810B500EB8100016A0F249C40A14367
:100930000162016A1143016210BD00000000024023
:100940000004024000080240000C02400010024077
:100950000014024000180240001C02400020024027
:10096000E948016841F001010160E74A00210832CD
:1009700011600268E54B1A400260031DE44A1A60E8
:10098000026822F480220260DF480C300160704768
:10099000DD490022891C0A70087070470246002059
:1009A000510901290CD002290CD0D74974310968AA
:1009B00002F01F02012393400B4200D00120704738
:1009C000D149F4E7D0497031F1E730B500244FF454
:1009D000A0653120FFF7E2FF641CAC4201D0002883
:1009E000F7D03120FFF7DAFF002800D0012030BD1A
:1009F000C5490A6822F0F80242EAC0000860704760
:100A0000C44908607047C049002270310A700A70FA
:100A1000012802D0042801D1052008707047BE4982
:100A20000860704741EA82115A0810B5BB4B029C1E
:100A300003EB02421143014341EA0460B249091D3C
:100A4000086010BDB34908667047800140EA017034
:100A5000AD49843108607047AE4988667047AD493A
:100A6000C8647047A84A08321368084323F0EC634F
:100A7000184310607047A44A08321368084323F0F3
:100A800078431843106070479F4A0832116821F07C
:100A900003010143116070479B480830006800F073
:100AA0000C007047984A0832116821F0F0010143A8
:100AB00011607047944A0832116821F4E0510143F3
:100AC00011607047904908310A6822F4604242EA96
:100AD000C0000860704770B58B4A08321168904BAF
:100AE00011F00C0104D05D10042903D0082903D0B3
:100AF00003601BE0056019E08349091D0C68C4F31D
:100B000080560C6804F03F0416B1B5FBF4F301E025
:100B1000B3FBF4F30C680968C4F388146343C1F3AE
:100B20000141491C4900B3FBF1F1016011687D4BA3
:100B300001F0F00109095C5C0168E1404160146862
:100B400004F4E054A40A1C5D21FA04F484601268E1
:100B500002F46042520B9A5CD140C16070BDC0F398
:100B60000121032908D1684A0832116821F4F813D9
:100B70006D49014019431160634970310A68C0F33F
:100B80000B0002430A6070476349443908607047AC
:100B900061494039086070476449086070475A4AA3
:100BA00030320029116801D0014300E08143116017
:100BB0007047554A34320029116801D0014300E0E2
:100BC000814311607047504A38320029116801D0C2
:100BD000014300E08143116070474B4A40320029D5
:100BE000116801D0014300E0814311607047464A1B
:100BF00044320029116801D0014300E081431160B3
:100C00007047414A10320029116801D0014300E0C9
:100C10008143116070473C4A14320029116801D0A9
:100C2000014300E0814311607047374A18320029C0
:100C3000116801D0014300E0814311607047324ADE
:100C400020320029116801D0014300E08143116086
:100C500070472D4A24320029116801D0014300E079
:100C6000814311607047284A50320029116801D031
:100C7000014300E0814311607047234A5432002948
:100C8000116801D0014300E08143116070471E4AA2
:100C900058320029116801D0014300E081431160FE
:100CA0007047194A60320029116801D0014300E001
:100CB000814311607047144A64320029116801D0E1
:100CC000014300E08143116070470F4A0D32002953
:100CD000117801D0014300E08143117070470A4848
:100CE0007430016841F08071016070470146064A26
:100CF00000200C3212680A4200D0012070470249DD
:100D00000E3108707047000000380240FFFFF6FE09
:100D10001030002400004742800E47420000FFFFD1
:100D20000024F40000000020FFFCFF0F5C0147429C
:100D300010B501218C032046FFF78BFF2046BDE84C
:100D400010400021FFF785BF11490860704710B5BA
:100D50008A07130F21F003040F220D499A4008312E
:100D600021440C6894430C600A68984002430A606E
:100D700010BD08490860704707490860704704497A
:100D8000002020310968C90500D501207047000006
:100D900000380140DC00274200042742FE4910B51C
:100DA000884206D101210846FFF753FF00210120A8
:100DB0005BE0B0F1804F09D0F84988420DD10121A4
:100DC0000220FFF73CFF0021022070E001210846CD
:100DD000FFF735FF0021012069E0F149884206D183
:100DE00001210420FFF72BFF002104205FE0ED49E3
:100DF000884206D101210820FFF721FF00210820A9
:100E000055E0E949884206D101211020FFF717FF7C
:100E1000002110204BE0E549884206D10121202025
:100E2000FFF70DFF0021202041E0E149884206D173
:100E300001210220FFF70DFF0021022015E0DD490E
:100E4000884202D101210C040AE0DB49884202D128
:100E500001214C0404E0D94988420AD101218C04C3
:100E60002046FFF7F6FE00212046BDE81040FFF7C0
:100E7000F0BED349884206D101214020FFF7DFFEB2
:100E80000021402013E0CF49884206D10121802073
:100E9000FFF7D5FE0021802009E0CB4988420AD126
:100EA000841501212046FFF7CAFE00212046BDE837
:100EB0001040FFF7C4BE10BD30B50288B64BBC4C25
:100EC00098420DD0A0420BD0B0F1804F08D0B34D66
:100ED000A84205D0B24DA84202D0B24DA84203D1DB
:100EE00022F070054A882A43AF4DA84206D0AF4D84
:100EF000A84203D022F440750A892A4302804A6836
:100F0000C2620A880285984201D0A04201D1897A42
:100F100001860121818230BD4FF0FF314160002107
:100F20000180018141808172704701858282704712
:100F3000028822F070020A430280704741627047C3
:100F4000C1627047406A7047008D70470029018870
:100F500002D041F0020101E021F00201018070475E
:100F60000029018802D041F0040101E021F00401D0
:100F7000018070470029018802D041F0800101E022
:100F800021F0800101807047028822F0080202806F
:100F900002880A4302807047028822F4407202806D
:100FA00002880A43028070470029018802D041F07C
:100FB000010101E021F001010180704730B5028C90
:100FC00022F001020284028C8388048B22F0020248
:100FD00024F073050C882C438D8915434A882A43D5
:100FE0006D4DA84202D0724DA8420DD122F00805E5
:100FF000CA8923F440732A4322F004058A882A43CD
:101000000D8A1D434B8A2B43838004838968416387
:10101000028430BD70B5028C22F010020284028C72
:101020008488038B0D8823F4E6464FF6FF7303EAAA
:10103000052535438E8922F0200203EA0616164361
:101040004A8803EA02123243534EB04202D0584E4D
:10105000B04215D122F08006CA8924F4406403EA24
:101060000212324322F040068A8803EA0212324317
:101070000E8A03EA860626434C8A03EA8404344334
:101080008480058389688163028470BD70B5028C99
:1010900022F480720284028C8488838B0D8823F072
:1010A00073031D4322F400738E894FF6FF7202EA28
:1010B00006261E434B8802EA03233343364EB042D2
:1010C00002D03B4EB04215D123F40066CB8924F404
:1010D000405402EA0323334323F480668B8802EAF8
:1010E000032333430E8A02EA061626434C8A02EA99
:1010F00004143443848085838968C163038470BD8C
:1011000070B5028C22F480520284048C8288838B16
:101110000D8823F4E6464FF6FF7303EA05253543B1
:1011200024F400568C8903EA043434434E8803EADD
:1011300006362643184CA04202D01D4CA04205D1D1
:1011400022F480440A8A03EA821222438280858341
:1011500089680164068470BD00210180418081801E
:1011600081608181C18101824182704730B5012453
:10117000058C00F118038C40A543058431B3082980
:101180002CD0091FC1F34E001844016848F6FF73C4
:101190001940016001681AE00000014000040040AD
:1011A00000080040000C0040001000400014004007
:1011B000000401400040014000440140004801405B
:1011C00000180040001C00400020004006E04FF6E0
:1011D000FF7303EA02221143016030BD03EB5100AB
:1011E00001684FF68F73194001600168F3E74163AE
:1011F000704781637047C163704701647047028B19
:1012000022F070020A4302837047028B4FF6FF738D
:1012100022F4E04203EA0121114301837047828BEB
:1012200022F070020A4382837047828B4FF6FF736D
:1012300022F4E04203EA0121114381837047028BCB
:1012400022F008020A4302837047028B4FF6FF73B5
:1012500022F4006203EA0121114301837047828B6B
:1012600022F008020A4382837047828B4FF6FF7395
:1012700022F4006203EA0121114381837047028B4B
:1012800022F004020A4302837047028B4FF6FF7379
:1012900022F4806203EA0121114301837047828BAB
:1012A00022F004020A4382837047828B4FF6FF7359
:1012B00022F4806203EA0121114381837047028B8B
:1012C00022F080020A4302837047028B4FF6FF73BD
:1012D000C2F30E0203EA0121114301837047828B9E
:1012E00022F080020A4382837047828B4FF6FF739D
:1012F000C2F30E0203EA0121114381837047028C7D
:1013000022F002020A4302847047028C22F0080293
:101310000A4302847047028C4FF6FF7322F02002CA
:1013200003EA0111114301847047028C4FF6FF73E9
:1013300022F0800203EA0111114301847047028CFC
:101340004FF6FF7322F4007203EA01211143018476
:101350007047028C4FF6FF7322F4006203EA01210A
:10136000114301847047028C4FF6FF7322F4005240
:1013700003EA013111430184704710B50123048C45
:101380008B409C430484038C8A401343038410BD28
:1013900010B50423048C8B409C430484038C8A4046
:1013A0001343038410BD828B22F440628283828BBC
:1013B0004FF6FF7303EA01210A4382837047828B51
:1013C00022F00C028283828B0A4382837047028B55
:1013D00022F440620283028B4FF6FF7303EA01217D
:1013E0000A4302837047F0B5048C24F0100404848F
:1013F000078B068C4FF6FF7404EA011527F4734738
:1014000004EA0331394304EA02220A4326F0A00128
:10141000294341F0100102830184F0BD028B22F0C8
:101420000C020283028B0A43028370472DE9F041CC
:101430000D460E884988AA882B8904460EB3042ECF
:1014400026D0082E268C4FF6FF7028D026F4805622
:101450002684A78B268C00EA022200EA013127F4B9
:1014600073473A4300EA0330104326F420420A430C
:1014700042F48051A0832184E9882046BDE8F041F0
:1014800091E700F061F9E9882046BDE8F041C5E741
:10149000FFF7A9FFE9882046BDE8F04197E726F469
:1014A00080762684A78B268C00EA012100EA0310AF
:1014B000104327F0F307384326F420620A4342F42E
:1014C0008071A0832184E9882046BDE8F04176E759
:1014D00000210180418001228280C180018170470A
:1014E0002DE9F0410C46002549880746012601B93F
:1014F0000225A288012A00D10226208823890028FB
:10150000384610D0FFF76FFFE1883846FFF75FFFDE
:10151000238932462946384600F016F9E1883846D4
:10152000BDE8F0417AE700F00FF9E1883846FFF7AF
:1015300075FF2389324629463846FFF754FFE18874
:101540003846BDE8F04142E7406B7047806B70471A
:10155000C06B7047006C704710B50A884B88CC8808
:101560001A438B8823431A430B891A434B89898971
:101570001A430A43A0F8442010BD00210180418095
:101580008180C1800181418181817047002930F8CB
:10159000441F02D041F4004101E0C1F30E0101807B
:1015A00070470029818802D041F0040101E021F058
:1015B0000401818070470029818802D041F0010137
:1015C00001E021F0010181807047002A828901D069
:1015D0000A4300E08A438281704781827047024655
:1015E0000020128A0A4200D001207047C9430182BC
:1015F000704702460020138A92890B4202EA0102D8
:1016000002D0002A00D001207047C94301827047F0
:101610001143A0F848107047002A828901D00A437C
:1016200000E08A43828170470029818802D041F01E
:10163000080101E021F0080181807047018921F053
:10164000070101817047028922F070020A4302817A
:10165000704700B50346FFF7F6FF188940F0070012
:10166000188100BD70B50D4611460446602D4FF03F
:1016700001020AD000F068F829462046FFF7E3FF90
:10168000208940F00700208170BDFFF7ACFEF3E732
:1016900030B504894FF6FF7505EA03231343E4B21E
:1016A0000B432343038130BD10B50446FFF7F0FF21
:1016B000208940F07700208110BD10B50446FFF767
:1016C000E7FF208940F48040208110BD828822F00D
:1016D0007002828082880A4382807047028922F0E9
:1016E0000702028102890A4302817047028922F0BF
:1016F0008002028102890A430281704770B5058920
:10170000048B068C25F007050D434FF6FC410C4079
:1017100040F201110C434FF6FF7101EA031126F06C
:1017200022061143314305810483018470BD0029E1
:10173000818802D041F0800101E021F080018180A8
:101740007047A0F85010704770B5048C24F0010465
:101750000484058B048C4FF6FF7606EA03131343CB
:1017600025F0F3052B4324F00A020A4342F001015D
:101770000383018470BD0000CA4910B5884206D1B8
:1017800001211020FFF765FA0021102028E0C6494A
:10179000884202D101214C0410E0C449884202D1A0
:1017A00001218C040AE0C249884202D10121CC0403
:1017B00004E0C04988420AD101210C052046FFF708
:1017C0003EFA2046BDE810400021FFF738BABA497A
:1017D000884209D101212020FFF73BFA0021202077
:1017E000BDE81040FFF735BA10BD7FB50446008A4A
:1017F0000D4620F44051E88808432082A08941F238
:101800000C618843A9882A8911436A8902431143DC
:10181000A181A08A20F44071A8890843A08268466B
:10182000FFF759F99F48844202D0A348844201D16E
:10183000039800E00298A1890904002900EBC00187
:1018400001EB0010296802DA4FEA410101E04FEA9A
:101850008101B0FBF1F26420B2FBF0F14FEA01111B
:101860004FEA11136FF018056B4302EB8302A38953
:101870001D044FF0320306D503EBC202B2FBF0F0B9
:1018800000F0070005E003EB0212B2FBF0F000F0FD
:101890000F00084320817FBD4FF4165101600021E5
:1018A0008180C18001810C2242818181704710B505
:1018B000028A4C8822F470630A8822438C88C98883
:1018C0000C4322431A43028210BD00210180418053
:1018D0008180C18070470029818902D041F4005184
:1018E00001E021F4005181817047028B02F47F42B4
:1018F0000283028B0A43028370470029818902D048
:1019000041F4004101E0C1F30E01818170470029DB
:10191000818A02D041F4006101E021F400618182FA
:101920007047C1F30801818070478088C0F30800C8
:101930007047028A22F00F020282028A0A43028260
:1019400070470029818902D041F0020101E021F0B5
:10195000020181817047828922F40062828182893A
:101960000A4382817047028A22F020020282028AA0
:101970000A43028270470029018A02D041F4804163
:1019800001E021F4804101827047818941F0010129
:10199000818170470029818A02D041F0080101E06D
:1019A00021F0080181827047028BD2B20283028B40
:1019B00042EA0121018370470029818A02D041F067
:1019C000200101E021F02001818270470029818AF5
:1019D00002D041F0100101E021F010018182704736
:1019E000828A22F004028282828A0A4382827047BB
:1019F0000029818A02D041F0020101E021F00201B8
:101A000081827047002A828A01D00A4300E08A431B
:101A10008282704710B5C1F3421301F01F04012107
:101A2000A140012B07D0022B07D01430002A0268F6
:101A300005D00A4304E00C30F8E71030F6E78A439B
:101A4000026010BD0246002012880A4200D0012028
:101A50007047C9430180704730B501F01F0201246F
:101A60000025C1F3421304FA02F2012B0FD0022B1E
:101A70000FD0838A4FEA11210088134204FA01F43F
:101A800000EA040001D000B10125284630BD838959
:101A9000F0E7038AEEE70A0A01219140C943018079
:101AA0007047000000100140004400400048004022
:101AB000004C0040005000400014014010B501F0FF
:101AC0004BFA01F00DFAFB4C207808B101F06AF9ED
:101AD000A078002803D0BDE8104002F0BFBB10BDC5
:101AE00000F058FC00F0CAFC00F018FD4FF416504E
:101AF00000F0BEFD00F0AEFF01F06AF800F0E4FF78
:101B000001F0D6F80421EC48FEF7FAFEEB4E4FF454
:101B100080513046FEF7F4FEF1143046FEF7F0FE39
:101B200031153046FEF7ECFE04213046FEF7E8FEA4
:101B300008213046FEF7E4FEE14F20213846FEF74B
:101B4000DFFE10213846FEF7DBFE4FF47A78404680
:101B500000F05DFC4FF47A61C82001F01CF8D54C10
:101B600001200025E07040F2E730C4E90505656218
:101B7000A562E56225636563E561D2482562A063DD
:101B8000D148E063D148206440426064D048A064FA
:101B90004042E064CF4820654FF44840606502F061
:101BA00065FBCD48C0F8005001F066F8014660685A
:101BB000814206DD2069032801D0401C0AE025612E
:101BC00009E001F059F861684942884209DA206960
:101BD00000B3401E206101F058F84146322000F069
:101BE000DAFF2069C0B101281FD002282AD00328BB
:101BF000DAD104213046FEF783FE08213046FEF795
:101C00007FFE20213846FEF77BFE10213846FEF786
:101C100075FEC9E70320DDE704213046FEF76EFEBE
:101C200008213046FEF76CFE07E004213046FEF73F
:101C300067FE08213046FEF761FE20213846FEF798
:101C40005FFE0BE004213046FEF75AFE08213046C5
:101C5000FEF756FE20213846FEF750FE102138468A
:101C6000FEF74EFEA0E72DE9F05F4FF47A61C82041
:101C700000F091FF99A004F08FFC4FF47A7000F00F
:101C8000C6FB01F074FF02F071FE02F0D6FD642085
:101C900000F0BDFB874800226421D0F8108050235B
:101CA00096242825924E0C279FED920ADFF848C211
:101CB000DFF848924FF08C0AB8F1000F0DD04FF0CA
:101CC000C80BDFED8F0AB8F1010F13D0B8F1020F86
:101CD0001FD0B8F1030F3BD128E0C362C0E906145E
:101CE0000162C0E90CA23560C7608CED000A89ED85
:101CF000000A0BE0C362C0E906140162C0E90CB23D
:101D00003560C760CCED000AC9ED000A02F087FF1C
:101D10001EE0C362C0E906140162C0E90CA235608E
:101D2000C7608CED000A89ED000A0BE0C362C0E9D0
:101D300006140162C0E90CB23560C760CCED000A40
:101D4000C9ED000A02F06BFF01F0C5FE03F0E4FAF2
:101D5000BDE8F05F6BA004F01FBC2DE9F05F4FF40D
:101D60007A61C82000F017FF6CA004F015FC4FF456
:101D70007A7A504600F04BFB01F0F9FE4D48002105
:101D80006423D0F8108050242822594D0E265A4F33
:101D9000DFF868C14FF03209B8F1000F0DD0B8F18B
:101DA000010F1AD04FF08C0B9FED610AB8F1020FB2
:101DB0002DD0B8F1030F23D137E04FF4C878C0F825
:101DC0002480C46283614163C0E907392A609FEDC2
:101DD000490AC66087ED000A10E08361C0F81C90D4
:101DE000C4624FF416734163C0E908932A609FED03
:101DF000510AC66087ED000A9FED4F0A8CED000A7C
:101E000001F076FBBDE8F05F4CA004F0C5BBC462F6
:101E1000C0E90CB1C0E90639C0E9089A2A60DFEDD3
:101E2000380AC660C7ED000AE8E7C4628361C0E90A
:101E30000CB100F11C08A8E806042A60C66087ED12
:101E4000000A9FED440AD9E72DE9F05F4FF47A616B
:101E50002DED028BC82000F09EFE3FA004F09CFBFD
:101E60004FF47A7000F0D3FA01F081FE3F48026827
:101E70003F4801683FA004F08FFB0E4C78251C4FB3
:101E8000DFF874909FED1E8ADFF870A02069192694
:101E90004FF00C084FF02D0B50B1DFED258A0128D3
:101EA00007D04FF0140B022878D0032877D1BEE07A
:101EB00076E085E028000020000C02400008024087
:101EC00000000240B0F1FEFF7C0F010068D1FDFF71
:101ED0006073FFFFA81CFFFF180100204275747497
:101EE0006F6E203020707265737365640A0D000098
:101EF000B0010020000070426C0100207001002041
:101F00000000B44246696E69736865642042757466
:101F1000746F6E2030204953520A0D00427574745C
:101F20006F6E203120707265737365640A0D000056
:101F30000000DC420000A0420000C84246696E6911
:101F40007368656420427574746F6E203120495344
:101F5000520A0D000000F042427574746F6E203218
:101F600020707265737365640A0D00001C01002007
:101F700020010020457870656374656420616E6798
:101F80006C652025642C2061637475616C20616E22
:101F9000676C652025640A0D0000000038E028E029
:101FA00002F064F94FF4C870656360623E601FED33
:101FB0002F0AC4F80C8089ED000A8AED008A0CE033
:101FC00002F054F94FF44870656360623E60C4F8F3
:101FD0000C8089ED008ACAED008A4120A0651E218F
:101FE0005846DC2204F15C0307C3C4E91A1001F06F
:101FF000D0FB8848026888480168AFF2880004F086
:10200000CBFABDEC028B85A0BDE8F05F04F0C4BA4A
:1020100002F02CF94FF47A706062C82060633E6071
:10202000C4F80C8089ED008ACAED008A0FE002F046
:102030001DF940F24C406062C82060633E60C4F805
:102040000C801FED3C0AC9ED008A8AED000A2821A8
:1020500058465C22A565C5E7F0B5764C072289B0E5
:102060001146204600F080FE07460722092120463F
:1020700000F07AFE064607220821204600F074FE92
:10208000054600F0F5FD044600F0F6FD6A4904AA95
:102090000968E2C26A4A694912680968CDE9002004
:1020A0006848CDE9024103686748026867480168EB
:1020B000674804F071FA09B0F0BD70B54FF47A6169
:1020C000C82000F068FD4FF47A76304600F09FF9A2
:1020D00060A004F061FA644C206938B1012808D08E
:1020E000002502280BD0032808D16BE001F0F3FC97
:1020F00001E001F016FD032000F02CFD85E002F068
:10210000B5F85021E1626420A06178212163E0618B
:1021100032201FED850A20625448A42280ED000A77
:10212000534880ED000A616352492820B2EE000A4C
:102130000860514981ED000A504981ED000A5121A2
:10214000A1653C216266C4E91710C4E91A0100F0D8
:1021500021FF657002F0D3F9642000F058F902F015
:10216000EFF9642000F053F902F009FA642000F05E
:102170004EF902F0A3F9304600F049F902F0FFF9F8
:10218000642000F044F902F0DBF9642000F03FF92C
:1021900002F0B5F9642000F03AF902F08FF9304608
:1021A00000F035F902F0CCF9642000F030F902F0CB
:1021B00085F9A570002000F053FC002000F066FCBB
:1021C000657022E002F052F8304600F020F91A481B
:1021D000056000F0DFFE00BF00F0E4FDFFF73CFF0C
:1021E000012000F014F900F047FDD4E9012151432A
:1021F000884207DC00F040FDA16862684942514313
:102200008842E9DA642000F002F9BDE870401CA0C1
:1022100004F0C2B91C0100202001002046696E694B
:102220007368656420427574746F6E203220495360
:10223000520A0D000020014018010020000100207A
:1022400008010020100100200C01002004010020E2
:10225000587B0008427574746F6E2033207072656D
:10226000737365640A0D0000280000206C010020D3
:1022700070010020B00100207401002078010020CE
:1022800046696E697368656420427574746F6E2068
:1022900033204953520A0D007047FEE7FEE7FEE780
:1022A000FEE770477047704737480168491C016076
:1022B00036490868002802DA354B00221A60401EB1
:1022C0000860FFF7FBBB10B52020FEF72BFA4FF498
:1022D000967470B1322000F09AF82020FEF722FAAE
:1022E00020B1204600F093F8FFF7BDFC2020FEF758
:1022F00027FA4020FEF716FA002811D0322000F00D
:1023000086F84020FEF70EFA002809D0204600F09B
:102310007EF8FFF7D2FEBDE810404020FEF710BA6D
:1023200010BD70B54FF480442046FEF7FBF94FF422
:10233000967570B1322000F06AF82046FEF7F2F987
:1023400038B1284600F063F8FFF707FD2046FEF796
:10235000F7F94FF400442046FEF7E4F9002811D0C5
:10236000322000F054F82046FEF7DCF9002809D0AE
:10237000284600F04CF8FFF767FD2046BDE87040A6
:10238000FEF7DEB970BD0000E0000020F400002080
:102390003404004070B504F08DF804F0B0F8334810
:1023A0004FF47A710068B0FBF1F0401EB0F1807F0D
:1023B00016D24FF0E024606166170F21304600F01E
:1023C00049F80025A561072020614FF44070FDF712
:1023D0004FFF0021304600F03DF82548456070BDB4
:1023E000FEE74FF0E0208069A821B0FBF1F1204822
:1023F000426802EB4203C3EBC212C1EBC20101F51A
:102400007A71016000687047194840687047184A3F
:10241000516853685B1A8342FBD1704730B505465B
:10242000FFF7DFFF4FEA0004FFF7DBFF001BA842C6
:10243000FAD130BD30B50C464FEA0005FFF7D1FFA9
:10244000001BA842FAD330BD094A53685B1A834285
:10245000FBD370470907090E002803DA00F00F00CC
:10246000044A00E0044A815470470000B80100208B
:10247000DC00002014ED00E000E400E07CB5012168
:102480000846FEF78CFB01210420FEF788FB0121A2
:102490000820FEF784FB3020009001208DF8040016
:1024A00000208DF8060003218DF805108DF8070037
:1024B00069461748FEF7ACF90C20164D00906946A6
:1024C0002846FEF7A5F90420134E022400908DF84B
:1024D000074069463046FEF79BF94FF4E050009004
:1024E0008DF8074069462846FEF792F904213046E8
:1024F000FEF706FAE1022846FEF702FAA102284694
:10250000FEF7FEF961022846FEF7FAF97CBD0000ED
:102510000000024000080240000C02402DE9F04794
:1025200001218F0386B03846FEF761FB01210620AA
:10253000FEF735FB0024DFF830A18DF81040202590
:102540008DF8134003A950460395FEF761F9052164
:102550000120FEF7FCFB00958DF8044008268DF85D
:10256000056001258DF806506846FEF78BF84FF0A0
:1025700017098DF808908DF809508DF80A408DF8EC
:102580000B5002A8FDF779FE8DF810408DF813402E
:1025900003A950460397FEF73BF90E210120FEF7F1
:1025A000D6FB8DF804408DF8056000978DF8065035
:1025B0006846FEF767F828278DF808708DF80950EF
:1025C0008DF80A408DF80B5002A8FDF756FE8DF8E5
:1025D00010404FF400488DF8134003A95046CDF841
:1025E0000C80FEF715F90F210120FEF7B0FB8DF8E6
:1025F00004408DF80560CDF800808DF806506846DF
:10260000FEF740F88DF808708DF809508DF80A40F3
:102610008DF80B5002A8FDF730FE8DF810404027D2
:102620008DF8134003A911480397FEF7F1F806212E
:102630000220FEF78CFB8DF804408DF805600097B2
:102640008DF806506846FEF71DF88DF808908DF855
:1026500009508DF80A408DF80B5002A8FDF70DFEC9
:1026600006B0BDE8F0870000000402400008024008
:1026700070B5054688B001210220FEF790FA0121CD
:102680001020FEF7B4FA6D4E072209213046FEF7FE
:1026900044F907220A213046FEF73FF900248DF85D
:1026A000164001208DF8170002208DF814004FF419
:1026B000C06104918DF8150004A93046FEF7A8F812
:1026C0005F4E01213046FFF718F9ADF808400C20A5
:1026D000ADF80A00ADF80440ADF80640ADF818407A
:1026E0003015ADF81A00ADF81E400095ADF80C405D
:1026F000ADF81C4069463046FFF777F806A930462A
:10270000FFF7D5F801213046FFF7E5F808B070BDB6
:102710000020704770B54A4D0446C1B22846FFF705
:1027200000F980212846FFF78DF90028F9D02046CE
:1027300070BD434801888906FCD58088C0F3080035
:10274000704770B53E4D044680212846FFF77AF960
:102750000028F9D0A1B22846FFF7E3F8204670BD63
:1027600010B538A003F018FF354C20212046FFF7A4
:1027700069F90028F9D02046FFF7D7F8C0B210BD9C
:1027800010B539A003F008FF2D4C20212046FFF79B
:1027900059F90028F9D02046FFF7C7F801463AA0BA
:1027A00003F0FAFE2046FFF7C0F8C0B210BD10B526
:1027B00037A003F0F1FE224C20212046FFF742F91A
:1027C0000028F9D02046FFF7B0F8A0F1300137A07B
:1027D00003F0E2FE2046FFF7A8F8303810BD10B530
:1027E0000446014686B033A001E0214638A003F03C
:1027F000D3FE694641A003F0F1FF694640A003F013
:10280000CBFE2146684604F035F90028EDD106B02C
:1028100010BD38B5044601463BA001E0214641A069
:1028200003F0BAFE69464AA003F0D8FF1FA0009942
:1028300003F0B2FE0098A042F0D138BD0000024083
:10284000001001400D0A707265737320616E79206B
:102850006B657920746F20636F6E74696E75652E79
:102860002E2E0D0A0D0A0000706C656173652065DF
:102870006E74657220612063686172616374657251
:102880002E2E2E0D0A00000025630D0A0000000008
:10289000706C6561736520656E746572206120647B
:1028A000696769742E2E2E0D0A00000025640D0A3A
:1028B00000000000507265737320257320746F2030
:1028C000436F6E74696E75652E2E2E203A000000DF
:1028D000496E76616C696420696E7075742C207025
:1028E0007265737320257320746F20436F6E746953
:1028F0006E75652E2E2E203A000000002573000014
:1029000025730D0A00000000507265737320256462
:1029100020746F20436F6E74696E75652E2E2E20A5
:102920003A000000496E76616C696420696E7075CA
:10293000742C20707265737320256420746F20439B
:102940006F6E74696E75652E2E2E203A00000000A1
:10295000256400001CB501210420FEF73EF94FF468
:102960007070009002208DF8040003208DF805009F
:1029700000208DF80600504C8DF80700694620466F
:10298000FDF746FF022206212046FDF7C6FF022280
:1029900007212046FDF7C1FF022208212046FDF74E
:1029A000BCFF022209212046FDF7B7FF1CBDF0B590
:1029B00089B040F2E73006900320ADF814000026FD
:1029C0003E4FADF81C60ADF8166005A93846FEF71D
:1029D00073FA60203A4DADF800000124ADF80240D2
:1029E00028880290ADF80C6069463846FEF7E6FA92
:1029F00008213846FEF723FCADF8024068880290B3
:102A000069463846FEF706FB08213846FEF71DFCEE
:102A1000ADF80240A888029069463846FEF736FBBA
:102A200008213846FEF71BFCADF80240E88802900A
:102A300069463846FEF764FB08213846FEF715FC68
:102A400001213846FEF796FA01213846FEF7ACFA26
:102A500009B0F0BD10B5FFF77DFFBDE81040A6E757
:102A600018490968884200DD08464942884200DA70
:102A70000846124A00213C32131D002802DB106078
:102A80001960704711604042186070470D4909682D
:102A9000884200DD08464942884200DA0846074A73
:102AA00000213432131D002802DB116018607047CA
:102AB0004042106019607047000402400008004066
:102AC000EC0000203C00002030B58BB0012102203A
:102AD000FEF783F84020059002208DF818000321AE
:102AE0008DF8191000248DF81A40354D8DF81B0013
:102AF00005A92846FDF78CFE022206212846FDF78F
:102B00000CFF952008908B20ADF81C002D4DADF8E2
:102B10002440ADF81E4007A92846FEF7CDF96020F5
:102B2000ADF800000120ADF802000294ADF80C40B1
:102B300069462846FEF742FA08212846FEF77FFB41
:102B400001212846FEF716FA01212846FEF72CFA45
:102B50000BB030BD2DE9F04105461B498C20684380
:102B60000860184F95202C3738600024154EA04679
:102B700034360CE03868401CC00830604620FFF74F
:102B800046FCC6F800804620FFF741FC641CAC42BE
:102B9000F0DBBDE8F0810B4A10B52C321368094C0C
:102BA0005B1C9B0834342360084B93FBF1F18C23AE
:102BB00091FBF3F1491E11600349086010BD00004C
:102BC0000000024000040040F400002000BD0105A8
:102BD0007CB501210920FEF700F802208DF80400E1
:102BE00001208DF8070048F203002E4C0090694642
:102BF0002046FDF70DFE08202B4D00906946284623
:102C0000FDF706FE022200212046FDF786FE022285
:102C100001212046FDF781FE01220F212046FDF70C
:102C20007CFE012203212846FDF777FE1F4C4FF062
:102C3000FF3529462046FEF783F929464FF08045A7
:102C40002846FEF77DF90223002203212046FEF7E5
:102C500055FD00231A4603212846FEF74FFD0121AA
:102C60002046FEF7A1F901212846FEF79DF97CBD1B
:102C70000E482430006870474FF08040406A70472B
:102C80000A4900202431086070474FF0804100203D
:102C90004862704705492431086070474FF0804111
:102CA000486270470000024000040240000C0040EF
:102CB00030B501218DB00802FDF799FF882003256A
:102CC00000908DF8045000248DF807406946304884
:102CD000FDF79EFD8DF8045000958DF8074069467C
:102CE0002C48FDF795FD8DF8045033202A4D0090B7
:102CF0008DF8074069462846FDF78AFD4FF480307D
:102D0000CDE908404FF47060CDE90A4008A8FDF70E
:102D10003EFB8DF80C4002948DF80D40059406940E
:102D200001201E4C8DF81C0002A92046FDF704FB73
:102D3000012240F205212046FDF764FC01212046D6
:102D4000FDF73AFB04211648FDF7DAFDA1142846E9
:102D5000FDF7D6FDE1142846FDF7D2FD21152846E2
:102D6000FDF7CEFD0DB030BD10B51346044601226F
:102D7000FDF755FB2046FDF78CFB02212046FDF7B1
:102D80004AFC0028F9D02046BDE81040FDF7B3BB4F
:102D90000000024000040240000802400020014000
:102DA000000C02402DE9F047934D04220A212846E9
:102DB000FFF7DAFF914C04220E21E0602846FFF76E
:102DC000D3FF206104220B212846FFF7CDFF60616D
:102DD00004220F212846FFF7C7FFA061FFF701FB80
:102DE000874F824604213846FDF788FD854E4FF413
:102DF000806841463046FDF781FD51463C20FFF793
:102E000019FB04220A212846FFF7AEFFE1680422DD
:102E1000401AE0600E212846FFF7A6FF2169401AFC
:102E2000206104213846FDF76BFD41463046FDF731
:102E300067FDE0680027002800DAE76020690028C5
:102E400000DA27615146FA20FFF7F4FA4FF480596F
:102E500049463046FDF752FD4FF400684146304682
:102E6000FDF74CFD51464FF4AA70FFF7E3FA042238
:102E70000B212846FFF778FF61690422401A606140
:102E80000F212846FFF770FFA169401AA06149464B
:102E90003046FDF735FD41463046FDF731FD6069AE
:102EA000002800DA6761A069002800DAA761E268FB
:102EB00021684FF47A704A4392FBF0F2E260226993
:102EC0004A4392FBF0F2226162694A4392FBF0F2BC
:102ED0006261A2694A4392FBF0F0A061BDE8F0870D
:102EE0002DE9F0411426454C0020434F0546E06192
:102EF000072208213846FFF737FFE1696D1C0844B7
:102F0000E061B542F4DB4CF2503191FBF6F0E2693E
:102F100050433D4A1268801A90FBF1F04042E06154
:102F2000216A01442162616A08446062BDE8F0815F
:102F300010B5042203213048FFF716FF2F4C6060C4
:102F400004F06FFB9FED311B53EC112B04F0E2F901
:102F500004F038FBA06010BD10B5FFF7E9FF27486B
:102F600041F658318068884213DA264C0421204605
:102F7000FDF7C4FC08212046FDF7C0FC254C2021AC
:102F80002046FDF7BBFC2046BDE810401021FDF7B0
:102F9000B5BC10BD70B5184D00242DED028B4FF45B
:102FA0007A769FED1D8B072208212846FFF7DCFE6D
:102FB00004F04EFB53EC182B04F004F941EC180B11
:102FC0000120FFF724FA641CB442ECDB51EC180B2F
:102FD0009FED130B53EC102B04F09CF99FED121B8B
:102FE00053EC112B04F048FB04F0ECFA064908609E
:102FF000BDEC028B70BD000000200140F8000020F5
:10300000000C024000080240D8000020AC1C5A64AA
:103010003BDFD33F00000240000000000000000042
:103020000000000000408F4000000000006AE840FF
:10303000FF4FDFF800840D4606464FF47A7900BF53
:10304000FFF7CFF90446FFF7ADFE3868301AFFF7F7
:1030500007FDD8F80000281AFFF718FD214648465A
:10306000FFF7E8F9ECE710B5F148F349F34C0068D5
:10307000096888424FF00801204602DDFDF73EFC5A
:1030800001E0FDF73DFCEE48EE4900680968884222
:103090004FF00401204602DDFDF730FC01E0FDF7B2
:1030A0002FFCE948E949EA4C0068096888424FF07A
:1030B0001001204602DDFDF721FC01E0FDF720FCB8
:1030C000DC48E4490068096888424FF02001204646
:1030D00003DDBDE81040FDF711BCBDE81040FDF771
:1030E0000FBC70B50D460446FFF7CFFDFFF7C8FDD6
:1030F0002046FFF7B5FC2046FFF7C8FC2846FFF73F
:1031000086F90020FFF7ACFC0020FFF7BFFC64202D
:10311000FFF77DF9FFF7ACFD0446FFF7ADFD201A80
:1031200070BD1CB50020CC49CC4A824608700121F4
:103130001170CB49074683460870804605460090CB
:1031400004460190C7484FF001090168C648016074
:10315000C648C74A0068126809FB00F18E1ABAF126
:10316000000F2ED186422CDCC2484FF0010AC24A21
:1031700080F800A000201070C04880F800A02DB991
:10318000022C03D0032C01D0042C14D1304601F0C2
:10319000B8F8BB48D0ED000ABA48B8EEE01AD0ED56
:1031A000000A01F095F8B848D0ED000AB4EEE00A44
:1031B000F1EE10FA01D2AB4800E0B1480168AA482C
:1031C000016057B9A948006800EB4000C11700EB47
:1031D0009170B6EBA00F00DC012737EA080002D09F
:1031E000A44901200870BBF1000F38D19F48006846
:1031F00000EBD070B6EB600F31DC8D488E494FF09C
:10320000010B00680968884205DC8A48914900681A
:103210000968884200DD012589488A4900680968F3
:10322000884201DD012000908748884900680968CC
:10323000884201DD01200190FFF7E6F800F0030469
:10324000641C012C0FD0022C10D0032C10D0042CA5
:10325000F2D1009805EA000101980142ECD0B8F1E2
:10326000000F09D012E0002DE6D1F8E7009800E049
:1032700001980028E0D1F2E77C480068C11700EB14
:103280009170B6EBA00F05DC4FF0010815B179493C
:1032900000200870002E0ADD654801684FF4FA60CE
:1032A000814204DC6349096881427FF751AF09F12B
:1032B00001093DB1754802687548016875480068A4
:1032C00000F02CFE022C04D0032C04D0042C04D0DB
:1032D00007E0714802E0714800E07148006800F0C2
:1032E0008DFC4FF0000A5746D346D0465546CDF8E0
:1032F00000A0CDF804A02BE72DE9F05F69496A48EA
:10330000DFF8A8A10A684FF0FC0902EB420300EBCA
:10331000830CDAF800004F464E461CF800404D463C
:1033200084440B2A01DA9CF80C900B2801DA9CF8F3
:103330000170002801DD1CF80C6C002A01DD1CF86E
:10334000015CDFF86CA18B460AEB8301085C01F09D
:1033500051F9DFF8608140B9611E894505D14E21E0
:1033600088F800100520BDE8F09FDBF80000DFF8CA
:103370003CA100EB40014E48D94600EB8101DAF850
:103380000000085C01F039F938B9601E874204D1A9
:10339000452188F800100620E5E7CB46D9F8000063
:1033A000DFF80C9100EB400109EB8100DAF8001026
:1033B0005746405C01F024F938B9601E864204D1BA
:1033C000532188F800100720CDE7DBF8000000EB60
:1033D000400109EB81003968405C01F014F938B90B
:1033E000641EA54204D1572188F800100820BAE7CE
:1033F0000020B8E72DE9F0412D4F002606EB4600EE
:10340000002407EB8005285D01F000F970B9285D04
:103410000B2E40F00F00285504DA2819017B41F0EB
:1034200004010173002E4CDD281945E058E000002E
:103430000401002008010020A8000020000802402C
:103440000C010020B000002010010020B40000207A
:1034500000000240AC0000202B000020A50000204E
:10346000A6000020580000202C0100209800002019
:10347000A401002028000020290000202A000020AC
:103480005C00002024010020700100204400002086
:10349000CC000020C8000020600000206400002054
:1034A00068000020140000205C02002010000020B2
:1034B000CC0100202400002010F80C1D41F0010177
:1034C00001700B2C04DA2819417841F00801417091
:1034D000002C05DD281910F8011D41F002010170D2
:1034E000641C0C2C8FDB761C0C2E87DBBDE8F08176
:1034F0002DE9F04F4FF4C8712DED028BE5B0684611
:1035000003F091FAFE4D0026FE4CDFF8FC932E608E
:103510004FF04E0A2660B04689F800A0FFF76AFF18
:1035200001F09AFA01F089F90027EB4695E020684E
:103530002A6800EB4001F54800EB8101895CFC2919
:1035400003D30A20FFF706FB8CE099F800104E2900
:1035500006D0452925D053293CD057295BD073E0AC
:10356000206802E0761C401C206000EB4001E84827
:1035700000EB81002968405C01F03CF8002863D131
:103580002068E24900EB400201EB820229685318EF
:10359000515C1B7B491E8B42E4D055E0761C401CDD
:1035A0002860206800EB4001D94800EB81002968C1
:1035B000405C01F022F850BB206800EB4001D3488A
:1035C00000EB810128680A18095C5278491E8A427A
:1035D000E4D039E0206802E0761C401E2060CC492F
:1035E00000EB400001EB80002968405C01F008F826
:1035F00068B92068C54900EB400201EB82022968E6
:103600005318515C13F80C3C491E8B42E4D01BE06C
:10361000761C401E2860206800EB4001BC4800EB8F
:1036200081002968405C00F0EEFF68B9206800EB7B
:103630004001B64800EB810128680A18095C12F8BD
:10364000012C491E8A42E3D0B24840F82760FFF7B8
:1036500053FE4BF8270000267F1C00F0DDFF0028FA
:103660003FF465AF4FF47A70FEF7D1FEFFF792FC9E
:10367000A94889F800A00124047000F0F7FDA74EC6
:10368000A74FA44D34703C7000246DE04CB305EBA3
:1036900084014968F1B300EE100AB8EEC00A00BF19
:1036A00000F03FFE9F48A0490068096888420DDD90
:1036B0009E489F4900680968884207DD9D48026866
:1036C0009D4801689D48006800F028FC5BF82400D4
:1036D00005283DD006283ED007283FD0082840D0F6
:1036E00041E0974890ED000AB8EEC00A00F013FEE2
:1036F0009448D0ED000AB8EEE01AC0EE010A10EED0
:10370000900A04F0ADF99FED901B53EC112B04F0DF
:10371000B1F800E00DE041EC180B286803F081FFE0
:1037200053EC182B03F04EFD03F01AFD00EE100AC7
:10373000B6E7DFF81C9200EE100AD9F800A0B8EE48
:10374000C00AC9F8008000F0ECFDC9F800A0A9E7A4
:1037500000F0B4FE07E000F0D2FE04E000F0F0FE5E
:1037600001E000F00CFF641C55F8240000288DD106
:10377000444687F80080FFF773F90020FFF786F9C9
:103780000320FFF7E7F9347065B0BDEC028BBDE8AC
:10379000F08F2DE9F04F4FF4C8712DED028BE5B09D
:1037A000684603F040F9564D0026564CDFF8588124
:1037B0002E604FF04E0A2660B14688F800A0FFF751
:1037C00019FE01F049F901F038F80027DFF840B19F
:1037D00090E020682A6800EB40014C4800EB810132
:1037E000895CFC2903D30A20FFF7B4F987E098F835
:1037F00000104E2906D0452923D0532939D0572906
:1038000057D06EE0206802E0761C401C206000EB80
:10381000400128680BEB8101085C00F0EBFE38BB2F
:1038200020683A4900EB400201EB820229685318F4
:10383000515C1B7B491E8B42E6D052E0761C401C3B
:103840002860206800EB40000BEB80012868085CD2
:1038500000F0D3FE60B9206800EB40012B4800EB7C
:10386000810128680A18095C5278491E8A42E5D00D
:1038700037E0206802E0761C401E206000EB40012B
:1038800028680BEB8101085C00F0BAFE48BB206899
:103890001E4900EB400201EB820229685318515C7B
:1038A00013F80C3C491E8B42E5D01AE0761C401EF2
:1038B0002860206800EB400128680BEB8101085C60
:1038C00000F0A1FE68B9206800EB40010F4800EB52
:1038D000810128680A18095C12F8012C491E8A42E5
:1038E000E4D00C4840F82760FFF706FD4DF82700AC
:1038F00000267F1C00F090FE00283FF46AAF29E00C
:103900001000002014000020240000205C02002091
:10391000CC010020EC02002028000020A60000209E
:103920002A00002004010020D0000020080100200F
:10393000D400002044000020CC000020C80000205B
:10394000A000002098000020CAC342AD69DEDD3F20
:103950005C0000204FF47A70FEF759FDFFF71AFB68
:1039600088F800A0DFF848B24FF0010A55468BF8FE
:1039700000A000F07BFC904FDFF838824C463D7091
:1039800088F800500025DFF834928D4E65E0C5B10F
:1039900006EB85014968D1B3401E00EE100AB8EE6F
:1039A000C00A00BF00F0BDFC89F800A05DF825004A
:1039B000052844D0062845D0072846D0082847D0F7
:1039C00048E0804890ED000AB8EEC00A00F0A3FC81
:1039D0007D48D0ED000AB8EEE01AC0EE010A10EE04
:1039E000900A04F03DF841EC180B306803F019FE22
:1039F0001FED2B1B53EC112B03F048FF53EC182B3E
:103A000003F0E0FB03F0ACFB00EE100ACAE7FFE7AF
:103A10006E49096864916D490C6003F002FE9FEDE8
:103A20006C1B53EC112B03F031FF03F099FB00EEFC
:103A3000100A00F076FC654864990160B4E700F074
:103A40003DFD07E000F05BFD04E000F079FD01E0E2
:103A500000F095FD89F800406D1C56F825000028FF
:103A600095D188F800403C70FEF7FAFF0020FFF780
:103A70000DF80320FFF76EF88BF8004084E670B570
:103A800055485649574C006800EB400001EB800058
:103A900053490968455C20784E2803D1284600F038
:103AA000A9FDA0B92078452803D1284600F0A5FD3E
:103AB00068B92078532803D1284600F0A1FD30B919
:103AC0002078572805D1284600F09DFD08B1012037
:103AD00070BD002070BD70B5404C434B002101EB20
:103AE000410504EB8502002003EB8505165C2E548E
:103AF000401C0C28FADB491C0C29F0DB3B4C3C4BEE
:103B0000002101EB410504EB8502002003EB850554
:103B1000165C2E54401C0C28FADB491C0C29F0DBE7
:103B200070BD70B5304C2D4B002101EB410504EB0D
:103B30008502002003EB8505165C2E54401C0C28E2
:103B4000FADB491C0C29F0DB294C284B002101EB46
:103B5000410504EB8502002003EB8505165C2E541D
:103B6000401C0C28FADB491C0C29F0DB70BD70B539
:103B70004FF42F741F4D04E0FFF714F90520FEF7F2
:103B800046FC2868A042F7DB0220FEF7E3FF1A4D4F
:103B900005E000BFFFF706F90520FEF738FC2868AE
:103BA000A042F7DBBDE870400220FEF7D3BF000063
:103BB000A6000020280000202A000020A7000020E6
:103BC000EC020020A0000020980000205C000020F3
:103BD000000000000000E03F14000020CC010020A5
:103BE00010000020240000207C0400205C02002043
:103BF0000C05002004010020080100202DE9F05FE1
:103C0000AC494FF000082DED028B044681F800808E
:103C1000A949AB4ADFF8B0B2C1F80080A749002635
:103C2000C1F8008001211170A649C1F800809BED08
:103C3000000AA649FDEEC08A91ED000ABDEEC08AD9
:103C40009FEDA30A8BED000A81ED000AFEF7DCFB75
:103C50000746A04DFEF7D8FB2968C01B8842F9D360
:103C6000FEF7D2FB07469C48C146002CC0F80080F6
:103C7000DFF8688282460EDC21E099480068414204
:103C80000120C8F80010FEF7C2FBFEF7BDFBC01B09
:103C9000B0F57A7F11D8DAF80000A042EDDB12E02F
:103CA0008F4801680120C8F80010FEF7B0FBFEF74E
:103CB000ABFBC01BB0F57A7F01D9012603E0DAF82F
:103CC0000000A042ECDCB8EEE80AC8F800907F489B
:103CD0008BED000AB8EEC80A4F4680ED000AFEF7E9
:103CE00093FB0446FEF790FB2968001B8842F9D33A
:103CF00073490120087070480760704807603046BB
:103D0000BDEC028BBDE8F09F2DE9F05FDFF8B081DC
:103D10006848012688F800600024047071486949E9
:103D2000DFF894910068DFF894A10860C9F80040BA
:103D3000CAF80040FEF768FB0546DFF8ACB16B4FF0
:103D400017E000BFFFF72EF869480168DBF80000B4
:103D500081420BDD6748016867480068814205DDE4
:103D60004FF47A613220FEF716FF08E00120FEF7DB
:103D70004EFBFEF749FB3968401B8842E2D35F489F
:103D8000564F006840423860FEF73EFBDFF870B1E6
:103D9000054600BFFEF738FB411B5A48DBF8002000
:103DA000006810448142F5D3574858493C60006888
:103DB0000860FEF729FBDFF858B1564F054600BFF3
:103DC000FEF722FB411BDBF800003A6810448142F9
:103DD000F6D388F80060C9F80040CAF8004091E7BF
:103DE0002DE9F05FDFF8D8803248012688F80060BE
:103DF000002404703B483349DFF8BC900068DFF8CA
:103E0000BCA00860C9F80040CAF80040FEF7FCFA00
:103E10000546DFF8D4B0354F17E000BFFEF7C2FF0C
:103E200033480168DBF8000081420BDD314801684E
:103E300031480068814205DD4FF47A613220FEF797
:103E4000AAFE08E00120FEF7E2FAFEF7DDFA396883
:103E5000401B8842E2D32948204F00683860FEF7B3
:103E6000D3FA0546DFF898B0FEF7CEFA411B254895
:103E7000DBF80020006810448142F5D3264823492E
:103E80003C6000680860FEF7BFFADFF884B0214F9D
:103E9000054600BFFEF7B8FA411BDBF800003A68A0
:103EA00010448142F6D388F80060C9F80040CAF88F
:103EB000004027E7280000209401002098010020FE
:103EC0002A0000202C01002074010020780100202D
:103ED0000000484348000020180100203001002065
:103EE000540000205C000020D0000020840000204E
:103EF0000401002008010020D400002080000020E0
:103F0000880000208C0000207C0000202001002080
:103F10009000002094000020780000202DE9F74F49
:103F200082B09046FEF7A8FE0190FEF7A1FEDFF8F2
:103F30007C901F490090D9F800600968C9F800100A
:103F40001C49012008701C4900200870FEF75CFA2B
:103F50000546DFF868A0DFF868B01A4F16E000BF2A
:103F6000FEF73FFA04460298DAF80010401AFEF70E
:103F700077FD0398DBF80010401AFEF787FD00BFBD
:103F8000FEF72FFA3968001B8842F9D3FEF73CFA96
:103F9000411B4145E4D30198FEF780FE0098FEF7EF
:103FA00079FEC9F8006005B0BDE8F08F3C00002044
:103FB00040000020280000202A00002004010020EA
:103FC000080100204400002070B5F8480168F84856
:103FD0000268F84802F13203994201DD511A08E003
:103FE000F64BF54A1B68126803F13204A24202DD67
:103FF000D11A816070BDF24B00241B68994222DA0D
:10400000F04909688A421EDAEF49F34A0B68EF4922
:1040100012680E68EE49B3420D68EE49096808DD82
:10402000914206DA591A711A6943816000290ADC43
:1040300070BD9142FCDDB342FADAC91A891A6943AC
:1040400081600029F4DA846070BD70B5D94CD94D17
:10405000803CD4E91C021118101AC4E9041000EEC7
:10406000101ADE4AD4ED000AB8EEC00A12682B69B5
:1040700030EEC00A92FBF3F2D4ED080A104430EEA1
:10408000200A84ED080A00EE100AD4ED010AD44893
:10409000B8EEC00A30EEC00AD4ED090A30EE200AAC
:1040A00084ED090A007878B1FFF78EFFD5E90201A7
:1040B00090FBF1F000EE100AD4ED090AB8EEC00A48
:1040C00030EE800A84ED090AD4ED080A94ED0E0A58
:1040D00094ED0A1AD4ED0F1A20EE200A30EEC11A20
:1040E00004F1280301EE810ABDEEC00A10EE102A89
:1040F000226394ED091A94ED100AD4ED0B1A94ED95
:10410000112A20EE010A71EE611A02EE210ABDEEBB
:10411000C00A10EE101A6163501AC3EC020A11446F
:10412000C4E91601FEF79CFCE06DBDE87040FEF7A7
:10413000ADBCA048B0EE001A803890ED020AD0ED78
:10414000000AB8EEC02ADFEDA71AF4EEC20AF1EEBB
:1041500010FA11D290ED122A22EE011A81EE212AD4
:10416000B8EEC01A72EE200AC0ED000AF4EEC10AE1
:10417000F1EE10FA18DC1BE0B8EEC02AF4EEC20A29
:10418000F1EE10FA14DD90ED132A22EE011A81EE01
:10419000212AB8EEC01A70EEC20AC0ED000AF4EE91
:1041A000C10AF1EE10FA03D2B8EEC00A80ED000A9F
:1041B00090ED030AD0ED010AB8EEC01AF4EEC10A80
:1041C000F1EE10FA11D290ED141A70EE810AB8EEE9
:1041D000C01AC0ED010AF4EEC10AF1EE10FA03DDD7
:1041E000B8EEC00A80ED010A7047B8EEC01AF4EECE
:1041F000C10AF1EE10FAF7DD90ED151A70EEC10A62
:10420000B8EEC01AC0ED010AF4EEC10AF1EE10FAE0
:10421000E6D3704770B5FEF72FFD664C803C2066F4
:10422000FEF726FD226EA16E511A2167E36EC4E9E6
:104230001A20C31ACD1805EBD5756D10C4E91D35CC
:1042400011441844C4E9181008445A4900EBD070CE
:1042500040100860E06F401BE06770BD10B5FFF7CD
:10426000D9FFFFF766FFBDE81040EEE610B55C48E9
:10427000002404705C4804702046FEF7F1FB002027
:10428000FEF704FC9FED590A4A484A49803880ED00
:10429000060A80ED070A80ED000A80ED010A8460BD
:1042A000C46080ED080A80ED090A80ED0A0A80EDFD
:1042B0000B0A8466C466046644660C604C608465C0
:1042C000C465C467FEF7E1FCBDE81040FEF7D8BC4A
:1042D000B5EEC00AF1EE10FA01D8B7EE000A60EEB2
:1042E000A00A41EE410A80EE801AB4EE000A21EEE7
:1042F000000AB5EEC00AF1EE10FA01D2B1EE400AA2
:10430000704700EE100A3A48F8EEC00A90ED001A25
:1043100080EE810A70473648D0ED000A20EE200A70
:1043200070472DE9F0412E4C2F4901202DED028BD5
:10433000B0EE408A20700870FEF79EFC0546FEF73E
:1043400097FC284400EBD0701A494710294D2A4A9F
:104350008039184E56E000BF00EE100AF8EEC00A91
:1043600000EE103A03EBD373B8EEC00A58EE000A21
:10437000BDEEE00A10EE100AB0EB630F01DA002385
:104380002370FFF7BEFFD2ED000AB8EEE01AD1EDC0
:10439000000AFFF79DFFD1ED130AB4EEE00AF1EE3B
:1043A00010FA2DD2154800682BE000000C01002007
:1043B000B8000020A401002010010020BC00002053
:1043C000B0000020B400002004010020C000002044
:1043D0003400002008010020C40000201401002047
:1043E000280000200000C8422A0000200000000031
:1043F0009C000020980000205C0000204C00002061
:104400001068886030682B68C01B00EE100AF8EE58
:10441000C00A00EE103AB8EEC00A28EE000AF4EE28
:10442000C00AF1EE10FA97D310688860BDEC028BD9
:10443000BDE8F0812DE9F04719490120DFF86C80D3
:104440000870184908701849097809B188F80000FF
:10445000174C184D2068A860FEF70EFC0646FEF7C4
:1044600007FC304400EBD070DFF84C90461000BFE2
:10447000FEF702FC0746FEF7FBFBD9F800103844B4
:1044800001EBD17106EB610100EBD070B1EB600F75
:104490002068A860ECDC002188F80010BDE8F087F7
:1044A000280000202A000020A4000020290000206D
:1044B0005C000020240100209800002010B5484C2A
:1044C00020784E2818D047495728097804D0452825
:1044D00008D053280CD00FE011B1FFF715FC0BE00A
:1044E000414806E011B1FFF77BFC05E03F4800E0E2
:1044F0003F480068FFF782FB4E20207010BD10B5CA
:10450000374C3849207809784E2806D057280AD0E9
:10451000452812D0532808D00FE011B1FFF7F4FB63
:104520000BE0314806E0324804E011B1FFF758FCD7
:1045300003E02E480068FFF761FB4520207010BDA6
:1045400010B5274C21784E2906D0264857290078E7
:1045500004D0452908D00FE025480AE010B1FFF744
:104560003FFC09E0214804E010B1FFF7CDFB03E078
:104570001D480068FFF742FB5320207010BD10B5A6
:10458000174C1849207809784E2806D0572814D09F
:10459000452808D0532808D00FE011B1FFF720FCC0
:1045A0000BE0124806E0124804E011B1FFF7ACFB43
:1045B00003E00D480068FFF721FB5720207010BD75
:1045C000074800784E2806D0452805D0532804D047
:1045D000572803D193E7B3E7D1E76FE770470000AF
:1045E00024000020A70000206400002060000020BC
:1045F0006800002000F001007047C0F340007047E1
:10460000C0F380007047C0F3C0007047C0F30010D3
:104610007047C0F3401070472DE9FC4F76480268A0
:10462000052A01D0062A29D1744803687448017804
:10463000077B41F00109C17A067E41F0020C90F837
:10464000241041F0040EC17D41F00201019190F867
:104650002510457E41F004010091817E447B41F0AC
:10466000080B417841F0010A817B353841F0080898
:104670006449052B097804D0062B04D00020BDE83E
:10468000FC8F052A0AD047F00C0780F8417080F8AB
:10469000359080F840C0062B15D112E04E2902D08B
:1046A000452907D00FE047F0080780F8417080F8EF
:1046B00040C008E047F0040780F8417080F835906A
:1046C00001E0052A0BD046F0090680F84D6080F81D
:1046D00059E0019E80F84C60062B16D113E0532957
:1046E00002D0452908D010E046F0080680F84D6059
:1046F000019E80F84C6008E046F0010680F84D60AD
:1047000080F859E001E0062A0BD045F0030580F857
:104710004E50009D80F85A5080F84FB0052B16D1AE
:1047200013E0532902D0572907D010E045F00201C9
:1047300080F84E1080F84FB009E045F0010180F894
:104740004E10009980F85A1001E0062A06D044F075
:10475000060180F8421080F836A008E04E2902D009
:10476000572907D00CE044F0020180F8421080F88D
:10477000438005E044F0040180F8421080F836A040
:1047800001207CE71C481D4900680968084301D0E6
:104790000020704701207047194A01EB4101A2F146
:1047A000350210B502EB8102125C6FEA0204164A70
:1047B000E30702EB8101014404D0087BA20703D484
:1047C000FC2302E0FC20F9E74B78620701D4FC22CD
:1047D00001E011F80C2C240701D4FC2101E011F8B0
:1047E000011C834200DA1846824200DA10468142F8
:1047F00000DA084610BD0000100000201400002060
:1048000001020020240000205C0200202DE9F0417C
:10481000434F0B2505EB4500002407EB800641A024
:10482000315D01F0B9FE641C0C2CF8DB3EA001F0F8
:10483000B3FE6D1EEED5BDE8F0812DE9F05FDFF827
:10484000ECB0DFF8DC90DFF8E8A00B2505EB4507BE
:10485000002409EB8706305DFFF7CCFE08B135A0D8
:1048600000E036A001F098FE641C0C2CF3DB35A0B0
:1048700001F092FE2CA001F08FFEDFF8CC80002426
:10488000305DFFF7C0FE08B130A000E030A001F0BD
:1048900083FED8F80000854216D12E480068844275
:1048A00012D19BF800004E2806D0452806D0532888
:1048B00006D0572806D018E027A00AE027A008E075
:1048C00027A006E027A004E0305DFFF7A2FE18B1A4
:1048D00025A001F061FE08E0305DFFF797FE0AEBCE
:1048E0008700015D0FA001F057FE641C0C2CC7DB94
:1048F00016A001F051FE0CA001F04EFE6D1EA5D5D4
:1049000000240CA001F048FE641C0C2CF9DB0DA067
:1049100001F042FEBDE8F05F03A001F03DBE0000E3
:10492000CC010020253364000A0D00002400002083
:104930005C0200202B2D2D2D000000002B202020BC
:10494000000000002B000000140000207C0000008C
:104950002000000010000020205E2000203E2000EB
:1049600020762000203C20002078200030B52A4806
:10497000017841F00E010170417841F00C01417065
:1049800000214218491C12F8843F0C2943F001030E
:104990001370F6DB5FF0000101EB410200EB8202D5
:1049A000491CD37A0C2943F00203D372F4DB0021B3
:1049B000425C42F004024254491C0C29F8DB0021FD
:1049C00001EB4102491C10F822300C2943F0080386
:1049D00000F82230F4DB0A20104C002202EB4203E4
:1049E000002104EB83030529585401DA401E03E03B
:1049F0008D1F052D00D2401C491C0C29F3DB052A14
:104A000001DA401E03E0911F052900D2401C521C10
:104A10000C2AE3DB30BD0000CC0100205C0200204A
:104A2000FA480178FA484E29006806D0452907D08F
:104A3000532908D0572909D00AE005280AD007E0F1
:104A4000062807D004E0072804D001E0082801D098
:104A500001207047002070472DE9F0474FF0900982
:104A6000002635460024052D01D0062D03D1052C46
:104A700022D0062C1ED0E74805EB450100EB81084B
:104A8000294618F804702046FFF786FE401CC0B285
:104A900008F80400B84200D00126641C0C2CE2DBAC
:104AA0006D1C0C2DDEDB002E02D0B9F10109D7D52B
:104AB000BDE8F0870724D6E70624D4E7F0B5D3484D
:104AC000D54AD6490778D6481678D64A0478D748C2
:104AD0000D781368D44903EB4302006801EB8202AE
:104AE00011184E2F2CD0452F4FD0532F71D0572F48
:104AF00025D15EB1165C002846F00806165405DD87
:104B000011F8016C46F0020601F8016C5DB1155C0C
:104B1000002B45F00405155405DD11F80C5C45F03B
:104B2000010501F80C5C002C09D0145C0B2B44F03F
:104B30000104145403DA087B40F004000873F0BD4C
:104B40004EB1165C0B2B46F00106165403DA0B7BB4
:104B500043F004030B735DB1135C002843F00803BA
:104B6000135405DD11F8013C43F0020301F8013C48
:104B7000002CE4D0135C0B2843F002031354DEDA5C
:104B8000487840F008004870F0BD4EB1165C0B2824
:104B900046F00206165403DA4E7846F008064E70C8
:104BA0004DB1155C0B2B45F00105155403DA0D7B57
:104BB00045F004050D73002CE6D0145C002B44F086
:104BC00004041454E0DD11F80C0D40F0010024E061
:104BD000FFE75EB1165C002B46F00406165405DDB7
:104BE00011F80C3C43F0010301F80C3C4DB1135C8F
:104BF0000B2843F00203135403DA4B7843F0080305
:104C00004B70002CC0D0135C002843F008031354F1
:104C1000BADD11F8010D40F002000870F0BD2DE979
:104C2000F04F4FF47A702DED028B83B0FDF7EFFB60
:104C3000FEF7B0F97E4801240470FFF717FB7D48AA
:104C400000254E21047079480126A9460560754863
:104C5000AA462F4605606D48AB462C460170724847
:104C60000078FFF7D3FC80B96E48006800EB400184
:104C70006D4800EB81006D490968425C42F010020A
:104C800042546D480168491C01606C486C490068D9
:104C90009FED6C8A086087E26B486C4A0068126876
:104CA00006FB00F18D1AB9F1000F35D1854233DCD6
:104CB000674A4FF001095B4982F80090654A82F823
:104CC00000900B68534A03EB430C02EB8C08574AE5
:104CD000D2F800C018F80C80B8F1FC0F78D2DFF8D9
:104CE0002C8198F80080B8F14E0F09D0B8F1450F2B
:104CF00008D0B8F1530F08D0B8F1570F08D00BE027
:104D00005B1C03E00CF1010C04E05B1E0B6003E094
:104D1000ACF1010CC2F800C0BAF1000F09D100EBF0
:104D20004001CA1701EB9271B5EBA10F01DC4FF006
:104D3000010A002F68D100EBD070B5EB600F63DC87
:104D400045484649012700680968884202DD334822
:104D5000012101704248434900680968884202DD28
:104D60002F48012101704048404900680968884285
:104D700008DD3F4801683F480068814202DD26495E
:104D800001200870FFF79AFEDFF898802748D8F8CE
:104D900000100068FFF700FDD8F80010401C01EB80
:104DA00041021C4901EB8202204909685054FFF777
:104DB00053FED8F8000000EB40011B4800EB8101D6
:104DC0001A480068085CFFF715FC10B1FC200BE0E6
:104DD00053E1D8F8000000EB40010E4800EB8101E0
:104DE000124800680844007B01900E48006800EB00
:104DF00040010D4800EB81010C480068085CFFF79A
:104E0000FCFB10B1FC2042E0A2E035E024000020D1
:104E1000200000205C0200201C0000201D0000205B
:104E20001E00002014000020CC01002010000020F3
:104E3000A5000020290000201800002058000020B4
:104E40002C0100200000000098000020A401002098
:104E5000280000202A0000200C010020B0000020C3
:104E600010010020B400002004010020A800002050
:104E700008010020AC000020FC48006800EB400165
:104E8000FB4800EB8101FB480068084440788046FD
:104E9000F648006800EB4001F74800EB8101F54857
:104EA0000068085CFFF7ACFB08B1FC200BE0EF48A2
:104EB000006800EB4001EE4800EB8101ED4800681E
:104EC000084410F80C0C0090E848006800EB400122
:104ED000E94800EB8101E7480068085CFFF793FBB5
:104EE00008B1FC200BE0E148006800EB4001E0481D
:104EF00000EB8101DF480068084410F8010C0199BB
:104F0000414506DA009A914203DA814201DA05202E
:104F10001CE0019A904506DA009A904503DA804534
:104F200001DA062012E00099414506DA019A914221
:104F300003DA814201DA072008E0404517DA0099D8
:104F4000884214DA0199884211DA0820CB490860B6
:104F5000CB48006800EBD070B5EB600F00DC012798
:104F6000DFF8208398F8000000287CD199E0DFF872
:104F7000188398F800004E280DD1BC48006800EB5B
:104F80004001BD4800EB8101BA480068085CFFF7AA
:104F900031FB0028BBD098F8000045280DD1B3485C
:104FA000006800EB4001B44800EB8101B1480068A3
:104FB000085CFFF722FB0028B3D098F800005328C4
:104FC0000DD1AA48006800EB4001AB4800EB81011D
:104FD000A8480068085CFFF713FB0028ABD098F8DE
:104FE000000057280DD1A148006800EB4001A248FD
:104FF00000EB81019F480068085CFFF704FB002874
:10500000A3D09A48DFF86C82006800EB40019A4810
:1050100000EB8101D8F80000085CFFF7EBFA0028EC
:10502000B8D09248006800EB4001934800EB810142
:10503000D8F80000085CFFF7E0FA0028BCD08B48E5
:10504000006800EB40018C4800EB8101D8F80000BB
:10505000085CFFF7D5FA0028C0D08448006800EB50
:105060004001854800E01FE000EB8101D8F8000016
:10507000085CFFF7C8FA0028C2D080480460834863
:1050800004700020FDF7ECFC0020FDF7FFFC0A2077
:10509000FDF760FD03B0BDEC028BBDE8F04FFFF7FC
:1050A000CCBBFFF7BDFCC8B12846FFF72AF978480A
:1050B000B0EE481AD0ED000AFFF70AF97548D0EDB6
:1050C000000AB4EEE00AF1EE10FA04D27248016868
:1050D0007248016006E07148046003E06E486F4961
:1050E00000680860BBF1000F09D165480068C1176E
:1050F00000EB9170B5EBA00F06DC4FF0010B98F8B8
:10510000000008B166480470002D4DDCDFF85C91AA
:10511000594FDFF860A1D9F80000761C00EB400081
:1051200007EB8001DAF80000085CFFF76FFA78B946
:10513000D9F8000000EB400007EB8001DAF800002E
:105140000A5C42F010020A5456480168491C01608A
:1051500098F8000038B1544802685448016854482F
:105160000068FEF7DBFE45480068052806D00628E3
:1051700007D0072808D0082809D00AE0FFF79EF9D1
:1051800007E0FFF7BCF904E0FFF7DAF901E0FFF709
:10519000F6F9484888F800404FF000090470464886
:1051A000CA464F46CB460470FFF736FA00283FF454
:1051B00073ADDFF8CCA0DFF804B1DFF8D490DFF8EE
:1051C000D480364F002D22DDDAF8000000EBD071DC
:1051D000B5EB610F01DA32490C70DBF80010704357
:1051E000451A2846FFF78DF8B0EE481AD9ED000AA7
:1051F000FFF76EF8D8ED000AB4EEE00AF1EE10FA0F
:1052000003D2254800683860DCE73C60DAE7174FD6
:10521000194D184E386800EB400005EB80013068EE
:10522000085CFFF7F3F968B9386800EB400005EB5C
:10523000800130680A5C42F010020A541948016883
:10524000491C0160114804700020FDF709FC002092
:10525000FDF71CFCFFF7F1FA0320FDF77BFC184873
:10526000047003B0BDEC028BBDE8F08F1400002089
:105270005C02002010000020CC0100202000002053
:10528000980000201C000020240000202A0000209C
:105290002401002070010020580000202C01002073
:1052A000280000201800002044000020CC0000202E
:1052B000C80000201D0000201E000020A4010020C6
:1052C000A50000202DE9F0474FF090080027DFF8F7
:1052D00058A43D4605EB450100240AEB810600BFBA
:1052E00055EA04000BD016F8049029462046FFF733
:1052F00053FA401CC0B23055484500D00127641C09
:105300000C2CEDDB6D1C0C2DE4DB002F02D0B8F172
:105310000108DBD5BDE8F0872DE9F04F4FF47A7036
:105320002DED028B83B0FDF772F8FDF733FEFF48D9
:1053300001210170FEF79AFF01250024DFF8E883C0
:105340002746A2462646A3462046002200EB4003FD
:105350001146C14608EB830302EB000C03F801C0C1
:10536000521C491C0C29F7DB401C0C28EDDBFFF715
:10537000A9FFFFF725F9EE480168EE489FEDEE8A98
:10538000016064E3ED48EE4A0168126805FB01F034
:10539000841AFFB98C4229DCEA4A0127DFF8AC8382
:1053A0001770E94ADFF8A8C31770D8F80000DCF8D6
:1053B000002000EB400309EB83039B5CFC2B70D2C5
:1053C000E44B1B784E2B06D0452B06D0532B06D032
:1053D000572B08D00AE0401C02E0521C04E0401E9B
:1053E000C8F8000002E0521ECCF80020BAF1000F0D
:1053F00009D101EB4100C21700EB9270B4EBA00F92
:1054000001DC4FF0010A002E7ED101EBD170B4EB2C
:10541000600F79DCD048D1490126006809688842CC
:1054200002DDCF4901200870CE48CF4900680968E5
:10543000884202DDCD4901200870CD48CD49006881
:105440000968884208DDCC48CC4900680968884270
:1054500002DDCB4901200870FFF730FBDFF8EC825A
:10546000BB48D8F800100068FFF796F9D8F800108C
:10547000401C01EB4102B64909EB82020968505415
:10548000FFF720FFD8F8000000EB4001BD4800EB1B
:105490008101AF480068085CFFF7ACF810B1FC2050
:1054A0000AE045E2D8F8000000EB4001A84809EB0B
:1054B000810100680844007B0190A448006800EB6B
:1054C0004001B04800EB8101A1480068085CFFF78B
:1054D00094F808B1FC2009E09C48006800EB40010A
:1054E0009B4809EB81010068084440788046974852
:1054F000006800EB4001A34800EB8101944800687C
:10550000085CFFF77DF800E095E108B1FC200AE0B7
:105510008E48006800EB40018D4809EB810100686E
:10552000084410F80C0C00908848006800EB40011B
:10553000944800EB810186480068085CFFF763F837
:1055400008B1FC200AE08148006800EB4001804877
:1055500009EB81010068084410F8010C01994145EC
:1055600006DA009A914203DA814201DA05201BE053
:10557000884506DA0099884503DA804501DA062075
:1055800012E00099414506DA019A914203DA81421C
:1055900001DA072008E0404509DA0099884206DA76
:1055A0000199884203DA08207749086043E1DFF86F
:1055B0009C81D8F8000000EB4001724800EB8101AB
:1055C00063480068085CFFF715F888B9D8F8000050
:1055D00000EB40016B4800EB81015D480068084426
:1055E000007BFFF713F818B95A4800784E28BDD051
:1055F000D8F8000000EB4001624800EB81015448FC
:105600000068085CFEF7F9FF88B9D8F8000000EBE5
:1056100040015C4800EB81014D4800680844407837
:10562000FEF7F4FF18B94B4800784528A7D0D8F802
:10563000000000EB4001534800EB81014448006842
:10564000085CFEF7DDFF90B9D8F8000000EB4001E0
:105650004C4800EB81013E480068084410F80C0CEF
:10566000FEF7D4FF18B93B480078532891D0D8F8FA
:10567000000000EB4001434800EB81013448006822
:10568000085CFEF7C0FF98B9D8F8000000EB4001B5
:105690003C4800EB81012E480068084410F8010CDA
:1056A000FEF7B4FF20B92B48007857283FF47BAFB2
:1056B000D8F8000000EB4001324800EB810124489B
:1056C0000068085CFEF796FF78B9D8F8000000EB98
:1056D00040012C4800EB81011D4800680844007B14
:1056E000FEF794FF00283FF441AFD8F8000000EB2C
:1056F0004001244800EB810115480068085CFEF772
:105700007CFF68B9D8F8000000EB40011D4800EBB1
:1057100081010F48006808444078FEF777FF10B118
:10572000D8F8000032E03DE05C020020A500002037
:10573000580000202C0100200000000098000020EC
:10574000A4010020280000202A00002014000020CE
:1057500010000020240000200C010020B0000020D8
:105760001D00002010010020B40000201E000020B9
:1057700004010020A800002008010020AC00002047
:105780001C000020CC0100202000002000EB400184
:10579000FE4800EB8101FE480068085CFEF730FF20
:1057A00010B112E0062144E0D8F8000000EB4001FF
:1057B000F64800EB8101F6480068084410F80C0C2C
:1057C000FEF724FF00283FF4E4AEF248DFF8BC8384
:1057D000006800EB4001EE4808EB81010068085CBE
:1057E000FEF711FF78B9EB48006800EB4001E8488C
:1057F00008EB81010068084410F8010CFEF706FF71
:1058000000283FF4D0AEE44800784E280BD1E148A0
:10581000006800EB4001DE4808EB81010068085C8D
:10582000FEF7E8FE20B1DC480078452811D01EE0E4
:105830000521DA480160DA48006800EBD070B4EB6B
:10584000600F00DC0126DFF85C8398F80000E8BBFD
:1058500082E0D048006800EB4001CD4808EB8101B0
:105860000068085CFEF7C9FE00283FF488AECA480D
:10587000007853280CD1C748006800EB4001C448A9
:1058800008EB81010068085CFEF7BAFE00289AD098
:10589000C148007857280CD1BE48006800EB400191
:1058A000BB4808EB81010068085CFEF7ACFE0028ED
:1058B000A7D0B848006800EB4001B44800EB810174
:1058C000B3480068085CFEF795FE00E047E000285A
:1058D0003FF44CAEDFF8BC82D8F8000000EB40018A
:1058E000AA4800EB8101AA480068085CFEF785FE23
:1058F0000028BAD04046DFF89882006800EB4001EB
:10590000A24800EB8101D8F80000085CFEF778FEA1
:105910000028BCD09F48006800EB40019B4800EB8A
:105920008101D8F80000085CFEF76DFE0028BFD0AA
:105930009A49002008609C490870FDF791F8002002
:10594000FDF7A4F80A20FDF705F903B0BDEC028BC2
:10595000BDE8F04FFEF771BFFFF762F8C0B1204617
:10596000FEF7CFFC9148B0EE481AD0ED000AFEF7E2
:10597000AFFC8F48D0ED000AB4EEE00AF1EE10FA69
:1059800006D300208B49BBF1000F086003D00CE068
:1059900089480068F6E782480068C11700EB9170FB
:1059A000B4EBA00F07DC4FF0010B98F8000010B12A
:1059B000824900200870002C49DCDFF8D8A1734E22
:1059C000734FDAF800006D1C00EB400006EB80011D
:1059D0003868085CFEF71AFE70B9DAF8000039681A
:1059E00000EB400006EB8000425C42F010024254A3
:1059F00073480168491C016098F8000038B171488B
:105A000002687148016871480068FEF787FA6348C8
:105A10000068052806D0062807D0072808D00828DF
:105A200009D00AE0FEF74AFD07E0FEF768FD04E052
:105A3000FEF786FD01E0FEF7A2FD0027644988F825
:105A40000070BA460F7063493E46BB460F70FEF7C2
:105A500099FE00283FF496AC514FDFF87CA1DFF8A7
:105A60004C91DFF84CB1DFF84C810026002C24DD8E
:105A7000386800EBD071B4EB610F01DA4F490E705A
:105A800005FB00F1DAF800000C1A2046FEF739FC9D
:105A9000B0EE481AD9ED000AFEF71AFCDBED000A59
:105AA000B4EEE00AF1EE10FA04D243480168C8F8F7
:105AB0000010DBE7C8F80060D8E7364C344F334DB0
:105AC0002068396800EB400005EB8000405CFEF781
:105AD0009DFD68B9206800EB400005EB8001386847
