:020000040800F2
:100000008012002089550008712100087321000822
:100010007521000877210008792100080000000000
:100020000000000000000000000000007B2100082C
:100030007D210008000000007F21000881210008C8
:10004000A3550008A3550008A3550008A3550008B0
:10005000A3550008A3550008A3550008A3550008A0
:10006000A3550008A3550008A3550008A355000890
:10007000A3550008A3550008A3550008A355000880
:10008000A3550008A3550008A3550008A355000870
:10009000A3550008A3550008A35500089F21000898
:1000A000A3550008A3550008A3550008A355000850
:1000B000A3550008A3550008A3550008A355000840
:1000C000A3550008A3550008A3550008A355000830
:1000D000A3550008A3550008A3550008A355000820
:1000E000FB210008A3550008A3550008A3550008EC
:1000F000A3550008A3550008A3550008A355000800
:10010000A3550008A3550008A3550008A3550008EF
:10011000A3550008A3550008A3550008A3550008DF
:10012000A3550008A3550008A3550008A3550008CF
:10013000A3550008A3550008A3550008A3550008BF
:10014000A3550008A3550008A3550008A3550008AF
:10015000A3550008A3550008A3550008A35500089F
:10016000A3550008A3550008A3550008A35500088F
:10017000A3550008A3550008A3550008A35500087F
:10018000A3550008A355000800F002F800F070F82D
:100190000AA090E8000C82448344AAF10107DA45E2
:1001A00001D100F065F8AFF2090EBAE80F0013F0C4
:1001B000010F18BFFB1A43F0010318471066000037
:1001C000306600000A444FF0000C10F8013B13F0B9
:1001D000070408BF10F8014B1D1108BF10F8015BA0
:1001E000641E05D010F8016B641E01F8016BF9D193
:1001F00013F0080F1EBF10F8014BAD1C0C1B09D1EA
:100200006D1E58BF01F801CBFAD505E014F8016B5B
:1002100001F8016B6D1EF9D59142D6D370470000ED
:100220000023002400250026103A28BF78C1FBD8FF
:10023000520728BF30C148BF0B607047642905F0E2
:100240001583632905F0CC85732905F0D18500203D
:1002500070471FB506F082FA06F06CF80400002023
:10026000002106F073F8401C60601FBD10B510BD82
:1002700005F044FE1146FFF7ECFF01F041FC06F0EB
:1002800047F803B4FFF7F2FF03BC02F0ADF900003A
:100290002749084327490860704770B50F21C47883
:1002A000027801234FF0E026E4B1224C246804F4E4
:1002B000E064C4F5E064C4F30724C4F10405E1403C
:1002C0004478AC4085780D4025431B4C29011155DD
:1002D000007800F01F018B40400906EB8000C0F859
:1002E000003170BD02F01F008340500906EB800012
:1002F000C0F8803170BD114A114001430D48001F04
:10030000016070470B4A121D0029116801D001439A
:1003100000E08143116070474FF0E0210428086934
:1003200003D020F004000861704740F00400FAE7B1
:100330000000FA050CED00E000E400E080FFFF1F84
:1003400010B501210C02204600F093FC2046BDE8C8
:100350001040002100F08DBC30B54268C44B0C79D0
:100360001A400B6842EA0422134343608268C14B7F
:100370004D791A40D1E9034323438C6844EA45048C
:10038000234313438360C26A097D22F47002491E2D
:10039000C9B242EA0151C16230BD00210160017160
:1003A00041718160C1600161012101757047B24BEB
:1003B00010B51A68B1490A40D0E900142143D0E9C8
:1003C0000240044321431143196010BD0021016024
:1003D00041608160C16070470029816802D041F0AE
:1003E000010101E021F00101816070474268A44BE6
:1003F0001A400A4342607047416282627047426815
:1004000022F01F020A43426070479E490028D1F83B
:10041000040302D040F4000001E020F40000C1F821
:100420000403704797490028D1F8040302D040F430
:10043000800001E020F48000C1F80403704770B52B
:10044000072509290AD9C468A1F10A0606EB460660
:10045000B540AC43B3401C43C46007E0046901EB02
:100460004106B540AC43B3401C4304611F23072A37
:1004700009D2446B521E02EB820293409C4391408E
:100480000C43446370BD0D2A09D2046BD21F02EBEA
:10049000820293409C4391400C43046370BDC46A44
:1004A0000D3A02EB820293409C4391400C43C4629C
:1004B00070BD816841F08041816070470146002035
:1004C0008968490200D5012070470029816802D05F
:1004D00041F4806101E021F480618160704700296E
:1004E000816802D041F0020101E021F00201816047
:1004F00070474268491E22F4604242EA413141603D
:1005000070470029416802D041F4006101E021F404
:10051000006141607047C06C80B270475648001D52
:10052000006870470029816802D041F4807101E0C1
:1005300021F48071816070470029816802D041F404
:10054000007101E021F40071816070474D4900287D
:10055000D1F8040302D040F4005001E020F4005030
:10056000C1F80403704770B5072409290AD9C56882
:10057000A1F10A0606EB4606B440A543B3401D436D
:10058000C56007E0056901EB4106B440A543B340EF
:100590001D430561836BC3F30154121B921C02EBD4
:1005A00082041F22A2409343A1400B43836370BD8A
:1005B000826B491E22F4401242EA01518163704766
:1005C00042507047826822F470220A43826070476A
:1005D000826822F440120A4382607047816841F4C5
:1005E000800181607047014600208968490200D57A
:1005F000012070470029416802D041F4806101E088
:1006000021F48061416070470029416802D041F4C3
:10061000805101E021F48051416070470844806AB4
:1006200080B2704701238B4041680AB1194300E052
:100630009943416070470246002012680A4200D088
:1006400001207047C9430160704730B50246002061
:1006500054680B0A01258D4011682C40194202D0C4
:10066000002C00D0012030BD6FEA112101607047DD
:10067000FFFEFFFCFDF7FFC004230140E030FCFF5C
:10068000FFFD3FFF00200140374900200860091DA1
:100690000860091D0860091D08603349334814319A
:1006A0000860704730B530498379026853B30B68EE
:1006B00093430B600A1D13680468A3431360027917
:1006C0000A441368046823431360274A08321368F6
:1006D0000468A3431360131D1C680568AC431C60C9
:1006E0004479102C05D021440A68006802430A604E
:1006F00030BD116804682143116019680068014326
:10070000196030BD0079084401689143016030BD33
:100710000021016001710C22427181717047124900
:1007200010310A6802430A60704701460E4A0020F1
:10073000143212680A4200D0012070470A4914316D
:1007400008607047084A014600201268064B0A40BC
:1007500014331B680B4202D0002A00D001207047DE
:100760000149143108607047003C0140FFFF7F00E1
:100770007A4910B5884206D10121084600F051FAA5
:10078000002101204FE07649884206D10121022054
:1007900000F047FA0021022045E07249884206D164
:1007A0000121042000F03DFA002104203BE06E49C5
:1007B000884206D10121082000F033FA00210820E8
:1007C00031E06A49884206D10121102000F029FA5F
:1007D0000021102027E06649884206D1012120200F
:1007E00000F01FFA002120201DE06249884206D156
:1007F0000121402000F015FA0021402013E05E495D
:10080000884206D10121802000F00BFA00218020CF
:1008100009E05A4988420AD184150121204600F096
:1008200000FA00212046BDE8104000F0FAB910BDE2
:10083000F0B50023012403270D6804FA03F21540E4
:10084000954242D1D0F800C05E0007FA06F52CEAC6
:10085000050CC0F800C091F804C0D0F800E00CFA14
:1008600006FC4CEA0E0CC0F800C091F804C0BCF1C4
:10087000010F02D0BCF1020F1FD1D0F808C02CEA42
:10088000050CC0F808C091F805C0D0F808E00CFAD3
:1008900006FC4CEA0E0CC0F808C0D0F804C02CEAE4
:1008A000020CC0F804C0426891F806C00CFA03FCC0
:1008B0001FFA8CFC42EA0C024260C268AA43C26082
:1008C000CA79C568B2402A43C2605B1C102BB3D3FF
:1008D000F0BD4FF6FF71016000210171417181711E
:1008E000C171704741F48032C261C161C261C169A6
:1008F000C06970470246002012690A4200D00120F8
:100900007047006980B270470246002052690A426F
:1009100000D001207047406980B270470183704762
:10092000418370470AB10183704741837047416139
:10093000704742694A40426170474B07DB0E9A405C
:10094000C90810B500EB8100016A0F249C40A14347
:100950000162016A1143016210BD00000000024003
:100960000004024000080240000C02400010024057
:100970000014024000180240001C02400020024007
:10098000E948016841F001010160E74A00210832AD
:1009900011600268E54B1A400260031DE44A1A60C8
:1009A000026822F480220260DF480C300160704748
:1009B000DD490022891C0A70087070470246002039
:1009C000510901290CD002290CD0D749743109688A
:1009D00002F01F02012393400B4200D00120704718
:1009E000D149F4E7D0497031F1E730B500244FF434
:1009F000A0653120FFF7E2FF641CAC4201D0002863
:100A0000F7D03120FFF7DAFF002800D0012030BDF9
:100A1000C5490A6822F0F80242EAC000086070473F
:100A2000C44908607047C049002270310A700A70DA
:100A3000012802D0042801D1052008707047BE4962
:100A40000860704741EA82115A0810B5BB4B029CFE
:100A500003EB02421143014341EA0460B249091D1C
:100A6000086010BDB34908667047800140EA017014
:100A7000AD49843108607047AE4988667047AD491A
:100A8000C8647047A84A08321368084323F0EC632F
:100A9000184310607047A44A08321368084323F0D3
:100AA00078431843106070479F4A0832116821F05C
:100AB00003010143116070479B480830006800F053
:100AC0000C007047984A0832116821F0F001014388
:100AD00011607047944A0832116821F4E0510143D3
:100AE00011607047904908310A6822F4604242EA76
:100AF000C0000860704770B58B4A08321168904B8F
:100B000011F00C0104D05D10042903D0082903D092
:100B100003601BE0056019E08349091D0C68C4F3FC
:100B200080560C6804F03F0416B1B5FBF4F301E005
:100B3000B3FBF4F30C680968C4F388146343C1F38E
:100B40000141491C4900B3FBF1F1016011687D4B83
:100B500001F0F00109095C5C0168E1404160146842
:100B600004F4E054A40A1C5D21FA04F484601268C1
:100B700002F46042520B9A5CD140C16070BDC0F378
:100B80000121032908D1684A0832116821F4F813B9
:100B90006D49014019431160634970310A68C0F31F
:100BA0000B0002430A60704763494439086070478C
:100BB00061494039086070476449086070475A4A83
:100BC00030320029116801D0014300E081431160F7
:100BD0007047554A34320029116801D0014300E0C2
:100BE000814311607047504A38320029116801D0A2
:100BF000014300E08143116070474B4A40320029B5
:100C0000116801D0014300E0814311607047464AFA
:100C100044320029116801D0014300E08143116092
:100C20007047414A10320029116801D0014300E0A9
:100C30008143116070473C4A14320029116801D089
:100C4000014300E0814311607047374A18320029A0
:100C5000116801D0014300E0814311607047324ABE
:100C600020320029116801D0014300E08143116066
:100C700070472D4A24320029116801D0014300E059
:100C8000814311607047284A50320029116801D011
:100C9000014300E0814311607047234A5432002928
:100CA000116801D0014300E08143116070471E4A82
:100CB00058320029116801D0014300E081431160DE
:100CC0007047194A60320029116801D0014300E0E1
:100CD000814311607047144A64320029116801D0C1
:100CE000014300E08143116070470F4A0D32002933
:100CF000117801D0014300E08143117070470A4828
:100D00007430016841F08071016070470146064A05
:100D100000200C3212680A4200D0012070470249BC
:100D20000E3108707047000000380240FFFFF6FEE9
:100D30001030002400004742800E47420000FFFFB1
:100D40000024F40000000020FFFCFF0F5C0147427C
:100D500010B501218C032046FFF78BFF2046BDE82C
:100D600010400021FFF785BF11490860704710B59A
:100D70008A07130F21F003040F220D499A4008310E
:100D800021440C6894430C600A68984002430A604E
:100D900010BD08490860704707490860704704495A
:100DA000002020310968C90500D5012070470000E6
:100DB00000380140DC00274200042742FE4910B5FC
:100DC000884206D101210846FFF753FF0021012088
:100DD0005BE0B0F1804F09D0F84988420DD1012184
:100DE0000220FFF73CFF0021022070E001210846AD
:100DF000FFF735FF0021012069E0F149884206D163
:100E000001210420FFF72BFF002104205FE0ED49C2
:100E1000884206D101210820FFF721FF0021082088
:100E200055E0E949884206D101211020FFF717FF5C
:100E3000002110204BE0E549884206D10121202005
:100E4000FFF70DFF0021202041E0E149884206D153
:100E500001210220FFF70DFF0021022015E0DD49EE
:100E6000884202D101210C040AE0DB49884202D108
:100E700001214C0404E0D94988420AD101218C04A3
:100E80002046FFF7F6FE00212046BDE81040FFF7A0
:100E9000F0BED349884206D101214020FFF7DFFE92
:100EA0000021402013E0CF49884206D10121802053
:100EB000FFF7D5FE0021802009E0CB4988420AD106
:100EC000841501212046FFF7CAFE00212046BDE817
:100ED0001040FFF7C4BE10BD30B50288B64BBC4C05
:100EE00098420DD0A0420BD0B0F1804F08D0B34D46
:100EF000A84205D0B24DA84202D0B24DA84203D1BB
:100F000022F070054A882A43AF4DA84206D0AF4D63
:100F1000A84203D022F440750A892A4302804A6815
:100F2000C2620A880285984201D0A04201D1897A22
:100F300001860121818230BD4FF0FF3141600021E7
:100F400001800181418081727047018582827047F2
:100F5000028822F070020A430280704741627047A3
:100F6000C1627047406A7047008D70470029018850
:100F700002D041F0020101E021F00201018070473E
:100F80000029018802D041F0040101E021F00401B0
:100F9000018070470029018802D041F0800101E002
:100FA00021F0800101807047028822F0080202804F
:100FB00002880A4302807047028822F4407202804D
:100FC00002880A43028070470029018802D041F05C
:100FD000010101E021F001010180704730B5028C70
:100FE00022F001020284028C8388048B22F0020228
:100FF00024F073050C882C438D8915434A882A43B5
:101000006D4DA84202D0724DA8420DD122F00805C4
:10101000CA8923F440732A4322F004058A882A43AC
:101020000D8A1D434B8A2B43838004838968416367
:10103000028430BD70B5028C22F010020284028C52
:101040008488038B0D8823F4E6464FF6FF7303EA8A
:10105000052535438E8922F0200203EA0616164341
:101060004A8803EA02123243534EB04202D0584E2D
:10107000B04215D122F08006CA8924F4406403EA04
:101080000212324322F040068A8803EA02123243F7
:101090000E8A03EA860626434C8A03EA8404344314
:1010A0008480058389688163028470BD70B5028C79
:1010B00022F480720284028C8488838B0D8823F052
:1010C00073031D4322F400738E894FF6FF7202EA08
:1010D00006261E434B8802EA03233343364EB042B2
:1010E00002D03B4EB04215D123F40066CB8924F4E4
:1010F000405402EA0323334323F480668B8802EAD8
:10110000032333430E8A02EA061626434C8A02EA78
:1011100004143443848085838968C163038470BD6B
:1011200070B5028C22F480520284048C8288838BF6
:101130000D8823F4E6464FF6FF7303EA0525354391
:1011400024F400568C8903EA043434434E8803EABD
:1011500006362643184CA04202D01D4CA04205D1B1
:1011600022F480440A8A03EA821222438280858321
:1011700089680164068470BD0021018041808180FE
:1011800081608181C18101824182704730B5012433
:10119000058C00F118038C40A543058431B3082960
:1011A0002CD0091FC1F34E001844016848F6FF73A4
:1011B0001940016001681AE000000140000400408D
:1011C00000080040000C00400010004000140040E7
:1011D000000401400040014000440140004801403B
:1011E00000180040001C00400020004006E04FF6C0
:1011F000FF7303EA02221143016030BD03EB51008B
:1012000001684FF68F73194001600168F3E741638D
:10121000704781637047C163704701647047028BF8
:1012200022F070020A4302837047028B4FF6FF736D
:1012300022F4E04203EA0121114301837047828BCB
:1012400022F070020A4382837047828B4FF6FF734D
:1012500022F4E04203EA0121114381837047028BAB
:1012600022F008020A4302837047028B4FF6FF7395
:1012700022F4006203EA0121114301837047828B4B
:1012800022F008020A4382837047828B4FF6FF7375
:1012900022F4006203EA0121114381837047028B2B
:1012A00022F004020A4302837047028B4FF6FF7359
:1012B00022F4806203EA0121114301837047828B8B
:1012C00022F004020A4382837047828B4FF6FF7339
:1012D00022F4806203EA0121114381837047028B6B
:1012E00022F080020A4302837047028B4FF6FF739D
:1012F000C2F30E0203EA0121114301837047828B7E
:1013000022F080020A4382837047828B4FF6FF737C
:10131000C2F30E0203EA0121114381837047028C5C
:1013200022F002020A4302847047028C22F0080273
:101330000A4302847047028C4FF6FF7322F02002AA
:1013400003EA0111114301847047028C4FF6FF73C9
:1013500022F0800203EA0111114301847047028CDC
:101360004FF6FF7322F4007203EA01211143018456
:101370007047028C4FF6FF7322F4006203EA0121EA
:10138000114301847047028C4FF6FF7322F4005220
:1013900003EA013111430184704710B50123048C25
:1013A0008B409C430484038C8A401343038410BD08
:1013B00010B50423048C8B409C430484038C8A4026
:1013C0001343038410BD828B22F440628283828B9C
:1013D0004FF6FF7303EA01210A4382837047828B31
:1013E00022F00C028283828B0A4382837047028B35
:1013F00022F440620283028B4FF6FF7303EA01215D
:101400000A4302837047F0B5048C24F0100404846E
:10141000078B068C4FF6FF7404EA011527F4734717
:1014200004EA0331394304EA02220A4326F0A00108
:10143000294341F0100102830184F0BD028B22F0A8
:101440000C020283028B0A43028370472DE9F041AC
:101450000D460E884988AA882B8904460EB3042EAF
:1014600026D0082E268C4FF6FF7028D026F4805602
:101470002684A78B268C00EA022200EA013127F499
:1014800073473A4300EA0330104326F420420A43EC
:1014900042F48051A0832184E9882046BDE8F041D0
:1014A00091E700F061F9E9882046BDE8F041C5E721
:1014B000FFF7A9FFE9882046BDE8F04197E726F449
:1014C00080762684A78B268C00EA012100EA03108F
:1014D000104327F0F307384326F420620A4342F40E
:1014E0008071A0832184E9882046BDE8F04176E739
:1014F00000210180418001228280C18001817047EA
:101500002DE9F0410C46002549880746012601B91E
:101510000225A288012A00D10226208823890028DA
:10152000384610D0FFF76FFFE1883846FFF75FFFBE
:10153000238932462946384600F016F9E1883846B4
:10154000BDE8F0417AE700F00FF9E1883846FFF78F
:1015500075FF2389324629463846FFF754FFE18854
:101560003846BDE8F04142E7406B7047806B7047FA
:10157000C06B7047006C704710B50A884B88CC88E8
:101580001A438B8823431A430B891A434B89898951
:101590001A430A43A0F8442010BD00210180418075
:1015A0008180C1800181418181817047002930F8AB
:1015B000441F02D041F4004101E0C1F30E0101805B
:1015C00070470029818802D041F0040101E021F038
:1015D0000401818070470029818802D041F0010117
:1015E00001E021F0010181807047002A828901D049
:1015F0000A4300E08A438281704781827047024635
:101600000020128A0A4200D001207047C94301829B
:10161000704702460020138A92890B4202EA0102B7
:1016200002D0002A00D001207047C94301827047D0
:101630001143A0F848107047002A828901D00A435C
:1016400000E08A43828170470029818802D041F0FE
:10165000080101E021F0080181807047018921F033
:10166000070101817047028922F070020A4302815A
:10167000704700B50346FFF7F6FF188940F00700F2
:10168000188100BD70B50D4611460446602D4FF01F
:1016900001020AD000F068F829462046FFF7E3FF70
:1016A000208940F00700208170BDFFF7ACFEF3E712
:1016B00030B504894FF6FF7505EA03231343E4B2FE
:1016C0000B432343038130BD10B50446FFF7F0FF01
:1016D000208940F07700208110BD10B50446FFF747
:1016E000E7FF208940F48040208110BD828822F0ED
:1016F0007002828082880A4382807047028922F0C9
:101700000702028102890A4302817047028922F09E
:101710008002028102890A430281704770B50589FF
:10172000048B068C25F007050D434FF6FC410C4059
:1017300040F201110C434FF6FF7101EA031126F04C
:1017400022061143314305810483018470BD0029C1
:10175000818802D041F0800101E021F08001818088
:101760007047A0F85010704770B5048C24F0010445
:101770000484058B048C4FF6FF7606EA03131343AB
:1017800025F0F3052B4324F00A020A4342F001013D
:101790000383018470BD0000CA4910B5884206D198
:1017A00001211020FFF765FA0021102028E0C6492A
:1017B000884202D101214C0410E0C449884202D180
:1017C00001218C040AE0C249884202D10121CC04E3
:1017D00004E0C04988420AD101210C052046FFF7E8
:1017E0003EFA2046BDE810400021FFF738BABA495A
:1017F000884209D101212020FFF73BFA0021202057
:10180000BDE81040FFF735BA10BD7FB50446008A29
:101810000D4620F44051E88808432082A08941F217
:101820000C618843A9882A8911436A8902431143BC
:10183000A181A08A20F44071A8890843A08268464B
:10184000FFF759F99F48844202D0A348844201D14E
:10185000039800E00298A1890904002900EBC00167
:1018600001EB0010296802DA4FEA410101E04FEA7A
:101870008101B0FBF1F26420B2FBF0F14FEA0111FB
:101880004FEA11136FF018056B4302EB8302A38933
:101890001D044FF0320306D503EBC202B2FBF0F099
:1018A00000F0070005E003EB0212B2FBF0F000F0DD
:1018B0000F00084320817FBD4FF4165101600021C5
:1018C0008180C18001810C2242818181704710B5E5
:1018D000028A4C8822F470630A8822438C88C98863
:1018E0000C4322431A43028210BD00210180418033
:1018F0008180C18070470029818902D041F4005164
:1019000001E021F4005181817047028B02F47F4293
:101910000283028B0A43028370470029818902D027
:1019200041F4004101E0C1F30E01818170470029BB
:10193000818A02D041F4006101E021F400618182DA
:101940007047C1F30801818070478088C0F30800A8
:101950007047028A22F00F020282028A0A43028240
:1019600070470029818902D041F0020101E021F095
:10197000020181817047828922F40062828182891A
:101980000A4382817047028A22F020020282028A80
:101990000A43028270470029018A02D041F4804143
:1019A00001E021F4804101827047818941F0010109
:1019B000818170470029818A02D041F0080101E04D
:1019C00021F0080181827047028BD2B20283028B20
:1019D00042EA0121018370470029818A02D041F047
:1019E000200101E021F02001818270470029818AD5
:1019F00002D041F0100101E021F010018182704716
:101A0000828A22F004028282828A0A43828270479A
:101A10000029818A02D041F0020101E021F0020197
:101A200081827047002A828A01D00A4300E08A43FB
:101A30008282704710B5C1F3421301F01F040121E7
:101A4000A140012B07D0022B07D01430002A0268D6
:101A500005D00A4304E00C30F8E71030F6E78A437B
:101A6000026010BD0246002012880A4200D0012008
:101A70007047C9430180704730B501F01F0201244F
:101A80000025C1F3421304FA02F2012B0FD0022BFE
:101A90000FD0838A4FEA11210088134204FA01F41F
:101AA00000EA040001D000B10125284630BD838939
:101AB000F0E7038AEEE70A0A01219140C943018059
:101AC0007047000000100140004400400048004002
:101AD000004C0040005000400014014010B501F0DF
:101AE000A3F901F069F9FE4C207808B101F0C6F8BD
:101AF0006078002803D0BDE8104002F013B910BD93
:101B000000F0B4FB00F026FC00F074FC4FF416501B
:101B100000F01AFD00F00AFF00F0C6FF00F040FFE1
:101B200001F032F80421EF48FEF7FAFEEE4D4FF4D3
:101B300080512846FEF7F4FEE9142846FEF7F0FE31
:101B400029152846FEF7ECFE04212846FEF7E8FE9C
:101B500008212846FEF7E4FEE44E20213046FEF739
:101B6000DFFE10213046FEF7DBFE4FF47A7000F006
:101B7000BAFB4FF47A61C82000F079FFD84C0120FD
:101B8000C821A0704FF44870E060462020616420B6
:101B9000C4E90701502161623C21A16260613220E9
:101BA000A061D3481421C4E90B10D2486063D24825
:101BB000A0634042C4F83C0000F0CAFF616890FB9B
:101BC000F1F04FEAE07100EB917121F00301401A4E
:101BD000A06001D54042A060B0B101281DD002280C
:101BE00028D00328E8D104212846FEF799FE0821D1
:101BF0002846FEF795FE20213046FEF791FE102183
:101C00003046FEF78BFED7E704212846FEF786FE16
:101C100008212846FEF784FE07E004212846FEF747
:101C20007FFE08212846FEF779FE20213046FEF788
:101C300077FE0BE004212846FEF772FE08212846B5
:101C4000FEF76EFE20213046FEF768FE102130467A
:101C5000FEF766FEB0E72DE9F0474FF4FA71C820B1
:101C600000F005FFA5A003F0A3FD4FF47A7000F08B
:101C70003AFB02F05FFB02F0BEFA642000F033FB97
:101C800097480024C823D0F80880642250253221C8
:101C90009F4EA04FDFF880C2B8F1000F0DD04FF07B
:101CA0008C099FED9E0AB8F1010F13D0B8F1020F15
:101CB00020D0B8F1030F3AD128E0C3610261C0E936
:101CC0000835C0E905217823C0E90A349FED940A5C
:101CD000316008E0C462C3610261C0E905212030BF
:101CE000A0E82802316087ED000A8CED000A02F0BE
:101CF00093FC1CE04FF0F008C0F81C800261C0E9C2
:101D00000521C0E90A34C0E9088507E0C462C3615F
:101D10000261C0E905212030A0E82802316087ED8A
:101D2000000A8CED000A02F077FC02F0F7FFBDE834
:101D3000F0477CA003F03CBD2DE9F05F4FF4FA7B47
:101D40005946C82000F093FE7CA003F031FD4FF40B
:101D50007A7000F0C8FA6248002250248C253221A3
:101D60006B4F4FF0640C4FF448731E269FED6B0AC7
:101D7000D0F80880DFF89C91DFF89CA1B8F1000F43
:101D800009D0B8F1010F0BD0B8F1020F20D0B8F193
:101D9000030F16D121E0C0F810C04FF0C80C03E0CB
:101DA000C0F810C04FF4C87C4161C0E9061C00BFF8
:101DB000C0E90A52C0E908343E6089ED000A8AEDA4
:101DC000000A01F0D8FABDE8F05F61A003F0F0BCB2
:101DD000C0E904C1C0E9061BEAE7C0F810C04FF42F
:101DE000167CE1E72DE9F05F4FF4FA71C82000F0AE
:101DF0003EFE5DA003F0DCFC4FF47A7B584600F019
:101E000072FA3748002150228C23414D4FF0640C68
:101E10004FF4487A4FF032091E249FED580AD0F84B
:101E200008803C4E3C4FB8F1000F09D0B8F1010FCB
:101E300013D0B8F1020F20D0B8F1030F16D127E06C
:101E4000C0F810C0C0E90A314FF42F7CC0F81490DC
:101E5000C0E9069CC0E908A203E0C0F810C0D4465F
:101E60000EE02C6086ED000A87ED000A01F083FA8F
:101E7000BDE8F05F42A003F09BBCC0F810C0DC4698
:101E8000C0F81CC0C0E90A314946C0F814900AE005
:101E9000C0F810C04FF4966CC0F81CC0C0E90A31FD
:101EA0000A21416119218161C0E908C2D9E7F0B571
:101EB000394C89B004220721204600F0C1FE0746B4
:101EC00004220921204600F0BBFE06460422082118
:101ED000204600F0B5FE054600F036FE04465DE003
:101EE00028000020000C02400008024000000240D0
:101EF0003046F3FF507B0C00600FE6FF42757474B0
:101F00006F6E203020707265737365640A0D000077
:101F100074010020300100203401002000007042D4
:101F20000000484246696E697368656420427574B2
:101F3000746F6E2030204953520A0D00427574743C
:101F40006F6E203120707265737365640A0D000036
:101F500046696E697368656420427574746F6E209B
:101F600031204953520A0D00427574746F6E20324D
:101F700020707265737365640A0D00000000C8422A
:101F800046696E697368656420427574746F6E206B
:101F900032204953520A0D000020014000F0D8FDC4
:101FA0005C4904AA0968E2C25C4A5B491268096894
:101FB000CDE900205A48CDE902410368594802683A
:101FC00059480168594803F0F3FB09B0F0BD2DE909
:101FD000F0414FF47A61C82000F049FD4FF47A7067
:101FE00000F081F952A003F0E3FB564C564EA6F5E3
:101FF000906505F5D862A068A2F5906330B101281C
:102000002CD002284FD003287FD154E0002101EBCF
:10201000410406EB0417002005EB041457F820C018
:1020200044F820C0401C0C28F8DB491C0C29EEDBCE
:10203000002101EB410502EB0514002003EB05151F
:1020400054F8206045F82060401C0C28F8DB491C3F
:102050000C29EEDB032000F0E9FC56E0002101EB47
:10206000410405EB0417002006EB041457F820C0C8
:1020700044F820C0401C0C28F8DB491C0C29EEDB7E
:10208000002101EB410503EB0514002002EB0515CF
:1020900054F8206045F82060401C0C28F8DB491CEF
:1020A0000C29EEDBD6E700F0E9FDFFF700FF012089
:1020B00000F019F9F7E701F03DFE642020614FF4CC
:1020C0009660E0612062502060628C20A0623C201B
:1020D000E0620A2060611920A0611C491E201FEDEA
:1020E000710A08601A4880ED000A1A4880ED000A5B
:1020F00001F0CBFE01F057FA01F0C7FE002060703E
:1021000000F01AFC002000F02DFCBDE8F04112A008
:1021100003F04EBBE4000020CC000020D4000020DF
:10212000DC000020D8000020D000002068670008F4
:10213000427574746F6E20332070726573736564BA
:102140000A0D000028000020100600207401002065
:10215000300100203401002046696E6973686564AF
:1021600020427574746F6E2033204953520A0D005B
:102170007047FEE7FEE7FEE7FEE7704770477047EF
:1021800037480168491C016036490868002802DAAE
:10219000354B00221A60401E0860FFF79FBC10B547
:1021A0002020FEF7CFFA4FF4967470B10A2000F0A9
:1021B0009AF82020FEF7C6FA20B1204600F093F8E6
:1021C000FFF749FD2020FEF7CBFA4020FEF7BAFAD0
:1021D000002811D00A2000F086F84020FEF7B2FA5D
:1021E000002809D0204600F07EF8FFF7F0FEBDE899
:1021F00010404020FEF7B4BA10BD70B54FF48044D3
:102200002046FEF79FFA4FF4967570B10A2000F051
:102210006AF82046FEF796FA38B1284600F063F8CF
:10222000FFF78AFD2046FEF79BFA4FF40044204654
:10223000FEF788FA002811D00A2000F054F8204652
:10224000FEF780FA002809D0284600F04CF8FFF786
:10225000C9FD2046BDE87040FEF782BA70BD00009F
:10226000AC000020C00000203404004070B503F032
:102270002DFA03F050FA33484FF47A710068B0FB3E
:10228000F1F0401EB0F1807F16D24FF0E024606183
:1022900066170F21304600F049F80025A561072098
:1022A00020614FF44070FDF7F3FF0021304600F04D
:1022B0003DF82548456070BDFEE74FF0E02080699D
:1022C000A821B0FBF1F12048426802EB4203C3EBC6
:1022D000C212C1EBC20101F57A710160006870475A
:1022E000194840687047184A516853685B1A83421E
:1022F000FBD1704730B50546FFF7DFFF4FEA00041A
:10230000FFF7DBFF001BA842FAD130BD30B50C4609
:102310004FEA0005FFF7D1FF001BA842FAD330BDFA
:10232000094A53685B1A8342FBD370470907090EB9
:10233000002803DA00F00F00044A00E0044A815448
:10234000704700007C010020A800002014ED00E090
:1023500000E400E07CB501210846FEF730FC0121D5
:102360000420FEF72CFC01210820FEF728FC302079
:10237000009001208DF8040000208DF80600032154
:102380008DF805108DF8070069461748FEF750FADA
:102390000C20164D009069462846FEF749FA0420A5
:1023A000134E022400908DF8074069463046FEF730
:1023B0003FFA4FF4E05000908DF8074069462846F8
:1023C000FEF736FA04213046FEF7AAFAE102284663
:1023D000FEF7A6FAA1022846FEF7A2FA61022846F5
:1023E000FEF79EFA7CBD000000000240000802409B
:1023F000000C02402DE9F04701218F0386B03846DA
:10240000FEF705FC01210620FEF7D9FB0024DFF8CA
:1024100030A18DF8104020258DF8134003A95046B7
:102420000395FEF705FA05210120FEF7A0FC0095B3
:102430008DF8044008268DF8056001258DF80650BA
:102440006846FEF72FF94FF017098DF808908DF8C0
:1024500009508DF80A408DF80B5002A8FDF71DFFBA
:102460008DF810408DF8134003A950460397FEF7EE
:10247000DFF90E210120FEF77AFC8DF804408DF87B
:10248000056000978DF806506846FEF70BF928277F
:102490008DF808708DF809508DF80A408DF80B50B2
:1024A00002A8FDF7FAFE8DF810404FF400488DF8B1
:1024B000134003A95046CDF80C80FEF7B9F90F215F
:1024C0000120FEF754FC8DF804408DF80560CDF82E
:1024D00000808DF806506846FEF7E4F88DF8087025
:1024E0008DF809508DF80A408DF80B5002A8FDF7C1
:1024F000D4FE8DF8104040278DF8134003A91148F1
:102500000397FEF795F906210220FEF730FC8DF8BF
:1025100004408DF8056000978DF806506846FEF778
:10252000C1F88DF808908DF809508DF80A408DF8A3
:102530000B5002A8FDF7B1FE06B0BDE8F087000021
:10254000000402400008024070B5054688B0012131
:102550000220FEF734FB01211020FEF758FB6D4EE0
:10256000072209213046FEF7E8F907220A21304602
:10257000FEF7E3F900248DF8164001208DF81700CE
:1025800002208DF814004FF4C06104918DF81500FD
:1025900004A93046FEF74CF95F4E01213046FFF7A3
:1025A000BCF9ADF808400C20ADF80A00ADF80440C5
:1025B000ADF80640ADF818403015ADF81A00ADF88A
:1025C0001E400095ADF80C40ADF81C406946304601
:1025D000FFF71BF906A93046FFF779F901213046CC
:1025E000FFF789F908B070BD0020704770B54A4DFB
:1025F0000446C1B22846FFF7A4F980212846FFF718
:1026000031FA0028F9D0204670BD43480188890678
:10261000FCD58088C0F30800704770B53E4D044675
:1026200080212846FFF71EFA0028F9D0A1B22846DB
:10263000FFF787F9204670BD10B538A003F0B8F851
:10264000354C20212046FFF70DFA0028F9D020460E
:10265000FFF77BF9C0B210BD10B539A003F0A8F8A0
:102660002D4C20212046FFF7FDF90028F9D0204607
:10267000FFF76BF901463AA003F09AF82046FFF7FE
:1026800064F9C0B210BD10B537A003F091F8224C28
:1026900020212046FFF7E6F90028F9D02046FFF771
:1026A00054F9A0F1300137A003F082F82046FFF77B
:1026B0004CF9303810BD10B50446014686B033A041
:1026C00001E0214638A003F073F8694641A003F009
:1026D00091F9694640A003F06BF82146684603F083
:1026E000D5FA0028EDD106B010BD38B50446014634
:1026F0003BA001E0214641A003F05AF869464AA0F8
:1027000003F078F91FA0009903F052F80098A04256
:10271000F0D138BD00000240001001400D0A707277
:1027200065737320616E79206B657920746F206307
:102730006F6E74696E75652E2E2E0D0A0D0A0000DF
:10274000706C6561736520656E74657220612063CD
:1027500068617261637465722E2E2E0D0A0000008E
:1027600025630D0A00000000706C656173652065CB
:102770006E74657220612064696769742E2E2E0D57
:102780000A00000025640D0A000000005072657305
:102790007320257320746F20436F6E74696E7565A6
:1027A0002E2E2E203A000000496E76616C6964205E
:1027B000696E7075742C2070726573732025732098
:1027C000746F20436F6E74696E75652E2E2E203ADD
:1027D000000000002573000025730D0A00000000B2
:1027E000507265737320256420746F20436F6E747C
:1027F000696E75652E2E2E203A000000496E7661B6
:102800006C696420696E7075742C207072657373C6
:1028100020256420746F20436F6E74696E75652E79
:102820002E2E203A00000000256400001CB5012176
:102830000420FEF7E2F94FF47070009002208DF84A
:10284000040003208DF8050000208DF80600504C90
:102850008DF8070069462046FDF7EAFF02220621AF
:102860002046FEF76AF8022207212046FEF765F8A7
:10287000022208212046FEF760F8022209212046A4
:10288000FEF75BF81CBDF0B589B040F2E73006906A
:102890000320ADF8140000263E4FADF81C60ADF8E3
:1028A000166005A93846FEF717FB60203A4DADF8D3
:1028B00000000124ADF8024028880290ADF80C60B9
:1028C00069463846FEF78AFB08213846FEF7C7FC02
:1028D000ADF802406888029069463846FEF7AAFBC8
:1028E00008213846FEF7C1FCADF80240A8880290E6
:1028F00069463846FEF7DAFB08213846FEF7BFFC8A
:10290000ADF80240E888029069463846FEF708FCB8
:1029100008213846FEF7B9FC01213846FEF73AFB9C
:1029200001213846FEF750FB09B0F0BD10B5FFF7A6
:102930007DFFBDE81040A6E718490968884200DD20
:1029400008464942884200DA0846124A00213C32D1
:10295000131D002802DB10601960704711604042AF
:10296000186070470D490968884200DD08464942F1
:10297000884200DA0846074A00213432131D002835
:1029800002DB1160186070474042106019607047A8
:102990000004024000080040B8000020340000207D
:1029A00030B58BB001210220FEF727F940200590B9
:1029B00002208DF8180003218DF8191000248DF8DD
:1029C0001A40354D8DF81B0005A92846FDF730FF4C
:1029D000022206212846FDF7B0FF952008908B20A3
:1029E000ADF81C002D4DADF82440ADF81E4007A9F0
:1029F0002846FEF771FA6020ADF800000120ADF81E
:102A000002000294ADF80C4069462846FEF7E6FA4B
:102A100008212846FEF723FC01212846FEF7BAFAD2
:102A200001212846FEF7D0FA0BB030BD2DE9F04168
:102A300005461B498C2068430860184F95202C37A9
:102A400038600024154EA04634360CE03868401C2F
:102A5000C00830604620FFF746FCC6F800804620DC
:102A6000FFF741FC641CAC42F0DBBDE8F0810B4A8F
:102A700010B52C321368094C5B1C9B08343423605E
:102A8000084B93FBF1F18C2391FBF3F1491E11608C
:102A90000349086010BD000000000240000400402F
:102AA000C000002000BD01057CB501210920FEF712
:102AB000A4F802208DF8040001208DF8070048F2E8
:102AC00003002E4C009069462046FDF7B1FE082019
:102AD0002B4D009069462846FDF7AAFE02220021F0
:102AE0002046FDF72AFF022201212046FDF725FF9F
:102AF00001220F212046FDF720FF01220321284655
:102B0000FDF71BFF1F4C4FF0FF3529462046FEF70F
:102B100027FA29464FF080452846FEF721FA02237E
:102B2000002203212046FEF7F9FD00231A46032167
:102B30002846FEF7F3FD01212046FEF745FA012164
:102B40002846FEF741FA7CBD0E48243000687047E5
:102B50004FF08040406A70470A49002024310860E5
:102B600070474FF08041002048627047054924318A
:102B7000086070474FF08041486270470000024093
:102B800000040240000C004030B501218DB0080265
:102B9000FEF73DF88820032500908DF804500024AE
:102BA0008DF8074069463048FDF742FE8DF8045025
:102BB00000958DF8074069462C48FDF739FE8DF8E1
:102BC000045033202A4D00908DF80740694628466E
:102BD000FDF72EFE4FF48030CDE908404FF47060D1
:102BE000CDE90A4008A8FDF7E2FB8DF80C400294FD
:102BF0008DF80D400594069401201E4C8DF81C00A4
:102C000002A92046FDF7A8FB012240F2052120463B
:102C1000FDF708FD01212046FDF7DEFB04211648E3
:102C2000FDF77EFEA1142846FDF77AFEE114284642
:102C3000FDF776FE21152846FDF772FE0DB030BD7A
:102C400010B5134604460122FDF7F9FB2046FDF7B7
:102C500030FC02212046FDF7EEFC0028F9D020468A
:102C6000BDE81040FDF757BC0000024000040240E0
:102C70000008024000200140000C02402DE9F0470E
:102C80007B4D04220A212846FFF7DAFF794C042203
:102C90000E21E0602846FFF7D3FF206104220B21BC
:102CA0002846FFF7CDFF606104220F212846FFF779
:102CB000C7FFA061FFF701FB6F4F82460421384632
:102CC000FDF72CFE6D4E4FF4806841463046FDF70F
:102CD00025FE51463C20FFF719FB04220A21284615
:102CE000FFF7AEFFE1680422401AE0600E2128469B
:102CF000FFF7A6FF2169401A206104213846FDF73D
:102D00000FFE41463046FDF70BFEE0680027002825
:102D100000DAE7602069002800DA27615146FA20CE
:102D2000FFF7F4FA4FF4805949463046FDF7F6FDB7
:102D30004FF4006841463046FDF7F0FD51464FF430
:102D4000AA70FFF7E3FA04220B212846FFF778FF69
:102D500061690422401A60610F212846FFF770FF65
:102D6000A169401AA06149463046FDF7D9FD4146A8
:102D70003046FDF7D5FD6069002800DA6761A0697B
:102D8000002800DAA761E26821684FF47A704A43AC
:102D900092FBF0F2E26022694A4392FBF0F2226178
:102DA00062694A4392FBF0F26261A2694A4392FB74
:102DB000F0F0A061BDE8F0872DE9F04128262D4C08
:102DC00000202B4F0546E061042207213846FFF71B
:102DD00037FFE1696D1C0844E061B542F4DB4CF259
:102DE000503191FBF6F0E2695043254A104490FBC4
:102DF000F1F04000E061216A08442062BDE8F08102
:102E000010B5042203211A48FFF71AFF194C60601D
:102E100003F039FC9FED1B1B53EC112B03F0ACFAB4
:102E200003F002FCA06010BD10B5FFF7E9FF1148E8
:102E300041F658318068884218DA104C0421204647
:102E4000FDF76CFD08212046FDF768FD0F4C2021A1
:102E50002046FDF763FD10212046FDF75FFDBDE82C
:102E600010404FF47A71C820FFF701BE10BD00007A
:102E700000200140C4000020000C02400008024075
:102E8000546EBCF9AC1C5A643BDFD33F00000240D7
:102E9000FF4FDFF800840D4606464FF47A7900BFF5
:102EA000FFF70BFA0446FFF7E9FE3868301AFFF720
:102EB00043FDD8F80000281AFFF754FD2146484684
:102EC000FFF724FAECE710B5F148F349F34C00683A
:102ED000096888424FF00801204602DDFDF71EFD1B
:102EE00001E0FDF71DFDEE48EE49006809688842E3
:102EF0004FF00401204602DDFDF710FD01E0FDF773
:102F00000FFDE948E949EA4C0068096888424FF03A
:102F10001001204602DDFDF701FD01E0FDF700FD97
:102F2000DC48E4490068096888424FF020012046E7
:102F300003DDBDE81040FDF7F1BCBDE81040FDF732
:102F4000EFBC70B50D460446FFF70BFEFFF704FE1D
:102F50002046FFF7F1FC2046FFF704FD2846FFF767
:102F6000C2F90020FFF7E8FC0020FFF7FBFC64201B
:102F7000FFF7B9F9FFF7E8FD0446FFF7E9FD201A6E
:102F800070BD1CB50020CC49CC4A82460870012196
:102F90001170CB490746834608708046054600906D
:102FA00004460190C7484FF001090168C648016016
:102FB000C648C74A0068126809FB00F18E1ABAF1C8
:102FC000000F2ED186422CDCC2484FF0010AC24AC3
:102FD00080F800A000201070C04880F800A02DB933
:102FE000022C03D0032C01D0042C14D1304600F065
:102FF000ECFEBB48D0ED000ABA48B8EEE01AD0EDBE
:10300000000A00F0C9FEB848D0ED000AB4EEE00AAC
:10301000F1EE10FA01D2AB4800E0B1480168AA48CD
:10302000016057B9A948006800EB4000C11700EBE8
:103030009170B6EBA00F00DC012737EA080002D040
:10304000A44901200870BBF1000F38D19F480068E7
:1030500000EBD070B6EB600F31DC8D488E494FF03D
:10306000010B00680968884205DC8A4891490068BC
:103070000968884200DD012589488A490068096895
:10308000884201DD0120009087488849006809686E
:10309000884201DD01200190FFF722F900F00304CE
:1030A000641C012C0FD0022C10D0032C10D0042C47
:1030B000F2D1009805EA000101980142ECD0B8F184
:1030C000000F09D012E0002DE6D1F8E7009800E0EB
:1030D00001980028E0D1F2E77C480068C11700EBB6
:1030E0009170B6EBA00F05DC4FF0010815B17949DE
:1030F00000200870002E0ADD654801684FF4FA6070
:10310000814204DC6349096881427FF751AF09F1CC
:1031100001094FF47A71C820FFF7A9FC3DB173484B
:103120000268734801687348006800F079FC022C5B
:1031300004D0032C04D0042C04D007E06E4802E035
:103140006E4800E06E48006800F0AEFB4FF0000AE9
:103150005746D346D0465546CDF800A0CDF804A03A
:1031600026E72DE9F05F67496748DFF8A0A10A6804
:103170004FF0FC0902EB420300EB031CDAF80000FD
:103180004F464E465CF820404D460CEB800C0B2A17
:1031900001DADCF830900B2801DADCF80470002842
:1031A00001DD5CF8306C002A01DD5CF8045CDFF8BE
:1031B00060A18B460AEB031151F8200000F054FF88
:1031C000DFF8508140B9611E894505D14E2188F84C
:1031D00000100520BDE8F09FDBF80000DFF82CA10F
:1031E00000EB40014A48D94600EB0111DAF8000033
:1031F00051F8200000F03BFF38B9601E874204D12F
:10320000452188F800100620E4E7CB46D9F80000F5
:10321000DFF8FC9000EB400109EB0110DAF8001038
:10322000574650F8210000F025FF38B9601E86424D
:1032300004D1532188F800100720CBE7DBF8000009
:1032400000EB400109EB0110396850F8210000F053
:1032500014FF38B9641EA54204D1572188F8001024
:103260000820B7E70020B5E72DE9F041284F0026F8
:1032700006EB4600002407EB001500BF55F82400BC
:1032800000F0FEFE10B955F8240045E06AE00000A9
:10329000D0000020D4000020780000200008024068
:1032A000D800002080000020DC00002084000020E6
:1032B000000002407C0000202A0000207300002053
:1032C0007400002050000020F00000206800002062
:1032D0006801002028000020700000202900002044
:1032E00054000020E8000020340100203C000020B1
:1032F0009400002090000020580000205C00002076
:103300006000002014000020500800201000002061
:10331000100600202400002040F00F0045F8240093
:103320000B2E05DA05EB8400016B41F0040101630B
:10333000002E06DD05EB840050F8301D41F0010140
:1033400001600B2C05DA05EB8400416841F00801AF
:103350004160002C06DD05EB840050F8041D41F0AF
:1033600002010160641C0C2C88DB761C0C2EFFF61D
:103370007FAFBDE8F0812DE9F04F4FF0010AE5B0D5
:103380005446FE4880F800A000F0D4FCFC484FF4FE
:10339000C8710470684602F052FCFA490024FB4DE3
:1033A0000C60F9494FF04E0BA0460C6085F800B058
:1033B000FFF75AFF01F03AF800F01DFF0027A94679
:1033C0009EE000BF99F800004E280AD045282BD077
:1033D00053284BD057286CD089E0641C401C2860CF
:1033E00002E0E94DE74E286800EB4001E84800EBB9
:1033F0000111306851F8200000F036FE002876D127
:103400002868E44900EB400201EB0212316802EB4C
:10341000810352F821101B6B491E8B42DDD066E000
:10342000641C401C286001E0D64DD74E306800EB8C
:103430004001D74800EB0110296850F8210000F046
:1034400016FE88BB306800EB4001D24800EB01114A
:10345000286801EB800251F820105268491E8A4208
:10346000DED044E0641C401E286002E0C64DC54E1C
:10347000286800EB4001C64800EB0110316850F8A5
:10348000210000F0F7FD78B92868C24900EB40023E
:1034900001EB0212316802EB810352F8211053F85C
:1034A000303C491E8B42DDD021E0641C401E286068
:1034B00001E0B44DB44E306800EB4001B44800EB7D
:1034C0000110296850F8210000F0D7FD78B9306864
:1034D00000EB4001AF4800EB0111286801EB8002CE
:1034E00051F8201052F8042C491E8A42DDD0AA4817
:1034F00040F82740FFF735FE4DF8270000247F1CD9
:1035000000F0C4FD00283FF45DAFA44989F800B085
:10351000002481F800A0A04D2FE000BF00F06DFC5A
:10352000FFF7ACFB9E489F490068096888420DDDA3
:103530009D489E4900680968884207DD9C480268EA
:103540009C4801689C48006800F06AFA5DF8240015
:10355000052806D0062807D0072808D0082809D053
:103560000AE000F0E5FC07E000F003FD04E000F0F5
:1035700021FD01E000F03DFD641C55F82400002809
:10358000CCD17F48444680F800800020FFF7D4F972
:103590000020FFF7E7F90320FFF748FA77480470A7
:1035A00065B0BDE8F08F2DE9F04FE5B04FF4C8717C
:1035B000684602F044FBDFF8CCB10024724D734E34
:1035C000CBF800404FF04E0A2C60A04686F800A0D1
:1035D000FFF74AFE00F02AFF00F00DFE0027B1467B
:1035E0009AE000BF99F800004E280AD045282AD05A
:1035F000532849D0572869D085E0641C401C2860B6
:1036000001E028685E4600EB4001614800EB0111D3
:10361000306851F8200000F027FD002873D1286899
:103620005C4900EB400201EB0211326801EB8203BE
:1036300051F822101B6B491E8B42DED063E0641CE4
:10364000401C306000E05E46286800EB40015048B6
:1036500000EB0111306851F8200000F008FD80BB3C
:10366000286800EB40014B4800EB0111306801EB8A
:10367000800251F820105268491E8A42DFD042E091
:10368000641C401E286001E028685E4600EB400193
:103690003F4800EB0110316850F8210000F0EAFCCF
:1036A00078B928683B4900EB400201EB021231680F
:1036B00002EB810352F8211053F8303C491E8B4233
:1036C000DED020E0641C401E306000E05E462868CA
:1036D00000EB40012E4800EB0111306851F820004A
:1036E00000F0CBFC78B9286800EB4001294800EBDA
:1036F0000111306801EB800251F8201052F8042CBF
:10370000491E8A42DED0244840F82740FFF729FDB1
:103710004DF8270000247F1C00F0B8FC00283FF47F
:1037200061AF89F800A0DFF854A04FF001094D46C1
:103730008AF8009000F0FEFA184E444686F80080A1
:10374000DFF83C8088F8005000F09FFB35700025C2
:10375000DFF868B0104F56E0401E00F04EFBFFF758
:103760008DFA0F480F4900680968884230DD0E481D
:103770000E490068096888422ADD21E074000020B3
:103780002900002010000020140000202400002048
:103790001006002050080020900A00202800002079
:1037A000D000002098000020D40000209C000020C1
:1037B0003C000020940000209000002075000020B4
:1037C00032480268324801683248006800F028F93F
:1037D0008BF800905DF82500052806D0062807D054
:1037E000072808D0082809D00AE000F0A1FB07E06C
:1037F00000F0BFFB04E000F0DDFB01E000F0F9FBAE
:103800008BF800406D1C57F825000028A4D13470B7
:1038100000F03BFB88F800400020FFF78DF8002007
:10382000FFF7A0F80320FFF701F98AF80040B7E698
:1038300070B5194819491B4C006800EB400001EBBA
:1038400000101749096850F8215020784E2803D1FC
:10385000284600F009FCA0B92078452803D1284665
:1038600000F005FC68B92078532803D1284600F001
:1038700001FC30B92078572805D1284600F0FDFB1F
:1038800008B1012070BD002070BD00003C00002088
:10389000940000209000002014000020100600205A
:1038A00010000020240000202DE9F05F0646544857
:1038B0000025DFF850A1057053484FF001098AF840
:1038C00000900560FEF70CFD0446504FFEF708FD22
:1038D0003968001B8842F9D3A8464D4DDFF834B152
:1038E0004D4CC5F80080002E07DC11E0DBF800002D
:1038F000404220600120FEF7F6FC2868B042F5DB6C
:1039000009E000BFDBF8000020600120FEF7EBFCBF
:103910002868B042F6DCC4F80080FEF7E1FC0446FB
:10392000FEF7DEFC3968001B8842F9D38AF8009064
:10393000BDE8F09F2DE9F04731480026DFF8C4804C
:10394000067036480125304988F800500068086044
:10395000FEF7C6FC4FEA0004FEF7C2FC001B50282D
:10396000FAD32D4F6FF023004FF40D79C7F8000004
:10397000FEF7B6FC001B4845FAD93E60FEF7B0FCE6
:10398000001B7828FAD3FEF7ABFC0446FEF7A8FC30
:10399000001B5028FAD388F80050BDE8F0872DE9C5
:1039A000F04717480026DFF85C8006701B480125A9
:1039B000154988F8005000680860FEF791FC04463D
:1039C000FEF78EFC001B5028FAD3134F24204FF42F
:1039D0000D793860FEF784FC001B4845FAD93E603B
:1039E000FEF77EFC001B7828FAD3FEF779FC04462C
:1039F000FEF776FC001B5028FAD388F80050CCE77D
:103A00002800002029000020F000002040000020B5
:103A1000E40000204C000020F400002054000020AE
:103A20002DE9F74FDFF87C901F490120D9F800609D
:103A30000968C9F800101D49174608701C49002084
:103A40000870FEF74DFC0546DFF868A0DFF868B0A7
:103A50004FF47A7815E000BFFEF72FFC044600987B
:103A6000DAF80010401AFEF767FF0198DBF8001043
:103A7000401AFEF777FF00BFFEF71FFC001B404512
:103A8000FAD3FEF72DFC401BB842E5D30B48006883
:103A9000FFF770F80A480068FFF768F8C9F8006097
:103AA000BDE8FE8F340000203800002028000020F0
:103AB00029000020D0000020D40000204801002070
:103AC0004C01002030B5FD48FF4A0168FC480468FD
:103AD000FC48A1420368FD48006803DD984201DD0F
:103AE000451A9560A14202DDF948006803E098425A
:103AF00003DDF8490968401A00E00020906030BDFD
:103B000070B5F14CF04D803CD4E91C010A18091A3B
:103B1000C4E90421F0482B69006890FBF3F0EF4BF7
:103B20001B782BB9EE4B1B780BB1084600E008441C
:103B300000EE102AD4ED000AB8EEC00A30EEC00A3A
:103B4000D4ED080A30EE200A84ED080A00EE100ACF
:103B5000D4ED010AE348B8EEC00A30EEC00AD4ED55
:103B6000090A30EE200A84ED090A007878B1FFF7DF
:103B7000A9FFD5E9020190FBF1F000EE100AD4EDA7
:103B8000090AB8EEC00A30EE800A84ED090AD4EDC5
:103B9000080A94ED0E0A94ED0A1AD4ED0F1A20EEDD
:103BA000200A30EEC11A04F1280301EE810ABDEEAD
:103BB000C00A10EE101A216394ED091A94ED100A50
:103BC000D4ED0B1A94ED112A20EE010A71EE611A60
:103BD00002EE210ABDEEC00A10EE102A6263881AB6
:103BE000C3EC020A1144C4E91601FEF7A5FEE06D1C
:103BF000BDE87040FEF7B6BEB348B0EE001A80389C
:103C000090ED020AD0ED000AB8EEC02ADFEDB61A38
:103C1000F4EEC20AF1EE10FA11D290ED122A22EE61
:103C2000011A81EE212AB8EEC01A72EE200AC0ED08
:103C3000000AF4EEC10AF1EE10FA18DC1BE0B8EE4F
:103C4000C02AF4EEC20AF1EE10FA14DD90ED132A48
:103C500022EE011A81EE212AB8EEC01A70EEC20AD5
:103C6000C0ED000AF4EEC10AF1EE10FA03D2B8EE8C
:103C7000C00A80ED000A90ED030AD0ED010AB8EE0B
:103C8000C01AF4EEC10AF1EE10FA12D290ED141A35
:103C900070EE810AB8EEC01AC0ED010AF4EEC10A56
:103CA000F1EE10FA04DD00BFB8EEC00A80ED010AA3
:103CB0007047B8EEC01AF4EEC10AF1EE10FAF7DD63
:103CC00090ED151A70EEC10AB8EEC01AC0ED010AE7
:103CD000F4EEC10AF1EE10FAE6D3704770B5FEF7C4
:103CE00037FF794C803C2066FEF72EFF226EA16ED6
:103CF000511A2167E36EC4E91A20C31ACD1805EBE7
:103D0000D5756D10C4E91D3511441844C4E9181067
:103D100008446D4900EBD07040100860E06F401B14
:103D2000E06770BD10B5FFF7D9FFFFF765FFBDE88D
:103D30001040E5E610B56B48002404706B48047031
:103D40002046FEF7F9FD0020FEF70CFE9FED680A05
:103D50005D485D49803880ED060A80ED070A80EDF8
:103D6000000A80ED010A8460C46080ED080A80EDDD
:103D7000090A80ED0A0A80ED0B0A8466C4660466AF
:103D800044660C604C608465C465C467FEF7E9FE58
:103D9000BDE81040FEF7E0BEB5EEC00AF1EE10FA45
:103DA00001D8B7EE000A60EEA00A41EE410A80EEAB
:103DB000801AB4EE000A21EE000AB5EEC00AF1EE58
:103DC00010FA01D2B1EE400A704700EE100A4948DD
:103DD000F8EEC00A90ED001A80EE810A704745485F
:103DE000D0ED000A20EE200A7047B5EEC00AF1EED1
:103DF00010FA01D2B1EE400A70472DE9F047DFF822
:103E0000E49004463949012089F800000870FEF763
:103E10009FFE0546FEF798FE284400EBD0702A4925
:103E20004310354D354A8039274E22E0DF1B04FB15
:103E3000007700EBD070B7EB600F03DA4FF0000CA7
:103E400089F800C03846FFF7C0FFD2ED000AB8EE8F
:103E5000E01AD1ED000AFFF79FFFD1ED130AB4EE8F
:103E6000E00AF1EE10FA02D22548006800E010687E
:103E7000886037682868A7EB030C04FB00F8C4458A
:103E8000D4DB10688860BDE8F0872DE9F041154962
:103E900000201A4C087015490B4D01200870803D18
:103EA0002068A860FEF754FE0646FEF74DFE30443B
:103EB00000EBD0704610DFF8408023E0D8000020EF
:103EC000A0000020A400002068010020DC000020E9
:103ED000880000208C000020E000002071000020FD
:103EE00072000020280000200000C84229000020A5
:103EF000000000006C00002068000020540000203A
:103F000044000020FEF724FE0746FEF71DFED8F809
:103F10000010384401EBD17106EB610100EBD07069
:103F2000B1EB600F2068A860C7DCBDE8F08100003D
:103F300010B5484C20784E2818D0474957280978A2
:103F400004D0452808D053280CD00FE011B1FFF75A
:103F5000F1FC0BE0414806E011B1FFF720FD05E060
:103F60003F4800E03F480068FFF79EFC4E2020706D
:103F700010BD10B5374C3849207809784E2806D046
:103F800057280AD0452812D0532808D00FE011B185
:103F9000FFF7D0FC0BE0314806E0324804E011B1F5
:103FA000FFF7FDFC03E02E480068FFF77DFC45208D
:103FB000207010BD10B5274C21784E2906D0264818
:103FC0005729007804D0452908D00FE025480AE099
:103FD00010B1FFF7E4FC09E0214804E010B1FFF75D
:103FE000A9FC03E01D480068FFF75EFC5320207029
:103FF00010BD10B5174C1849207809784E2806D006
:10400000572814D0452808D0532808D00FE011B104
:10401000FFF7C5FC0BE0124806E0124804E011B1BE
:10402000FFF788FC03E00D480068FFF73DFC5720D0
:10403000207010BD074800784E2806D0452805D0CE
:10404000532804D0572803D193E7B3E7D1E76FE7AC
:104050007047000024000020750000205C00002054
:10406000580000206000002000F001007047C0F3FD
:1040700040007047C0F380007047C0F3C000704735
:10408000C0F300107047C0F3401070474948016802
:10409000052901D0062906D1474802684748052A64
:1040A00003D0062A03D000207047052911D0D43050
:1040B000036B43F00C030363036843F001030360E5
:1040C000C36A43F00203C362D438062A01D105292A
:1040D00013D000F59870062A436843F00903436043
:1040E000436B43F004034363036843F0020303603C
:1040F000A0F5987001D1062913D000F59C70052A0F
:10410000036843F003030360036B43F0040303639A
:10411000436843F008034360A0F59C7001D1062971
:104120000CD0D830016B41F004010163016841F00B
:1041300001010160416B41F00801416301207047BA
:104140001C481D4900680968084301D000207047D9
:1041500001207047194A01EB410110B502EB011231
:1041600052F820206FEA0204154AE30702EB01111E
:1041700001EB800104D0086BA20703D4FC2302E00A
:10418000FC20F9E74B68620701D4FC2201E051F8FA
:10419000302C240701D4FC2101E051F8041C834297
:1041A00000DA1846824200DA1046814200DA0846F8
:1041B00010BD000010000020140000201006002098
:1041C000500800202DE9F041474F0B2505EB450035
:1041D000002407EB001600BF56F8241043A001F09E
:1041E000E7FA641C0C2CF7DB41A001F0E1FA6D1E2C
:1041F000ECD5BDE8F0812DE9F05FDFF8F8B0DFF82D
:10420000E890DFF8F4A00B2505EB4507002409EB47
:10421000071600BF56F82400FFF726FF08B137A0A5
:1042200000E038A001F0C4FA641C0C2CF2DB37A0CB
:1042300001F0BEFA2EA001F0BBFADFF8D480002412
:1042400056F82400FFF719FF08B132A000E032A0B1
:1042500001F0AEFAD8F80000854216D12F48006868
:10426000844212D19BF800004E2806D0452806D083
:10427000532806D0572806D01BE029A00BE029A020
:1042800009E029A007E029A005E056F82400FFF77F
:10429000FAFE18B126A001F08BFA0AE056F82400C5
:1042A000FFF7EEFE0AEB071050F824100FA001F004
:1042B0007FFA641C0C2CC3DB16A001F079FA0CA069
:1042C00001F076FA6D1E9FD500240CA001F070FA63
:1042D000641C0C2CF9DB0DA001F06AFABDE8F05F5C
:1042E00003A001F065BA0000100600202533640029
:1042F0000A0D000024000020500800202B2D2D2D39
:10430000000000002B202020000000002B000000F7
:10431000140000207C00000020000000100000209D
:10432000205E2000203E200020762000203C20003F
:104330002078200030B52D48016841F00E01016061
:10434000416841F00C0141605FF0000100EB810227
:10435000491CD2F810320C2943F00103C2F8103284
:10436000F4DB002101EB410200EB0212491CD36A8D
:104370000C2943F00203D362F4DB002150F8212022
:1043800042F0040240F82120491C0C29F6DB0021F0
:1043900001EB410200EB0212491C13680C2943F0A7
:1043A00008031360F4DB0A21114C002202EB4203E4
:1043B000002004EB031300BF43F82010052801DAA6
:1043C000491E03E0851F052D00D2491C401C0C2806
:1043D000F2DB052A01DA491E03E0901F052800D20E
:1043E000491C521C0C2AE1DB30BD000010060020E5
:1043F00050080020F7480178F7484E29006806D099
:10440000452907D0532908D0572909D00AE00528A3
:104410000AD007E0062807D004E0072804D001E00E
:10442000082801D001207047002070472DE9F04195
:1044300090260025E94F02E000252C4608E00024E4
:10444000052D01D0062D03D1052C18D0062C14D033
:1044500029462046FFF77EFE05EB450107EB0111DB
:10446000401C41F82400641C0C2CE9DB6D1C0C2D55
:10447000E5DB761EE0D5BDE8F0810724E0E7062401
:10448000DEE7F0B5D348D64AD6490778D64816783D
:10449000D64A0478D7480D781368D54903EB430210
:1044A000006801EB021202EB80014E2F32D0452F43
:1044B0005BD0532F7ED0572F2BD16EB152F8206096
:1044C000002846F0080642F8206005DD51F8046C2B
:1044D00046F0020641F8046C6DB152F82050002BF2
:1044E00045F0040542F8205005DD51F8305C45F0F8
:1044F000010541F8305C002C0BD052F820400B2B0A
:1045000044F0010442F8204003DA086B40F0040054
:104510000863F0BD5EB152F820600B2B46F0010637
:1045200042F8206003DA0B6B43F004030B636DB1B8
:1045300052F82030002843F0080342F8203005DD0F
:1045400051F8043C43F0020341F8043C002CE0D055
:1045500052F820300B2843F0020342F82030D8DA1A
:10456000486840F008004860F0BD5EB152F8206035
:104570000B2846F0020642F8206003DA4E6846F047
:1045800008064E605DB152F820500B2B45F0010536
:1045900042F8205003DA0D6B45F004050D63002C42
:1045A000E2D052F82040002B44F0040442F82040AE
:1045B000DADD00E004E051F8300D40F0010029E0C0
:1045C0006EB152F82060002B46F0040642F82060DD
:1045D00005DD51F8303C43F0010341F8303C5DB15A
:1045E00052F820300B2843F0020342F8203003DA5F
:1045F0004B6843F008034B60002CB5D052F82030D4
:10460000002843F0080342F82030ADDD51F8040DD6
:1046100040F002000860F0BD2DE9FE4F7649012010
:104620000870FFF787FB0024DFF8C8A1DFF8BCB1F2
:104630006849CAF800404E20CBF8004008706C482A
:1046400001252746A0462646A1460068FFF718FD2B
:1046500090B9DBF8000000EB4001654800EB011168
:10466000DAF8000051F8202042F0100241F8202032
:1046700062480168491C016061486249006808603D
:104680009FE26148614A0068126805FB00F18C1ADC
:104690004FBB84423DDC5E495E4A01270F701770B4
:1046A000DBF8000000EB40014C4800EB0111DAF8A8
:1046B000000051F82000FC280BDB4749002008606F
:1046C0001070FEF739F90020FEF74CF90A20FEF7CA
:1046D000ADF9404800784E2806D045280AD0532826
:1046E0000CD0572810D014E0DBF80000401CCBF8A9
:1046F00000000EE0DAF80010491C08E0DBF80010BA
:10470000491ECBF8001004E0DAF80010491ECAF880
:104710000010B8F1000F1DD13B48006800EB4000CD
:10472000C11700EB9170B4EBA00F13DC3A483B4982
:104730004FF0010800680968884202DD294901201C
:1047400008703748374900680968884202DD264901
:1047500001200870002E70D12B48006800EBD0704B
:10476000B4EB600F69DC3048304901260068096805
:10477000884208DD2E482F4900680968884202DD1A
:10478000174901200870FFF77CFEDBF80010DAF80B
:104790000000FFF7DFFCDBF80010401C01EB4102DA
:1047A0000E4901EB0212DAF8001042F82100FFF77F
:1047B0003DFEDBF8000000EB40010D4800EB01116D
:1047C000DAF8000051F82000FFF74EFCA0B34FF4D8
:1047D000FA703FE024000020200000205008002054
:1047E0001C0000201D0000201E00002014000020DE
:1047F0001006002010000020730000201800002088
:1048000050000020F0000020680000206801002017
:104810002800002029000020D8000020800000206F
:10482000DC00002084000020D00000207800002060
:10483000D40000207C00002000E02DE1DBF8000027
:1048400000EB4001F74800EB0111DAF8000001EB42
:104850008000006B0290DBF8000000EB4001F248A2
:1048600000EB0111DAF8000051F82000FFF7FFFB20
:1048700010B14FF4FA700BE0DBF8000000EB4001E0
:10488000E84800EB0111DAF8000001EB8000406815
:104890000190DBF8000000EB4001E34800EB011160
:1048A000DAF8000051F82000FFF7E4FB10B14FF4F4
:1048B000FA700CE0DBF8000000EB4001D94800EB97
:1048C0000111DAF8000001EB800050F8300C009084
:1048D000DBF8000000EB4001D34800EB0111DAF8EF
:1048E000000051F82000FFF7C8FB10B14FF4FA7038
:1048F0000CE0DBF8000000EB4001CA4800EB0111BE
:10490000DAF8000001EB800050F8040CDDE9012129
:10491000914207DA0A4600998A4203DA824201DAB2
:10492000052020E0DDE901218A4207DA1146009ADC
:10493000914203DA814201DA062014E0DDE9001237
:10494000914206DA029A914203DA814201DA0720A3
:1049500009E00199884209DA0099884206DA029949
:10496000884203DA0820B149086095E0B048007831
:104970004E280ED1DBF8000000EB4001AA4800EB06
:104980000111DAF8000051F82000FFF76DFB002854
:10499000C6D0A748007845280ED1DBF8000000EB10
:1049A0004001A14800EB0111DAF8000051F82000A5
:1049B000FFF75DFB0028BFD09D48007853280ED13B
:1049C000DBF8000000EB4001974800EB0111DAF83A
:1049D000000051F82000FFF74DFB0028B7D09448A5
:1049E000007857280ED1DBF8000000EB40018E481C
:1049F00000EB0111DAF8000051F82000FFF73DFB51
:104A00000028AFD0DBF8000000EB4001864800EB47
:104A10000111DAF8000051F82000FFF725FB00280B
:104A2000B6D0DBF8000000EB40017F4800EB01113D
:104A3000DAF8000051F82000FFF719FB0028BAD07F
:104A4000DBF8000000EB4001774800EB0111DAF8D9
:104A5000000051F82000FFF70DFB0028BED0DBF866
:104A6000000000EB4001704800EB0111DAF8000093
:104A700051F82000FFF701FB0028C2D06B4800214D
:104A800001606C4801700846FDF756FF0020FDF7F5
:104A900069FF0A20FDF7CAFF6748006800EBD07085
:104AA000B4EB600F00DC01266448007810B9FFF712
:104AB000A1FC08B32046FFF788F96148D0ED000A51
:104AC0006048B8EEE01AD0ED000AFFF765F95E48DD
:104AD000D0ED000AB4EEE00AF1EE10FA04D25B4821
:104AE00001685B48016003E0554859490068086067
:104AF000B9F1000F02D00BE05448F6E74E480068C9
:104B0000C11700EB9170B4EBA00F07DC4FF0010967
:104B10004A48007810B14F4800210170002C50DC49
:104B20006D1C4FF47A71C820FDF7A1FFDBF800007F
:104B30003D4E00EB4000DAF8001006EB001057463F
:104B400050F82100FFF79CFA80B9DBF8000000EB79
:104B5000400006EB0011386851F8202042F01002A6
:104B600041F820203C480168491C01603348007826
:104B700038B13A4802683A4801683A480068FEF796
:104B80004FFF2A480068052806D0062807D00728C6
:104B900008D0082809D00AE0FFF7CAF907E0FFF7B4
:104BA000E8F904E0FFF706FA01E0FFF722FA2349EB
:104BB0000027B8460F702C493E46B9460F702B4966
:104BC0000F70FFF763FA00283FF45BADDFF87890D1
:104BD000DFF87C801A4F0026002C4FDD1648006855
:104BE00000EBD071B4EB610F01DA1A490E70204965
:104BF00068430968441A2046FFF7E7F8D7ED000A32
:104C00001048B8EEE01AD0ED000AFFF7C5F8D9ED6C
:104C1000000AB4EEE00AF1EE10FA2BD20B4801685C
:104C200029E000005008002010060020200000208D
:104C30002400002029000020680000201C00002023
:104C400054000020E8000020340100205000002023
:104C5000F000002028000020180000203C00002068
:104C600094000020900000201D0000201E00002065
:104C7000680100203968C8F80010ADE7DBF80000D3
:104C8000FF4D00EB400005EB0011DAF800005C4638
:104C9000574651F82000FFF7F3F978B920683968D2
:104CA00000EB400005EB001050F8212042F010020C
:104CB00040F82120F3480168491C0160F248067061
:104CC0000020FDF739FE0020FDF74CFEFFF793FAB8
:104CD0000320FDF7ABFEED480670BDE8FE8F2DE921
:104CE000F041DFF8AC839026002404EB440000255B
:104CF00008EB001754EA050006D021462846FFF7C6
:104D000029FA401C47F825006D1C0C2DF2DB641CB1
:104D10000C2CEADB761EE7D5BDE8F0812DE9FE4FCD
:104D2000DA4801210170FFF705F801250024DFF8BA
:104D300060832746A1462646A2462046002200EB75
:104D4000400C114608EB0C1302EB000C43F821C099
:104D5000521C491C0C29F7DB401C0C28EEDBFFF72A
:104D6000BEFFFFF767F9CB480168CB48016012E34B
:104D7000DFF828B3CA49DBF80000096805FB00F238
:104D8000541A47BB84422DDCC6490127C6480F7020
:104D9000BD490F70006800EB4002C44808EB0212E6
:104DA000006852F82000FC280BDBC14A002010608C
:104DB0000870FDF7C1FD0020FDF7D4FD0A20FDF7C6
:104DC00035FEBC4800784E2806D0452806D053282A
:104DD0000CD057280CD005E0B34800E0B348016878
:104DE000491C0160B9F1000F06D023E0AE4800E095
:104DF000AE480168491EF4E7DBF8000000EB400014
:104E0000C11700EB9170B4EBA00F13DCAA48AB49BB
:104E10004FF0010900680968884202DDA8490120B5
:104E20000870A8480168A8480068814202DDA748C8
:104E300001210170002E76D1DBF8000000EBD0706C
:104E4000B4EB600F6FDCA248A24901260068096834
:104E5000884208DDA048A14900680968884202DD4F
:104E60009F4901200870FFF70CFB8F4801688F48AD
:104E70000068FFF76FF98C49401C096801EB41029B
:104E80008A4908EB0212096842F82100FFF727FF60
:104E90008548006800EB4001794800EB0111834828
:104EA000006851F82000FFF7DFF810B14FF4FA70F6
:104EB0000AE07D48006800EB40017C4808EB0111E6
:104EC000006801EB8000006B02907748006800EBFF
:104ED00040016B4800EB01117448006851F8200054
:104EE000FFF7C5F810B14FF4FA700AE06E48006899
:104EF00000EB40016D4808EB0111006801EB8000F8
:104F0000406801906848006800EB40015C4800EB95
:104F100001116648006851F82000FFF7ABF818B19E
:104F20004FF4FA700CE09FE15F48006800EB40012D
:104F30005E4808EB0111006801EB800050F8300C6E
:104F400000905948006800EB40014D4800EB01110A
:104F50005648006851F82000FFF78FF810B14FF461
:104F6000FA700BE05048006800EB40014F4808EB36
:104F70000111006801EB800050F8040CDDE901121A
:104F80008A4207DA1146009A914203DA814201DA35
:104F900005201FE0DDE90112914206DA009A9142F4
:104FA00003DA814201DA062014E0009A8A4207DA25
:104FB0001146029A914203DA814201DA072009E0A0
:104FC0000199884209DA0099884206DA02998842F2
:104FD00003DA08203649086046E13348006800EBF0
:104FE0004001274800EB01113048006851F82000CB
:104FF000FFF73AF878B92C48006800EB40012048E8
:1050000000EB01112948006801EB8000006BFFF7FD
:1050100037F80028BCD02448006800EB400118484D
:1050200000EB01112148006851F82000FFF71FF83C
:1050300078B91D48006800EB4001114800EB0111F0
:105040001A48006801EB80004068FFF719F8002853
:10505000A9D01548006800EB4001094800EB011198
:105060001248006851F82000FFF704F8D0BB0E4842
:10507000006800EB4001024800EB01110B4832E0F0
:1050800010060020180000202900002073000020D6
:105090005008002050000020F00000206800002090
:1050A00068010020280000201400002010000020CB
:1050B0002000002024000020D800002080000020D4
:1050C0001D000020DC000020840000201E000020C5
:1050D000D000002078000020D40000207C000020B8
:1050E0001C00002009E0006801EB800050F8300C43
:1050F000FEF7C6FF00283FF461AFFE48006800EBF2
:105100004001FD4800EB0111FC48006851F8200007
:10511000FEF7B3FF88B9F748006800EB4001F64896
:1051200000EB0111F548006801EB800050F8040C19
:10513000FEF7A6FF00283FF44CAFF14800784E2858
:105140000FD1EC48006800EB4001EB4800EB011187
:10515000EA48006851F82000FEF786FF00283FF477
:1051600017AFE748007845280FD1E248006800EB08
:105170004001E14800EB0111E048006851F82000CF
:10518000FEF775FF00283FF40EAFDD480078532886
:105190000ED1D848006800EB4001D74800EB011160
:1051A000D648006851F82000FEF764FF0028A2D01E
:1051B000D348007857280ED1CE48006800EB400154
:1051C000CD4800EB0111CD48006851F82000FEF7F2
:1051D00054FF0028AFD0C748006800EB4001C64824
:1051E00000EB0111C548006851F82000FEF73CFFB4
:1051F0000028B4D0BF48006800EB4001BE4800EB77
:105200000111BE48006851F82000FEF730FF002869
:10521000B9D0B848006800EB4001B74800EB011175
:10522000B648006851F82000FEF724FF0028BED0E1
:10523000B048006800EB4001AF4800EB0111AF48F7
:10524000006851F82000FEF718FF0028C2D0AD49D1
:1052500000200860AC490870FDF76EFB0020FDF7E8
:1052600081FB0A20FDF7E2FBA848006800EBD07044
:10527000B4EB600F00DC0126DFF894B29BF800006D
:1052800010B9FFF7B7F8D8B12046FEF79EFDA14848
:10529000D0ED000AA048B8EEE01AD0ED000AFEF703
:1052A0007BFD9E48D0ED000AB4EEE00AF1EE10FA64
:1052B00001D29B4800E0974801689A48016003E0EA
:1052C0009748984900680860BAF1000F09D18F48E3
:1052D0000068C11700EB9170B4EBA00F07DC4FF032
:1052E000010A9BF8000010B18F4900200870002CC3
:1052F00051DC6D1C4FF47A71C820FDF7B8FBDFF864
:10530000F4917E4F7C4ED9F80000396800EB4000E4
:1053100006EB001050F82100FEF7B2FE80B9D9F874
:105320000000396800EB400006EB001050F8212027
:1053300042F0100240F821207C480168491C0160BD
:105340009BF8000038B17A4802687A4801687A48C8
:105350000068FEF765FB6B480068052806D0062844
:1053600007D0072808D0082809D00AE0FEF7E0FD9A
:1053700007E0FEF7FEFD04E0FEF71CFE01E0FEF78D
:1053800038FE00276D498BF80070B9460F706C49E4
:105390003E46BA460F70FEF7D3FE00283FF4E8AC55
:1053A000DFF86891DFF89CA1DFF86CB1DFF8748159
:1053B000584F0026002C27DDD9F8000000EBD071F3
:1053C000B4EB610F01DA58490E7005FB00F1DAF811
:1053D00000000C1A2046FEF7F8FCD7ED000AB8EEE4
:1053E000E01ADBED000AFEF7D7FC4C48D0ED000ACE
:1053F000B4EEE00AF1EE10FA02D24948016800E08A
:105400003968C8F80010D5E73A4C3B4D3B4F20684F
:1054100000EB400005EB0011386851F82000FEF762
:105420002FFE78B92068396800EB400005EB0010CA
:1054300050F8212042F0100240F821203B4801683A
:10544000491C0160FEF7F6FD2F4806700020FDF7AD
:1054500073FA0020FDF786FAFEF7E8FFFEF7CBFEB1
:105460000320FDF7E3FA3848067036E42DE9F047EB
:10547000DFF88490902600255FF0000455EA0400D0
:1054800076D0052E01D0062E03D1052D70D0062D25
:105490006ED005EB450109EB011858F82400FEF722
:1054A000E3FD074658F82400FEF7E1FD074458F8ED
:1054B0002400FEF7DFFD074458F82400FEF7DDFD69
:1054C0003844032854DB58F824000B2D40F02F01FA
:1054D00048F8241005DA08EB8400016B41F0040160
:1054E00001630B2C05DA08EB8400416841F00801E8
:1054F00041602BE014000020100600201000002066
:105500002400002020000020290000206800002046
:105510001C00002054000020E8000020340100207E
:1055200050000020F000002028000020180000207B
:105530003C00002094000020900000201D0000206E
:105540001E0000206801002073000020002D06DDF1
:1055500008EB840050F8301D41F001010160002C7F
:1055600006DD08EB840050F8041D41F002010160E3
:10557000641C0C2C82DB6D1C0C2DFFF67DAF761E9F
:105580007FF579AFBDE8F0870948804709480047B3
:10559000FEE7FEE7FEE7FEE7FEE7FEE7FEE7FEE7E3
:1055A000FEE7FEE704480549054A064B7047000040
:1055B000CD56000889010008800C002080120020D0
:1055C000800E0020800E0020F0B56D4900200A6892
:1055D00042F480320A604FF4A0630A6800F10100CF
:1055E00012F4003F01D19842F7D10868684D5FEA94
:1055F000803C644A644B654C664F40F2056605F199
:1056000004002AD5D2F800C04CF0805CC2F800C07B
:105610001A6842F480421A6002680260026842F42A
:1056200000420260026842F4A05202602C600A68E4
:1056300042F080720A600A689201FCD53E600168FF
:1056400021F003010160016841F00201016001687D
:10565000C1F381010229FAD1F0BDD1F800C0DFF811
:1056600038E10CEA0E0CC1F800C0D1F800C04CF0D3
:10567000010CC1F800C0D2F800C04CF0805CC2F848
:1056800000C01A6842F480421A6002680260026830
:1056900042F400420260026842F4A05202602C60B0
:1056A0000A6842F080720A600A689201FCD53E6086
:1056B000016821F003010160016841F0020101600D
:1056C0000168C1F381010229FAD1F0BD334810B558
:1056D000016841F4700101602948016841F001014D
:1056E00001602B4A0021121D116002682A4B1A40EA
:1056F0000260031D2A4A1A60026822F480220260B6
:10570000234808300160FFF75FFF24494FF0006035
:105710008039086010BD70B51D4C241D2068214AD9
:1057200010F00C01204804D05510042903D008299A
:1057300003D002601AE0056018E015490B68C3F356
:1057400080560B6803F03F0316B1B5FBF3F201E09E
:10575000B2FBF3F20B680968C3F388135A43C1F331
:105760000141491C4900B2FBF1F1016021680E4A78
:10577000C1F30311121D515C0268CA40026070BD82
:1057800000380240403802400070004010540007CA
:1057900004380240003C0240FFFFF6FE88ED00E0C6
:1057A000103000240024F4007C0100207047000029
:1057B0000FB4044910B503AA029800F01DFB10BCF9
:1057C0005DF814FBB000002070B5044685690068E0
:1057D000C10601D5302600E02026C00708D070BDE4
:1057E000D4E9012130469047206A00F1010020628F
:1057F0006D1EF5D570BD70B5044685690078C0078B
:1058000008D170BDD4E9012120209047206A00F121
:10581000010020626D1EF5D570BD70B50C460546C1
:10582000012A05D02878800600D5EA69002302E025
:10583000012305E05B1C934202D2E05C0028F9D111
:10584000A869E618C01AA861286A18442862284680
:10585000FFF7BAFF04E0D5E9012114F8010B9047E6
:10586000B442F8D32846FFF7C6FF70BD2DE9F041DA
:105870000646002410687529314616A511D0AFF3ED
:105880000080002803DAC0F1000013A507E03168AA
:105890008A0701D511A502E0490704D510A5012406
:1058A00001E0AFF3008000210A2306F1240707E09E
:1058B000B0FBF3F203FB1200303078541046491C61
:1058C0000028F5D123462A463046BDE8F04100F0D5
:1058D00021BA0000000000002D0000002B00000095
:1058E000200000002DE9F0474FF0000A89460446E9
:1058F000C0F820A02046E1688847002876D02528F7
:1059000006D0D4E901219047206A401C2062F1E7CB
:10591000E168204600258847C4F81CA006460027F9
:10592000C4F818A02A2E09D0304600F007FD38B37D
:1059300004EB8708303EC8F8186019E059F8041BDA
:10594000204604EB87029161E1688847012F0646F3
:1059500018D1E069002820DA25F020051DE0D8F8EC
:10596000180000EB800006EB40003038C8F8180043
:105970002046E1688847064600F0E0FC0028EED1AA
:10598000012F0AD02E2E08D12046E16888477F1CBF
:105990000646022F45F02005C4DBA069002803DA83
:1059A000404245F00105A061E80701D025F010054F
:1059B000B6B1A6F14100192802D8203645F4006599
:1059C0004A463146204625604D46FAF737FC58B125
:1059D000012806D0ED1D25F0070000F1080989E730
:1059E00004E005F1040985E730468AE7206ABDE84E
:1059F000F08700000FB400B589B00BA86A4600908C
:105A000003480A9900F018FA09B05DF814FB000089
:105A1000B40000202DE9FF5F1D464FF0FF3B91468B
:105A20004FF000085F46D5E90146A96901987F1C3F
:105A30008847296A824688470028F6D11AF1010072
:105A40000CD0002E24F4C06419DD600614D5BAF120
:105A50002B0F09D0BAF12D0F0ED103E0584604B038
:105A6000BDE8F09F44F48064A96901987F1C8847D1
:105A7000761E8246002E02DDBAF1300F03D0B9F156
:105A8000000F26D032E0A969761E01987F1C44F4ED
:105A900000748847002E824605DDBAF1780F06D0E3
:105AA000BAF1580F03D0B9F1000F10D01EE0B9F1D0
:105AB000000F02D0B9F1100F18D1A969761E019814
:105AC0007F1C24F4007488478246102002E00820DE
:105AD00000E00A20814609E0A96908FB0908761E52
