:020000040800F2
:10000000200E00205D560008BD210008BF21000819
:10001000C1210008C3210008C5210008000000001C
:10002000000000000000000000000000C7210008E0
:10003000C921000800000000CB210008CD210008E4
:10004000775600087756000877560008775600085C
:10005000775600087756000877560008775600084C
:10006000775600087756000877560008775600083C
:10007000775600087756000877560008775600082C
:10008000775600087756000877560008775600081C
:10009000775600087756000877560008EB210008CD
:1000A00077560008775600087756000877560008FC
:1000B00077560008775600087756000877560008EC
:1000C00077560008775600087756000877560008DC
:1000D00077560008775600087756000877560008CC
:1000E0004722000877560008775600087756000820
:1000F00077560008775600087756000877560008AC
:10010000775600087756000877560008775600089B
:10011000775600087756000877560008775600088B
:10012000775600087756000877560008775600087B
:10013000775600087756000877560008775600086B
:10014000775600087756000877560008775600085B
:10015000775600087756000877560008775600084B
:10016000775600087756000877560008775600083B
:10017000775600087756000877560008775600082B
:10018000775600087756000800F002F800F070F883
:100190000AA090E8000C82448344AAF10107DA45E2
:1001A00001D100F065F8AFF2090EBAE80F0013F0C4
:1001B000010F18BFFB1A43F001031847E466000063
:1001C000046700000A444FF0000C10F8013B13F0E4
:1001D000070408BF10F8014B1D1108BF10F8015BA0
:1001E000641E05D010F8016B641E01F8016BF9D193
:1001F00013F0080F1EBF10F8014BAD1C0C1B09D1EA
:100200006D1E58BF01F801CBFAD505E014F8016B5B
:1002100001F8016B6D1EF9D59142D6D370470000ED
:100220000023002400250026103A28BF78C1FBD8FF
:10023000520728BF30C148BF0B607047642905F0E2
:100240007F83632905F03686732905F03B860020FD
:1002500070471FB506F0ECFA06F0D6F8040000204F
:10026000002106F0DDF8401C60601FBD10B510BD18
:1002700005F0AEFE1146FFF7ECFF01F05AFC06F068
:10028000B1F803B4FFF7F2FF03BC02F0D3F90000AA
:100290002749084327490860704770B50F21C47883
:1002A000027801234FF0E026E4B1224C246804F4E4
:1002B000E064C4F5E064C4F30724C4F10405E1403C
:1002C0004478AC4085780D4025431B4C29011155DD
:1002D000007800F01F018B40400906EB8000C0F859
:1002E000003170BD02F01F008340500906EB800012
:1002F000C0F8803170BD114A114001430D48001F04
:10030000016070470B4A121D0029116801D001439A
:1003100000E08143116070474FF0E0210428086934
:1003200003D020F004000861704740F00400FAE7B1
:100330000000FA050CED00E000E400E080FFFF1F84
:1003400010B501210C02204600F093FC2046BDE8C8
:100350001040002100F08DBC30B54268C44B0C79D0
:100360001A400B6842EA0422134343608268C14B7F
:100370004D791A40D1E9034323438C6844EA45048C
:10038000234313438360C26A097D22F47002491E2D
:10039000C9B242EA0151C16230BD00210160017160
:1003A00041718160C1600161012101757047B24BEB
:1003B00010B51A68B1490A40D0E900142143D0E9C8
:1003C0000240044321431143196010BD0021016024
:1003D00041608160C16070470029816802D041F0AE
:1003E000010101E021F00101816070474268A44BE6
:1003F0001A400A4342607047416282627047426815
:1004000022F01F020A43426070479E490028D1F83B
:10041000040302D040F4000001E020F40000C1F821
:100420000403704797490028D1F8040302D040F430
:10043000800001E020F48000C1F80403704770B52B
:10044000072509290AD9C468A1F10A0606EB460660
:10045000B540AC43B3401C43C46007E0046901EB02
:100460004106B540AC43B3401C4304611F23072A37
:1004700009D2446B521E02EB820293409C4391408E
:100480000C43446370BD0D2A09D2046BD21F02EBEA
:10049000820293409C4391400C43046370BDC46A44
:1004A0000D3A02EB820293409C4391400C43C4629C
:1004B00070BD816841F08041816070470146002035
:1004C0008968490200D5012070470029816802D05F
:1004D00041F4806101E021F480618160704700296E
:1004E000816802D041F0020101E021F00201816047
:1004F00070474268491E22F4604242EA413141603D
:1005000070470029416802D041F4006101E021F404
:10051000006141607047C06C80B270475648001D52
:10052000006870470029816802D041F4807101E0C1
:1005300021F48071816070470029816802D041F404
:10054000007101E021F40071816070474D4900287D
:10055000D1F8040302D040F4005001E020F4005030
:10056000C1F80403704770B5072409290AD9C56882
:10057000A1F10A0606EB4606B440A543B3401D436D
:10058000C56007E0056901EB4106B440A543B340EF
:100590001D430561836BC3F30154121B921C02EBD4
:1005A00082041F22A2409343A1400B43836370BD8A
:1005B000826B491E22F4401242EA01518163704766
:1005C00042507047826822F470220A43826070476A
:1005D000826822F440120A4382607047816841F4C5
:1005E000800181607047014600208968490200D57A
:1005F000012070470029416802D041F4806101E088
:1006000021F48061416070470029416802D041F4C3
:10061000805101E021F48051416070470844806AB4
:1006200080B2704701238B4041680AB1194300E052
:100630009943416070470246002012680A4200D088
:1006400001207047C9430160704730B50246002061
:1006500054680B0A01258D4011682C40194202D0C4
:10066000002C00D0012030BD6FEA112101607047DD
:10067000FFFEFFFCFDF7FFC004230140E030FCFF5C
:10068000FFFD3FFF00200140374900200860091DA1
:100690000860091D0860091D08603349334814319A
:1006A0000860704730B530498379026853B30B68EE
:1006B00093430B600A1D13680468A3431360027917
:1006C0000A441368046823431360274A08321368F6
:1006D0000468A3431360131D1C680568AC431C60C9
:1006E0004479102C05D021440A68006802430A604E
:1006F00030BD116804682143116019680068014326
:10070000196030BD0079084401689143016030BD33
:100710000021016001710C22427181717047124900
:1007200010310A6802430A60704701460E4A0020F1
:10073000143212680A4200D0012070470A4914316D
:1007400008607047084A014600201268064B0A40BC
:1007500014331B680B4202D0002A00D001207047DE
:100760000149143108607047003C0140FFFF7F00E1
:100770007A4910B5884206D10121084600F051FAA5
:10078000002101204FE07649884206D10121022054
:1007900000F047FA0021022045E07249884206D164
:1007A0000121042000F03DFA002104203BE06E49C5
:1007B000884206D10121082000F033FA00210820E8
:1007C00031E06A49884206D10121102000F029FA5F
:1007D0000021102027E06649884206D1012120200F
:1007E00000F01FFA002120201DE06249884206D156
:1007F0000121402000F015FA0021402013E05E495D
:10080000884206D10121802000F00BFA00218020CF
:1008100009E05A4988420AD184150121204600F096
:1008200000FA00212046BDE8104000F0FAB910BDE2
:10083000F0B50023012403270D6804FA03F21540E4
:10084000954242D1D0F800C05E0007FA06F52CEAC6
:10085000050CC0F800C091F804C0D0F800E00CFA14
:1008600006FC4CEA0E0CC0F800C091F804C0BCF1C4
:10087000010F02D0BCF1020F1FD1D0F808C02CEA42
:10088000050CC0F808C091F805C0D0F808E00CFAD3
:1008900006FC4CEA0E0CC0F808C0D0F804C02CEAE4
:1008A000020CC0F804C0426891F806C00CFA03FCC0
:1008B0001FFA8CFC42EA0C024260C268AA43C26082
:1008C000CA79C568B2402A43C2605B1C102BB3D3FF
:1008D000F0BD4FF6FF71016000210171417181711E
:1008E000C171704741F48032C261C161C261C169A6
:1008F000C06970470246002012690A4200D00120F8
:100900007047006980B270470246002052690A426F
:1009100000D001207047406980B270470183704762
:10092000418370470AB10183704741837047416139
:10093000704742694A40426170474B07DB0E9A405C
:10094000C90810B500EB8100016A0F249C40A14347
:100950000162016A1143016210BD00000000024003
:100960000004024000080240000C02400010024057
:100970000014024000180240001C02400020024007
:10098000E948016841F001010160E74A00210832AD
:1009900011600268E54B1A400260031DE44A1A60C8
:1009A000026822F480220260DF480C300160704748
:1009B000DD490022891C0A70087070470246002039
:1009C000510901290CD002290CD0D749743109688A
:1009D00002F01F02012393400B4200D00120704718
:1009E000D149F4E7D0497031F1E730B500244FF434
:1009F000A0653120FFF7E2FF641CAC4201D0002863
:100A0000F7D03120FFF7DAFF002800D0012030BDF9
:100A1000C5490A6822F0F80242EAC000086070473F
:100A2000C44908607047C049002270310A700A70DA
:100A3000012802D0042801D1052008707047BE4962
:100A40000860704741EA82115A0810B5BB4B029CFE
:100A500003EB02421143014341EA0460B249091D1C
:100A6000086010BDB34908667047800140EA017014
:100A7000AD49843108607047AE4988667047AD491A
:100A8000C8647047A84A08321368084323F0EC632F
:100A9000184310607047A44A08321368084323F0D3
:100AA00078431843106070479F4A0832116821F05C
:100AB00003010143116070479B480830006800F053
:100AC0000C007047984A0832116821F0F001014388
:100AD00011607047944A0832116821F4E0510143D3
:100AE00011607047904908310A6822F4604242EA76
:100AF000C0000860704770B58B4A08321168904B8F
:100B000011F00C0104D05D10042903D0082903D092
:100B100003601BE0056019E08349091D0C68C4F3FC
:100B200080560C6804F03F0416B1B5FBF4F301E005
:100B3000B3FBF4F30C680968C4F388146343C1F38E
:100B40000141491C4900B3FBF1F1016011687D4B83
:100B500001F0F00109095C5C0168E1404160146842
:100B600004F4E054A40A1C5D21FA04F484601268C1
:100B700002F46042520B9A5CD140C16070BDC0F378
:100B80000121032908D1684A0832116821F4F813B9
:100B90006D49014019431160634970310A68C0F31F
:100BA0000B0002430A60704763494439086070478C
:100BB00061494039086070476449086070475A4A83
:100BC00030320029116801D0014300E081431160F7
:100BD0007047554A34320029116801D0014300E0C2
:100BE000814311607047504A38320029116801D0A2
:100BF000014300E08143116070474B4A40320029B5
:100C0000116801D0014300E0814311607047464AFA
:100C100044320029116801D0014300E08143116092
:100C20007047414A10320029116801D0014300E0A9
:100C30008143116070473C4A14320029116801D089
:100C4000014300E0814311607047374A18320029A0
:100C5000116801D0014300E0814311607047324ABE
:100C600020320029116801D0014300E08143116066
:100C700070472D4A24320029116801D0014300E059
:100C8000814311607047284A50320029116801D011
:100C9000014300E0814311607047234A5432002928
:100CA000116801D0014300E08143116070471E4A82
:100CB00058320029116801D0014300E081431160DE
:100CC0007047194A60320029116801D0014300E0E1
:100CD000814311607047144A64320029116801D0C1
:100CE000014300E08143116070470F4A0D32002933
:100CF000117801D0014300E08143117070470A4828
:100D00007430016841F08071016070470146064A05
:100D100000200C3212680A4200D0012070470249BC
:100D20000E3108707047000000380240FFFFF6FEE9
:100D30001030002400004742800E47420000FFFFB1
:100D40000024F40000000020FFFCFF0F5C0147427C
:100D500010B501218C032046FFF78BFF2046BDE82C
:100D600010400021FFF785BF11490860704710B59A
:100D70008A07130F21F003040F220D499A4008310E
:100D800021440C6894430C600A68984002430A604E
:100D900010BD08490860704707490860704704495A
:100DA000002020310968C90500D5012070470000E6
:100DB00000380140DC00274200042742FE4910B5FC
:100DC000884206D101210846FFF753FF0021012088
:100DD0005BE0B0F1804F09D0F84988420DD1012184
:100DE0000220FFF73CFF0021022070E001210846AD
:100DF000FFF735FF0021012069E0F149884206D163
:100E000001210420FFF72BFF002104205FE0ED49C2
:100E1000884206D101210820FFF721FF0021082088
:100E200055E0E949884206D101211020FFF717FF5C
:100E3000002110204BE0E549884206D10121202005
:100E4000FFF70DFF0021202041E0E149884206D153
:100E500001210220FFF70DFF0021022015E0DD49EE
:100E6000884202D101210C040AE0DB49884202D108
:100E700001214C0404E0D94988420AD101218C04A3
:100E80002046FFF7F6FE00212046BDE81040FFF7A0
:100E9000F0BED349884206D101214020FFF7DFFE92
:100EA0000021402013E0CF49884206D10121802053
:100EB000FFF7D5FE0021802009E0CB4988420AD106
:100EC000841501212046FFF7CAFE00212046BDE817
:100ED0001040FFF7C4BE10BD30B50288B64BBC4C05
:100EE00098420DD0A0420BD0B0F1804F08D0B34D46
:100EF000A84205D0B24DA84202D0B24DA84203D1BB
:100F000022F070054A882A43AF4DA84206D0AF4D63
:100F1000A84203D022F440750A892A4302804A6815
:100F2000C2620A880285984201D0A04201D1897A22
:100F300001860121818230BD4FF0FF3141600021E7
:100F400001800181418081727047018582827047F2
:100F5000028822F070020A430280704741627047A3
:100F6000C1627047406A7047008D70470029018850
:100F700002D041F0020101E021F00201018070473E
:100F80000029018802D041F0040101E021F00401B0
:100F9000018070470029018802D041F0800101E002
:100FA00021F0800101807047028822F0080202804F
:100FB00002880A4302807047028822F4407202804D
:100FC00002880A43028070470029018802D041F05C
:100FD000010101E021F001010180704730B5028C70
:100FE00022F001020284028C8388048B22F0020228
:100FF00024F073050C882C438D8915434A882A43B5
:101000006D4DA84202D0724DA8420DD122F00805C4
:10101000CA8923F440732A4322F004058A882A43AC
:101020000D8A1D434B8A2B43838004838968416367
:10103000028430BD70B5028C22F010020284028C52
:101040008488038B0D8823F4E6464FF6FF7303EA8A
:10105000052535438E8922F0200203EA0616164341
:101060004A8803EA02123243534EB04202D0584E2D
:10107000B04215D122F08006CA8924F4406403EA04
:101080000212324322F040068A8803EA02123243F7
:101090000E8A03EA860626434C8A03EA8404344314
:1010A0008480058389688163028470BD70B5028C79
:1010B00022F480720284028C8488838B0D8823F052
:1010C00073031D4322F400738E894FF6FF7202EA08
:1010D00006261E434B8802EA03233343364EB042B2
:1010E00002D03B4EB04215D123F40066CB8924F4E4
:1010F000405402EA0323334323F480668B8802EAD8
:10110000032333430E8A02EA061626434C8A02EA78
:1011100004143443848085838968C163038470BD6B
:1011200070B5028C22F480520284048C8288838BF6
:101130000D8823F4E6464FF6FF7303EA0525354391
:1011400024F400568C8903EA043434434E8803EABD
:1011500006362643184CA04202D01D4CA04205D1B1
:1011600022F480440A8A03EA821222438280858321
:1011700089680164068470BD0021018041808180FE
:1011800081608181C18101824182704730B5012433
:10119000058C00F118038C40A543058431B3082960
:1011A0002CD0091FC1F34E001844016848F6FF73A4
:1011B0001940016001681AE000000140000400408D
:1011C00000080040000C00400010004000140040E7
:1011D000000401400040014000440140004801403B
:1011E00000180040001C00400020004006E04FF6C0
:1011F000FF7303EA02221143016030BD03EB51008B
:1012000001684FF68F73194001600168F3E741638D
:10121000704781637047C163704701647047028BF8
:1012200022F070020A4302837047028B4FF6FF736D
:1012300022F4E04203EA0121114301837047828BCB
:1012400022F070020A4382837047828B4FF6FF734D
:1012500022F4E04203EA0121114381837047028BAB
:1012600022F008020A4302837047028B4FF6FF7395
:1012700022F4006203EA0121114301837047828B4B
:1012800022F008020A4382837047828B4FF6FF7375
:1012900022F4006203EA0121114381837047028B2B
:1012A00022F004020A4302837047028B4FF6FF7359
:1012B00022F4806203EA0121114301837047828B8B
:1012C00022F004020A4382837047828B4FF6FF7339
:1012D00022F4806203EA0121114381837047028B6B
:1012E00022F080020A4302837047028B4FF6FF739D
:1012F000C2F30E0203EA0121114301837047828B7E
:1013000022F080020A4382837047828B4FF6FF737C
:10131000C2F30E0203EA0121114381837047028C5C
:1013200022F002020A4302847047028C22F0080273
:101330000A4302847047028C4FF6FF7322F02002AA
:1013400003EA0111114301847047028C4FF6FF73C9
:1013500022F0800203EA0111114301847047028CDC
:101360004FF6FF7322F4007203EA01211143018456
:101370007047028C4FF6FF7322F4006203EA0121EA
:10138000114301847047028C4FF6FF7322F4005220
:1013900003EA013111430184704710B50123048C25
:1013A0008B409C430484038C8A401343038410BD08
:1013B00010B50423048C8B409C430484038C8A4026
:1013C0001343038410BD828B22F440628283828B9C
:1013D0004FF6FF7303EA01210A4382837047828B31
:1013E00022F00C028283828B0A4382837047028B35
:1013F00022F440620283028B4FF6FF7303EA01215D
:101400000A4302837047F0B5048C24F0100404846E
:10141000078B068C4FF6FF7404EA011527F4734717
:1014200004EA0331394304EA02220A4326F0A00108
:10143000294341F0100102830184F0BD028B22F0A8
:101440000C020283028B0A43028370472DE9F041AC
:101450000D460E884988AA882B8904460EB3042EAF
:1014600026D0082E268C4FF6FF7028D026F4805602
:101470002684A78B268C00EA022200EA013127F499
:1014800073473A4300EA0330104326F420420A43EC
:1014900042F48051A0832184E9882046BDE8F041D0
:1014A00091E700F061F9E9882046BDE8F041C5E721
:1014B000FFF7A9FFE9882046BDE8F04197E726F449
:1014C00080762684A78B268C00EA012100EA03108F
:1014D000104327F0F307384326F420620A4342F40E
:1014E0008071A0832184E9882046BDE8F04176E739
:1014F00000210180418001228280C18001817047EA
:101500002DE9F0410C46002549880746012601B91E
:101510000225A288012A00D10226208823890028DA
:10152000384610D0FFF76FFFE1883846FFF75FFFBE
:10153000238932462946384600F016F9E1883846B4
:10154000BDE8F0417AE700F00FF9E1883846FFF78F
:1015500075FF2389324629463846FFF754FFE18854
:101560003846BDE8F04142E7406B7047806B7047FA
:10157000C06B7047006C704710B50A884B88CC88E8
:101580001A438B8823431A430B891A434B89898951
:101590001A430A43A0F8442010BD00210180418075
:1015A0008180C1800181418181817047002930F8AB
:1015B000441F02D041F4004101E0C1F30E0101805B
:1015C00070470029818802D041F0040101E021F038
:1015D0000401818070470029818802D041F0010117
:1015E00001E021F0010181807047002A828901D049
:1015F0000A4300E08A438281704781827047024635
:101600000020128A0A4200D001207047C94301829B
:10161000704702460020138A92890B4202EA0102B7
:1016200002D0002A00D001207047C94301827047D0
:101630001143A0F848107047002A828901D00A435C
:1016400000E08A43828170470029818802D041F0FE
:10165000080101E021F0080181807047018921F033
:10166000070101817047028922F070020A4302815A
:10167000704700B50346FFF7F6FF188940F00700F2
:10168000188100BD70B50D4611460446602D4FF01F
:1016900001020AD000F068F829462046FFF7E3FF70
:1016A000208940F00700208170BDFFF7ACFEF3E712
:1016B00030B504894FF6FF7505EA03231343E4B2FE
:1016C0000B432343038130BD10B50446FFF7F0FF01
:1016D000208940F07700208110BD10B50446FFF747
:1016E000E7FF208940F48040208110BD828822F0ED
:1016F0007002828082880A4382807047028922F0C9
:101700000702028102890A4302817047028922F09E
:101710008002028102890A430281704770B50589FF
:10172000048B068C25F007050D434FF6FC410C4059
:1017300040F201110C434FF6FF7101EA031126F04C
:1017400022061143314305810483018470BD0029C1
:10175000818802D041F0800101E021F08001818088
:101760007047A0F85010704770B5048C24F0010445
:101770000484058B048C4FF6FF7606EA03131343AB
:1017800025F0F3052B4324F00A020A4342F001013D
:101790000383018470BD0000CA4910B5884206D198
:1017A00001211020FFF765FA0021102028E0C6492A
:1017B000884202D101214C0410E0C449884202D180
:1017C00001218C040AE0C249884202D10121CC04E3
:1017D00004E0C04988420AD101210C052046FFF7E8
:1017E0003EFA2046BDE810400021FFF738BABA495A
:1017F000884209D101212020FFF73BFA0021202057
:10180000BDE81040FFF735BA10BD7FB50446008A29
:101810000D4620F44051E88808432082A08941F217
:101820000C618843A9882A8911436A8902431143BC
:10183000A181A08A20F44071A8890843A08268464B
:10184000FFF759F99F48844202D0A348844201D14E
:10185000039800E00298A1890904002900EBC00167
:1018600001EB0010296802DA4FEA410101E04FEA7A
:101870008101B0FBF1F26420B2FBF0F14FEA0111FB
:101880004FEA11136FF018056B4302EB8302A38933
:101890001D044FF0320306D503EBC202B2FBF0F099
:1018A00000F0070005E003EB0212B2FBF0F000F0DD
:1018B0000F00084320817FBD4FF4165101600021C5
:1018C0008180C18001810C2242818181704710B5E5
:1018D000028A4C8822F470630A8822438C88C98863
:1018E0000C4322431A43028210BD00210180418033
:1018F0008180C18070470029818902D041F4005164
:1019000001E021F4005181817047028B02F47F4293
:101910000283028B0A43028370470029818902D027
:1019200041F4004101E0C1F30E01818170470029BB
:10193000818A02D041F4006101E021F400618182DA
:101940007047C1F30801818070478088C0F30800A8
:101950007047028A22F00F020282028A0A43028240
:1019600070470029818902D041F0020101E021F095
:10197000020181817047828922F40062828182891A
:101980000A4382817047028A22F020020282028A80
:101990000A43028270470029018A02D041F4804143
:1019A00001E021F4804101827047818941F0010109
:1019B000818170470029818A02D041F0080101E04D
:1019C00021F0080181827047028BD2B20283028B20
:1019D00042EA0121018370470029818A02D041F047
:1019E000200101E021F02001818270470029818AD5
:1019F00002D041F0100101E021F010018182704716
:101A0000828A22F004028282828A0A43828270479A
:101A10000029818A02D041F0020101E021F0020197
:101A200081827047002A828A01D00A4300E08A43FB
:101A30008282704710B5C1F3421301F01F040121E7
:101A4000A140012B07D0022B07D01430002A0268D6
:101A500005D00A4304E00C30F8E71030F6E78A437B
:101A6000026010BD0246002012880A4200D0012008
:101A70007047C9430180704730B501F01F0201244F
:101A80000025C1F3421304FA02F2012B0FD0022BFE
:101A90000FD0838A4FEA11210088134204FA01F41F
:101AA00000EA040001D000B10125284630BD838939
:101AB000F0E7038AEEE70A0A01219140C943018059
:101AC0007047000000100140004400400048004002
:101AD000004C0040005000400014014010B5F94C8B
:101AE000F74894ED030AD0ED000AB8EEC01AF4EE00
:101AF000C10AF1EE10FA01DCF8EEC00AF248BDEEC0
:101B0000E00A84ED030A01682069814200DD08468D
:101B1000206101F0AFF901F075F9207808B101F00A
:101B2000D3F86078002803D0BDE8104002F070B907
:101B300010BD00F0C1FB00F033FC00F081FC4FF45D
:101B4000165000F027FD00F017FF00F0D3FF00F063
:101B50004DFF01F03FF80421DC48FEF7E1FEDC4DCB
:101B60004FF480512846FEF7DBFEE9142846FEF7C5
:101B7000D7FE29152846FEF7D3FE04212846FEF796
:101B8000CFFE08212846FEF7CBFED24E202130465C
:101B9000FEF7C6FE10213046FEF7C2FE4FF47A7003
:101BA00000F0C7FB4FF47A61C82000F086FFC54CF7
:101BB0000120C821A07040F2E73060616420A0617C
:101BC000C4E909015021E1623C212163E061322036
:101BD0002062C1481421C4E90D10C048E063C04828
:101BE00020644042C4F8440000F0D8FF616890FBD4
:101BF000F1F04FEAE07100EB917121F00301401A1E
:101C0000A06001D54042A060B0B101281DD00228DB
:101C100028D00328E8D104212846FEF781FE0821B8
:101C20002846FEF77DFE20213046FEF779FE102182
:101C30003046FEF773FED7E704212846FEF76EFE16
:101C400008212846FEF76CFE07E004212846FEF72F
:101C500067FE08212846FEF761FE20213046FEF788
:101C60005FFE0BE004212846FEF75AFE08212846B5
:101C7000FEF756FE20213046FEF750FE102130467A
:101C8000FEF74EFEB0E72DE9F0474FF4FA71C82099
:101C900000F013FF93A003F0F5FD4FF47A7000F00D
:101CA00048FB02F0BBFB02F01AFB642000F041FB92
:101CB00084480024C823D0F80880642250253221AB
:101CC0008D4E8E4FDFF838C2B8F1000F0DD04FF0B7
:101CD0008C099FED8C0AB8F1010F13D0B8F1020FF7
:101CE00020D0B8F1030F3AD128E043628261C0E905
:101CF0000A35C0E907217823C0E90C349FED820A38
:101D0000316008E0446343628261C0E90721283002
:101D1000A0E82802316087ED000A8CED000A02F08D
:101D2000EFFC1CE04FF0F008C0F824808261C0E9AD
:101D30000721C0E90C34C0E90A8507E04463436227
:101D40008261C0E907212830A0E82802316087EDD0
:101D5000000A8CED000A02F0D3FC03F04FF8BDE856
:101D6000F0476AA003F08EBD2DE9F05F4FF4FA7BD7
:101D70005946C82000F0A1FE6AA003F083FD4FF48D
:101D80007A7000F0D6FA4F48002250248C25322178
:101D9000594F4FF0640C4FF448731E269FED590ABB
:101DA000D0F80880DFF85491DFF854A1B8F1000FA3
:101DB00009D0B8F1010F0BD0B8F1020F20D0B8F163
:101DC000030F16D121E0C0F818C04FF0C80C03E093
:101DD000C0F818C04FF4C87CC161C0E9081C00BF3E
:101DE000C0E90C52C0E90A343E6089ED000A8AED70
:101DF000000A01F0DFFABDE8F05F4FA003F042BD3A
:101E0000C0E906C1C0E9081BEAE7C0F818C04FF4F2
:101E1000167CE1E72DE9F05F4FF4FA71C82000F07D
:101E20004CFE4BA003F02EFD4FF47A7B584600F099
:101E300080FA2448002150228C232F4D4FF0640C4F
:101E40004FF4487A4FF032091E249FED460AD0F82D
:101E500008802A4E2A4FB8F1000F09D0B8F1010FBF
:101E600013D0B8F1020F20D0B8F1030F16D187E0DC
:101E7000C0F818C0C0E90C314FF42F7CC0F81C909A
:101E8000C0E9089CC0E90AA203E0C0F818C0D44623
:101E90000EE02C6086ED000A87ED000A01F08AFA58
:101EA000BDE8F05F30A003F0EDBCC0F818C0DC4620
:101EB000C0F824C0C0E90C314946C0F81C906AE063
:101EC000080100202800002080010020000C0240B2
:101ED0000008024000000240E07CF3FF58D30B00F2
:101EE000600FE6FF427574746F6E2030207072656B
:101EF000737365640A0D00009401002050010020F6
:101F000054010020000070420000484246696E699A
:101F10007368656420427574746F6E203020495375
:101F2000520A0D00427574746F6E20312070726514
:101F3000737365640A0D000046696E6973686564B1
:101F400020427574746F6E2031204953520A0D007F
:101F5000427574746F6E203220707265737365649D
:101F60000A0D00000000C84246696E697368656426
:101F700020427574746F6E2032204953520A0D004E
:101F8000C0F818C04FF4966CC0F824C0C0E90C31FA
:101F90000A21C16119210162C0E90AC279E7F0B5DD
:101FA0006E4C89B004220721204600F06FFE0746E0
:101FB00004220921204600F069FE06460422082179
:101FC000204600F063FE054600F0E4FD044600F004
:101FD000E5FD634904AA0968E2C2634A61491268DF
:101FE0000968CDE900206148CDE9024103686048F5
:101FF000026860480168604803F044FC09B0F0BD25
:102000002DE9F05F4FF47A612DED028BC82000F0CE
:1020100054FD4FF47A7000F08CF958A003F032FCB4
:102020005B4850248C2680684FF0640878274FF076
:102030000A094FF0190A4FF01E0B9FED568A3C25F6
:1020400030B1012822D0022844D003287FD149E0B2
:1020500001F0E6FE4E484FF4167100F1280341628C
:102060004FF47A71D2C300F118014B4AA1E800077E
:102070004A49C2F800B081ED008A494981ED008AE1
:102080005121C0E912152821A4221CE001F0C8FE4C
:102090003F484FF4167100F1280341624FF47A7102
:1020A000D2C300F118013C4AA1E800073B49C2F83D
:1020B00000B081ED008A3A4981ED008A5521C0E9DE
:1020C00012152A219B22C0E91412C0E9161501F04D
:1020D00088FA3CE000F0F8FDFFF761FF012000F016
:1020E00028F9F7E701F09CFE294C4FF4C8702A4903
:1020F00060624FF49660C4E90A0604F11800C4E96E
:102100000C67A0E800071FED810A2448C1F800B061
:10211000A42180ED000A224880ED000A2820E56411
:10212000C4E91401C4E9160501F025FF5120A0649B
:1021300001F088FC01F086FC01F084FC01F082FCD7
:102140000020607000F01EFC002000F031FCBDECAF
:10215000028B14A0BDE8F05F03F094BB00200140A7
:1021600004010020EC000020F4000020FC0000200E
:10217000F8000020F00000203C68000842757474EC
:102180006F6E203320707265737365640A0D0000F2
:10219000280000200000B4429401002050010020DB
:1021A0005401002046696E69736865642042757445
:1021B000746F6E2033204953520A0D007047FEE7BA
:1021C000FEE7FEE7FEE77047704770473748016853
:1021D000491C016036490868002802DA354B0022A4
:1021E0001A60401E0860FFF779BC10B52020FEF78A
:1021F000A9FA4FF4967470B1322000F09AF82020BA
:10220000FEF7A0FA20B1204600F093F8FFF73BFD5F
:102210002020FEF7A5FA4020FEF794FA002811D0FE
:10222000322000F086F84020FEF78CFA002809D012
:10223000204600F07EF8FFF7E3FEBDE810404020A6
:10224000FEF78EBA10BD70B54FF480442046FEF7FD
:1022500079FA4FF4967570B1322000F06AF8204692
:10226000FEF770FA38B1284600F063F8FFF77CFDFE
:102270002046FEF775FA4FF400442046FEF762FA56
:10228000002811D0322000F054F82046FEF75AFA08
:10229000002809D0284600F04CF8FFF7BBFD204687
:1022A000BDE87040FEF75CBA70BD0000CC000020B5
:1022B000E00000203404004070B503F071FA03F030
:1022C00094FA33484FF47A710068B0FBF1F0401E85
:1022D000B0F1807F16D24FF0E024606166170F21C5
:1022E000304600F049F80025A561072020614FF431
:1022F0004070FDF7CDFF0021304600F03DF8254845
:10230000456070BDFEE74FF0E0208069A821B0FB7A
:10231000F1F12048426802EB4203C3EBC212C1EB69
:10232000C20101F57A710160006870471948406880
:102330007047184A516853685B1A8342FBD1704753
:1023400030B50546FFF7DFFF4FEA0004FFF7DBFF7C
:10235000001BA842FAD130BD30B50C464FEA00054B
:10236000FFF7D1FF001BA842FAD330BD094A5368DA
:102370005B1A8342FBD370470907090E002803DA72
:1023800000F00F00044A00E0044A81547047000046
:102390009C010020C800002014ED00E000E400E0F3
:1023A0007CB501210846FEF70AFC01210420FEF756
:1023B00006FC01210820FEF702FC302000900120DD
:1023C0008DF8040000208DF8060003218DF805101B
:1023D0008DF8070069461748FEF72AFA0C20164DBB
:1023E000009069462846FEF723FA0420134E022483
:1023F00000908DF8074069463046FEF719FA4FF411
:10240000E05000908DF8074069462846FEF710FA24
:1024100004213046FEF784FAE1022846FEF780FAEE
:10242000A1022846FEF77CFA61022846FEF778FAF8
:102430007CBD00000000024000080240000C024089
:102440002DE9F04701218F0386B03846FEF7DFFB08
:1024500001210620FEF7B3FB0024DFF830A18DF840
:10246000104020258DF8134003A950460395FEF730
:10247000DFF905210120FEF77AFC00958DF8044074
:1024800008268DF8056001258DF806506846FEF790
:1024900009F94FF017098DF808908DF809508DF85B
:1024A0000A408DF80B5002A8FDF7F7FE8DF810409A
:1024B0008DF8134003A950460397FEF7B9F90E2192
:1024C0000120FEF754FC8DF804408DF8056000975C
:1024D0008DF806506846FEF7E5F828278DF8087055
:1024E0008DF809508DF80A408DF80B5002A8FDF7C1
:1024F000D4FE8DF810404FF400488DF8134003A926
:102500005046CDF80C80FEF793F90F210120FEF71D
:102510002EFC8DF804408DF80560CDF800808DF814
:1025200006506846FEF7BEF88DF808708DF8095021
:102530008DF80A408DF80B5002A8FDF7AEFE8DF81D
:10254000104040278DF8134003A911480397FEF768
:102550006FF906210220FEF70AFC8DF804408DF881
:10256000056000978DF806506846FEF79BF88DF8D9
:1025700008908DF809508DF80A408DF80B5002A88C
:10258000FDF78BFE06B0BDE8F087000000040240B6
:102590000008024070B5054688B001210220FEF710
:1025A0000EFB01211020FEF732FB6D4E07220921A0
:1025B0003046FEF7C2F907220A213046FEF7BDF980
:1025C00000248DF8164001208DF8170002208DF8A8
:1025D00014004FF4C06104918DF8150004A9304631
:1025E000FEF726F95F4E01213046FFF796F9ADF868
:1025F00008400C20ADF80A00ADF80440ADF80640E4
:10260000ADF818403015ADF81A00ADF81E40009531
:10261000ADF80C40ADF81C4069463046FFF7F5F8C0
:1026200006A93046FFF753F901213046FFF763F959
:1026300008B070BD0020704770B54A4D0446C1B265
:102640002846FFF77EF980212846FFF70BFA00287D
:10265000F9D0204670BD434801888906FCD58088A2
:10266000C0F30800704770B53E4D044680212846EF
:10267000FFF7F8F90028F9D0A1B22846FFF761F971
:10268000204670BD10B538A003F0FCF8354C202171
:102690002046FFF7E7F90028F9D02046FFF755F963
:1026A000C0B210BD10B539A003F0ECF82D4C2021BC
:1026B0002046FFF7D7F90028F9D02046FFF745F963
:1026C00001463AA003F0DEF82046FFF73EF9C0B21B
:1026D00010BD10B537A003F0D5F8224C20212046BC
:1026E000FFF7C0F90028F9D02046FFF72EF9A0F136
:1026F000300137A003F0C6F82046FFF726F930383E
:1027000010BD10B50446014686B033A001E0214655
:1027100038A003F0B7F8694641A003F0D5F969463F
:1027200040A003F0AFF82146684603F019FB0028EB
:10273000EDD106B010BD38B5044601463BA001E01E
:10274000214641A003F09EF869464AA003F0BCF977
:102750001FA0009903F096F80098A042F0D138BD70
:1027600000000240001001400D0A70726573732072
:10277000616E79206B657920746F20636F6E746968
:102780006E75652E2E2E0D0A0D0A0000706C6561A7
:10279000736520656E746572206120636861726183
:1027A000637465722E2E2E0D0A00000025630D0A3B
:1027B00000000000706C6561736520656E74657261
:1027C00020612064696769742E2E2E0D0A000000B6
:1027D00025640D0A00000000507265737320257394
:1027E00020746F20436F6E74696E75652E2E2E20D7
:1027F0003A000000496E76616C696420696E7075FC
:10280000742C20707265737320257320746F2043BD
:102810006F6E74696E75652E2E2E203A00000000D2
:102820002573000025730D0A0000000050726573C7
:102830007320256420746F20436F6E74696E756514
:102840002E2E2E203A000000496E76616C696420BD
:10285000696E7075742C2070726573732025642006
:10286000746F20436F6E74696E75652E2E2E203A3C
:1028700000000000256400001CB501210420FEF7C3
:10288000BCF94FF47070009002208DF80400032012
:102890008DF8050000208DF80600504C8DF80700DB
:1028A00069462046FDF7C4FF022206212046FEF7B6
:1028B00044F8022207212046FEF73FF802220821B1
:1028C0002046FEF73AF8022209212046FEF735F8A5
:1028D0001CBDF0B589B040F2E73006900320ADF89A
:1028E000140000263E4FADF81C60ADF8166005A937
:1028F0003846FEF7F1FA60203A4DADF800000124A9
:10290000ADF8024028880290ADF80C606946384660
:10291000FEF764FB08213846FEF7A1FCADF8024043
:102920006888029069463846FEF784FB08213846DD
:10293000FEF79BFCADF80240A88802906946384635
:10294000FEF7B4FB08213846FEF799FCADF80240CB
:10295000E888029069463846FEF7E2FB08213846CF
:10296000FEF793FC01213846FEF714FB012138469F
:10297000FEF72AFB09B0F0BD10B5FFF77DFFBDE8FB
:102980001040A6E718490968884200DD0846494218
:10299000884200DA0846124A00213C32131D002802
:1029A00002DB106019607047116040421860704788
:1029B0000D490968884200DD08464942884200DA2C
:1029C0000846074A00213432131D002802DB11603B
:1029D0001860704740421060196070470004024060
:1029E00000080040D80000203C00002030B58BB02B
:1029F00001210220FEF701F94020059002208DF808
:102A0000180003218DF8191000248DF81A40354D57
:102A10008DF81B0005A92846FDF70AFF02220621B2
:102A20002846FDF78AFF952008908B20ADF81C0002
:102A30002D4DADF82440ADF81E4007A92846FEF7FD
:102A40004BFA6020ADF800000120ADF802000294BE
:102A5000ADF80C4069462846FEF7C0FA0821284622
:102A6000FEF7FDFB01212846FEF794FA01212846D6
:102A7000FEF7AAFA0BB030BD2DE9F04105461B491F
:102A80008C2068430860184F95202C37386000244C
:102A9000154EA04634360CE03868401CC008306043
:102AA0004620FFF746FCC6F800804620FFF741FCB1
:102AB000641CAC42F0DBBDE8F0810B4A10B52C324F
:102AC0001368094C5B1C9B0834342360084B93FB50
:102AD000F1F18C2391FBF3F1491E11600349086069
:102AE00010BD00000000024000040040E000002093
:102AF00000BD01057CB501210920FEF77EF802200A
:102B00008DF8040001208DF8070048F203002E4CD8
:102B1000009069462046FDF78BFE08202B4D009063
:102B200069462846FDF784FE022200212046FDF773
:102B300004FF022201212046FDF7FFFE01220F21A2
:102B40002046FDF7FAFE012203212846FDF7F5FE97
:102B50001F4C4FF0FF3529462046FEF701FA294663
:102B60004FF080452846FEF7FBF90223002203219F
:102B70002046FEF7D3FD00231A4603212846FEF720
:102B8000CDFD01212046FEF71FFA01212846FEF760
:102B90001BFA7CBD0E482430006870474FF080401F
:102BA000406A70470A4900202431086070474FF09E
:102BB0008041002048627047054924310860704711
:102BC0004FF080414862704700000240000402401C
:102BD000000C004030B501218DB00802FEF717F857
:102BE0008820032500908DF8045000248DF80740BC
:102BF00069463048FDF71CFE8DF8045000958DF8AD
:102C0000074069462C48FDF713FE8DF80450332029
:102C10002A4D00908DF8074069462846FDF708FECA
:102C20004FF48030CDE908404FF47060CDE90A40A0
:102C300008A8FDF7BCFB8DF80C4002948DF80D4000
:102C40000594069401201E4C8DF81C0002A9204614
:102C5000FDF782FB012240F205212046FDF7E2FC50
:102C600001212046FDF7B8FB04211648FDF758FE68
:102C7000A1142846FDF754FEE1142846FDF750FE46
:102C800021152846FDF74CFE0DB030BD10B513469A
:102C900004460122FDF7D3FB2046FDF70AFC022182
:102CA0002046FDF7C8FC0028F9D02046BDE81040BA
:102CB000FDF731BC00000240000402400008024061
:102CC00000200140000C02402DE9F0477B4D04221A
:102CD0000A212846FFF7DAFF794C04220E21E06032
:102CE0002846FFF7D3FF206104220B212846FFF777
:102CF000CDFF606104220F212846FFF7C7FFA061C6
:102D0000FFF701FB6F4F824604213846FDF706FEB0
:102D10006D4E4FF4806841463046FDF7FFFD514649
:102D20003C20FFF719FB04220A212846FFF7AEFFDB
:102D3000E1680422401AE0600E212846FFF7A6FF52
:102D40002169401A206104213846FDF7E9FD41461A
:102D50003046FDF7E5FDE0680027002800DAE7606F
:102D60002069002800DA27615146FA20FFF7F4FABB
:102D70004FF4805949463046FDF7D0FD4FF40068C6
:102D800041463046FDF7CAFD51464FF4AA70FFF7A1
:102D9000E3FA04220B212846FFF778FF6169042239
:102DA000401A60610F212846FFF770FFA169401AA1
:102DB000A06149463046FDF7B3FD41463046FDF778
:102DC000AFFD6069002800DA6761A069002800DAB9
:102DD000A761E26821684FF47A704A4392FBF0F2EF
:102DE000E26022694A4392FBF0F2226162694A433F
:102DF00092FBF0F26261A2694A4392FBF0F0A0619B
:102E0000BDE8F0872DE9F04128262D4C00202B4FFE
:102E10000546E061042207213846FFF737FFE169E4
:102E20006D1C0844E061B542F4DB4CF2503191FB7B
:102E3000F6F0E2695043254A104490FBF1F040005F
:102E4000E061216A08442062BDE8F08110B50422E7
:102E500003211A48FFF71AFF194C606003F07DFC4C
:102E60009FED1B1B53EC112B03F0F0FA03F046FC13
:102E7000A06010BD10B5FFF7E9FF114841F65831C9
:102E80008068884218DA104C04212046FDF746FD80
:102E900008212046FDF742FD0F4C20212046FDF77A
:102EA0003DFD10212046FDF739FDBDE810404FF4EF
:102EB0007A71C820FFF701BE10BD0000002001405C
:102EC000E4000020000C024000080240546EBCF9EF
:102ED000AC1C5A643BDFD33F00000240FF4FDFF8D9
:102EE00000840D4606464FF47A7900BFFFF70BFACF
:102EF0000446FFF7E9FE3868301AFFF743FDD8F8BB
:102F00000000281AFFF754FD21464846FFF724FA2F
:102F1000ECE710B5F148F349F34C006809688842C2
:102F20004FF00801204602DDFDF7F8FC01E0FDF757
:102F3000F7FCEE48EE490068096888424FF004014A
:102F4000204602DDFDF7EAFC01E0FDF7E9FCE94877
:102F5000E949EA4C0068096888424FF010012046B0
:102F600002DDFDF7DBFC01E0FDF7DAFCDC48E449BB
:102F70000068096888424FF02001204603DDBDE863
:102F80001040FDF7CBBCBDE81040FDF7C9BC70B5E3
:102F90000D460446FFF70BFEFFF704FE2046FFF741
:102FA000F1FC2046FFF704FD2846FFF7C2F9002098
:102FB000FFF7E8FC0020FFF7FBFC6420FFF7B9F9FE
:102FC000FFF7E8FD0446FFF7E9FD201A70BD1CB5C8
:102FD0000020CC49CC4A8246087001211170CB49AF
:102FE00007468346087080460546009004460190D7
:102FF000C7484FF001090168C6480160C648C74A82
:103000000068126809FB00F18E1ABAF1000F2ED188
:1030100086422CDCC2484FF0010AC24A80F800A068
:1030200000201070C04880F800A02DB9022C03D0F9
:10303000032C01D0042C14D1304600F03CFFBB48D7
:10304000D0ED000ABA48B8EEE01AD0ED000A00F060
:1030500019FFB848D0ED000AB4EEE00AF1EE10FA1C
:1030600001D2AB4800E0B1480168AA48016057B9F5
:10307000A948006800EB4000C11700EB9170B6EB67
:10308000A00F00DC012737EA080002D0A449012084
:103090000870BBF1000F38D19F48006800EBD0707A
:1030A000B6EB600F31DC8D488E494FF0010B0068A4
:1030B0000968884205DC8A489149006809688842A5
:1030C00000DD012589488A4900680968884201DDD8
:1030D000012000908748884900680968884201DD1E
:1030E00001200190FFF722F900F00304641C012C79
:1030F0000FD0022C10D0032C10D0042CF2D1009849
:1031000005EA000101980142ECD0B8F1000F09D0A6
:1031100012E0002DE6D1F8E7009800E001980028C1
:10312000E0D1F2E77C480068C11700EB9170B6EB84
:10313000A00F05DC4FF0010815B179490020087097
:10314000002E0ADD654801684FF4FA60814204DC14
:103150006349096881427FF751AF09F101093DB127
:1031600075480268754801687548006800F0CCFC35
:10317000022C04D0032C04D0042C04D007E07148A6
:1031800002E0714800E07148006800F0A9FB4FF0D0
:10319000000A5746D346D0465546CDF800A0CDF894
:1031A00004A02BE72DE9F05F69496A48DFF8A8A180
:1031B0000A684FF0FC0902EB420300EB031CDAF84B
:1031C00000004F464E465CF820404D460CEB800C0C
:1031D0000B2A01DADCF830900B2801DADCF80470F5
:1031E000002801DD5CF8306C002A01DD5CF8045C2D
:1031F000DFF868A18B460AEB031151F8200000F0BC
:10320000A7FFDFF85C8140B9611E894505D14E21D9
:1032100088F800100520BDE8F09FDBF80000DFF81B
:1032200038A100EB40014D48D94600EB0111DAF816
:10323000000051F8200000F08EFF38B9601E874270
:1032400004D1452188F800100620E4E7CB46D9F8E0
:103250000000DFF8089100EB400109EB0110DAF8FB
:103260000010574650F8210000F078FF38B9601E72
:10327000864204D1532188F800100720CBE7DBF801
:10328000000000EB400109EB0110396850F8210003
:1032900000F067FF38B9641EA54204D1572188F8B1
:1032A00000100820B7E70020B5E72DE9F0412B4FCB
:1032B000002606EB4600002407EB001555F8240015
:1032C00000F052FF40B955F824000B2E40F00F00DB
:1032D00045F824004CDA45E064E00000F0000020EE
:1032E000F40000209800002000080240F8000020B0
:1032F000A0000020FC000020A400002000000240EC
:103300009C0000202A000020930000209400002050
:1033100058000020100100208800002088010020B3
:103320002800002090000020290000205C000020E0
:10333000080100205401002044000020B4000020B7
:10334000B000002060000020640000206800002021
:1033500014000020F003002010000020B001002025
:103360002400002005EB8400016B41F0040101639F
:10337000002E06DD05EB840050F8301D41F0010100
:1033800001600B2C05DA05EB8400416841F008016F
:103390004160002C06DD05EB840050F8041D41F06F
:1033A00002010160641C0C2C88DB761C0C2E80DB77
:1033B000BDE8F0812DE9F04F4FF0010AE5B0544629
:1033C000FE4880F800A000F02BFDFD484FF4C871C6
:1033D0000470684602F09DFCFA490024FB4D0C6025
:1033E000F9494FF04E0BA0460C6085F800B0FFF78E
:1033F0005CFF01F08FF800F072FF0027A9469DE006
:1034000099F800004E280AD045282BD053284BD0DD
:1034100057286CD089E0641C401C286002E0EA4D0B
:10342000E84E286800EB4001E94800EB01113068E4
:1034300051F8200000F08CFE002876D12868E5497C
:1034400000EB400201EB0212316802EB810352F8FB
:1034500021101B6B491E8B42DDD066E0641C401CB2
:10346000286001E0D74DD84E306800EB4001D848C5
:1034700000EB0110296850F8210000F06CFE88BBB9
:10348000306800EB4001D34800EB0111286801EBE4
:10349000800251F820105268491E8A42DED044E072
:1034A000641C401E286002E0C74DC64E286800EB31
:1034B0004001C74800EB0110316850F8210000F0CE
:1034C0004DFE78B92868C34900EB400201EB0212B7
:1034D000316802EB810352F8211053F8303C491E49
:1034E0008B42DDD021E0641C401E286001E0B54D18
:1034F000B54E306800EB4001B54800EB011029687B
:1035000050F8210000F02DFE78B9306800EB400142
:10351000B04800EB0111286801EB800251F820103F
:1035200052F8042C491E8A42DDD0AB4840F82740AF
:10353000FFF738FE4DF8270000247F1C00F01AFE2C
:1035400000283FF45DAFA54989F800B0002481F858
:1035500000A0A14D2FE000BF00F0C5FCFFF7B4FBB9
:103560009F48A0490068096888420DDD9E489F4930
:1035700000680968884207DD9D4802689D48016827
:103580009D48006800F0C0FA5DF82400052806D0C8
:10359000062807D0072808D0082809D00AE000F03C
:1035A0003BFD07E000F059FD04E000F077FD01E08D
:1035B00000F093FD641C55F824000028CCD180480D
:1035C000444680F800800020FFF7DCF90020FFF778
:1035D000EFF90320FFF750FA7848047065B0BDE8B2
:1035E000F08F2DE9F04FE5B04FF4C871684602F056
:1035F00090FBDFF8D0B10024734D744ECBF800403F
:103600004FF04E0A2C60A04686F800A0FFF74DFE52
:1036100000F080FF00F063FE0027B1469AE000BF93
:1036200099F800004E280AD045282AD0532849D0BE
:10363000572869D085E0641C401C286001E0286898
:103640005E4600EB4001624800EB0111306851F822
:10365000200000F07DFD002873D128685D4900EB53
:10366000400201EB0211326801EB820351F8221093
:103670001B6B491E8B42DED063E0641C401C306033
:1036800000E05E46286800EB4001514800EB011164
:10369000306851F8200000F05EFD80BB286800EB28
:1036A00040014C4800EB0111306801EB800251F8F9
:1036B00020105268491E8A42DFD042E0641C401E3E
:1036C000286001E028685E4600EB4001404800EBBE
:1036D0000110316850F8210000F040FD78B92868E9
:1036E0003C4900EB400201EB0212316802EB81031E
:1036F00052F8211053F8303C491E8B42DED020E0B6
:10370000641C401E306000E05E46286800EB40010B
:103710002F4800EB0111306851F8200000F021FD26
:1037200078B9286800EB40012A4800EB01113068A5
:1037300001EB800251F8201052F8042C491E8A42F5
:10374000DED0254840F82740FFF72CFD4DF8270034
:1037500000247F1C00F00EFD00283FF461AF89F8C3
:1037600000A0DFF858A04FF001094D468AF80090FC
:1037700000F056FB194E444686F80080DFF8408082
:1037800088F8005000F0F7FB35700025DFF86CB0CA
:10379000114F56E0401E00F0A6FBFFF795FA1048C7
:1037A000104900680968884230DD0F480F490068F9
:1037B000096888422ADD0E48026821E09400002052
:1037C0002900002010000020140000202400002008
:1037D000B0010020F0030020300600202800002067
:1037E000F0000020B8000020F4000020BC00002001
:1037F00044000020B4000020B0000020950000200C
:10380000314801683148006800F07EF98BF800907B
:103810005DF82500052806D0062807D0072808D01F
:10382000082809D00AE000F0F7FB07E000F015FCDB
:1038300004E000F033FC01E000F04FFC8BF80040A6
:103840006D1C57F825000028A4D1347000F093FBBC
:1038500088F800400020FFF795F80020FFF7A8F84F
:103860000320FFF709F98AF80040B7E670B5184859
:1038700018491A4C006800EB400001EB0010164993
:10388000096850F8215020784E2803D1284600F0CE
:103890005FFCA0B92078452803D1284600F05BFCE6
:1038A00068B92078532803D1284600F057FC30B976
:1038B0002078572805D1284600F053FC08B1012094
:1038C00070BD002070BD0000B4000020B0000020DA
:1038D00014000020B001002010000020240000206F
:1038E0002DE9F05F0546774800242DED028B7649DF
:1038F0000470012008707548DFF8D491DFF8D4A176
:10390000046099ED000AFDEEC08A9AED000ABDEE52
:10391000C08A9FED710A89ED000A8AED000AFEF760
:1039200005FD6E4E074600BFFEF700FD3168C01B67
:103930008842F9D3FEF7FAFC07466948A346002DF2
:103940000460684C80460DDC1DE06748006840421A
:103950002060FEF7EBFCC01BB0F57A7F17D8012082
:10396000FEF7E7FCD8F80000A842EEDB0FE05E4867
:10397000006820600120FEF7DCFCFEF7D7FCC01BCE
:10398000B0F57A7F03D8D8F80000A842EFDCB8EE93
:10399000E80AC4F800B089ED000AB8EEC80A8AED5A
:1039A000000AFEF7C3FC0446FEF7C0FC3168001BAA
:1039B0008842F9D3444901200870BDEC028BBDE870
:1039C000F09F2DE9F0473F480026DFF8FC800670A5
:1039D000464801253D4988F8005000680860FEF718
:1039E000A5FC434F044600BFFEF7A0FC3968001B4E
:1039F0008842F9D33F483B4F006840423860FEF7A9
:103A000095FC0446DFF8F090DFF8F0A0FEF78EFC9E
:103A1000011BD9F80020DAF8000010448142F5D3E8
:103A20003E60FEF783FC0446354E364FFEF77EFCC3
:103A300031683A68001B11448842F7D388F8005077
:103A4000BDE8F0872DE9F0471E480026DFF87880B2
:103A50000670264801251D4988F800500068086056
:103A6000FEF764FC0446224FFEF760FC3968001B39
:103A70008842F9D31F481B4F00683860FEF756FC98
:103A8000DFF87490DFF874A0044600BFFEF74EFC28
:103A9000011BD9F80020DAF8000010448142F5D368
:103AA0003E60FEF743FC0446154E164FFEF73EFC03
:103AB00031683A68001B11448842F7D388F80050F7
:103AC000BEE700002800002029000020100100208F
:103AD000580100205C0100200000C842480000207E
:103AE0000401002014010020540000205C0000208C
:103AF0007400002070000020780000207C0000206E
:103B000080000020840000202DE9F74FDFF87C9032
:103B10001F490120D9F800600968C9F800101D4943
:103B2000904608701C4900200870FEF7FFFB054610
:103B3000DFF868A0DFF868B01A4F15E0FEF7E3FB86
:103B400004460098DAF80010401AFEF71BFF0198AF
:103B5000DBF80010401AFEF72BFF00BFFEF7D3FB87
:103B60003968001B8842F9D3FEF7E0FB411B414551
:103B7000E4D30D480068FFF723F80C480068FFF70E
:103B80001BF8C9F80060BDE8FE8F00003C00002073
:103B9000400000202800002029000020F000002024
:103BA000F400002044000020680100206C01002087
:103BB00030B5FE480168FE480468FE48FE4AA1424E
:103BC0000368FE48006803DD984201DD451A9560F0
:103BD000A14202DDFA48006803E0984203DDF9499A
:103BE0000968401A00E00020906030BD70B5F24CCA
:103BF000F14D803CD4E91C010A18091AC4E90421DA
:103C0000F1482B69006890FBF3F0F04B1B782BB95F
:103C1000EF4B1B780BB1084600E0084400EE102A79
:103C2000D4ED000AB8EEC00A30EEC00AD4ED080A9E
:103C300030EE200A84ED080A00EE100AD4ED010AE5
:103C4000E448B8EEC00A30EEC00AD4ED090A30EEFE
:103C5000200A84ED090A007878B1FFF7A9FFD5E9B9
:103C6000020190FBF1F000EE100AD4ED090AB8EE63
:103C7000C00A30EE800A84ED090AD4ED080A94EDFA
:103C80000E0A94ED0A1AD4ED0F1A20EE200A30EE37
:103C9000C11A04F1280301EE810ABDEEC00A10EE3C
:103CA000101A216394ED091A94ED100AD4ED0B1A41
:103CB00094ED112A20EE010A71EE611A02EE210A3A
:103CC000BDEEC00A10EE102A6263881AC3EC020A25
:103CD0001144C4E91601FEF755FEE06DBDE87040E1
:103CE000FEF766BEB448B0EE001A803890ED020AC6
:103CF000D0ED000AB8EEC02ADFEDB71AF4EEC20A22
:103D0000F1EE10FA11D290ED122A22EE011A81EE94
:103D1000212AB8EEC01A72EE200AC0ED000AF4EEB5
:103D2000C10AF1EE10FA18DC1BE0B8EEC02AF4EE7E
:103D3000C20AF1EE10FA14DD90ED132A22EE011AF8
:103D400081EE212AB8EEC01A70EEC20AC0ED000A58
:103D5000F4EEC10AF1EE10FA03D2B8EEC00A80ED1B
:103D6000000A90ED030AD0ED010AB8EEC01AF4EE95
:103D7000C10AF1EE10FA12D290ED141A70EE810A17
:103D8000B8EEC01AC0ED010AF4EEC10AF1EE10FA65
:103D900004DD00BFB8EEC00A80ED010A7047B8EE3E
:103DA000C01AF4EEC10AF1EE10FAF7DD90ED151A23
:103DB00070EEC10AB8EEC01AC0ED010AF4EEC10AF5
:103DC000F1EE10FAE6D3704770B5FEF7E7FE7A4CD5
:103DD000803C2066FEF7DEFE226EA16E511A21673E
:103DE000E36EC4E91A20C31ACD1805EBD5756D1022
:103DF000C4E91D3511441844C4E9181008446E493B
:103E000000EBD07040100860E06F401BE06770BDB1
:103E100010B5FFF7D9FFFFF765FFBDE81040E5E6F5
:103E200010B56C48002404706C4804702046FEF7FE
:103E3000A9FD0020FEF7BCFD9FED690A5E485E49C2
:103E4000803880ED060A80ED070A80ED000A80EDDB
:103E5000010A8460C46080ED080A80ED090A80EDE3
:103E60000A0A80ED0B0A8466C466046644660C6028
:103E70004C608465C465C467FEF799FEBDE81040D8
:103E8000FEF790BEB5EEC00AF1EE10FA01D8B7EE1B
:103E9000000A60EEA00A41EE410A80EE801AB4EEFC
:103EA000000A21EE000AB5EEC00AF1EE10FA01D2C6
:103EB000B1EE400A704700EE100A4A48F8EEC00A18
:103EC00090ED001A80EE810A70474648D0ED000A56
:103ED00020EE200A7047B5EEC00AF1EE10FA01D2CA
:103EE000B1EE400A70472DE9F047DFF8E89004464C
:103EF0003A49012089F800000870FEF74FFE054698
:103F0000FEF748FE284400EBD0702B494310364D95
:103F1000364A8039284E22E0DF1B04FB007700EB95
:103F2000D070B7EB600F03DA4FF0000C89F800C0D7
:103F30003846FFF7C0FFD2ED000AB8EEE01AD1ED27
:103F4000000AFFF79FFFD1ED130AB4EEE00AF1EE8D
:103F500010FA02D22648006800E0106888603768CE
:103F60002868A7EB030C04FB00F8C445D4DB1068F9
:103F70008860BDE8F0872DE9F041164901201B4C0F
:103F8000087016490C4D0870803D2068A860FEF747
:103F900005FE0646FEF7FEFD304400EBD0704610ED
:103FA000DFF84480FEF7FAFD074623E0F800002022
:103FB000C0000020C400002088010020FC00002078
:103FC000A8000020AC00002000010020910000208B
:103FD00092000020280000200000C8422900002094
:103FE000000000008C000020880000205C00002001
:103FF0004C000020FEF7CEFDD8F80010384401EB4D
:10400000D17106EB610100EBD070B1EB600F20685D
:10401000A860C7DCBDE8F08110B5484C20784E2878
:1040200018D047495728097804D0452808D0532884
:104030000CD00FE011B1FFF7C4FC0BE0414806E0E3
:1040400011B1FFF7FFFC05E03F4800E03F48006882
:10405000FFF746FC4E20207010BD10B5374C384994
:10406000207809784E2806D057280AD0452812D043
:10407000532808D00FE011B1FFF7A3FC0BE0314843
:1040800006E0324804E011B1FFF7DCFC03E02E4803
:104090000068FFF725FC4520207010BD10B5274CA7
:1040A00021784E2906D026485729007804D0452982
:1040B00008D00FE025480AE010B1FFF7C3FC09E083
:1040C000214804E010B1FFF77CFC03E01D480068C4
:1040D000FFF706FC5320207010BD10B5174C18498F
:1040E000207809784E2806D0572814D0452808D0C3
:1040F000532808D00FE011B1FFF7A4FC0BE01248E1
:1041000006E0124804E011B1FFF75BFC03E00D4844
:104110000068FFF7E5FB5720207010BD07480078C6
:104120004E2806D0452805D0532804D0572803D15F
:1041300093E7B3E7D1E76FE7704700002400002062
:10414000950000206400002060000020680000202E
:1041500000F001007047C0F340007047C0F38000DA
:104160007047C0F3C0007047C0F300107047C0F341
:104170004010704749480168052901D0062906D139
:10418000474802684748052A03D0062A03D0002082
:104190007047052911D0D430036B43F00C0303633F
:1041A000036843F001030360C36A43F00203C36280
:1041B000D438062A01D1052913D000F59870062AB3
:1041C000436843F009034360436B43F004034363D4
:1041D000036843F002030360A0F5987001D106293B
:1041E00013D000F59C70052A036843F003030360B5
:1041F000036B43F004030363436843F00803436025
:10420000A0F59C7001D106290CD0D830016B41F08B
:1042100004010163016841F001010160416B41F05B
:1042200008014163012070471C481D490068096866
:10423000084301D00020704701207047194A01EB64
:10424000410110B502EB011252F820206FEA02047E
:10425000154AE30702EB011101EB800104D0086B62
:10426000A20703D4FC2302E0FC20F9E74B686207B5
:1042700001D4FC2201E051F8302C240701D4FC21A8
:1042800001E051F8041C834200DA1846824200DA49
:104290001046814200DA084610BD000010000020E0
:1042A00014000020B0010020F00300202DE9F041AF
:1042B000474F0B2505EB4500002407EB001600BF18
:1042C00056F8241043A001F0DDFA641C0C2CF7DB37
:1042D00041A001F0D7FA6D1EECD5BDE8F0812DE9C3
:1042E000F05FDFF8F8B0DFF8E890DFF8F4A00B2516
:1042F00005EB4507002409EB071600BF56F824001C
:10430000FFF726FF08B137A000E038A001F0BAFAA5
:10431000641C0C2CF2DB37A001F0B4FA2EA001F0E3
:10432000B1FADFF8D480002456F82400FFF719FF13
:1043300008B132A000E032A001F0A4FAD8F80000E1
:10434000854216D12F480068844212D19BF80000A4
:104350004E2806D0452806D0532806D0572806D028
:104360001BE029A00BE029A009E029A007E029A073
:1043700005E056F82400FFF7FAFE18B126A001F078
:1043800081FA0AE056F82400FFF7EEFE0AEB071068
:1043900050F824100FA001F075FA641C0C2CC3DB3C
:1043A00016A001F06FFA0CA001F06CFA6D1E9FD5FB
:1043B00000240CA001F066FA641C0C2CF9DB0DA0A3
:1043C00001F060FABDE8F05F03A001F05BBA000005
:1043D000B0010020253364000A0D000024000020F5
:1043E000F00300202B2D2D2D000000002B2020207D
:1043F000000000002B000000140000207C000000E2
:104400002000000010000020205E2000203E200040
:1044100020762000203C20002078200030B52D4858
:10442000016841F00E010160416841F00C014160FA
:104430005FF0000100EB8102491CD2F810320C2918
:1044400043F00103C2F81032F4DB002101EB41021A
:1044500000EB0212491CD36A0C2943F00203D36219
:10446000F4DB002150F8212042F0040240F8212022
:10447000491C0C29F6DB002101EB410200EB021282
:10448000491C13680C2943F008031360F4DB0A216C
:10449000114C002202EB4203002004EB031300BF87
:1044A00043F82010052801DA491E03E0851F052D79
:1044B00000D2491C401C0C28F2DB052A01DA491EF7
:1044C00003E0901F052800D2491C521C0C2AE1DB96
:1044D00030BD0000B0010020F0030020F748017853
:1044E000F7484E29006806D0452907D0532908D03F
:1044F000572909D00AE005280AD007E0062807D086
:1045000004E0072804D001E0082801D0012070470A
:10451000002070472DE9F04190260025E94F02E088
:1045200000252C4608E00024052D01D0062D03D1DE
:10453000052C18D0062C14D029462046FFF77EFE05
:1045400005EB450107EB0111401C41F82400641CF8
:104550000C2CE9DB6D1C0C2DE5DB761EE0D5BDE8EF
:10456000F0810724E0E70624DEE7F0B5D348D64A19
:10457000D6490778D6481678D64A0478D7480D78B1
:104580001368D54903EB4302006801EB021202EB0A
:1045900080014E2F32D0452F5BD0532F7ED0572F26
:1045A0002BD16EB152F82060002846F0080642F880
:1045B000206005DD51F8046C46F0020641F8046CF9
:1045C0006DB152F82050002B45F0040542F8205000
:1045D00005DD51F8305C45F0010541F8305C002CF8
:1045E0000BD052F820400B2B44F0010442F820403D
:1045F00003DA086B40F004000863F0BD5EB152F8C6
:1046000020600B2B46F0010642F8206003DA0B6BAA
:1046100043F004030B636DB152F82030002843F0DF
:10462000080342F8203005DD51F8043C43F0020352
:1046300041F8043C002CE0D052F820300B2843F025
:10464000020342F82030D8DA486840F00800486099
:10465000F0BD5EB152F820600B2846F0020642F829
:10466000206003DA4E6846F008064E605DB152F8ED
:1046700020500B2B45F0010542F8205003DA0D6B5A
:1046800045F004050D63002CE2D052F82040002BC9
:1046900044F0040442F82040DADD00E004E051F880
:1046A000300D40F0010029E06EB152F82060002B7F
:1046B00046F0040642F8206005DD51F8303C43F036
:1046C000010341F8303C5DB152F820300B2843F033
:1046D000020342F8203003DA4B6843F008034B60D2
:1046E000002CB5D052F82030002843F0080342F8DF
:1046F0002030ADDD51F8040D40F002000860F0BD3F
:104700002DE9FE4F764901200870FFF789FB002450
:10471000DFF8C8A1DFF8BCB16849CAF800404E20F4
:10472000CBF8004008706C4801252746A046264675
:10473000A1460068FFF718FD90B9DBF8000000EB18
:104740004001654800EB0111DAF8000051F8202023
:1047500042F0100241F8202062480168491C0160C3
:1047600061486249006808609AE26148614A0068ED
:10477000126805FB00F18C1A4FBB84423DDC5E4998
:104780005E4A01270F701770DBF8000000EB400154
:104790004C4800EB0111DAF8000051F82000FC2829
:1047A0000BDB4749002008601070FEF7EBF8002093
:1047B000FEF7FEF80A20FEF75FF9404800784E2821
:1047C00006D045280AD053280CD0572810D014E022
:1047D000DBF80000401CCBF800000EE0DAF8001017
:1047E000491C08E0DBF80010491ECBF8001004E07B
:1047F000DAF80010491ECAF80010B8F1000F1DD1F8
:104800003B48006800EB4000C11700EB9170B4EB2F
:10481000A00F13DC3A483B494FF0010800680968D3
:10482000884202DD2949012008703748374900686D
:104830000968884202DD264901200870002E70D1E7
:104840002B48006800EBD070B4EB600F69DC304897
:104850003049012600680968884208DD2E482F4942
:1048600000680968884202DD174901200870FFF7D7
:104870007CFEDBF80010DAF80000FFF7DFFCDBF865
:104880000010401C01EB41020E4901EB0212DAF864
:10489000001042F82100FFF73DFEDBF8000000EBBE
:1048A00040010D4800EB0111DAF8000051F820003A
:1048B000FFF74EFCA0B34FF4FA703FE02400002055
:1048C00020000020F00300201C0000201D0000201C
:1048D0001E00002014000020B00100201000002065
:1048E0009300002018000020580000201001002034
:1048F00088000020880100202800002029000020D6
:10490000F8000020A0000020FC000020A4000020EF
:10491000F000002098000020F40000209C000020FF
:1049200000E02DE1DBF8000000EB4001FE4800EB69
:104930000111DAF8000001EB8000006B0290DBF857
:10494000000000EB4001F94800EB0111DAF800002B
:1049500051F82000FFF7FFFB10B14FF4FA700BE0A5
:10496000DBF8000000EB4001EF4800EB0111DAF842
:10497000000001EB800040680190DBF8000000EBD4
:104980004001EA4800EB0111DAF8000051F820007C
:10499000FFF7E4FB10B14FF4FA700CE0DBF8000015
:1049A00000EB4001E04800EB0111DAF8000001EBF8
:1049B000800050F8300C0090DBF8000000EB400164
:1049C000DA4800EB0111DAF8000051F82000FFF797
:1049D000C8FB10B14FF4FA700CE0DBF8000000EBFC
:1049E0004001D14800EB0111DAF8000001EB800032
:1049F00050F8040CDDE90121914207DA0A460099DA
:104A00008A4203DA824201DA052020E0DDE9012151
:104A10008A4207DA1146009A914203DA814201DAAA
:104A2000062014E0DDE90012914206DA029A914272
:104A300003DA814201DA072009E00199884209DAA4
:104A40000099884206DA0299884203DA0820B849B8
:104A5000086095E0B74800784E280ED1DBF80000DA
:104A600000EB4001B14800EB0111DAF8000051F809
:104A70002000FFF76DFB0028C6D0AE48007845281F
:104A80000ED1DBF8000000EB4001A84800EB01115B
:104A9000DAF8000051F82000FFF75DFB0028BFD0D6
:104AA000A448007853280ED1DBF8000000EB400149
:104AB0009E4800EB0111DAF8000051F82000FFF7E2
:104AC0004DFB0028B7D09B48007857280ED1DBF863
:104AD000000000EB4001954800EB0111DAF80000FE
:104AE00051F82000FFF73DFB0028AFD0DBF80000B5
:104AF00000EB40018D4800EB0111DAF8000051F89D
:104B00002000FFF725FB0028B6D0DBF8000000EB03
:104B10004001864800EB0111DAF8000051F820004E
:104B2000FFF719FB0028BAD0DBF8000000EB4001CA
:104B30007E4800EB0111DAF8000051F82000FFF781
:104B40000DFB0028BED0DBF8000000EB40017748E9
:104B500000EB0111DAF8000051F82000FFF701FB2B
:104B60000028C2D0724800210160734801700846D5
:104B7000FDF708FF0020FDF71BFF0A20FDF77CFF73
:104B80006E48006800EBD070B4EB600F00DC0126CB
:104B90006B48007810B9FFF7A1FC08B32046FFF777
:104BA0008AF96848D0ED000A6748B8EEE01AD0EDFF
:104BB000000AFFF767F96548D0ED000AB4EEE00A95
:104BC000F1EE10FA04D2624801686248016003E025
:104BD0005C48604900680860B9F1000F02D00BE042
:104BE0005B48F6E755480068C11700EB9170B4EBDD
:104BF000A00F07DC4FF001095148007810B156486A
:104C000000210170002C4BDCDBF80000474E00EB6C
:104C10004000DAF8001006EB00106D1C574650F803
:104C20002100FFF7A1FA80B9DBF8000000EB40009B
:104C300006EB0011386851F8202042F0100241F8CC
:104C4000202046480168491C01603D48007838B181
:104C5000434802684348016843480068FEF754FF30
:104C600033480068052806D0062807D0072808D052
:104C7000082809D00AE0FFF7CFF907E0FFF7EDF9C0
:104C800004E0FFF70BFA01E0FFF727FA2C490027B1
:104C9000B8460F7035493E46B9460F7034490F701B
:104CA000FFF768FA00283FF460ADDFF8A090DFF866
:104CB000A480244F0026002C26DD2048006800EB4D
:104CC000D071B4EB610F01DA23490E7029496843B2
:104CD0000968441A2046FFF7EEF8D7ED000A1A4893
:104CE000B8EEE01AD0ED000AFFF7CCF8D9ED000AD3
:104CF000B4EEE00AF1EE10FA02D21548016800E0C5
:104D00003968C8F80010D6E7DBF80000074D00EB63
:104D1000400005EB0011DAF800005C46574651F8F8
:104D20002000FFF721FA27E0F0030020B001002067
:104D300020000020240000202900002088000020FE
:104D40001C0000205C00002008010020540100200D
:104D5000580000201001002028000020180000202A
:104D600044000020B4000020B00000201D000020FE
:104D70001E0000208801002078B92068396800EB07
:104D8000400005EB001050F8212042F0100240F8DE
:104D90002120FE480168491C0160FD480670002082
:104DA000FDF7F0FD0020FDF703FEFFF798FA032062
:104DB000FDF762FEF7480670BDE8FE8F2DE9F04171
:104DC000DFF8D4839026002404EB4400002508EB90
:104DD000001700BF54EA050006D021462846FFF719
:104DE0002DFA401C47F825006D1C0C2DF2DB641CCD
:104DF0000C2CE9DB761EE6D5BDE8F0812DE9FE4FEF
:104E0000E44801210170FFF70BF801250024DFF8C9
:104E100088832746A1462646A2462046002200EB6C
:104E2000400C114608EB0C1302EB000C43F821C0B8
:104E3000521C491C0C29F7DB401C0C28EEDBFFF749
:104E4000BDFFFFF76BF9D5480168D54801600CE359
:104E5000DFF850B3D449DBF80000096805FB00F225
:104E6000541A47BB84422DDCD0490127D0480F702B
:104E7000C7490F70006800EB4002CE4808EB0212F1
:104E8000006852F82000FC280BDBCB4A00201060A1
:104E90000870FDF777FD0020FDF78AFD0A20FDF779
:104EA000EBFDC64800784E2806D0452806D053288A
:104EB0000CD057280CD005E0BD4800E0BD48016883
:104EC000491C0160B9F1000F06D023E0B84800E0AA
:104ED000B8480168491EF4E7DBF8000000EB400029
:104EE000C11700EB9170B4EBA00F13DCB448B549C7
:104EF0004FF0010900680968884202DDB2490120CB
:104F00000870B2480168B2480068814202DDB148C9
:104F100001210170002E76D1DBF8000000EBD0708B
:104F2000B4EB600F6FDCAC48AC490126006809683F
:104F3000884208DDAA48AB4900680968884202DD5A
:104F4000A94901200870FFF710FB994801689948AA
:104F50000068FFF773F99649401C096801EB4102AC
:104F6000944908EB0212096842F82100FFF726FF76
:104F70008F48006800EB40019C4800EB01118D4810
:104F8000006851F82000FFF7E3F810B14FF4FA7011
:104F90000AE08748006800EB4001864808EB0111F1
:104FA000006801EB8000006B02908148006800EB14
:104FB00040018E4800EB01117E48006851F8200046
:104FC000FFF7C9F810B14FF4FA700AE078480068AA
:104FD00000EB4001774808EB0111006801EB80000D
:104FE000406801907248006800EB40017F4800EB88
:104FF00001117048006851F82000FFF7AFF818B1B0
:105000004FF4FA700CE09EE16948006800EB400143
:10501000684808EB0111006801EB800050F8300C83
:1050200000906348006800EB4001704800EB0111FC
:105030006048006851F82000FFF793F810B14FF472
:10504000FA700BE05A48006800EB4001594808EB41
:105050000111006801EB800050F8040CDDE9011239
:105060008A4207DA1146009A914203DA814201DA54
:1050700005201FE0DDE90112914206DA009A914213
:1050800003DA814201DA062014E0009A8A4207DA44
:105090001146029A914203DA814201DA072009E0BF
:1050A0000199884209DA0099884206DA0299884211
:1050B00003DA08204049086045E13D48006800EBFC
:1050C00040014A4800EB01113A48006851F82000BD
:1050D000FFF73EF878B93648006800EB40014348D6
:1050E00000EB01113348006801EB8000006BFFF713
:1050F0003BF80028BCD02E48006800EB40013B483C
:1051000000EB01112B48006851F82000FFF723F84D
:1051100078B92748006800EB4001344800EB0111E2
:105120002448006801EB80004068FFF71DF8002864
:10513000A9D01F48006800EB40012C4800EB01118A
:105140001C48006851F82000FFF708F880B918489B
:10515000006800EB4001254800EB0111154800688C
:1051600001EB800050F8300CFEF7FEFF002895D0D0
:105170000F48006800EB40011C4800EB01110D488E
:10518000006851F82000FEF7ECFF31E01800002025
:105190002900002093000020F00300205800002088
:1051A0001001002088000020880100202800002035
:1051B0001400002010000020200000202400002007
:1051C000F8000020A00000201D000020FC000020AE
:1051D000A40000201E000020F00000209800002005
:1051E000F40000209C0000201C000020B0010020E2
:1051F00088B9FE48006800EB4001FD4800EB011152
:10520000FC48006801EB800050F8040CFEF7ACFF8E
:1052100000283FF44EAFF84800784E280FD1F348ED
:10522000006800EB4001F24800EB0111F148006812
:1052300051F82000FEF78CFF00283FF419AFEE482C
:10524000007845280FD1E948006800EB4001E848A4
:1052500000EB0111E748006851F82000FEF77BFFE2
:1052600000283FF410AFE448007853280FD1DF48FE
:10527000006800EB4001DE4800EB0111DD480068EA
:1052800051F82000FEF76AFF00283FF407AFDA4824
:10529000007857280ED1D548006800EB4001D4486B
:1052A00000EB0111D348006851F82000FEF759FFC8
:1052B0000028AED0CD48006800EB4001CC4800EBA0
:1052C0000111CC48006851F82000FEF741FF00288A
:1052D000B3D0C648006800EB4001C54800EB01119F
:1052E000C448006851F82000FEF735FF0028B8D008
:1052F000BE48006800EB4001BD4800EB0111BD480D
:10530000006851F82000FEF729FF0028BDD0B748FB
:10531000006800EB4001B64800EB0111B548006899
:1053200051F82000FEF71DFF0028C2D0B34900202D
:105330000860B3490870FDF725FB0020FDF738FB36
:105340000A20FDF799FBAF48006800EBD070B4EB82
:10535000600F00DC0126DFF8B0B29BF8000010B946
:10536000FFF7BCF8D8B12046FEF7A5FDA748D0ED61
:10537000000AA748B8EEE01AD0ED000AFEF782FD59
:10538000A448D0ED000AB4EEE00AF1EE10FA01D222
:10539000A14800E09D480168A048016003E09E48E4
:1053A0009E4900680860BAF1000F09D1954800686D
:1053B000C11700EB9170B4EBA00F07DC4FF0010AAE
:1053C0009BF8000010B1964900200870002C4CDCBE
:1053D000DFF81892874F864ED9F80000396800EB45
:1053E000400006EB00106D1C50F82100FEF7BCFEDB
:1053F00080B9D9F80000396800EB400006EB0010D6
:1054000050F8212042F0100240F821208548016820
:10541000491C01609BF8000038B18348026883484A
:10542000016883480068FEF76FFB74480068052830
:1054300006D0062807D0072808D0082809D00AE097
:10544000FEF7EAFD07E0FEF708FE04E0FEF726FEA1
:1054500001E0FEF742FE002776498BF80070B9465E
:105460000F7075493E46BA460F70FEF7DDFE002804
:105470003FF4EEACDFF88C91DFF8C0A1DFF890B11B
:10548000DFF89881614F0026002C27DDD9F8000055
:1054900000EBD071B4EB610F01DA61490E7005FBCE
:1054A00000F1DAF800000C1A2046FEF704FDD7EDF3
:1054B000000AB8EEE01ADBED000AFEF7E3FC5548FF
:1054C000D0ED000AB4EEE00AF1EE10FA02D2524832
:1054D000016800E03968C8F80010D5E7434C444D36
:1054E000444F206800EB400005EB0011386851F88C
:1054F0002000FEF739FE78B92068396800EB4000DB
:1055000005EB001050F8212042F0100240F8212055
:1055100044480168491C0160FEF700FE38480670E7
:105520000020FDF72FFA0020FDF742FAFEF7F2FF08
:10553000FEF7D5FE0320FDF79FFA414806703BE4D5
:105540002DE9F047DFF8A890902600255FF00004D1
:1055500055EA040049D0052E01D0062E03D1052DB1
:1055600043D0062D41D005EB450109EB011858F851
:105570002400FEF7EDFD074658F82400FEF7EBFD8A
:10558000074458F82400FEF7E9FD074458F82400C2
:10559000FEF7E7FD3844032827DB58F824000B2DDD
:1055A00040F02F0148F8241005DA08EB8400016B65
:1055B00041F0040101630B2C05DA08EB840041681B
:1055C00041F008014160002D06DD08EB840050F831
:1055D000301D41F001010160002C06DD08EB840064
:1055E00050F8041D41F0020101602BE0140000207E
:1055F000B001002010000020240000202000002026
:1056000029000020880000201C0000205C000020F1
:105610000801002054010020580000201001002043
:10562000280000201800002044000020B4000020C2
:10563000B00000201D0000201E0000208801002076
:1056400093000020641C0C2C82DB6D1C0C2DFFF6DB
:105650007DAF761E7FF579AFBDE8F08709488047BA
:1056600009480047FEE7FEE7FEE7FEE7FEE7FEE744
:10567000FEE7FEE7FEE7FEE704480549054A064B5C
:1056800070470000A1570008890100082008002089
:10569000200E0020200A0020200A0020F0B56D49CD
:1056A00000200A6842F480320A604FF4A0630A685E
:1056B00000F1010012F4003F01D19842F7D10868CF
:1056C000684D5FEA803C644A644B654C664F40F22B
:1056D000056605F104002AD5D2F800C04CF0805CC4
:1056E000C2F800C01A6842F480421A600268026080
:1056F000026842F400420260026842F4A052026072
:105700002C600A6842F080720A600A689201FCD537
:105710003E60016821F003010160016841F002016F
:1057200001600168C1F381010229FAD1F0BDD1F80D
:1057300000C0DFF838E10CEA0E0CC1F800C0D1F867
:1057400000C04CF0010CC1F800C0D2F800C04CF011
:10575000805CC2F800C01A6842F480421A60026895
:105760000260026842F400420260026842F4A05201
:1057700002602C600A6842F080720A600A68920136
:10578000FCD53E60016821F003010160016841F031
:10579000020101600168C1F381010229FAD1F0BD63
:1057A000334810B5016841F470010160294801686F
:1057B00041F0010101602B4A0021121D11600268B5
:1057C0002A4B1A400260031D2A4A1A60026822F41A
:1057D00080220260234808300160FFF75FFF244900
:1057E0004FF000608039086010BD70B51D4C241D5D
:1057F0002068214A10F00C01204804D055100429DB
:1058000003D0082903D002601AE0056018E01549AA
:105810000B68C3F380560B6803F03F0316B1B5FB6A
:10582000F3F201E0B2FBF3F20B680968C3F38813EB
:105830005A43C1F30141491C4900B2FBF1F1016037
:1058400021680E4AC1F30311121D515C0268CA405F
:10585000026070BD003802404038024000700040D5
:105860001054000704380240003C0240FFFFF6FEDF
:1058700088ED00E0103000240024F4009C0100209A
:10588000704700000FB4044910B503AA029800F055
:105890001DFB10BC5DF814FBD000002070B5044661
:1058A00085690068C10601D5302600E02026C007C2
:1058B00008D070BDD4E9012130469047206A00F13C
:1058C000010020626D1EF5D570BD70B50446856976
:1058D0000078C00708D170BDD4E90121202090478D
:1058E000206A00F1010020626D1EF5D570BD70B513
:1058F0000C460546012A05D02878800600D5EA69BD
:10590000002302E0012305E05B1C934202D2E05C2D
:105910000028F9D1A869E618C01AA861286A1844B5
:1059200028622846FFF7BAFF04E0D5E9012114F800
:10593000010B9047B442F8D32846FFF7C6FF70BD6D
:105940002DE9F0410646002410687529314616A558
:1059500011D0AFF30080002803DAC0F1000013A5D6
:1059600007E031688A0701D511A502E0490704D58F
:1059700010A5012401E0AFF3008000210A2306F105
:10598000240707E0B0FBF3F203FB12003030785439
:105990001046491C0028F5D123462A463046BDE86A
:1059A000F04100F021BA0000000000002D000000CE
:1059B0002B000000200000002DE9F0474FF0000A06
:1059C00089460446C0F820A02046E16888470028A0
:1059D00076D0252806D0D4E901219047206A401CC2
:1059E0002062F1E7E168204600258847C4F81CA042
:1059F00006460027C4F818A02A2E09D0304600F029
:105A000007FD38B304EB8708303EC8F8186019E08A
:105A100059F8041B204604EB87029161E16888472E
:105A2000012F064618D1E069002820DA25F020056C
:105A30001DE0D8F8180000EB800006EB400030387D
:105A4000C8F818002046E1688847064600F0E0FCE8
:105A50000028EED1012F0AD02E2E08D12046E16871
:105A600088477F1C0646022F45F02005C4DBA0694D
:105A7000002803DA404245F00105A061E80701D0A3
:105A800025F01005B6B1A6F14100192802D820363C
:105A900045F400654A463146204625604D46FAF7F2
:105AA000CDFB58B1012806D0ED1D25F0070000F10F
:105AB000080989E704E005F1040985E730468AE72B
:105AC000206ABDE8F08700000FB400B589B00BA8CC
:105AD0006A46009003480A9900F018FA09B05DF888
