:020000040800F2
:10000000A80D0020895C0008B1210008B321000878
:10001000B5210008B7210008B92100080000000040
:10002000000000000000000000000000BB210008EC
:10003000BD21000800000000BF210008C121000808
:10004000A35C0008A35C0008A35C0008A35C000894
:10005000A35C0008A35C0008A35C0008A35C000884
:10006000A35C0008A35C0008A35C0008A35C000874
:10007000A35C0008A35C0008A35C0008A35C000864
:10008000A35C0008A35C0008A35C0008A35C000854
:10009000A35C0008A35C0008A35C0008DF21000843
:1000A000A35C0008A35C0008A35C0008A35C000834
:1000B000A35C0008A35C0008A35C0008A35C000824
:1000C000A35C0008A35C0008A35C0008A35C000814
:1000D000A35C0008A35C0008A35C0008A35C000804
:1000E0003B220008A35C0008A35C0008A35C000896
:1000F000A35C0008A35C0008A35C0008A35C0008E4
:10010000A35C0008A35C0008A35C0008A35C0008D3
:10011000A35C0008A35C0008A35C0008A35C0008C3
:10012000A35C0008A35C0008A35C0008A35C0008B3
:10013000A35C0008A35C0008A35C0008A35C0008A3
:10014000A35C0008A35C0008A35C0008A35C000893
:10015000A35C0008A35C0008A35C0008A35C000883
:10016000A35C0008A35C0008A35C0008A35C000873
:10017000A35C0008A35C0008A35C0008A35C000863
:10018000A35C0008A35C000800F002F800F070F81F
:100190000AA090E8000C82448344AAF10107DA45E2
:1001A00001D100F065F8AFF2090EBAE80F0013F0C4
:1001B000010F18BFFB1A43F0010318479C710000A0
:1001C000BC7100000A444FF0000C10F8013B13F022
:1001D000070408BF10F8014B1D1108BF10F8015BA0
:1001E000641E05D010F8016B641E01F8016BF9D193
:1001F00013F0080F1EBF10F8014BAD1C0C1B09D1EA
:100200006D1E58BF01F801CBFAD505E014F8016B5B
:1002100001F8016B6D1EF9D59142D6D370470000ED
:100220000023002400250026103A28BF78C1FBD8FF
:10023000520728BF30C148BF0B607047642905F0E2
:100240009586632906F04C81732906F051810020C0
:1002500070471FB507F043F806F0ECFB04000020E0
:10026000002106F0F3FB401C60601FBD10B510BDFF
:1002700006F0C4F91146FFF7ECFF01F041FC06F06F
:10028000C7FB03B4FFF7F2FF03BC02F0CDF9000097
:100290002749084327490860704770B50F21C47883
:1002A000027801234FF0E026E4B1224C246804F4E4
:1002B000E064C4F5E064C4F30724C4F10405E1403C
:1002C0004478AC4085780D4025431B4C29011155DD
:1002D000007800F01F018B40400906EB8000C0F859
:1002E000003170BD02F01F008340500906EB800012
:1002F000C0F8803170BD114A114001430D48001F04
:10030000016070470B4A121D0029116801D001439A
:1003100000E08143116070474FF0E0210428086934
:1003200003D020F004000861704740F00400FAE7B1
:100330000000FA050CED00E000E400E080FFFF1F84
:1003400010B501210C02204600F093FC2046BDE8C8
:100350001040002100F08DBC30B54268C44B0C79D0
:100360001A400B6842EA0422134343608268C14B7F
:100370004D791A40D1E9034323438C6844EA45048C
:10038000234313438360C26A097D22F47002491E2D
:10039000C9B242EA0151C16230BD00210160017160
:1003A00041718160C1600161012101757047B24BEB
:1003B00010B51A68B1490A40D0E900142143D0E9C8
:1003C0000240044321431143196010BD0021016024
:1003D00041608160C16070470029816802D041F0AE
:1003E000010101E021F00101816070474268A44BE6
:1003F0001A400A4342607047416282627047426815
:1004000022F01F020A43426070479E490028D1F83B
:10041000040302D040F4000001E020F40000C1F821
:100420000403704797490028D1F8040302D040F430
:10043000800001E020F48000C1F80403704770B52B
:10044000072509290AD9C468A1F10A0606EB460660
:10045000B540AC43B3401C43C46007E0046901EB02
:100460004106B540AC43B3401C4304611F23072A37
:1004700009D2446B521E02EB820293409C4391408E
:100480000C43446370BD0D2A09D2046BD21F02EBEA
:10049000820293409C4391400C43046370BDC46A44
:1004A0000D3A02EB820293409C4391400C43C4629C
:1004B00070BD816841F08041816070470146002035
:1004C0008968490200D5012070470029816802D05F
:1004D00041F4806101E021F480618160704700296E
:1004E000816802D041F0020101E021F00201816047
:1004F00070474268491E22F4604242EA413141603D
:1005000070470029416802D041F4006101E021F404
:10051000006141607047C06C80B270475648001D52
:10052000006870470029816802D041F4807101E0C1
:1005300021F48071816070470029816802D041F404
:10054000007101E021F40071816070474D4900287D
:10055000D1F8040302D040F4005001E020F4005030
:10056000C1F80403704770B5072409290AD9C56882
:10057000A1F10A0606EB4606B440A543B3401D436D
:10058000C56007E0056901EB4106B440A543B340EF
:100590001D430561836BC3F30154121B921C02EBD4
:1005A00082041F22A2409343A1400B43836370BD8A
:1005B000826B491E22F4401242EA01518163704766
:1005C00042507047826822F470220A43826070476A
:1005D000826822F440120A4382607047816841F4C5
:1005E000800181607047014600208968490200D57A
:1005F000012070470029416802D041F4806101E088
:1006000021F48061416070470029416802D041F4C3
:10061000805101E021F48051416070470844806AB4
:1006200080B2704701238B4041680AB1194300E052
:100630009943416070470246002012680A4200D088
:1006400001207047C9430160704730B50246002061
:1006500054680B0A01258D4011682C40194202D0C4
:10066000002C00D0012030BD6FEA112101607047DD
:10067000FFFEFFFCFDF7FFC004230140E030FCFF5C
:10068000FFFD3FFF00200140374900200860091DA1
:100690000860091D0860091D08603349334814319A
:1006A0000860704730B530498379026853B30B68EE
:1006B00093430B600A1D13680468A3431360027917
:1006C0000A441368046823431360274A08321368F6
:1006D0000468A3431360131D1C680568AC431C60C9
:1006E0004479102C05D021440A68006802430A604E
:1006F00030BD116804682143116019680068014326
:10070000196030BD0079084401689143016030BD33
:100710000021016001710C22427181717047124900
:1007200010310A6802430A60704701460E4A0020F1
:10073000143212680A4200D0012070470A4914316D
:1007400008607047084A014600201268064B0A40BC
:1007500014331B680B4202D0002A00D001207047DE
:100760000149143108607047003C0140FFFF7F00E1
:100770007A4910B5884206D10121084600F051FAA5
:10078000002101204FE07649884206D10121022054
:1007900000F047FA0021022045E07249884206D164
:1007A0000121042000F03DFA002104203BE06E49C5
:1007B000884206D10121082000F033FA00210820E8
:1007C00031E06A49884206D10121102000F029FA5F
:1007D0000021102027E06649884206D1012120200F
:1007E00000F01FFA002120201DE06249884206D156
:1007F0000121402000F015FA0021402013E05E495D
:10080000884206D10121802000F00BFA00218020CF
:1008100009E05A4988420AD184150121204600F096
:1008200000FA00212046BDE8104000F0FAB910BDE2
:10083000F0B50023012403270D6804FA03F21540E4
:10084000954242D1D0F800C05E0007FA06F52CEAC6
:10085000050CC0F800C091F804C0D0F800E00CFA14
:1008600006FC4CEA0E0CC0F800C091F804C0BCF1C4
:10087000010F02D0BCF1020F1FD1D0F808C02CEA42
:10088000050CC0F808C091F805C0D0F808E00CFAD3
:1008900006FC4CEA0E0CC0F808C0D0F804C02CEAE4
:1008A000020CC0F804C0426891F806C00CFA03FCC0
:1008B0001FFA8CFC42EA0C024260C268AA43C26082
:1008C000CA79C568B2402A43C2605B1C102BB3D3FF
:1008D000F0BD4FF6FF71016000210171417181711E
:1008E000C171704741F48032C261C161C261C169A6
:1008F000C06970470246002012690A4200D00120F8
:100900007047006980B270470246002052690A426F
:1009100000D001207047406980B270470183704762
:10092000418370470AB10183704741837047416139
:10093000704742694A40426170474B07DB0E9A405C
:10094000C90810B500EB8100016A0F249C40A14347
:100950000162016A1143016210BD00000000024003
:100960000004024000080240000C02400010024057
:100970000014024000180240001C02400020024007
:10098000E948016841F001010160E74A00210832AD
:1009900011600268E54B1A400260031DE44A1A60C8
:1009A000026822F480220260DF480C300160704748
:1009B000DD490022891C0A70087070470246002039
:1009C000510901290CD002290CD0D749743109688A
:1009D00002F01F02012393400B4200D00120704718
:1009E000D149F4E7D0497031F1E730B500244FF434
:1009F000A0653120FFF7E2FF641CAC4201D0002863
:100A0000F7D03120FFF7DAFF002800D0012030BDF9
:100A1000C5490A6822F0F80242EAC000086070473F
:100A2000C44908607047C049002270310A700A70DA
:100A3000012802D0042801D1052008707047BE4962
:100A40000860704741EA82115A0810B5BB4B029CFE
:100A500003EB02421143014341EA0460B249091D1C
:100A6000086010BDB34908667047800140EA017014
:100A7000AD49843108607047AE4988667047AD491A
:100A8000C8647047A84A08321368084323F0EC632F
:100A9000184310607047A44A08321368084323F0D3
:100AA00078431843106070479F4A0832116821F05C
:100AB00003010143116070479B480830006800F053
:100AC0000C007047984A0832116821F0F001014388
:100AD00011607047944A0832116821F4E0510143D3
:100AE00011607047904908310A6822F4604242EA76
:100AF000C0000860704770B58B4A08321168904B8F
:100B000011F00C0104D05D10042903D0082903D092
:100B100003601BE0056019E08349091D0C68C4F3FC
:100B200080560C6804F03F0416B1B5FBF4F301E005
:100B3000B3FBF4F30C680968C4F388146343C1F38E
:100B40000141491C4900B3FBF1F1016011687D4B83
:100B500001F0F00109095C5C0168E1404160146842
:100B600004F4E054A40A1C5D21FA04F484601268C1
:100B700002F46042520B9A5CD140C16070BDC0F378
:100B80000121032908D1684A0832116821F4F813B9
:100B90006D49014019431160634970310A68C0F31F
:100BA0000B0002430A60704763494439086070478C
:100BB00061494039086070476449086070475A4A83
:100BC00030320029116801D0014300E081431160F7
:100BD0007047554A34320029116801D0014300E0C2
:100BE000814311607047504A38320029116801D0A2
:100BF000014300E08143116070474B4A40320029B5
:100C0000116801D0014300E0814311607047464AFA
:100C100044320029116801D0014300E08143116092
:100C20007047414A10320029116801D0014300E0A9
:100C30008143116070473C4A14320029116801D089
:100C4000014300E0814311607047374A18320029A0
:100C5000116801D0014300E0814311607047324ABE
:100C600020320029116801D0014300E08143116066
:100C700070472D4A24320029116801D0014300E059
:100C8000814311607047284A50320029116801D011
:100C9000014300E0814311607047234A5432002928
:100CA000116801D0014300E08143116070471E4A82
:100CB00058320029116801D0014300E081431160DE
:100CC0007047194A60320029116801D0014300E0E1
:100CD000814311607047144A64320029116801D0C1
:100CE000014300E08143116070470F4A0D32002933
:100CF000117801D0014300E08143117070470A4828
:100D00007430016841F08071016070470146064A05
:100D100000200C3212680A4200D0012070470249BC
:100D20000E3108707047000000380240FFFFF6FEE9
:100D30001030002400004742800E47420000FFFFB1
:100D40000024F40000000020FFFCFF0F5C0147427C
:100D500010B501218C032046FFF78BFF2046BDE82C
:100D600010400021FFF785BF11490860704710B59A
:100D70008A07130F21F003040F220D499A4008310E
:100D800021440C6894430C600A68984002430A604E
:100D900010BD08490860704707490860704704495A
:100DA000002020310968C90500D5012070470000E6
:100DB00000380140DC00274200042742FE4910B5FC
:100DC000884206D101210846FFF753FF0021012088
:100DD0005BE0B0F1804F09D0F84988420DD1012184
:100DE0000220FFF73CFF0021022070E001210846AD
:100DF000FFF735FF0021012069E0F149884206D163
:100E000001210420FFF72BFF002104205FE0ED49C2
:100E1000884206D101210820FFF721FF0021082088
:100E200055E0E949884206D101211020FFF717FF5C
:100E3000002110204BE0E549884206D10121202005
:100E4000FFF70DFF0021202041E0E149884206D153
:100E500001210220FFF70DFF0021022015E0DD49EE
:100E6000884202D101210C040AE0DB49884202D108
:100E700001214C0404E0D94988420AD101218C04A3
:100E80002046FFF7F6FE00212046BDE81040FFF7A0
:100E9000F0BED349884206D101214020FFF7DFFE92
:100EA0000021402013E0CF49884206D10121802053
:100EB000FFF7D5FE0021802009E0CB4988420AD106
:100EC000841501212046FFF7CAFE00212046BDE817
:100ED0001040FFF7C4BE10BD30B50288B64BBC4C05
:100EE00098420DD0A0420BD0B0F1804F08D0B34D46
:100EF000A84205D0B24DA84202D0B24DA84203D1BB
:100F000022F070054A882A43AF4DA84206D0AF4D63
:100F1000A84203D022F440750A892A4302804A6815
:100F2000C2620A880285984201D0A04201D1897A22
:100F300001860121818230BD4FF0FF3141600021E7
:100F400001800181418081727047018582827047F2
:100F5000028822F070020A430280704741627047A3
:100F6000C1627047406A7047008D70470029018850
:100F700002D041F0020101E021F00201018070473E
:100F80000029018802D041F0040101E021F00401B0
:100F9000018070470029018802D041F0800101E002
:100FA00021F0800101807047028822F0080202804F
:100FB00002880A4302807047028822F4407202804D
:100FC00002880A43028070470029018802D041F05C
:100FD000010101E021F001010180704730B5028C70
:100FE00022F001020284028C8388048B22F0020228
:100FF00024F073050C882C438D8915434A882A43B5
:101000006D4DA84202D0724DA8420DD122F00805C4
:10101000CA8923F440732A4322F004058A882A43AC
:101020000D8A1D434B8A2B43838004838968416367
:10103000028430BD70B5028C22F010020284028C52
:101040008488038B0D8823F4E6464FF6FF7303EA8A
:10105000052535438E8922F0200203EA0616164341
:101060004A8803EA02123243534EB04202D0584E2D
:10107000B04215D122F08006CA8924F4406403EA04
:101080000212324322F040068A8803EA02123243F7
:101090000E8A03EA860626434C8A03EA8404344314
:1010A0008480058389688163028470BD70B5028C79
:1010B00022F480720284028C8488838B0D8823F052
:1010C00073031D4322F400738E894FF6FF7202EA08
:1010D00006261E434B8802EA03233343364EB042B2
:1010E00002D03B4EB04215D123F40066CB8924F4E4
:1010F000405402EA0323334323F480668B8802EAD8
:10110000032333430E8A02EA061626434C8A02EA78
:1011100004143443848085838968C163038470BD6B
:1011200070B5028C22F480520284048C8288838BF6
:101130000D8823F4E6464FF6FF7303EA0525354391
:1011400024F400568C8903EA043434434E8803EABD
:1011500006362643184CA04202D01D4CA04205D1B1
:1011600022F480440A8A03EA821222438280858321
:1011700089680164068470BD0021018041808180FE
:1011800081608181C18101824182704730B5012433
:10119000058C00F118038C40A543058431B3082960
:1011A0002CD0091FC1F34E001844016848F6FF73A4
:1011B0001940016001681AE000000140000400408D
:1011C00000080040000C00400010004000140040E7
:1011D000000401400040014000440140004801403B
:1011E00000180040001C00400020004006E04FF6C0
:1011F000FF7303EA02221143016030BD03EB51008B
:1012000001684FF68F73194001600168F3E741638D
:10121000704781637047C163704701647047028BF8
:1012200022F070020A4302837047028B4FF6FF736D
:1012300022F4E04203EA0121114301837047828BCB
:1012400022F070020A4382837047828B4FF6FF734D
:1012500022F4E04203EA0121114381837047028BAB
:1012600022F008020A4302837047028B4FF6FF7395
:1012700022F4006203EA0121114301837047828B4B
:1012800022F008020A4382837047828B4FF6FF7375
:1012900022F4006203EA0121114381837047028B2B
:1012A00022F004020A4302837047028B4FF6FF7359
:1012B00022F4806203EA0121114301837047828B8B
:1012C00022F004020A4382837047828B4FF6FF7339
:1012D00022F4806203EA0121114381837047028B6B
:1012E00022F080020A4302837047028B4FF6FF739D
:1012F000C2F30E0203EA0121114301837047828B7E
:1013000022F080020A4382837047828B4FF6FF737C
:10131000C2F30E0203EA0121114381837047028C5C
:1013200022F002020A4302847047028C22F0080273
:101330000A4302847047028C4FF6FF7322F02002AA
:1013400003EA0111114301847047028C4FF6FF73C9
:1013500022F0800203EA0111114301847047028CDC
:101360004FF6FF7322F4007203EA01211143018456
:101370007047028C4FF6FF7322F4006203EA0121EA
:10138000114301847047028C4FF6FF7322F4005220
:1013900003EA013111430184704710B50123048C25
:1013A0008B409C430484038C8A401343038410BD08
:1013B00010B50423048C8B409C430484038C8A4026
:1013C0001343038410BD828B22F440628283828B9C
:1013D0004FF6FF7303EA01210A4382837047828B31
:1013E00022F00C028283828B0A4382837047028B35
:1013F00022F440620283028B4FF6FF7303EA01215D
:101400000A4302837047F0B5048C24F0100404846E
:10141000078B068C4FF6FF7404EA011527F4734717
:1014200004EA0331394304EA02220A4326F0A00108
:10143000294341F0100102830184F0BD028B22F0A8
:101440000C020283028B0A43028370472DE9F041AC
:101450000D460E884988AA882B8904460EB3042EAF
:1014600026D0082E268C4FF6FF7028D026F4805602
:101470002684A78B268C00EA022200EA013127F499
:1014800073473A4300EA0330104326F420420A43EC
:1014900042F48051A0832184E9882046BDE8F041D0
:1014A00091E700F061F9E9882046BDE8F041C5E721
:1014B000FFF7A9FFE9882046BDE8F04197E726F449
:1014C00080762684A78B268C00EA012100EA03108F
:1014D000104327F0F307384326F420620A4342F40E
:1014E0008071A0832184E9882046BDE8F04176E739
:1014F00000210180418001228280C18001817047EA
:101500002DE9F0410C46002549880746012601B91E
:101510000225A288012A00D10226208823890028DA
:10152000384610D0FFF76FFFE1883846FFF75FFFBE
:10153000238932462946384600F016F9E1883846B4
:10154000BDE8F0417AE700F00FF9E1883846FFF78F
:1015500075FF2389324629463846FFF754FFE18854
:101560003846BDE8F04142E7406B7047806B7047FA
:10157000C06B7047006C704710B50A884B88CC88E8
:101580001A438B8823431A430B891A434B89898951
:101590001A430A43A0F8442010BD00210180418075
:1015A0008180C1800181418181817047002930F8AB
:1015B000441F02D041F4004101E0C1F30E0101805B
:1015C00070470029818802D041F0040101E021F038
:1015D0000401818070470029818802D041F0010117
:1015E00001E021F0010181807047002A828901D049
:1015F0000A4300E08A438281704781827047024635
:101600000020128A0A4200D001207047C94301829B
:10161000704702460020138A92890B4202EA0102B7
:1016200002D0002A00D001207047C94301827047D0
:101630001143A0F848107047002A828901D00A435C
:1016400000E08A43828170470029818802D041F0FE
:10165000080101E021F0080181807047018921F033
:10166000070101817047028922F070020A4302815A
:10167000704700B50346FFF7F6FF188940F00700F2
:10168000188100BD70B50D4611460446602D4FF01F
:1016900001020AD000F068F829462046FFF7E3FF70
:1016A000208940F00700208170BDFFF7ACFEF3E712
:1016B00030B504894FF6FF7505EA03231343E4B2FE
:1016C0000B432343038130BD10B50446FFF7F0FF01
:1016D000208940F07700208110BD10B50446FFF747
:1016E000E7FF208940F48040208110BD828822F0ED
:1016F0007002828082880A4382807047028922F0C9
:101700000702028102890A4302817047028922F09E
:101710008002028102890A430281704770B50589FF
:10172000048B068C25F007050D434FF6FC410C4059
:1017300040F201110C434FF6FF7101EA031126F04C
:1017400022061143314305810483018470BD0029C1
:10175000818802D041F0800101E021F08001818088
:101760007047A0F85010704770B5048C24F0010445
:101770000484058B048C4FF6FF7606EA03131343AB
:1017800025F0F3052B4324F00A020A4342F001013D
:101790000383018470BD0000CA4910B5884206D198
:1017A00001211020FFF765FA0021102028E0C6492A
:1017B000884202D101214C0410E0C449884202D180
:1017C00001218C040AE0C249884202D10121CC04E3
:1017D00004E0C04988420AD101210C052046FFF7E8
:1017E0003EFA2046BDE810400021FFF738BABA495A
:1017F000884209D101212020FFF73BFA0021202057
:10180000BDE81040FFF735BA10BD7FB50446008A29
:101810000D4620F44051E88808432082A08941F217
:101820000C618843A9882A8911436A8902431143BC
:10183000A181A08A20F44071A8890843A08268464B
:10184000FFF759F99F48844202D0A348844201D14E
:10185000039800E00298A1890904002900EBC00167
:1018600001EB0010296802DA4FEA410101E04FEA7A
:101870008101B0FBF1F26420B2FBF0F14FEA0111FB
:101880004FEA11136FF018056B4302EB8302A38933
:101890001D044FF0320306D503EBC202B2FBF0F099
:1018A00000F0070005E003EB0212B2FBF0F000F0DD
:1018B0000F00084320817FBD4FF4165101600021C5
:1018C0008180C18001810C2242818181704710B5E5
:1018D000028A4C8822F470630A8822438C88C98863
:1018E0000C4322431A43028210BD00210180418033
:1018F0008180C18070470029818902D041F4005164
:1019000001E021F4005181817047028B02F47F4293
:101910000283028B0A43028370470029818902D027
:1019200041F4004101E0C1F30E01818170470029BB
:10193000818A02D041F4006101E021F400618182DA
:101940007047C1F30801818070478088C0F30800A8
:101950007047028A22F00F020282028A0A43028240
:1019600070470029818902D041F0020101E021F095
:10197000020181817047828922F40062828182891A
:101980000A4382817047028A22F020020282028A80
:101990000A43028270470029018A02D041F4804143
:1019A00001E021F4804101827047818941F0010109
:1019B000818170470029818A02D041F0080101E04D
:1019C00021F0080181827047028BD2B20283028B20
:1019D00042EA0121018370470029818A02D041F047
:1019E000200101E021F02001818270470029818AD5
:1019F00002D041F0100101E021F010018182704716
:101A0000828A22F004028282828A0A43828270479A
:101A10000029818A02D041F0020101E021F0020197
:101A200081827047002A828A01D00A4300E08A43FB
:101A30008282704710B5C1F3421301F01F040121E7
:101A4000A140012B07D0022B07D01430002A0268D6
:101A500005D00A4304E00C30F8E71030F6E78A437B
:101A6000026010BD0246002012880A4200D0012008
:101A70007047C9430180704730B501F01F0201244F
:101A80000025C1F3421304FA02F2012B0FD0022BFE
:101A90000FD0838A4FEA11210088134204FA01F41F
:101AA00000EA040001D000B10125284630BD838939
:101AB000F0E7038AEEE70A0A01219140C943018059
:101AC0007047000000100140004400400048004002
:101AD000004C0040005000400014014010B501F0DF
:101AE000C3F901F089F9FE4C207808B101F0E6F85D
:101AF0006078002803D0BDE8104002F04DBA10BD58
:101B000000F0D4FB00F046FC00F094FC4FF41650BB
:101B100000F03AFD00F02AFF00F0E6FF00F060FF61
:101B200001F052F80421EF48FEF7FAFEEE4E4FF4B2
:101B300080513046FEF7F4FEF1143046FEF7F0FE19
:101B400031153046FEF7ECFE04213046FEF7E8FE84
:101B500008213046FEF7E4FEE44F20213846FEF728
:101B6000DFFE10213846FEF7DBFE4FF47A78404660
:101B700000F0D9FB4FF47A61C82000F098FFD84CF0
:101B800001200025A07040F2E730C4E90405256279
:101B90006562A562E5622563A561D548E56160637C
:101BA000D448A063D448E06340422064D3486064D2
:101BB0004042A06402F0F8F900F0EAFF01466068D4
:101BC000814206DDE068032801D0401C0BE0E5609F
:101BD0000AE000F0DDFF014660684042814209DA18
:101BE000E06800B3401EE06000F0DBFF41463220B9
:101BF00000F05DFFE068C0B101281FD002282AD0A4
:101C00000328D9D104213046FEF78AFE0821304648
:101C1000FEF786FE20213846FEF782FE1021384668
:101C2000FEF77CFEC8E70320DDE704213046FEF71F
:101C300075FE08213046FEF773FE07E004213046AA
:101C4000FEF76EFE08213046FEF768FE202138467A
:101C5000FEF766FE0BE004213046FEF761FE082128
:101C60003046FEF75DFE20213846FEF757FE102174
:101C70003846FEF755FE9FE72DE9F05F4FF47A6195
:101C8000C82000F014FF9EA004F012F94FF47A70FF
:101C900000F049FB01F076FE02F07AFC02F0E3FB73
:101CA000642000F040FB8E48002150227823994D9B
:101CB0004FF0640C4FF08C094FF03C0B1E24DFED0D
:101CC000960AD0F80C80954E954FB8F1000F0FD0C2
:101CD0004FF0C80A4FF0320E9FED920AB8F1010F93
:101CE00013D0B8F1020F1FD0B8F1030F3BD128E099
:101CF000C0F814C08262C0E90B91C0E9063B2C60B9
:101D0000C6ED000AC7ED000A0BE0C0F81CE08262D5
:101D1000C0E90BA1C0E905C32C6086ED000A87ED80
:101D2000000A02F085FD1EE0C0F814C08262C0E91E
:101D30000B91C0E9063B2C60C6ED000AC7ED000A16
:101D40000BE0C0F81CE08262C0E90BA1C0E905C34A
:101D50002C6086ED000A87ED000A02F069FD01F0B3
:101D6000CDFD03F07AF8BDE8F05F6FA004F0A0B8F5
:101D70002DE9F0474FF47A61C82000F098FE70A07A
:101D800004F096F84FF47A79484600F0CCFA01F066
:101D9000F9FD534800226423D0F80C8050243221EE
:101DA0001E255C4E5D4FDFF878C1B8F1000F0BD0F7
:101DB000B8F1010F15D04FF08C0AB8F1020F26D000
:101DC000B8F1030F1CD12DE04FF4C878C0F8208083
:101DD000846243610263C0E906319FED4F0A3560BA
:101DE0000AE04361846202634FF416738161C0E9C3
:101DF00007139FED580A356087ED000A8CED000A45
:101E000001F0B1FABDE8F04753A004F051B8846284
:101E1000C0E90531C0E90719C0E90BA29FED410AED
:101E20003560E9E7C0F8209084624361C0E90BA205
:101E30002821C0E906219FED4E0A3560DCE72DE937
:101E4000F05F4FF47A612DED048BC82000F02FFE77
:101E500048A004F02DF84FF47A7000F064FA01F015
:101E600091FD1F4C2B4EDFED2C9A2C4FDFF8B080EC
:101E7000E0684FF0320A4FF0510B4FF03C09282533
:101E800070B19FED288A012818D0B3EE049A4FF064
:101E9000200BF2EE008A02287FD0032875D18AE059
:101EA00002F082F84FF4C870206278202063C6F8F0
:101EB00000A0C7ED009AC8ED009A0CE002F074F89B
:101EC0004FF47A70206278202063C6F800A087ED76
:101ED000008A88ED008AA421C4F84CB0A16555E0C1
:101EE00028000020000C02400008024000000240D0
:101EF0006890F3FFE8BB0B00805DE6FF80E5F9FF2B
:101F0000427574746F6E20302070726573736564EF
:101F10000A0D0000980100200000704254010020CA
:101F2000580100200000B44246696E697368656418
:101F300020427574746F6E2030204953520A0D0090
:101F4000427574746F6E20312070726573736564AE
:101F50000A0D00000000A04246696E69736865645E
:101F600020427574746F6E2031204953520A0D005F
:101F70000000C842427574746F6E20322070726522
:101F8000737365640A0D000007E035E0C4E9149539
:101F9000C4E9175901F01FFB2EE002F005F84FF4D9
:101FA00016702062C8202063C6F800A0C7ED009A12
:101FB000C8ED009A0CE001F0F7FF4FF47A70206250
:101FC000C8202063C6F8009087ED008A88ED008A5B
:101FD000584E594F5A2186ED009A87ED009A7D2080
:101FE000A165E064C4E914B5C4E9175B01F0F3FA34
:101FF000C6ED008AC7ED008A50A0BDEC048BBDE899
:10200000F05F03F055BFF0B5524C89B004220721B0
:10201000204600F035FE074604220921204600F044
:102020002FFE064604220821204600F029FE054620
:1020300000F0AAFD044600F0ABFD474904AA096878
:10204000E2C2474A454912680968CDE9002045487F
:10205000CDE90241036844480268444801684448A5
:1020600003F026FF09B0F0BD70B54FF47A61C820C7
:1020700000F01DFD4FF47A75284600F054F93DA09C
:1020800003F016FF404CE06830B1012807D0022869
:102090000BD0032849D12AE001F030FC01E001F027
:1020A0004FFC032000F0E2FC3FE001F07DFFC82080
:1020B00025622063354928201FED5A0A08603449FB
:1020C00081ED000A334981ED000A1A49B3EE040A92
:1020D00081ED000A184981ED000A7D21E16420218B
:1020E0005A22A265C4E91410C4E917011DE001F0E9
:1020F0005BFF642000F017F900F0E0FDFFF783FFBD
:10210000012000F010F900F043FDD4E90121514312
:10211000884207DC00F03CFDA168626849425143F7
:102120008842E9DA642000F0FEF8BDE870401AA0A9
:1021300003F0BEBE5C0100206001002046696E69AC
:102140007368656420427574746F6E203220495341
:10215000520A0D000020014008010020F00000207C
:10216000F800002000010020FC000020F400002006
:10217000F4720008427574746F6E203320707265BB
:10218000737365640A0D0000280000209801002088
:10219000540100205801002046696E697368656427
:1021A00020427574746F6E2033204953520A0D001B
:1021B0007047FEE7FEE7FEE7FEE7704770477047AF
:1021C00037480168491C016036490868002802DA6E
:1021D000354B00221A60401E0860FFF77FBC10B527
:1021E0002020FEF7AFFA4FF4967470B1322000F061
:1021F0009AF82020FEF7A6FA20B1204600F093F8C6
:10220000FFF73AFD2020FEF7ABFA4020FEF79AFADE
:10221000002811D0322000F086F84020FEF792FA14
:10222000002809D0204600F07EF8FFF71DFFBDE82A
:1022300010404020FEF794BA10BD70B54FF48044B2
:102240002046FEF77FFA4FF4967570B1322000F009
:102250006AF82046FEF776FA38B1284600F063F8AF
:10226000FFF786FD2046FEF77BFA4FF40044204638
:10227000FEF768FA002811D0322000F054F820460A
:10228000FEF760FA002809D0284600F04CF8FFF766
:10229000D6FD2046BDE87040FEF762BA70BD000072
:1022A000D0000020E40000203404004070B503F0AA
:1022B0008DFD03F0B0FD33484FF47A710068B0FB38
:1022C000F1F0401EB0F1807F16D24FF0E024606143
:1022D00066170F21304600F049F80025A561072058
:1022E00020614FF44070FDF7D3FF0021304600F02D
:1022F0003DF82548456070BDFEE74FF0E02080695D
:10230000A821B0FBF1F12048426802EB4203C3EB85
:10231000C212C1EBC20101F57A7101600068704719
:10232000194840687047184A516853685B1A8342DD
:10233000FBD1704730B50546FFF7DFFF4FEA0004D9
:10234000FFF7DBFF001BA842FAD130BD30B50C46C9
:102350004FEA0005FFF7D1FF001BA842FAD330BDBA
:10236000094A53685B1A8342FBD370470907090E79
:10237000002803DA00F00F00044A00E0044A815408
:1023800070470000A0010020CC00002014ED00E008
:1023900000E400E07CB501210846FEF710FC0121B5
:1023A0000420FEF70CFC01210820FEF708FC302079
:1023B000009001208DF8040000208DF80600032114
:1023C0008DF805108DF8070069461748FEF730FABA
:1023D0000C20164D009069462846FEF729FA042085
:1023E000134E022400908DF8074069463046FEF7F0
:1023F0001FFA4FF4E05000908DF8074069462846D8
:10240000FEF716FA04213046FEF78AFAE102284662
:10241000FEF786FAA1022846FEF782FA61022846F4
:10242000FEF77EFA7CBD000000000240000802407A
:10243000000C02402DE9F04701218F0386B0384699
:10244000FEF7E5FB01210620FEF7B9FB0024DFF8CB
:1024500030A18DF8104020258DF8134003A9504677
:102460000395FEF7E5F905210120FEF780FC0095B4
:102470008DF8044008268DF8056001258DF806507A
:102480006846FEF70FF94FF017098DF808908DF8A0
:1024900009508DF80A408DF80B5002A8FDF7FDFE9B
:1024A0008DF810408DF8134003A950460397FEF7AE
:1024B000BFF90E210120FEF75AFC8DF804408DF87B
:1024C000056000978DF806506846FEF7EBF8282760
:1024D0008DF808708DF809508DF80A408DF80B5072
:1024E00002A8FDF7DAFE8DF810404FF400488DF891
:1024F000134003A95046CDF80C80FEF799F90F213F
:102500000120FEF734FC8DF804408DF80560CDF80D
:1025100000808DF806506846FEF7C4F88DF8087004
:102520008DF809508DF80A408DF80B5002A8FDF780
:10253000B4FE8DF8104040278DF8134003A91148D0
:102540000397FEF775F906210220FEF710FC8DF8BF
:1025500004408DF8056000978DF806506846FEF738
:10256000A1F88DF808908DF809508DF80A408DF883
:102570000B5002A8FDF791FE06B0BDE8F087000001
:10258000000402400008024070B5054688B00121F1
:102590000220FEF714FB01211020FEF738FB6D4EE0
:1025A000072209213046FEF7C8F907220A213046E2
:1025B000FEF7C3F900248DF8164001208DF81700AE
:1025C00002208DF814004FF4C06104918DF81500BD
:1025D00004A93046FEF72CF95F4E01213046FFF783
:1025E0009CF9ADF808400C20ADF80A00ADF80440A5
:1025F000ADF80640ADF818403015ADF81A00ADF84A
:102600001E400095ADF80C40ADF81C4069463046C0
:10261000FFF7FBF806A93046FFF759F901213046CC
:10262000FFF769F908B070BD0020704770B54A4DDA
:102630000446C1B22846FFF784F980212846FFF7F7
:1026400011FA0028F9D0204670BD43480188890658
:10265000FCD58088C0F30800704770B53E4D044635
:1026600080212846FFF7FEF90028F9D0A1B22846BC
:10267000FFF767F9204670BD10B538A003F018FCCD
:10268000354C20212046FFF7EDF90028F9D02046EF
:10269000FFF75BF9C0B210BD10B539A003F008FC1C
:1026A0002D4C20212046FFF7DDF90028F9D02046E7
:1026B000FFF74BF901463AA003F0FAFB2046FFF77B
:1026C00044F9C0B210BD10B537A003F0F1FB224CA5
:1026D00020212046FFF7C6F90028F9D02046FFF751
:1026E00034F9A0F1300137A003F0E2FB2046FFF7F8
:1026F0002CF9303810BD10B50446014686B033A021
:1027000001E0214638A003F0D3FB694641A003F065
:10271000F1FC694640A003F0CBFB2146684603F07C
:1027200035FE0028EDD106B010BD38B5044601468F
:102730003BA001E0214641A003F0BAFB69464AA054
:1027400003F0D8FC1FA0009903F0B2FB0098A04250
:10275000F0D138BD00000240001001400D0A707237
:1027600065737320616E79206B657920746F2063C7
:102770006F6E74696E75652E2E2E0D0A0D0A00009F
:10278000706C6561736520656E746572206120638D
:1027900068617261637465722E2E2E0D0A0000004E
:1027A00025630D0A00000000706C6561736520658B
:1027B0006E74657220612064696769742E2E2E0D17
:1027C0000A00000025640D0A0000000050726573C5
:1027D0007320257320746F20436F6E74696E756566
:1027E0002E2E2E203A000000496E76616C6964201E
:1027F000696E7075742C2070726573732025732058
:10280000746F20436F6E74696E75652E2E2E203A9C
:10281000000000002573000025730D0A0000000071
:10282000507265737320256420746F20436F6E743B
:10283000696E75652E2E2E203A000000496E766175
:102840006C696420696E7075742C20707265737386
:1028500020256420746F20436F6E74696E75652E39
:102860002E2E203A00000000256400001CB5012136
:102870000420FEF7C2F94FF47070009002208DF82A
:10288000040003208DF8050000208DF80600504C50
:102890008DF8070069462046FDF7CAFF022206218F
:1028A0002046FEF74AF8022207212046FEF745F8A7
:1028B000022208212046FEF740F802220921204684
:1028C000FEF73BF81CBDF0B589B040F2E73006904A
:1028D0000320ADF8140000263E4FADF81C60ADF8A3
:1028E000166005A93846FEF7F7FA60203A4DADF8B4
:1028F00000000124ADF8024028880290ADF80C6079
:1029000069463846FEF76AFB08213846FEF7A7FC01
:10291000ADF802406888029069463846FEF78AFBA7
:1029200008213846FEF7A1FCADF80240A8880290C5
:1029300069463846FEF7BAFB08213846FEF79FFC89
:10294000ADF80240E888029069463846FEF7E8FB99
:1029500008213846FEF799FC01213846FEF71AFB9C
:1029600001213846FEF730FB09B0F0BD10B5FFF786
:102970007DFFBDE81040A6E718490968884200DDE0
:1029800008464942884200DA0846124A00213C3291
:10299000131D002802DB106019607047116040426F
:1029A000186070470D490968884200DD08464942B1
:1029B000884200DA0846074A00213432131D0028F5
:1029C00002DB116018607047404210601960704768
:1029D0000004024000080040DC0000203800002015
:1029E00030B58BB001210220FEF707F94020059099
:1029F00002208DF8180003218DF8191000248DF89D
:102A00001A40354D8DF81B0005A92846FDF710FF2B
:102A1000022206212846FDF790FF952008908B2082
:102A2000ADF81C002D4DADF82440ADF81E4007A9AF
:102A30002846FEF751FA6020ADF800000120ADF8FD
:102A400002000294ADF80C4069462846FEF7C6FA2B
:102A500008212846FEF703FC01212846FEF79AFAD2
:102A600001212846FEF7B0FA0BB030BD2DE9F04148
:102A700005461B498C2068430860184F95202C3769
:102A800038600024154EA04634360CE03868401CEF
:102A9000C00830604620FFF746FCC6F8008046209C
:102AA000FFF741FC641CAC42F0DBBDE8F0810B4A4F
:102AB00010B52C321368094C5B1C9B08343423601E
:102AC000084B93FBF1F18C2391FBF3F1491E11604C
:102AD0000349086010BD00000000024000040040EF
:102AE000E400002000BD01057CB501210920FEF7AE
:102AF00084F802208DF8040001208DF8070048F2C8
:102B000003002E4C009069462046FDF791FE0820F8
:102B10002B4D009069462846FDF78AFE02220021CF
:102B20002046FDF70AFF022201212046FDF705FF9E
:102B300001220F212046FDF700FF01220321284634
:102B4000FDF7FBFE1F4C4FF0FF3529462046FEF7F0
:102B500007FA29464FF080452846FEF701FA02237E
:102B6000002203212046FEF7D9FD00231A46032147
:102B70002846FEF7D3FD01212046FEF725FA012164
:102B80002846FEF721FA7CBD0E48243000687047C5
:102B90004FF08040406A70470A49002024310860A5
:102BA00070474FF08041002048627047054924314A
:102BB000086070474FF08041486270470000024053
:102BC00000040240000C004030B501218DB0080225
:102BD000FEF71DF88820032500908DF8045000248E
:102BE0008DF8074069463048FDF722FE8DF8045005
:102BF00000958DF8074069462C48FDF719FE8DF8C1
:102C0000045033202A4D00908DF80740694628462D
:102C1000FDF70EFE4FF48030CDE908404FF47060B0
:102C2000CDE90A4008A8FDF7C2FB8DF80C400294DC
:102C30008DF80D400594069401201E4C8DF81C0063
:102C400002A92046FDF788FB012240F2052120461B
:102C5000FDF7E8FC01212046FDF7BEFB04211648E4
:102C6000FDF75EFEA1142846FDF75AFEE114284642
:102C7000FDF756FE21152846FDF752FE0DB030BD7A
:102C800010B5134604460122FDF7D9FB2046FDF797
:102C900010FC02212046FDF7CEFC0028F9D020468A
:102CA000BDE81040FDF737BC0000024000040240C0
:102CB0000008024000200140000C02402DE9F047CE
:102CC000784D04220A212846FFF7DAFF764C0422C9
:102CD0000E21E0602846FFF7D3FF206104220B217C
:102CE0002846FFF7CDFF606104220F212846FFF739
:102CF000C7FFA061FFF701FB6C4F824604213846F5
:102D0000FDF70CFE6A4E4FF4806841463046FDF7F1
:102D100005FE51463C20FFF719FB04220A212846F4
:102D2000FFF7AEFFE1680422401AE0600E2128465A
:102D3000FFF7A6FF2169401A206104213846FDF7FC
:102D4000EFFD41463046FDF7EBFDE0680027002827
:102D500000DAE7602069002800DA27615146FA208E
:102D6000FFF7F4FA4FF4805949463046FDF7D6FD97
:102D70004FF4006841463046FDF7D0FD51464FF410
:102D8000AA70FFF7E3FA04220B212846FFF778FF29
:102D900061690422401A60610F212846FFF770FF25
:102DA000A169401AA06149463046FDF7B9FD414688
:102DB0003046FDF7B5FD6069002800DA6761A0695B
:102DC000002800DAA761E26821684FF47A704A436C
:102DD00092FBF0F2E26022694A4392FBF0F2226138
:102DE00062694A4392FBF0F26261A2694A4392FB34
:102DF000F0F0A061BDE8F0872DE9F04128262A4CCB
:102E00000020284F0546E061042207213846FFF7DD
:102E100037FFE1696D1C0844E061B542F4DB4CF218
:102E2000503191FBF6F0E2695043224A104490FB86
:102E3000F1F04000E061216A08442062BDE8F081C1
:102E400010B5042203211748FFF71AFF164C6060E3
:102E500004F073F89FED181B53EC112B03F0E6FE02
:102E600004F03CF8A06010BD10B5FFF7E9FF0E4874
:102E700041F658318068884213DA0D4C042120460F
:102E8000FDF74CFD08212046FDF748FD0C4C2021A4
:102E90002046FDF743FD2046BDE810401021FDF718
:102EA0003DBD10BD00200140E8000020000C0240A4
:102EB00000080240DCFEBCF9AC1C5A643BDFD33F87
:102EC00000000240FF4FDFF800840D4606464FF435
:102ED0007A7900BFFFF711FA0446FFF7EFFE386872
:102EE000301AFFF749FDD8F80000281AFFF75AFDFD
:102EF00021464846FFF72AFAECE710B5F148F349B6
:102F0000F34C0068096888424FF00801204602DD52
:102F1000FDF704FD01E0FDF703FDEE48EE49006812
:102F2000096888424FF00401204602DDFDF7F6FCF7
:102F300001E0FDF7F5FCE948E949EA4C0068096859
:102F400088424FF01001204602DDFDF7E7FC01E06A
:102F5000FDF7E6FCDC48E4490068096888424FF068
:102F60002001204603DDBDE81040FDF7D7BCBDE8D9
:102F70001040FDF7D5BC70B50D460446FFF711FEB5
:102F8000FFF70AFE2046FFF7F7FC2046FFF70AFD91
:102F90002846FFF7C8F90020FFF7EEFC0020FFF7F6
:102FA00001FD6420FFF7BFF9FFF7EEFD0446FFF7D0
:102FB000EFFD201A70BD1CB50020CC49CC4A8246DA
:102FC000087001211170CB4907468346087080467E
:102FD0000546009004460190C7484FF0010901687A
:102FE000C6480160C648C74A0068126809FB00F17C
:102FF0008E1ABAF1000F2ED186422CDCC2484FF057
:10300000010AC24A80F800A000201070C04880F871
:1030100000A02DB9022C03D0032C01D0042C14D114
:10302000304601F00CF8BB48D0ED000ABA48B8EEC3
:10303000E01AD0ED000A00F0E9FFB848D0ED000A30
:10304000B4EEE00AF1EE10FA01D2AB4800E0B1486C
:103050000168AA48016057B9A948006800EB400020
:10306000C11700EB9170B6EBA00F00DC012737EA27
:10307000080002D0A44901200870BBF1000F38D12C
:103080009F48006800EBD070B6EB600F31DC8D48D4
:103090008E494FF0010B00680968884205DC8A48B8
:1030A000914900680968884200DD012589488A49FC
:1030B00000680968884201DD01200090874888493E
:1030C00000680968884201DD01200190FFF728F9B6
:1030D00000F00304641C012C0FD0022C10D0032C30
:1030E00010D0042CF2D1009805EA000101980142A9
:1030F000ECD0B8F1000F09D012E0002DE6D1F8E7CE
:10310000009800E001980028E0D1F2E77C480068D0
:10311000C11700EB9170B6EBA00F05DC4FF0010872
:1031200015B1794900200870002E0ADD6548016854
:103130004FF4FA60814204DC6349096881427FF7F9
:1031400051AF09F101093DB1754802687548016840
:103150007548006800F0A4FD022C04D0032C04D0B4
:10316000042C04D007E0714802E0714800E0714887
:10317000006800F03FFC4FF0000A5746D346D046A7
:103180005546CDF800A0CDF804A02BE72DE9F05F5F
:103190006A4A69486A4B1168FC2700EB011C1868F1
:1031A000B8463E461CF800403D4684440F2901DAEB
:1031B0009CF810700F2801DA9CF80180002801DDCE
:1031C0001CF8106C002901DD1CF8015CDFF874A10B
:1031D00093460AEB0111085C01F08AF8DFF8689168
:1031E00040B9601E874205D14E2189F800100520A4
:1031F000BDE8F09F5746DA46DBF80000DFF840B143
:1032000007EB0011DBF80000085C01F074F838B936
:10321000611E884504D1452189F800100620E7E7A2
:10322000DAF80010B84607EB0110DBF800105F4633
:10323000405C01F063F838B9601E864204D1532126
:1032400089F800100720D3E7DAF8001008EB011026
:103250003968405C01F055F838B9641EA54204D1C4
:10326000572189F800100820C2E70020C0E72DE9A7
:10327000F041344F0026002407EB0615285D01F0CD
:1032800043F8E8B9285D0F2E40F00F00285504DA06
:103290002819017C41F004010174002E05DD281974
:1032A00010F8101D41F0010101700F2C04DA2819EB
:1032B000417841F008014170002C4CDD281945E0AF
:1032C00049E00000F4000020F80000209C000020ED
:1032D00000080240FC000020A400002000010020A3
:1032E000A800002000000240A00000202A000020CA
:1032F000990000209A0000205400002014010020B2
:103300008C0000208C010020280000209800002064
:1033100029000020580000200C0100205801002046
:1033200040000020B8000020B40000205C00002015
:103330006000002064000020B4020020140000207F
:1033400010000020B40100202400002010F8011D0E
:1033500041F002010170641C102C8FDB761C102ED2
:1033600089DBBDE8F0812DE9F04F4FF4C8712DEDF8
:10337000028BE5B0684602F0E2FFFA4D0026FA4CF7
:10338000DFF8E8932E604FF04E0B2660B04689F8C8
:1033900000B0FFF76CFF01F06DF901F064F800F088
:1033A00003FEF3494FF0010A002781F800A0F1491C
:1033B00081F800A080E0F04821682A6800EB011144
:1033C000895CFC2903D30A20FFF750FB79E099F8C8
:1033D00000104E2909D045291FD0532935D057292F
:1033E0004CD060E0761C401C2060E448216800EB73
:1033F00001102968405C00F07BFF10BBDE492068AB
:1034000001EB001229685318515C1B7C491E8B424A
:10341000E8D048E0761C401C2860D848216800EBC2
:1034200001102968405C00F066FF50B9D24821685D
:1034300000EB011128680A18095C5278491E8A427B
:10344000E8D030E0761C401E2060CC48216800EBBC
:1034500001102968405C00F051FF20BBC64920687C
:1034600001EB001229685318515C13F8103C491EF7
:103470008B42E7D017E0761C401E2860BF482168C9
:1034800000EB01102968405C00F03BFF58B9BA48D6
:10349000216800EB011128680A18095C12F8012C58
:1034A000491E8A42E7D0B64840F82760FFF76EFE13
:1034B0004DF8270000267F1C00F02CFF00283FF469
:1034C0007AAFB04989F800B0002481F800A0AC4D73
:1034D00069E044B305EB84014968E9B300EE100AE2
:1034E000B8EEC00A00F0BBFDA748A849006809680B
:1034F00088420DDDA648A74900680968884207DDB3
:10350000A5480268A5480168A548006800F0C8FB06
:103510005DF8240005283AD006283BD007283CD087
:1035200008283DD03EE09F4890ED000AB8EEC00A62
:1035300000F08FFD9C48D0ED000AB8EEE01AC0EE16
:10354000010A10EE900A03F059FE9FED981B53EC10
:10355000112B03F05DFD00E00DE041EC180B286835
:1035600003F0EBFC53EC182B03F0B8FA03F084FAE9
:1035700000EE100AB6E78F4E00EE100A3768B8EE7C
:10358000C00AC6F8008000F06AFD3760ACE700F0C2
:1035900013FE07E000F031FE04E000F04FFE01E012
:1035A00000F06BFE641C55F82400002891D171488E
:1035B000444680F800800020FFF7DEF90020FFF786
:1035C000F1F90320FFF752FA6948047065B0BDECC9
:1035D000028BBDE8F08F2DE9F04F4FF4C8712DED4F
:1035E000048BE5B0684602F0AAFE5E4D00265E4CF4
:1035F000DFF878A12E604FF04E0B2660B1468AF8B6
:1036000000B0FFF734FE01F035F800F02CFF00F0B9
:10361000CBFC57494FF00108002781F8008055493D
:1036200081F8008080E05448216800EB011229688D
:10363000515CFC2903D30A20FFF718FA79E09AF8C5
:1036400000104E2909D045291FD0532935D05729BC
:103650004CD060E0761C401C20604848216800EB9C
:1036600001102968405C00F043FE10BB424920680D
:1036700001EB001229685318515C1B7C491E8B42D8
:10368000E8D048E0761C401C28603C48216800EBEC
:1036900001102968405C00F02EFE50B936482168C0
:1036A00000EB011128680A18095C5278491E8A4209
:1036B000E8D030E0761C401E20603048216800EBE6
:1036C00001102968405C00F019FE20BB2A492068DF
:1036D00001EB001229685318515C13F8103C491E85
:1036E0008B42E7D017E0761C401E286023492068F3
:1036F00001EB00102968405C00F003FE58B91E4839
:10370000216800EB011128680A18095C12F8012CE5
:10371000491E8A42E7D01A4840F82760FFF736FD75
:103720004DF8270000267F1C00F0F4FD00283FF430
:103730007AAF8AF800B0C2464546DFF8348088F890
:10374000005000F031FC4C46DFF828900D4F9FED03
:10375000178B89F800503D700025DFF85CB0084EEB
:103760008DE0000010000020140000202400002044
:103770009A00002029000020B4020020B40100209B
:10378000B403002028000020F4000020BC0000202A
:10379000F8000020C000002040000020B8000020F9
:1037A000B4000020940000208C00002000000000E5
:1037B0000000E03F580000209B000020BDB106EB58
:1037C00085014968B9B3401E00EE100AB8EEC00A80
:1037D00000F045FC8BF800A05DF82500052840D0DE
:1037E000062841D0072842D0082843D044E0754835
:1037F00090ED000AB8EEC00A00F02BFC7248D0ED44
:10380000000AB8EEE01AC0EE010A10EE900A03F0CA
:10381000F5FC41EC190B306803F08FFB53EC182BCF
:1038200003F002FC53EC192B03F058F903F024F9D0
:1038300000EE100ACCE7FFE7644909686491634928
:103840000C6003F07AFB53EC182B03F0EDFB03F054
:1038500013F900EE100A00F002FC5C486499016064
:10386000B8E700F0A9FC07E000F0C7FC04E000F0B6
:10387000E5FC01E000F001FD8BF800406D1C56F8FE
:10388000250000289AD13C7089F80040FFF774F8B1
:103890000020FFF787F80320FFF7E8F888F80040DA
:1038A00065B0BDEC048B94E670B54A4948484B4C72
:1038B000096800EB011048490968455C20784E28EA
:1038C00003D1284600F014FDA0B92078452803D183
:1038D000284600F010FD68B92078532803D1284607
:1038E00000F00CFD30B92078572805D1284600F0AB
:1038F00008FD08B1012070BD002070BD70B5344DC9
:10390000374C0021002005EB011204EB0113165C7B
:103910001E54401C1028FADB491C1029F2DB314CE4
:10392000314B0021002004EB011503EB01122E5C4A
:103930001654401C1028FADB491C1029F2DB70BD1C
:1039400070B5274D224C0021002005EB011204EB3D
:103950000113165C1E54401C1028FADB491C102968
:10396000F2DB214C1F4B0021002004EB011503EB7F
:1039700001122E5C1654401C1028FADB491C102939
:10398000F2DB70BD10B5194C05E000BFFFF796F9EA
:103990000520FEF7C8FC2068C828F7DB0220FFF7E7
:1039A00065F8134C05E000BFFFF788F90520FEF726
:1039B000BAFC2068C828F7DBBDE810400220FFF7FA
:1039C00055B80000940000208C0000205800002012
:1039D000B40100201400002010000020240000206A
:1039E00044050020B402002044060020F40000201A
:1039F000F80000202DE9F05F0546944800242DEDE5
:103A0000028B93490470012008709248DFF84892B5
:103A1000DFF848A2046099ED000AFDEEC08A9AED35
:103A2000000ABDEEC08A9FED8E0A89ED000A8AED7C
:103A3000000AFEF775FC8B4E074600BFFEF770FCD0
:103A40003168C01B8842F9D3FEF76AFC07468648F6
:103A5000A346002D0460854C80460DDC1DE08448A3
:103A60000068404220600120FEF75DFCFEF758FC34
:103A7000C01BB0F57A7F14D8D8F80000A842EEDB5E
:103A80000FE07B48006820600120FEF74CFCFEF749
:103A900047FCC01BB0F57A7F03D8D8F80000A842D5
:103AA000EFDCB8EEE80AC4F800B089ED000AB8EE21
:103AB000C80A8AED000AFEF733FC0446FEF730FC24
:103AC0003168001B8842F9D3614901200870BDECC0
:103AD000028BBDE8F09F2DE9F05FDFF874815B4851
:103AE000012588F800500026067062485949006890
:103AF0000860FEF715FC0446DFF87C91DFF87CA136
:103B0000DFF87CB15F4F16E0FFF7D8F8D9F8001066
:103B1000DAF8000081420BDD5B48DBF8001000683A
:103B2000814205DD4FF47A613220FEF7C0FF08E0E4
:103B30000120FEF7F8FBFEF7F3FB3968001B884213
:103B4000E2D35248494F006840423860FEF7E8FB34
:103B5000DFF83C91DFF83CA1044600BFFEF7E0FB34
:103B6000011BD9F80020DAF8000010448142F5D397
:103B70003E60FEF7D5FB0446474E484FFEF7D0FBAC
:103B800031683A68001B11448842F7D388F8005026
:103B90009FE72DE9F05FDFF8B8802C48012588F811
:103BA00000500026067033482A4900680860FEF776
:103BB000B7FB0446DFF8C090DFF8C0A0DFF8C0B064
:103BC000304F16E0FFF77AF8D9F80010DAF8000065
:103BD00081420BDD2C48DBF800100068814205DDD6
:103BE0004FF47A613220FEF762FF08E00120FEF711
:103BF0009AFBFEF795FB3968001B8842E2D3234805
:103C00001A4F00683860FEF78BFB0446DFF880909F
:103C1000DFF880A0FEF784FB021BD9F80010DAF869
:103C2000000008448242F5D33E60FEF779FB04466B
:103C3000194E1A4FFEF774FB31683A68001B1144A5
:103C40008842F7D388F8005043E70000280000209E
:103C500029000020140100205C01002060010020E8
:103C60000000C84244000020080100201801002084
:103C70005000002058000020F4000020BC0000206C
:103C8000F800002078000020C00000207400002010
:103C90007C0000208000002084000020880000209C
:103CA0002DE9F74F82B09046FEF772FF0190FEF7C4
:103CB0006BFFDFF87C901F490090D9F8006009681D
:103CC000C9F800101C49012008701C490020087028
:103CD000FEF726FB0546DFF868A0DFF868B01A4F4C
:103CE00016E000BFFEF709FB04460298DAF8001060
:103CF000401AFEF741FE0398DBF80010401AFEF769
:103D000051FE00BFFEF7F9FA3968001B8842F9D36B
:103D1000FEF706FB411B4145E4D30198FEF74AFF3D
:103D20000098FEF743FFC9F8006005B0BDE8F08FCA
:103D3000380000203C00002028000020290000203E
:103D4000F4000020F800002040000020FE4810B5DC
:103D50000168FE48FE4A0468FE48A1420368FE4826
:103D6000006803DD984201DD401A0AE0A14202DD4D
:103D7000FA480068F8E7984202DDF9490968F3E774
:103D80000020906010BD70B5F14CF14D803CD4E93D
:103D90001C208118821AC4E9041200EE101AF1489E
:103DA000D4ED000AB8EEC00A00682B6930EEC00AF4
:103DB00090FBF3F0D4ED080A104430EE200A84EDB5
:103DC000080A00EE100AD4ED010AE748B8EEC00A6E
:103DD00030EEC00AD4ED090A30EE200A84ED090A5B
:103DE000007878B1FFF7B2FFD5E9020190FBF1F05E
:103DF00000EE100AD4ED090AB8EEC00A30EE800ACF
:103E000084ED090AD4ED080A94ED0E0A94ED0A1A1D
:103E1000D4ED0F1A20EE200A30EEC11A04F1280367
:103E200001EE810ABDEEC00A10EE101A216394ED76
:103E3000091A94ED100AD4ED0B1A94ED112A20EE14
:103E4000010A71EE611A02EE210ABDEEC00A10EEFF
:103E5000102A6263881AC3EC020A1144C4E91601ED
:103E6000FEF78AFDE06DBDE87040FEF79BBDB848E7
:103E7000B0EE001A803890ED020AD0ED000AB8EEDC
:103E8000C02ADFEDBA1AF4EEC20AF1EE10FA11D22E
:103E900090ED122A22EE011A81EE212AB8EEC01A04
:103EA00072EE200AC0ED000AF4EEC10AF1EE10FA3B
:103EB00018DC1BE0B8EEC02AF4EEC20AF1EE10FAEC
:103EC00014DD90ED132A22EE011A81EE212AB8EEBC
:103ED000C01A70EEC20AC0ED000AF4EEC10AF1EE9B
:103EE00010FA03D2B8EEC00A80ED000A90ED030A82
:103EF000D0ED010AB8EEC01AF4EEC10AF1EE10FAE4
:103F000011D290ED141A70EE810AB8EEC01AC0ED0D
:103F1000010AF4EEC10AF1EE10FA03DDB8EEC00AB0
:103F200080ED010A7047B8EEC01AF4EEC10AF1EE56
:103F300010FAF7DD90ED151A70EEC10AB8EEC01A4E
:103F4000C0ED010AF4EEC10AF1EE10FAE6D37047B3
:103F500070B5FEF71DFE7E4C803C2066FEF714FE19
:103F6000226EA16E511A2167E36EC4E91A20C31AAA
:103F7000CD1805EBD5756D10C4E91D3511441844F5
:103F8000C4E918100844724900EBD0704010086072
:103F9000E06F401BE06770BD10B5FFF7D9FFFFF77A
:103FA00066FFBDE81040EEE610B56F4800240470CF
:103FB0006F4804702046FEF7DFFC0020FEF7F2FC9D
:103FC0009FED6C0A62486249803880ED060A80EDF8
:103FD000070A80ED000A80ED010A8460C46080ED6C
:103FE000080A80ED090A80ED0A0A80ED0B0A846652
:103FF000C466046644660C604C608465C465C4672E
:10400000FEF7CFFDBDE81040FEF7C6BDB5EEC00A15
:10401000F1EE10FA01D8B7EE000A60EEA00A41EE08
:10402000410A80EE801AB4EE000A21EE000AB5EED5
:10403000C00AF1EE10FA01D2B1EE400A704700EE6C
:10404000100A4D48F8EEC00A90ED001A80EE810A81
:1040500070474948D0ED000A20EE200A70472DE94C
:10406000F041414C424901202DED028BB0EE408AD7
:1040700020700870FEF78CFD0546FEF785FD28448C
:1040800000EBD070324947103C4D3D4A8039304EEC
:104090002BE000BF00EE100AF8EEC00A00EE103A66
:1040A00003EBD373B8EEC00A58EE000ABDEEE00A87
:1040B00010EE100AB0EB630F01DA00232370FFF754
:1040C000BEFFD2ED000AB8EEE01AD1ED000AFFF70C
:1040D0009DFFD1ED130AB4EEE00AF1EE10FA02D220
:1040E0002848006800E01068886030682B68C01BB2
:1040F00000EE100AF8EEC00A00EE103AB8EEC00A60
:1041000028EE000AF4EEC00AF1EE10FAC2D31068ED
:104110008860BDEC028BBDE8F0812DE9F0411249C9
:104120000120174C08701249094D0870803D206825
:10413000A860FEF72DFD0646FEF726FD304400EB95
:10414000D070461020E00000FC000020C4000020D9
:104150008C010020C800002000010020AC000020DD
:10416000B000002004010020280000200000C84208
:104170002900002000000000900000208C0000209A
:104180005800002048000020DFF82880FEF700FDDE
:104190000746FEF7F9FCD8F80010384401EBD1715E
:1041A00006EB610100EBD070B1EB600F2068A860F6
:1041B000ECDCB0E78C00002010B5484C20784E288D
:1041C00018D047495728097804D0452808D05328E3
:1041D0000CD00FE011B1FFF77EFC0BE0414806E088
:1041E00011B1FFF7D6FC05E03F4800E03F4800680A
:1041F000FFF700FC4E20207010BD10B5374C384939
:10420000207809784E2806D057280AD0452812D0A1
:10421000532808D00FE011B1FFF75DFC0BE03148E7
:1042200006E0324804E011B1FFF7B3FC03E02E488A
:104230000068FFF7DFFB4520207010BD10B5274C4C
:1042400021784E2906D026485729007804D04529E0
:1042500008D00FE025480AE010B1FFF79AFC09E00A
:10426000214804E010B1FFF736FC03E01D48006868
:10427000FFF7C0FB5320207010BD10B5174C184934
:10428000207809784E2806D0572814D0452808D021
:10429000532808D00FE011B1FFF77BFC0BE0124868
:1042A00006E0124804E011B1FFF715FC03E00D48E9
:1042B0000068FFF79FFB5720207010BD074800786B
:1042C0004E2806D0452805D0532804D0572803D1BE
:1042D00093E7B3E7D1E76FE77047000024000020C1
:1042E0009B000020600000205C0000206400002093
:1042F00000F001007047C0F340007047C0F3800039
:104300007047C0F3C0007047C0F300107047C0F39F
:104310004010704745480168072901D0082906D197
:10432000434802684348072A03D0082A03D00020E4
:104330007047072911D06730037C43F00C030374E6
:10434000037843F001030370C37B43F00203C3739C
:104350006738082A01D1072911D08630082A437806
:1043600043F009034370437C43F004034374037830
:1043700043F0020300F8863901D1082911D010F862
:10438000883F43F003030370037C43F0040303748A
:10439000437843F0080343708838072A01D108297D
:1043A0000CD06830017C41F004010174017841F0C7
:1043B00001010170417C41F0080141740120704706
:1043C0001A481B4900680968084301D0002070475B
:1043D00001207047174A10B502EB0112125C6FEA18
:1043E0000204154AE30702EB0111014404D0087CE2
:1043F000A20703D4FC2302E0FC20F9E74B78620714
:1044000001D4FC2201E011F8102C240701D4FC2176
:1044100001E011F8011C834200DA1846824200DAFA
:104420001046814200DA084610BD0000100000204E
:1044300014000020B4010020B40200202DE9F04156
:10444000404F0F25002407EB05163FA0315D01F01A
:104450002FFD641C102CF8DB3CA001F029FD6D1E23
:10446000F0D5BDE8F0812DE9F047DFF8E4A0DFF8F2
:10447000D480DFF8E0900F25002408EB0516305DAE
:10448000FFF736FF08B134A000E035A001F010FDC1
:10449000641C102CF3DB34A001F00AFD2BA001F00A
:1044A00007FD324F0024305DFFF72BFF08B130A02D
:1044B00000E030A001F0FCFC3868854216D12E489F
:1044C0000068844212D19AF800004E2806D0452890
:1044D00006D0532806D0572806D018E027A00AE0B7
:1044E00027A008E027A006E027A004E0305DFFF742
:1044F0000EFF18B125A001F0DBFC08E0305DFFF7EE
:1045000003FF09EB0510015D0FA001F0D1FC641C55
:10451000102CC8DB16A001F0CBFC0CA001F0C8FCED
:104520006D1EA9D500240CA001F0C2FC641C102C47
:10453000F9DB0DA001F0BCFCBDE8F04703A001F0E1
:10454000B7BC0000B4010020253364000A0D000050
:1045500024000020B40200202B2D2D2D000000008F
:104560002B202020000000002B0000001400002061
:104570007C0000002000000010000020205E2000D1
:10458000203E200020762000203C200020782000C3
:1045900030B52848017841F00E010170417841F0B2
:1045A0000C01417000214218491C12F8F03F1029FB
:1045B00043F001031370F6DB5FF0000100EB011222
:1045C000491CD37B102943F00203D373F6DB00218F
:1045D000425C42F004024254491C1029F8DB0021DD
:1045E00000EB0112491C1378102943F008031370E3
:1045F000F6DB0E21104C0022002004EB02130728EA
:10460000195401DA491E04E0A0F10805072D00D273
:10461000491C401C1028F2DB072A01DA491E04E07D
:10462000A2F10800072800D2491C521C102AE3DB23
:1046300030BD0000B4010020B4020020F848017829
:10464000F8484E29006806D0452907D0532908D0DC
:10465000572909D00AE005280AD007E0062807D024
:1046600004E0072804D001E0082801D001207047A9
:10467000002070472DE9F0474FF4807900273D4630
:10468000E948002400EB0516072D01D0082D03D1C1
:10469000072C1CD0082C18D016F804802946204678
:1046A000FFF798FE401CC0B23055404500D00127AE
:1046B000641C102CE8DB6D1C102DE1DB002F02D0F8
:1046C000B9F10109DAD5BDE8F0870924DCE708244F
:1046D000DAE7F0B5D248D54AD6490778D4481678F3
:1046E000D64A0578D6480C78D3491368006801EBA0
:1046F000031211184E2F2CD0452F4FD0532F71D0AD
:10470000572F25D15EB1165C002846F008061654D6
:1047100005DD11F8016C46F0020601F8016C5DB18F
:10472000155C002B45F00405155405DD11F8105CEF
:1047300045F0010501F8105C002C09D0145C0F2B2A
:1047400044F00104145403DA087C40F004000874B7
:10475000F0BD4EB1165C0F2B46F00106165403DA7D
:104760000B7C43F004030B745DB1135C002843F031
:104770000803135405DD11F8013C43F0020301F86E
:10478000013C002CE4D0135C0F2843F002031354C7
:10479000DEDA487840F008004870F0BD4EB1165C93
:1047A0000F2846F00206165403DA4E7846F0080643
:1047B0004E704DB1155C0F2B45F00105155403DA11
:1047C0000D7C45F004050D74002CE6D0145C002B24
:1047D00044F004041454E0DD11F8100D40F0010021
:1047E00024E0FFE75EB1165C002B46F00406165489
:1047F00005DD11F8103C43F0010301F8103C4DB108
:10480000135C0F2843F00203135403DA4B7843F090
:1048100008034B70002CC0D0135C002843F0080341
:104820001354BADD11F8010D40F002000870F0BD1C
:104830002DE9F04F834901202DED028B83B00870E4
:10484000FFF7B2FB7E4800254E2105607B4801261C
:10485000A94605607248AA462F4601707648AB46C5
:104860002C460078FFF750FD70B97449724809680A
:1048700000EB011072490968425C42F01002425498
:1048800071480168491C01607048714900689FEDDA
:10489000718A08605CE27048704A0068126806FB22
:1048A00000F18D1AB9F1000F32D1854230DC6C4A2B
:1048B0004FF00109DFF884C182F80090694A604B2B
:1048C00082F80090584ADCF8001002EB01181A68D0
:1048D00018F80280B8F1FC0F72D2DFF8448198F822
:1048E0000080B8F14E0F09D0B8F1450F08D0B8F1EB
:1048F000530F07D0B8F1570F08D009E0491C02E068
:10490000521C04E0491ECCF8001001E0521E1A604F
:10491000BAF1000F09D100EB4001CA1701EB927107
:10492000B5EBA10F01DC4FF0010A002F77D100EBAE
:10493000D070B5EB600F72DC4B484C490127006822
:104940000968884202DD3A4901200870484849490F
:1049500000680968884202DD36490120087046482F
:10496000464900680968884208DD454845490068AD
:104970000968884202DD2D4901200870FFF7A9FE71
:10498000DFF8B8802E48D8F800100068FFF722FD45
:10499000254AD8F80010401C02EB0112284909688A
:1049A0005054FFF767FE2449D8F8000001EB0011CE
:1049B00023480068085CFFF79BFC10B1FC2009E06D
:1049C00033E11949D8F8000001EB00101C490968CF
:1049D0000844007C194901901748096800EB01114F
:1049E00017480068085CFFF786FC08B1FC2008E067
:1049F00012490D48096800EB01111148006808448C
:104A000040780E4980460C48096800EB01110C48BB
:104A10000068085CFFF772FCB0B3FC203FE080E068
:104A20002400002020000020B40200201C000020F0
:104A30001D0000201E000020B401002014000020F2
:104A400010000020990000201800002054000020D1
:104A500014010020000000008C0000208C010020C8
:104A60002800002029000020FC000020A4000020D5
:104A700000010020A8000020F40000209C0000207D
:104A8000F8000020A0000020FFE7FF48FD49006873
:104A900001EB0011FD480068084410F8100C00906C
:104AA000F948FB49006801EB0011F8480068085C10
:104AB000FFF727FC08B1FC2009E0F349F148096839
:104AC00000EB0111F1480068084410F8010C01994D
:104AD000414506DA009A914203DA814201DA052063
:104AE0001DE0019A904506DA009A904503DA804568
:104AF00001DA062013E00099414507DA0A460199D8
:104B00008A4203DA824201DA072008E0404516DAD9
:104B10000099884213DA0199884210DA0820DD49A9
:104B20000860DD48006800EBD070B5EB600F00DC7A
:104B30000127DFF8688398F80000E8BB89E0DFF818
:104B4000608398F800004E280BD1CF49D0480968FF
:104B500000EB0111CD480068085CFFF7C9FB002895
:104B6000BDD098F8000045280BD1C749C84809684E
:104B700000EB0111C5480068085CFFF7BCFB00288A
:104B8000B7D098F8000053280BD1BF48C04900683F
:104B900001EB0011BD480068085CFFF7AFFB00287F
:104BA000B2D098F8000057280DD1B749B848096825
:104BB00000EB0111B54800E04EE00068085CFFF72B
:104BC000A0FB0028AAD0B049B148DFF8C08209682C
:104BD00000EB0111D8F80000085CFFF789FB002802
:104BE000BED0A949AA48096800EB0111D8F8000015
:104BF000085CFFF780FB0028C2D0A349A4480968DD
:104C000000EB0111D8F80000085CFFF777FB0028E3
:104C1000C6D09D499E48096800EB0111D8F80000F4
:104C2000085CFFF76EFB0028CCD09A4804609D48D2
:104C300004700020FDF7A0FE0020FDF7B3FE0A205F
:104C4000FDF714FF03B0BDEC028BBDE8F04FFFF79A
:104C50000ABCFFF7F3FCC8B12846FFF7F0F9924809
:104C6000B0EE481AD0ED000AFFF7D0F98F48D0ED2A
:104C7000000AB4EEE00AF1EE10FA04D28C480168A2
:104C80008C48016006E08B48046003E0884889494D
:104C900000680860BBF1000F09D17F480068C117A8
:104CA00000EB9170B5EBA00F06DC4FF0010B98F80C
:104CB000000008B180480470002D49DCDFF8C8917D
:104CC000DFF8C8A1724FD9F80000DAF8001007EB3E
:104CD0000010761C405CFFF717FB68B9D9F800009C
:104CE000DAF8001007EB0010425C42F01002425468
:104CF00072480168491C016098F8000038B170489A
:104D000002687048016870480068FEF7C9FF614892
:104D10000068052806D0062807D0072808D00828EC
:104D200009D00AE0FFF748FA07E0FFF766FA04E067
:104D3000FFF784FA01E0FFF7A0FA644888F8004022
:104D40004FF0000904706248CA464F46CB460470D3
:104D5000FFF7E0FA00283FF49EADDFF83CA1DFF852
:104D600074B1DFF84491DFF84481524F002D22DD09
:104D7000DAF8000000EBD071B5EB610F01DA4E49B3
:104D80000C70DBF800107043451A2846FFF757F9FE
:104D9000B0EE481AD9ED000AFFF738F9D8ED000A4D
:104DA000B4EEE00AF1EE10FA03D241480068386030
:104DB000DCE73C60DAE7344E344F354D3068396813
:104DC00005EB0010405CFFF79FFA58B9306839686E
:104DD00005EB0010425C42F010024254374908686B
:104DE000401C08602F4804700020FDF7C5FD00201E
:104DF000FDF7D8FDFFF737FB0320FDF737FE3648F8
:104E0000047003B0BDEC028BBDE8F08F2DE9F047D4
:104E10004FF480780027DFF86CA03D4600240AEBB1
:104E2000051600BF55EA04000BD016F80490294679
:104E30002046FFF7CFFA401CC0B23055484500D09D
:104E40000127641C102CEDDB6D1C102DE6DB002F00
:104E500002D0B8F10108DDD535E42DE9F04F1E4848
:104E600001212DED028B83B00170FFF79DF8012524
:104E70000024DFF810802746A3462646A246204697
:104E800000222BE0B40200201400002010000020BB
:104E9000B4010020200000208C0000201C00002015
:104EA00024000020290000200C01002058010020CF
:104EB00054000020140100202800002018000020C9
:104EC00040000020B8000020B40000201D00002099
:104ED0001E0000208C010020990000201146C146D0
:104EE00008EB001302EB000C03F801C0521C491C34
:104EF0001029F7DB401C1028C2DBFFF787FFFFF704
:104F0000DDF9FE480168FE489FEDFE8A0160ACE2D3
:104F1000FD48FE490068096805FB00F2541A1FBBF2
:104F200084422CDCFA4A0127FB4B1770F94ADFF860
:104F3000ECC317701A68DCF8001009EB021818F8B7
:104F40000180B8F1FC0F71D2DFF8D48398F80080AB
:104F5000B8F14E0F09D0B8F1450F08D0B8F1530F92
:104F600007D0B8F1570F07D009E0521C02E0491CE6
:104F700003E0521E1A6002E0491ECCF80010BBF19B
:104F8000000F09D100EB4001CA1701EB9271B4EB9D
:104F9000A10F01DC4FF0010B002E74D100EBD0709B
:104FA000B4EB600F6FDCDF48DF4901260068096859
:104FB000884202DDDD4901200870DD480168DD48D6
:104FC0000068814202DDDC4901200870DB4801688D
:104FD000DB480068814208DDDA48DB49006809687F
:104FE000884202DDD94901200870FFF772FBDFF823
:104FF0002883CA48D8F800100068FFF7EBF9C749C2
:10500000D8F80020401C096809EB02125054FFF741
:10501000FDFECF48D8F8001000EB0111BF48006832
:10502000085CFFF765F910B1FC2008E061E1BB48BE
:10503000D8F80010006809EB01110844007CB6495B
:105040000190C348096800EB0111B4480068085C8E
:10505000FFF751F908B1FC2007E0AF49AF480968F4
:10506000006809EB011108444078AB498046B84814
:10507000096800EB0111A9480068085CFFF73EF9D8
:1050800010B1FC2009E0D5E0A349A44809680068F4
:1050900009EB0111084410F8100C9F490090AC482E
:1050A000096800EB01119D480068085CFFF729F9C9
:1050B00008B1FC2008E0984998480968006809EBA5
:1050C0000111084410F8010C0199414506DA009AD3
:1050D000914203DA814201DA05211BE0884506DAB4
:1050E000009A904503DA804501DA062112E0009922
:1050F000414506DA019A914203DA814201DA072139
:1051000008E0404509DA0099884206DA01998842A8
:1051100003DA08218F4801608CE07F48DFF8308295
:10512000006808EB00117D480068085CFFF7E0F8B4
:1051300050B9794979480968006808EB01110844B9
:10514000007CFFF7E1F850B17349744809680068C2
:1051500008EB0111085CFFF7CEF810B10DE0052057
:1051600066E06D496D480968006808EB0111084464
:105170004078FFF7C9F80028B7D067496748096841
:10518000006808EB0111085CFFF7B8F858B96249EC
:1051900062480968006808EB0111084410F8100C17
:1051A000FFF7B2F868B1DFF870816948D8F80010ED
:1051B00000EB011159480068085CFFF7A2F810B134
:1051C0000EE0072034E06248D8F8001000EB01112F
:1051D00052480068084410F8010CFFF795F820B118
:1051E0004F4800784E2802D00DE0082020E05848B3
:1051F000D8F8001000EB011148480068085CFFF780
:1052000077F80028ABD04648007845280AD15048A6
:10521000D8F8001000EB011140480068085CFFF767
:105220006AF820B13E480078532811D01CE00620CF
:10523000484908603448006800EBD070B4EB600F58
:1052400000DC0126DFF8048198F80000E8BB93E059
:105250003F48D8F8001000EB011130480068085CA6
:10526000FFF74CF80028ACD02D48007857280BD118
:105270003748D8F8001000EB011128480068085C96
:10528000FFF73FF80028B0D023493148096800EB08
:10529000011122480068085CFFF72AF80028B1D005
:1052A0001D491E48DFF8A8800968006808EB011155
:1052B000085CFFF720F80028B9D017494046DFF80E
:1052C0005C80096800EB011100E058E0D8F80000AC
:1052D000085CFFF713F80028C5D00F491C4809687F
:1052E00000EB0111D8F80000085CFFF70AF800286D
:1052F000C9D018490020086006492DE0540000205C
:1053000014010020000000008C0000208C0100200F
:105310002800002029000020140000201000002098
:1053200024000020FC000020A40000201D0000201C
:1053300000010020A80000201E000020F400002032
:105340009C000020F8000020A00000201C0000208D
:10535000B4010020200000200870FDF70DFB0020A4
:10536000FDF720FB0A20FDF781FB03B0BDEC028BAB
:10537000BDE8F04FFFF777B8FFF760F9C0B12046FE
:10538000FEF75DFEFE48B0EE481AD0ED000AFEF7CB
:105390003DFEFC48D0ED000AB4EEE00AF1EE10FA52
:1053A00002D2F948016800E00021F848016003E0FA
:1053B000F548F64900680860BAF1000F09D1F448D1
:1053C0000068C11700EB9170B4EBA00F07DC4FF041
:1053D000010A98F8000010B1EE4800210170002C7D
:1053E00043DCEE4FDFF8B0A3ED4E39686D1C0AEBDD
:1053F00001103168405CFEF787FF58B939680AEB45
:1054000001103168425C42F010024254E5480168E4
:10541000491C016098F8000038B1E3480268E3488D
:105420000168E3480068FEF73BFCE2480068052895
:1054300006D0062807D0072808D0082809D00AE097
:10544000FEF7BAFE07E0FEF7D8FE04E0FEF7F6FE30
:1054500001E0FEF712FF0027D74988F80070BB462D
:105460000F70D6493E46BA460F70FEF7A9FF0028D6
:105470003FF44EADDFF81893DFF844A3DFF8008364
:10548000DFF800B3C14F0026002C23DDD9F800005F
:1054900000EBD071B4EB610F01DABE490E7005FB71
:1054A00000F1DAF800000C1A2046FEF7C8FDB0EE55
:1054B000481AD8ED000AFEF7A9FDDBED000AB4EEAC
:1054C000E00AF1EE10FA03D2AF4800683860DBE77B
:1054D0003E60D9E7B14DB24FAF4C2868396804EB54
:1054E0000010405CFEF710FF58B92868396804EBDB
:1054F0000010425C42F010024254AA480168491C64
:105500000160FEF7DBFEAF4806700020FDF734FABD
:105510000020FDF747FAFFF7ADF8FEF7A4FF0320E0
:10552000FDF7A4FAA84806706BE42DE9F04FA648F1
:1055300001212DED028B83B00170FEF735FDA048EF
:1055400000254E2107689648A846A946056093485D
:10555000AA462E4605609D482C4601708E4800786C
:10556000FEF7D2FE70B98D498B48096800EB011037
:105570008B490968425C42F0100242548948016834
:10558000491C016080488149DFF804B200681FEDC2
:10559000A38A086093E200BFDBF8000026B100EBAD
:1055A000D07007EB600100E03918854800680D1ADB
:1055B000B8F1000F31D1DBF8000085422DDC7548D1
:1055C0004FF00108754A80F800807E48804980F8D5
:1055D0000080106801EB001C71490B681CF803C0C7
:1055E000BCF1FC0F73D2DFF8E4C19CF800C0BCF141
:1055F0004E0F09D0BCF1450F08D0BCF1530F07D0B6
:10560000BCF1570F07D008E0401C02E05B1C03E030
:10561000401E106001E05B1E0B60B9F1000F0BD162
:10562000DBF8000000EB4000C11700EB9170B5EB18
:10563000A00F01DC4FF00109BAF1000F73D1DBF8C4
:10564000000000EBD070B5EB600F6CDC6148624984
:105650004FF0010A00680968884202DD56480121BE
:1056600001705E4801685E480068814202DD53486F
:10567000012101705B485C4900680968884208DDC7
:105680005A485B4900680968884202DD594901208F
:105690000870FFF71EF8414E414831680068FEF778
:1056A00099FE4B493268401C01EB02123C490968E3
:1056B0005054FEF7DFFF3848316800EB01113848DD
:1056C0000068085CFEF714FE10B1FC2008E01AE147
:1056D0003F48316800EB0111314800680844007C04
:1056E00001902D48316800EB01102D490968405C9C
:1056F000FEF701FE08B1FC2007E03548316800EBF9
:105700000111274800680844407824490090224845
:10571000096800EB011122480068085CFEF7EEFD05
:1057200010B1FC260AE06DE11C492948096800EB2C
:1057300001111B480068084410F8106C17491648FE
:10574000096800EB011016490968405CFEF7D9FDB5
:1057500008B1FC2009E011491D48096800EB01115E
:105760000F480068084410F8010CDDE9002191425F
:1057700042DAB14240DA81423EDA052156E00000C9
:105780000C010020580100205400002014010020CA
:105790008C00002028000020B4010020140000200C
:1057A000100000201800002040000020B800002059
:1057B000B4000020200000201D0000201E0000205A
:1057C0008C010020290000209900002024000020E6
:1057D000B4020020FC000020A400002000010020F2
:1057E000A8000020F40000209C000020F800002009
:1057F000A00000201C0000201146019A914205DA09
:10580000B14203DA814201DA062093E08E4205DAE2
:10581000964203DA864201DA07208BE0009988423B
:1058200007DAB04205DA904203DA0821FE48016047
:1058300082E0FE4E30784E280AD1FE49FC480968C5
:1058400000EB0111FC480068085CFEF751FD18B13F
:105850003078452802D00DE005206BE0F548F4498A
:10586000006801EB0011F4480068085CFEF743FD96
:105870000028C9D0307853280BD1EE49EC4809688C
:1058800000EB0111EC480068085CFEF737FD0028CA
:10589000C2D0307857280AD1E648E549006801EBC4
:1058A0000011E5480068085CFEF72BFDF0B3E14805
:1058B000DF4E006806EB0011DF480068085CFEF769
:1058C00017FD0028C8D0DB48006806EB0011DA4855
:1058D0000068085CFEF70FFD002895D0D5480068E9
:1058E00006EB0011D4480068085CFEF707FD0028AD
:1058F00092D0D048006806EB0011CF480068085CE1
:10590000FEF7FFFC90B1C8480460CC48047000204A
:10591000FDF732F80020FDF745F80A20FDF7A6F85C
:1059200003B0BDEC028BBDE8F04F00E001E0FEF7F4
:105930009ABD0820BC490860BE48BD4E006806EB11
:105940000011BD480068085CFEF7DEFC68B9B94884
:10595000B9490068096806EB0010425C42F0100289
:105960004254B7480168491C0160B64801210170E2
:10597000AD480068052806D0062811D007281CD09D
:10598000082827D03BE0A94800784E2837D0532874
:1059900035D0AD480460FEF766FDFEF70DFC25E04E
:1059A000A248007845282AD0572828D0A648046065
:1059B000FEF759FDFEF721FC18E09C4800785328BB
:1059C0001DD04E281BD0A0480460FEF74CFDFEF70A
:1059D00035FC0BE095480078572810D045280ED0AC
:1059E00099480460FEF73FFDFEF747FC9548012605
:1059F0004FF47A710470C820FDF759F853E09148CC
:105A000000260470DBF8000000EBD070B5EB600FEF
:105A10001DDC8E480078B0B18D4804702846FEF732
:105A20000EFB8C48B0EE481AD0ED000AFEF7EEFAF5
:105A30008948D0ED000AB4EEE00AF1EE10FA02D384
:105A40008148046003E085487F4900680860002DB4
:105A500035DC4FF47A71C820FDF729F87B480078CF
:105A600038B17F4802687F4801687F480068FEF7C8
:105A700017F96D480068052806D0062807D00728C2
:105A800008D0082809D00AE0FEF796FB07E0FEF7E9
:105A9000B4FB04E0FEF7D2FB01E0FEF7EEFB6F483B
:105AA00069490068086071484FF00008C1460768FE
:105AB0006648C24604706E4804706E480470FEF773
:105AC00029FC00283FF468AD2BE000BFDBF80000A4
:105AD00000EBD071B5EB610F01DA5D490C701EB1BE
