:020000040800F2
:10000000000C002039640008B5220008B72200085F
:10001000B9220008BB220008BD2200080000000031
:10002000000000000000000000000000BF220008E7
:10003000C122000800000000C3220008C5220008F9
:1000400053640008536400085364000853640008B4
:1000500053640008536400085364000853640008A4
:100060005364000853640008536400085364000894
:100070005364000853640008536400085364000884
:100080005364000853640008536400085364000874
:10009000536400085364000853640008E322000816
:1000A0005364000853640008536400085364000854
:1000B0005364000853640008536400085364000844
:1000C0005364000853640008536400085364000834
:1000D0005364000853640008536400085364000824
:1000E0003F23000853640008536400085364000869
:1000F0005364000853640008536400085364000804
:1001000053640008536400085364000853640008F3
:1001100053640008536400085364000853640008E3
:1001200053640008536400085364000853640008D3
:1001300053640008536400085364000853640008C3
:1001400053640008536400085364000853640008B3
:1001500053640008536400085364000853640008A3
:100160005364000853640008536400085364000893
:100170005364000853640008536400085364000883
:10018000536400085364000800F002F800F060F8BF
:100190000AA090E8000C82448344AAF10107DA45E2
:1001A00001D100F055F8AFF2090EBAE80F0013F0D4
:1001B000010F18BFFB1A43F001031847C87A00006B
:1001C000E87A00000A4410F8014B14F00F0508BF4C
:1001D00010F8015B240908BF10F8014B6D1E05D013
:1001E00010F8013B6D1E01F8013BF9D1641E03D0EC
:1001F000641E01F8015BFBD19142E4D3704700001B
:100200000023002400250026103A28BF78C1FBD81F
:10021000520728BF30C148BF0B607047642906F001
:100220007D82632906F03485732906F03985002024
:1002300070471FB507F0E9FC06F0D4FF040000206A
:10024000002106F0DBFF401C60601FBD10B510BD33
:1002500006F0ACFD1146FFF7ECFF01F041FC06F0A3
:10026000AFFF03B4FFF7F2FF03BC02F05FFA000038
:100270002749084327490860704770B50F21C478A3
:10028000027801234FF0E026E4B1224C246804F404
:10029000E064C4F5E064C4F30724C4F10405E1405C
:1002A0004478AC4085780D4025431B4C29011155FD
:1002B000007800F01F018B40400906EB8000C0F879
:1002C000003170BD02F01F008340500906EB800032
:1002D000C0F8803170BD114A114001430D48001F24
:1002E000016070470B4A121D0029116801D00143BB
:1002F00000E08143116070474FF0E0210428086955
:1003000003D020F004000861704740F00400FAE7D1
:100310000000FA050CED00E000E400E080FFFF1FA4
:1003200010B501210C02204600F093FC2046BDE8E8
:100330001040002100F08DBC30B54268C44B0C79F0
:100340001A400B6842EA0422134343608268C14B9F
:100350004D791A40D1E9034323438C6844EA4504AC
:10036000234313438360C26A097D22F47002491E4D
:10037000C9B242EA0151C16230BD00210160017180
:1003800041718160C1600161012101757047B24B0B
:1003900010B51A68B1490A40D0E900142143D0E9E8
:1003A0000240044321431143196010BD0021016044
:1003B00041608160C16070470029816802D041F0CE
:1003C000010101E021F00101816070474268A44B06
:1003D0001A400A4342607047416282627047426835
:1003E00022F01F020A43426070479E490028D1F85C
:1003F000040302D040F4000001E020F40000C1F842
:100400000403704797490028D1F8040302D040F450
:10041000800001E020F48000C1F80403704770B54B
:10042000072509290AD9C468A1F10A0606EB460680
:10043000B540AC43B3401C43C46007E0046901EB22
:100440004106B540AC43B3401C4304611F23072A57
:1004500009D2446B521E02EB820293409C439140AE
:100460000C43446370BD0D2A09D2046BD21F02EB0A
:10047000820293409C4391400C43046370BDC46A64
:100480000D3A02EB820293409C4391400C43C462BC
:1004900070BD816841F08041816070470146002055
:1004A0008968490200D5012070470029816802D07F
:1004B00041F4806101E021F480618160704700298E
:1004C000816802D041F0020101E021F00201816067
:1004D00070474268491E22F4604242EA413141605D
:1004E00070470029416802D041F4006101E021F425
:1004F000006141607047C06C80B270475648001D73
:10050000006870470029816802D041F4807101E0E1
:1005100021F48071816070470029816802D041F424
:10052000007101E021F40071816070474D4900289D
:10053000D1F8040302D040F4005001E020F4005050
:10054000C1F80403704770B5072409290AD9C568A2
:10055000A1F10A0606EB4606B440A543B3401D438D
:10056000C56007E0056901EB4106B440A543B3400F
:100570001D430561836BC3F30154121B921C02EBF4
:1005800082041F22A2409343A1400B43836370BDAA
:10059000826B491E22F4401242EA01518163704786
:1005A00042507047826822F470220A43826070478A
:1005B000826822F440120A4382607047816841F4E5
:1005C000800181607047014600208968490200D59A
:1005D000012070470029416802D041F4806101E0A8
:1005E00021F48061416070470029416802D041F4E4
:1005F000805101E021F48051416070470844806AD5
:1006000080B2704701238B4041680AB1194300E072
:100610009943416070470246002012680A4200D0A8
:1006200001207047C9430160704730B50246002081
:1006300054680B0A01258D4011682C40194202D0E4
:10064000002C00D0012030BD6FEA112101607047FD
:10065000FFFEFFFCFDF7FFC004230140E030FCFF7C
:10066000FFFD3FFF00200140374900200860091DC1
:100670000860091D0860091D0860334933481431BA
:100680000860704730B530498379026853B30B680E
:1006900093430B600A1D13680468A3431360027937
:1006A0000A441368046823431360274A0832136816
:1006B0000468A3431360131D1C680568AC431C60E9
:1006C0004479102C05D021440A68006802430A606E
:1006D00030BD116804682143116019680068014346
:1006E000196030BD0079084401689143016030BD54
:1006F0000021016001710C22427181717047124921
:1007000010310A6802430A60704701460E4A002011
:10071000143212680A4200D0012070470A4914318D
:1007200008607047084A014600201268064B0A40DC
:1007300014331B680B4202D0002A00D001207047FE
:100740000149143108607047003C0140FFFF7F0001
:100750007A4910B5884206D10121084600F051FAC5
:10076000002101204FE07649884206D10121022074
:1007700000F047FA0021022045E07249884206D184
:100780000121042000F03DFA002104203BE06E49E5
:10079000884206D10121082000F033FA0021082008
:1007A00031E06A49884206D10121102000F029FA7F
:1007B0000021102027E06649884206D1012120202F
:1007C00000F01FFA002120201DE06249884206D176
:1007D0000121402000F015FA0021402013E05E497D
:1007E000884206D10121802000F00BFA00218020F0
:1007F00009E05A4988420AD184150121204600F0B7
:1008000000FA00212046BDE8104000F0FAB910BD02
:10081000F0B50023012403270D6804FA03F2154004
:10082000954242D1D0F800C05E0007FA06F52CEAE6
:10083000050CC0F800C091F804C0D0F800E00CFA34
:1008400006FC4CEA0E0CC0F800C091F804C0BCF1E4
:10085000010F02D0BCF1020F1FD1D0F808C02CEA62
:10086000050CC0F808C091F805C0D0F808E00CFAF3
:1008700006FC4CEA0E0CC0F808C0D0F804C02CEA04
:10088000020CC0F804C0426891F806C00CFA03FCE0
:100890001FFA8CFC42EA0C024260C268AA43C260A2
:1008A000CA79C568B2402A43C2605B1C102BB3D31F
:1008B000F0BD4FF6FF71016000210171417181713E
:1008C000C171704741F48032C261C161C261C169C6
:1008D000C06970470246002012690A4200D0012018
:1008E0007047006980B270470246002052690A4290
:1008F00000D001207047406980B270470183704783
:10090000418370470AB10183704741837047416159
:10091000704742694A40426170474B07DB0E9A407C
:10092000C90810B500EB8100016A0F249C40A14367
:100930000162016A1143016210BD00000000024023
:100940000004024000080240000C02400010024077
:100950000014024000180240001C02400020024027
:10096000E948016841F001010160E74A00210832CD
:1009700011600268E54B1A400260031DE44A1A60E8
:10098000026822F480220260DF480C300160704768
:10099000DD490022891C0A70087070470246002059
:1009A000510901290CD002290CD0D74974310968AA
:1009B00002F01F02012393400B4200D00120704738
:1009C000D149F4E7D0497031F1E730B500244FF454
:1009D000A0653120FFF7E2FF641CAC4201D0002883
:1009E000F7D03120FFF7DAFF002800D0012030BD1A
:1009F000C5490A6822F0F80242EAC0000860704760
:100A0000C44908607047C049002270310A700A70FA
:100A1000012802D0042801D1052008707047BE4982
:100A20000860704741EA82115A0810B5BB4B029C1E
:100A300003EB02421143014341EA0460B249091D3C
:100A4000086010BDB34908667047800140EA017034
:100A5000AD49843108607047AE4988667047AD493A
:100A6000C8647047A84A08321368084323F0EC634F
:100A7000184310607047A44A08321368084323F0F3
:100A800078431843106070479F4A0832116821F07C
:100A900003010143116070479B480830006800F073
:100AA0000C007047984A0832116821F0F0010143A8
:100AB00011607047944A0832116821F4E0510143F3
:100AC00011607047904908310A6822F4604242EA96
:100AD000C0000860704770B58B4A08321168904BAF
:100AE00011F00C0104D05D10042903D0082903D0B3
:100AF00003601BE0056019E08349091D0C68C4F31D
:100B000080560C6804F03F0416B1B5FBF4F301E025
:100B1000B3FBF4F30C680968C4F388146343C1F3AE
:100B20000141491C4900B3FBF1F1016011687D4BA3
:100B300001F0F00109095C5C0168E1404160146862
:100B400004F4E054A40A1C5D21FA04F484601268E1
:100B500002F46042520B9A5CD140C16070BDC0F398
:100B60000121032908D1684A0832116821F4F813D9
:100B70006D49014019431160634970310A68C0F33F
:100B80000B0002430A6070476349443908607047AC
:100B900061494039086070476449086070475A4AA3
:100BA00030320029116801D0014300E08143116017
:100BB0007047554A34320029116801D0014300E0E2
:100BC000814311607047504A38320029116801D0C2
:100BD000014300E08143116070474B4A40320029D5
:100BE000116801D0014300E0814311607047464A1B
:100BF00044320029116801D0014300E081431160B3
:100C00007047414A10320029116801D0014300E0C9
:100C10008143116070473C4A14320029116801D0A9
:100C2000014300E0814311607047374A18320029C0
:100C3000116801D0014300E0814311607047324ADE
:100C400020320029116801D0014300E08143116086
:100C500070472D4A24320029116801D0014300E079
:100C6000814311607047284A50320029116801D031
:100C7000014300E0814311607047234A5432002948
:100C8000116801D0014300E08143116070471E4AA2
:100C900058320029116801D0014300E081431160FE
:100CA0007047194A60320029116801D0014300E001
:100CB000814311607047144A64320029116801D0E1
:100CC000014300E08143116070470F4A0D32002953
:100CD000117801D0014300E08143117070470A4848
:100CE0007430016841F08071016070470146064A26
:100CF00000200C3212680A4200D0012070470249DD
:100D00000E3108707047000000380240FFFFF6FE09
:100D10001030002400004742800E47420000FFFFD1
:100D20000024F40000000020FFFCFF0F5C0147429C
:100D300010B501218C032046FFF78BFF2046BDE84C
:100D400010400021FFF785BF11490860704710B5BA
:100D50008A07130F21F003040F220D499A4008312E
:100D600021440C6894430C600A68984002430A606E
:100D700010BD08490860704707490860704704497A
:100D8000002020310968C90500D501207047000006
:100D900000380140DC00274200042742FE4910B51C
:100DA000884206D101210846FFF753FF00210120A8
:100DB0005BE0B0F1804F09D0F84988420DD10121A4
:100DC0000220FFF73CFF0021022070E001210846CD
:100DD000FFF735FF0021012069E0F149884206D183
:100DE00001210420FFF72BFF002104205FE0ED49E3
:100DF000884206D101210820FFF721FF00210820A9
:100E000055E0E949884206D101211020FFF717FF7C
:100E1000002110204BE0E549884206D10121202025
:100E2000FFF70DFF0021202041E0E149884206D173
:100E300001210220FFF70DFF0021022015E0DD490E
:100E4000884202D101210C040AE0DB49884202D128
:100E500001214C0404E0D94988420AD101218C04C3
:100E60002046FFF7F6FE00212046BDE81040FFF7C0
:100E7000F0BED349884206D101214020FFF7DFFEB2
:100E80000021402013E0CF49884206D10121802073
:100E9000FFF7D5FE0021802009E0CB4988420AD126
:100EA000841501212046FFF7CAFE00212046BDE837
:100EB0001040FFF7C4BE10BD30B50288B64BBC4C25
:100EC00098420DD0A0420BD0B0F1804F08D0B34D66
:100ED000A84205D0B24DA84202D0B24DA84203D1DB
:100EE00022F070054A882A43AF4DA84206D0AF4D84
:100EF000A84203D022F440750A892A4302804A6836
:100F0000C2620A880285984201D0A04201D1897A42
:100F100001860121818230BD4FF0FF314160002107
:100F20000180018141808172704701858282704712
:100F3000028822F070020A430280704741627047C3
:100F4000C1627047406A7047008D70470029018870
:100F500002D041F0020101E021F00201018070475E
:100F60000029018802D041F0040101E021F00401D0
:100F7000018070470029018802D041F0800101E022
:100F800021F0800101807047028822F0080202806F
:100F900002880A4302807047028822F4407202806D
:100FA00002880A43028070470029018802D041F07C
:100FB000010101E021F001010180704730B5028C90
:100FC00022F001020284028C8388048B22F0020248
:100FD00024F073050C882C438D8915434A882A43D5
:100FE0006D4DA84202D0724DA8420DD122F00805E5
:100FF000CA8923F440732A4322F004058A882A43CD
:101000000D8A1D434B8A2B43838004838968416387
:10101000028430BD70B5028C22F010020284028C72
:101020008488038B0D8823F4E6464FF6FF7303EAAA
:10103000052535438E8922F0200203EA0616164361
:101040004A8803EA02123243534EB04202D0584E4D
:10105000B04215D122F08006CA8924F4406403EA24
:101060000212324322F040068A8803EA0212324317
:101070000E8A03EA860626434C8A03EA8404344334
:101080008480058389688163028470BD70B5028C99
:1010900022F480720284028C8488838B0D8823F072
:1010A00073031D4322F400738E894FF6FF7202EA28
:1010B00006261E434B8802EA03233343364EB042D2
:1010C00002D03B4EB04215D123F40066CB8924F404
:1010D000405402EA0323334323F480668B8802EAF8
:1010E000032333430E8A02EA061626434C8A02EA99
:1010F00004143443848085838968C163038470BD8C
:1011000070B5028C22F480520284048C8288838B16
:101110000D8823F4E6464FF6FF7303EA05253543B1
:1011200024F400568C8903EA043434434E8803EADD
:1011300006362643184CA04202D01D4CA04205D1D1
:1011400022F480440A8A03EA821222438280858341
:1011500089680164068470BD00210180418081801E
:1011600081608181C18101824182704730B5012453
:10117000058C00F118038C40A543058431B3082980
:101180002CD0091FC1F34E001844016848F6FF73C4
:101190001940016001681AE00000014000040040AD
:1011A00000080040000C0040001000400014004007
:1011B000000401400040014000440140004801405B
:1011C00000180040001C00400020004006E04FF6E0
:1011D000FF7303EA02221143016030BD03EB5100AB
:1011E00001684FF68F73194001600168F3E74163AE
:1011F000704781637047C163704701647047028B19
:1012000022F070020A4302837047028B4FF6FF738D
:1012100022F4E04203EA0121114301837047828BEB
:1012200022F070020A4382837047828B4FF6FF736D
:1012300022F4E04203EA0121114381837047028BCB
:1012400022F008020A4302837047028B4FF6FF73B5
:1012500022F4006203EA0121114301837047828B6B
:1012600022F008020A4382837047828B4FF6FF7395
:1012700022F4006203EA0121114381837047028B4B
:1012800022F004020A4302837047028B4FF6FF7379
:1012900022F4806203EA0121114301837047828BAB
:1012A00022F004020A4382837047828B4FF6FF7359
:1012B00022F4806203EA0121114381837047028B8B
:1012C00022F080020A4302837047028B4FF6FF73BD
:1012D000C2F30E0203EA0121114301837047828B9E
:1012E00022F080020A4382837047828B4FF6FF739D
:1012F000C2F30E0203EA0121114381837047028C7D
:1013000022F002020A4302847047028C22F0080293
:101310000A4302847047028C4FF6FF7322F02002CA
:1013200003EA0111114301847047028C4FF6FF73E9
:1013300022F0800203EA0111114301847047028CFC
:101340004FF6FF7322F4007203EA01211143018476
:101350007047028C4FF6FF7322F4006203EA01210A
:10136000114301847047028C4FF6FF7322F4005240
:1013700003EA013111430184704710B50123048C45
:101380008B409C430484038C8A401343038410BD28
:1013900010B50423048C8B409C430484038C8A4046
:1013A0001343038410BD828B22F440628283828BBC
:1013B0004FF6FF7303EA01210A4382837047828B51
:1013C00022F00C028283828B0A4382837047028B55
:1013D00022F440620283028B4FF6FF7303EA01217D
:1013E0000A4302837047F0B5048C24F0100404848F
:1013F000078B068C4FF6FF7404EA011527F4734738
:1014000004EA0331394304EA02220A4326F0A00128
:10141000294341F0100102830184F0BD028B22F0C8
:101420000C020283028B0A43028370472DE9F041CC
:101430000D460E884988AA882B8904460EB3042ECF
:1014400026D0082E268C4FF6FF7028D026F4805622
:101450002684A78B268C00EA022200EA013127F4B9
:1014600073473A4300EA0330104326F420420A430C
:1014700042F48051A0832184E9882046BDE8F041F0
:1014800091E700F061F9E9882046BDE8F041C5E741
:10149000FFF7A9FFE9882046BDE8F04197E726F469
:1014A00080762684A78B268C00EA012100EA0310AF
:1014B000104327F0F307384326F420620A4342F42E
:1014C0008071A0832184E9882046BDE8F04176E759
:1014D00000210180418001228280C180018170470A
:1014E0002DE9F0410C46002549880746012601B93F
:1014F0000225A288012A00D10226208823890028FB
:10150000384610D0FFF76FFFE1883846FFF75FFFDE
:10151000238932462946384600F016F9E1883846D4
:10152000BDE8F0417AE700F00FF9E1883846FFF7AF
:1015300075FF2389324629463846FFF754FFE18874
:101540003846BDE8F04142E7406B7047806B70471A
:10155000C06B7047006C704710B50A884B88CC8808
:101560001A438B8823431A430B891A434B89898971
:101570001A430A43A0F8442010BD00210180418095
:101580008180C1800181418181817047002930F8CB
:10159000441F02D041F4004101E0C1F30E0101807B
:1015A00070470029818802D041F0040101E021F058
:1015B0000401818070470029818802D041F0010137
:1015C00001E021F0010181807047002A828901D069
:1015D0000A4300E08A438281704781827047024655
:1015E0000020128A0A4200D001207047C9430182BC
:1015F000704702460020138A92890B4202EA0102D8
:1016000002D0002A00D001207047C94301827047F0
:101610001143A0F848107047002A828901D00A437C
:1016200000E08A43828170470029818802D041F01E
:10163000080101E021F0080181807047018921F053
:10164000070101817047028922F070020A4302817A
:10165000704700B50346FFF7F6FF188940F0070012
:10166000188100BD70B50D4611460446602D4FF03F
:1016700001020AD000F068F829462046FFF7E3FF90
:10168000208940F00700208170BDFFF7ACFEF3E732
:1016900030B504894FF6FF7505EA03231343E4B21E
:1016A0000B432343038130BD10B50446FFF7F0FF21
:1016B000208940F07700208110BD10B50446FFF767
:1016C000E7FF208940F48040208110BD828822F00D
:1016D0007002828082880A4382807047028922F0E9
:1016E0000702028102890A4302817047028922F0BF
:1016F0008002028102890A430281704770B5058920
:10170000048B068C25F007050D434FF6FC410C4079
:1017100040F201110C434FF6FF7101EA031126F06C
:1017200022061143314305810483018470BD0029E1
:10173000818802D041F0800101E021F080018180A8
:101740007047A0F85010704770B5048C24F0010465
:101750000484058B048C4FF6FF7606EA03131343CB
:1017600025F0F3052B4324F00A020A4342F001015D
:101770000383018470BD0000CA4910B5884206D1B8
:1017800001211020FFF765FA0021102028E0C6494A
:10179000884202D101214C0410E0C449884202D1A0
:1017A00001218C040AE0C249884202D10121CC0403
:1017B00004E0C04988420AD101210C052046FFF708
:1017C0003EFA2046BDE810400021FFF738BABA497A
:1017D000884209D101212020FFF73BFA0021202077
:1017E000BDE81040FFF735BA10BD7FB50446008A4A
:1017F0000D4620F44051E88808432082A08941F238
:101800000C618843A9882A8911436A8902431143DC
:10181000A181A08A20F44071A8890843A08268466B
:10182000FFF759F99F48844202D0A348844201D16E
:10183000039800E00298A1890904002900EBC00187
:1018400001EB0010296802DA4FEA410101E04FEA9A
:101850008101B0FBF1F26420B2FBF0F14FEA01111B
:101860004FEA11136FF018056B4302EB8302A38953
:101870001D044FF0320306D503EBC202B2FBF0F0B9
:1018800000F0070005E003EB0212B2FBF0F000F0FD
:101890000F00084320817FBD4FF4165101600021E5
:1018A0008180C18001810C2242818181704710B505
:1018B000028A4C8822F470630A8822438C88C98883
:1018C0000C4322431A43028210BD00210180418053
:1018D0008180C18070470029818902D041F4005184
:1018E00001E021F4005181817047028B02F47F42B4
:1018F0000283028B0A43028370470029818902D048
:1019000041F4004101E0C1F30E01818170470029DB
:10191000818A02D041F4006101E021F400618182FA
:101920007047C1F30801818070478088C0F30800C8
:101930007047028A22F00F020282028A0A43028260
:1019400070470029818902D041F0020101E021F0B5
:10195000020181817047828922F40062828182893A
:101960000A4382817047028A22F020020282028AA0
:101970000A43028270470029018A02D041F4804163
:1019800001E021F4804101827047818941F0010129
:10199000818170470029818A02D041F0080101E06D
:1019A00021F0080181827047028BD2B20283028B40
:1019B00042EA0121018370470029818A02D041F067
:1019C000200101E021F02001818270470029818AF5
:1019D00002D041F0100101E021F010018182704736
:1019E000828A22F004028282828A0A4382827047BB
:1019F0000029818A02D041F0020101E021F00201B8
:101A000081827047002A828A01D00A4300E08A431B
:101A10008282704710B5C1F3421301F01F04012107
:101A2000A140012B07D0022B07D01430002A0268F6
:101A300005D00A4304E00C30F8E71030F6E78A439B
:101A4000026010BD0246002012880A4200D0012028
:101A50007047C9430180704730B501F01F0201246F
:101A60000025C1F3421304FA02F2012B0FD0022B1E
:101A70000FD0838A4FEA11210088134204FA01F43F
:101A800000EA040001D000B10125284630BD838959
:101A9000F0E7038AEEE70A0A01219140C943018079
:101AA0007047000000100140004400400048004022
:101AB000004C0040005000400014014010B501F0FF
:101AC00059FA01F01BFAFD4C207808B101F078F9C1
:101AD000A078002803D0BDE8104002F053BB10BD31
:101AE00000F066FC00F0D8FC00F026FD4FF4165024
:101AF00000F0CCFD00F0BCFF01F078F800F0F2FF40
:101B000001F0E4F80421EE48FEF7FAFEED4E4FF442
:101B100080513046FEF7F4FEF1143046FEF7F0FE39
:101B200031153046FEF7ECFE04213046FEF7E8FEA4
:101B300008213046FEF7E4FEE34F20213846FEF749
:101B4000DFFE10213846FEF7DBFE4FF47A78404680
:101B500000F06BFC4FF47A61C82001F02AF8D74CF2
:101B600001200025E07040F2E730C4E90505656218
:101B7000A562E56225636563E561D4482562A063DB
:101B8000D348E063D348206440426064D248A064F4
:101B90004042E064D14820654FF44840606502F05F
:101BA000F9FACF48C0F8005001F074F801466068B7
:101BB000814206DD2069032801D0401C0AE025612E
:101BC00009E001F067F861684942884209DA206952
:101BD00000B3401E206101F066F84146322000F05B
:101BE000E8FF2069C0B101281FD002282AD00328AD
:101BF000DAD104213046FEF783FE08213046FEF795
:101C00007FFE20213846FEF77BFE10213846FEF786
:101C100075FEC9E70320DDE704213046FEF76EFEBE
:101C200008213046FEF76CFE07E004213046FEF73F
:101C300067FE08213046FEF761FE20213846FEF798
:101C40005FFE0BE004213046FEF75AFE08213046C5
:101C5000FEF756FE20213846FEF750FE102138468A
:101C6000FEF74EFEA0E72DE9F05F4FF47A61C82041
:101C700000F09FFF9BA004F0F3FC4FF47A7000F09B
:101C8000D4FB01F024FF02F00BFE02F070FD642093
:101C900000F0CBFB89480022C823642150249625FC
:101CA000954F4FF4C87B28264FF00C0C9FED930AFC
:101CB000D0F81080DFF84892DFF848A2B8F1000FA2
:101CC0000DD04FF4167EDFED900AB8F1010F17D05A
:101CD000B8F1020F25D0B8F1030F47D132E0C4624A
:101CE00081618C21C0E90C1200F11C08A8E82808C9
:101CF0003E60C0F80CC089ED000A8AED000A0DE0D4
:101D0000C462C0E90615C0E9081EC0E90C323E6095
:101D1000C0F80CC0C9ED000ACAED000A03F058FA79
:101D200024E0C46281618C21C0E90C1200F11C081E
:101D3000A8E828083E60C0F80CC089ED000A8AEDCA
:101D4000000A0DE0C462C0E90615C0E9081EC0E93A
:101D50000C323E60C0F80CC0C9ED000ACAED000AA2
:101D600003F036FA01F067FE03F09EFEBDE8F05F77
:101D700066A004F075BC2DE9F05F4FF47A61C820CD
:101D800000F017FF67A004F06BFC4FF47A7A50461E
:101D900000F04BFB01F09BFE484800216423D0F883
:101DA000108050242822544D0E26554FDFF854C180
:101DB0004FF03209B8F1000F0DD0B8F1010F1AD071
:101DC0004FF08C0B9FED5C0AB8F1020F2DD0B8F1EB
:101DD000030F23D137E04FF4C878C0F82480C462E1
:101DE00083614163C0E907392A609FED440AC660F8
:101DF00087ED000A10E08361C0F81C90C4624FF4C4
:101E000016734163C0E908932A609FED4C0AC660CF
:101E100087ED000A9FED4A0A8CED000A01F0D1FA25
:101E2000BDE8F05F47A004F01BBCC462C0E90CB180
:101E3000C0E90639C0E9089A2A60DFED330AC660B6
:101E4000C7ED000AE8E7C4628361C0E90CB100F1A4
:101E50001C08A8E806042A60C66087ED000A9FED0A
:101E60003F0AD9E72DE9F05F4FF47A612DED028B3F
:101E7000C82000F09EFE3AA004F0F2FB4FF47A7006
:101E800000F0D3FA01F023FE3A4802683A480168AC
:101E90003AA004F0E5FB094C7825174FDFF8609075
:101EA0009FED198ADFF85CA0206919264FF00C0815
:101EB0004FF02D0B00B175E07FE0000028000020FE
:101EC000000C02400008024000000240B0F1FEFF9A
:101ED0007C0F010068D1FDFF6073FFFFA81CFFFFAE
:101EE00018010020427574746F6E20302070726586
:101EF000737365640A0D0000B00100200000704299
:101F00006C010020700100200000B44246696E6937
:101F10007368656420427574746F6E203020495375
:101F2000520A0D00427574746F6E20312070726514
:101F3000737365640A0D00000000DC420000A042DB
:101F40000000C84246696E69736865642042757412
:101F5000746F6E2031204953520A0D000000F04288
:101F6000427574746F6E203220707265737365648D
:101F70000A0D00001C01002020010020457870653A
:101F80006374656420616E676C652025642C206134
:101F9000637475616C20616E676C652025640A0D41
:101FA000000000005FED1C8A012816D04FF0140BD2
:101FB00002283BD003282AD147E002F0EBF84FF487
:101FC000C870656360623E601FED340AC4F80C801F
:101FD00089ED000A8AED008A0CE002F0DBF84FF48C
:101FE0004870656360623E60C4F80C8089ED008AC9
:101FF000CAED008A4120A0651E2158465FF0DC0230
:1020000004F15C0307C3C4E91A1001F06EFB8848B1
:10201000026888480168AFF29C0004F021FBBDEC27
:10202000028B85A0BDE8F05F04F01ABB02F0B2F8A5
:102030004FF47A706062C82060633E60C4F80C8020
:1020400089ED008ACAED008A0FE002F0A3F840F2A1
:102050004C406062C82060633E60C4F80C80C9EDEB
:10206000008A1FED420A8AED000A282158465C22A8
:10207000A565C5E7F0B5764C072289B01146204624
:1020800000F080FE074607220921204600F07AFE74
:10209000064607220821204600F074FE054600F09F
:1020A000F5FD044600F0F6FD6A4904AA0968E2C29B
:1020B0006A4A694912680968CDE900206848CDE993
:1020C000024103686748026867480168674804F08E
:1020D000C7FA09B0F0BD70B54FF47A61C82000F0BE
:1020E00068FD4FF47A76304600F09FF960A004F066
:1020F000B7FA644C206938B1012808D000250228BD
:102100000BD0032808D16BE001F095FC01E001F051
:10211000B8FC032000F02CFD85E002F03BF85021D4
:10212000E1626420A06178212163E06132201FED2B
:102130008A0A20625448A42280ED000A534880EDA8
:10214000000A616352492820B2EE000A0860514932
:1021500081ED000A504981ED000A5121A1653C2121
:102160006266C4E91710C4E91A0100F021FF657026
:1021700002F05FF9642000F058F902F07BF9642066
:1021800000F053F902F095F9642000F04EF902F0E6
:102190002FF9304600F049F902F08BF9642000F085
:1021A00044F902F067F9642000F03FF902F041F9C8
:1021B000642000F03AF902F01BF9304600F035F9DE
:1021C00002F058F9642000F030F902F011F9A5701E
:1021D000002000F053FC002000F066FC657022E057
:1021E00001F0D8FF304600F020F91A48056000F0F1
:1021F000DFFE00BF00F0E4FDFFF73CFF012000F030
:1022000014F900F047FDD4E901215143884207DC6D
:1022100000F040FDA1686268494251438842E9DA12
:10222000642000F002F9BDE870401CA004F018BA68
:102230001C0100202001002046696E6973686564F6
:1022400020427574746F6E2032204953520A0D007B
:10225000002001401801002000010020080100209A
:10226000100100200C01002004010020207C000847
:10227000427574746F6E2033207072657373656479
:102280000A0D0000280000206C01002070010020D1
:10229000B0010020740100207801002046696E69B9
:1022A0007368656420427574746F6E2033204953DF
:1022B000520A0D007047FEE7FEE7FEE7FEE77047B3
:1022C0007047704737480168491C01603649086803
:1022D000002802DA354B00221A60401E0860FFF722
:1022E000EDBB10B52020FEF71DFA4FF4967470B1C7
:1022F000322000F09AF82020FEF714FA20B1204690
:1023000000F093F8FFF7AFFC2020FEF719FA402009
:10231000FEF708FA002811D0322000F086F840209D
:10232000FEF700FA002809D0204600F07EF8FFF7FB
:10233000D2FEBDE810404020FEF702BA10BD70B5D5
:102340004FF480442046FEF7EDF94FF4967570B1D6
:10235000322000F06AF82046FEF7E4F938B128464A
:1023600000F063F8FFF707FD2046FEF7E9F94FF4A8
:1023700000442046FEF7D6F9002811D0322000F0A4
:1023800054F82046FEF7CEF9002809D0284600F080
:102390004CF8FFF767FD2046BDE87040FEF7D0B966
:1023A00070BD0000E0000020F40000203404004074
:1023B00070B504F0E3F804F006F933484FF47A718D
:1023C0000068B0FBF1F0401EB0F1807F16D24FF0F4
:1023D000E024606166170F21304600F049F80025BF
:1023E000A561072020614FF44070FDF741FF0021F7
:1023F000304600F03DF82548456070BDFEE74FF0DF
:10240000E0208069A821B0FBF1F12048426802EB8E
:102410004203C3EBC212C1EBC20101F57A71016044
:1024200000687047194840687047184A51685368F7
:102430005B1A8342FBD1704730B50546FFF7DFFFDB
:102440004FEA0004FFF7DBFF001BA842FAD130BDC2
:1024500030B50C464FEA0005FFF7D1FF001BA8423C
:10246000FAD330BD094A53685B1A8342FBD37047E5
:102470000907090E002803DA00F00F00044A00E003
:10248000044A815470470000B8010020DC0000209D
:1024900014ED00E000E400E07CB501210846FEF701
:1024A0007EFB01210420FEF77AFB01210820FEF7C4
:1024B00076FB3020009001208DF8040000208DF87C
:1024C000060003218DF805108DF8070069461748AE
:1024D000FEF79EF90C20164D009069462846FEF73F
:1024E00097F90420134E022400908DF807406946A6
:1024F0003046FEF78DF94FF4E05000908DF807401C
:1025000069462846FEF784F904213046FEF7F8F9BB
:10251000E1022846FEF7F4F9A1022846FEF7F0F999
:1025200061022846FEF7ECF97CBD00000000024085
:1025300000080240000C02402DE9F04701218F0302
:1025400086B03846FEF753FB01210620FEF727FB35
:102550000024DFF830A18DF8104020258DF81340BD
:1025600003A950460395FEF753F905210120FEF714
:10257000EEFB00958DF8044008268DF805600125D6
:102580008DF806506846FEF77DF84FF017098DF874
:1025900008908DF809508DF80A408DF80B5002A86C
:1025A000FDF76BFE8DF810408DF8134003A95046DF
:1025B0000397FEF72DF90E210120FEF7C8FB8DF8D9
:1025C00004408DF8056000978DF806506846FEF7C8
:1025D00059F828278DF808708DF809508DF80A40B1
:1025E0008DF80B5002A8FDF748FE8DF810404FF40F
:1025F00000488DF8134003A95046CDF80C80FEF733
:1026000007F90F210120FEF7A2FB8DF804408DF899
:102610000560CDF800808DF806506846FEF732F868
:102620008DF808708DF809508DF80A408DF80B5020
:1026300002A8FDF722FE8DF8104040278DF81340C8
:1026400003A911480397FEF7E3F806210220FEF7DD
:102650007EFB8DF804408DF8056000978DF80650DC
:102660006846FEF70FF88DF808908DF809508DF840
:102670000A408DF80B5002A8FDF7FFFD06B0BDE83B
:10268000F0870000000402400008024070B50546D3
:1026900088B001210220FEF782FA01211020FEF706
:1026A000A6FA6D4E072209213046FEF736F90722B9
:1026B0000A213046FEF731F900248DF8164001203A
:1026C0008DF8170002208DF814004FF4C0610491BA
:1026D0008DF8150004A93046FEF79AF85F4E0121E7
:1026E0003046FFF70AF9ADF808400C20ADF80A00B3
:1026F000ADF80440ADF80640ADF818403015ADF81F
:102700001A00ADF81E400095ADF80C40ADF81C4025
:1027100069463046FFF769F806A93046FFF7C7F863
:1027200001213046FFF7D7F808B070BD0020704790
:1027300070B54A4D0446C1B22846FFF7F2F8802131
:102740002846FFF77FF90028F9D0204670BD43489E
:1027500001888906FCD58088C0F30800704770B5F1
:102760003E4D044680212846FFF76CF90028F9D039
:10277000A1B22846FFF7D5F8204670BD10B538A0A5
:1027800003F06EFF354C20212046FFF75BF900284F
:10279000F9D02046FFF7C9F8C0B210BD10B539A076
:1027A00003F05EFF2D4C20212046FFF74BF9002857
:1027B000F9D02046FFF7B9F801463AA003F050FFE0
:1027C0002046FFF7B2F8C0B210BD10B537A003F035
:1027D00047FF224C20212046FFF734F90028F9D08A
:1027E0002046FFF7A2F8A0F1300137A003F038FF30
:1027F0002046FFF79AF8303810BD10B50446014660
:1028000086B033A001E0214638A003F029FF6946D5
:1028100041A004F047F8694640A003F021FF21469B
:10282000684604F08BF90028EDD106B010BD38B52C
:10283000044601463BA001E0214641A003F010FF01
:1028400069464AA004F02EF81FA0009903F008FF83
:102850000098A042F0D138BD0000024000100140B5
:102860000D0A707265737320616E79206B65792033
:10287000746F20636F6E74696E75652E2E2E0D0A4F
:102880000D0A0000706C6561736520656E74657279
:102890002061206368617261637465722E2E2E0D53
:1028A0000A00000025630D0A00000000706C6561DD
:1028B000736520656E746572206120646967697450
:1028C0002E2E2E0D0A00000025640D0A00000000C7
:1028D000507265737320257320746F20436F6E747C
:1028E000696E75652E2E2E203A000000496E7661C5
:1028F0006C696420696E7075742C207072657373D6
:1029000020257320746F20436F6E74696E75652E79
:102910002E2E203A000000002573000025730D0ABA
:1029200000000000507265737320256420746F20CE
:10293000436F6E74696E75652E2E2E203A0000006E
:10294000496E76616C696420696E7075742C2070B4
:102950007265737320256420746F20436F6E7469F1
:102960006E75652E2E2E203A0000000025640000B2
:102970001CB501210420FEF730F94FF4707000906F
:1029800002208DF8040003208DF8050000208DF84A
:102990000600504C8DF8070069462046FDF738FFC9
:1029A000022206212046FDF7B8FF02220721204619
:1029B000FDF7B3FF022208212046FDF7AEFF0222F9
:1029C00009212046FDF7A9FF1CBDF0B589B040F2F2
:1029D000E73006900320ADF8140000263E4FADF816
:1029E0001C60ADF8166005A93846FEF765FA602050
:1029F0003A4DADF800000124ADF80240288802905D
:102A0000ADF80C6069463846FEF7D8FA082138461A
:102A1000FEF715FCADF8024068880290694638461A
:102A2000FEF7F8FA08213846FEF70FFCADF8024031
:102A3000A888029069463846FEF728FB08213846E8
:102A4000FEF70DFCADF80240E88802906946384672
:102A5000FEF756FB08213846FEF707FC01213846F1
:102A6000FEF788FA01213846FEF79EFA09B0F0BD5C
:102A700010B5FFF77DFFBDE81040A6E718490968CB
:102A8000884200DD08464942884200DA0846124A78
:102A900000213C32131D002802DB106019607047D2
:102AA00011604042186070470D490968884200DD96
:102AB00008464942884200DA0846074A0021343273
:102AC000131D002802DB116018607047404210603F
:102AD000196070470004024000080040EC0000202C
:102AE0003C00002030B58BB001210220FEF775F8C4
:102AF0004020059002208DF8180003218DF8191050
:102B000000248DF81A40354D8DF81B0005A9284684
:102B1000FDF77EFE022206212846FDF7FEFE9520E7
:102B200008908B20ADF81C002D4DADF82440ADF879
:102B30001E4007A92846FEF7BFF96020ADF8000047
:102B40000120ADF802000294ADF80C406946284619
:102B5000FEF734FA08212846FEF771FB01212846CA
:102B6000FEF708FA01212846FEF71EFA0BB030BD29
:102B70002DE9F04105461B498C2068430860184F39
:102B800095202C3738600024154EA04634360CE0D2
:102B90003868401CC00830604620FFF746FCC6F885
:102BA00000804620FFF741FC641CAC42F0DBBDE82E
:102BB000F0810B4A10B52C321368094C5B1C9B0842
:102BC00034342360084B93FBF1F18C2391FBF3F138
:102BD000491E11600349086010BD0000000002405A
:102BE00000040040F400002000BD01057CB5012177
:102BF0000920FDF7F2FF02208DF8040001208DF876
:102C0000070048F203002E4C009069462046FDF76D
:102C1000FFFD08202B4D009069462846FDF7F8FD82
:102C2000022200212046FDF778FE022201212046E3
:102C3000FDF773FE01220F212046FDF76EFE0122F3
:102C400003212846FDF769FE1F4C4FF0FF3529464A
:102C50002046FEF775F929464FF080452846FEF7D5
:102C60006FF90223002203212046FEF747FD0023CF
:102C70001A4603212846FEF741FD01212046FEF7B2
:102C800093F901212846FEF78FF97CBD0E482430C8
:102C9000006870474FF08040406A70470A49002042
:102CA0002431086070474FF080410020486270472F
:102CB00005492431086070474FF0804148627047F1
:102CC0000000024000040240000C004030B5012129
:102CD0008DB00802FDF78BFF8820032500908DF84A
:102CE000045000248DF8074069463048FDF790FDF8
:102CF0008DF8045000958DF8074069462C48FDF783
:102D000087FD8DF8045033202A4D00908DF8074040
:102D100069462846FDF77CFD4FF48030CDE9084038
:102D20004FF47060CDE90A4008A8FDF730FB8DF83C
:102D30000C4002948DF80D400594069401201E4C21
:102D40008DF81C0002A92046FDF7F6FA012240F298
:102D500005212046FDF756FC01212046FDF72CFBFE
:102D600004211648FDF7CCFDA1142846FDF7C8FD47
:102D7000E1142846FDF7C4FD21152846FDF7C0FDE6
:102D80000DB030BD10B5134604460122FDF747FBD8
:102D90002046FDF77EFB02212046FDF73CFC002883
:102DA000F9D02046BDE81040FDF7A5BB0000024069
:102DB000000402400008024000200140000C0240D4
:102DC0002DE9F047934D04220A212846FFF7DAFF48
:102DD000914C04220E21E0602846FFF7D3FF2061CA
:102DE00004220B212846FFF7CDFF606104220F214A
:102DF0002846FFF7C7FFA061FFF701FB874F824618
:102E000004213846FDF77AFD854E4FF4806841462F
:102E10003046FDF773FD51463C20FFF719FB0422B5
:102E20000A212846FFF7AEFFE1680422401AE0605D
:102E30000E212846FFF7A6FF2169401A20610421D0
:102E40003846FDF75DFD41463046FDF759FDE06827
:102E50000027002800DAE7602069002800DA2761EF
:102E60005146FA20FFF7F4FA4FF4805949463046AC
:102E7000FDF744FD4FF4006841463046FDF73EFD46
:102E800051464FF4AA70FFF7E3FA04220B212846BB
:102E9000FFF778FF61690422401A60610F2128461C
:102EA000FFF770FFA169401AA06149463046FDF75F
:102EB00027FD41463046FDF723FD6069002800DA12
:102EC0006761A069002800DAA761E26821684FF411
:102ED0007A704A4392FBF0F2E26022694A4392FB25
:102EE000F0F2226162694A4392FBF0F26261A269E8
:102EF0004A4392FBF0F0A061BDE8F0872DE9F04174
:102F00001426454C0020434F0546E0610722082166
:102F10003846FFF737FFE1696D1C0844E061B542B0
:102F2000F4DB4CF2503191FBF6F0E26950433D4A3C
:102F30001268801A90FBF1F04042E061216A01447E
:102F40002162616A08446062BDE8F08110B5042224
:102F500003213048FFF716FF2F4C606004F0C5FBDB
:102F60009FED311B53EC112B04F038FA04F08EFB6B
:102F7000A06010BD10B5FFF7E9FF274841F65831B2
:102F80008068884213DA264C04212046FDF7B6FCFF
:102F900008212046FDF7B2FC254C20212046FDF7F4
:102FA000ADFC2046BDE810401021FDF7A7BC10BDC8
:102FB00070B5184D00242DED028B4FF47A769FEDFD
:102FC0001D8B072208212846FFF7DCFE04F0A4FB36
:102FD00053EC182B04F05AF941EC180B0120FFF7C1
:102FE00024FA641CB442ECDB51EC180B9FED130B7C
:102FF00053EC102B04F0F2F99FED121B53EC112B44
:1030000004F09EFB04F042FB06490860BDEC028B15
:1030100070BD000000200140F8000020000C0240BC
:1030200000080240D8000020AC1C5A643BDFD33FAC
:10303000000002400000000000000000000000004E
:1030400000408F4000000000006AE840F94FDFF8C0
:10305000E8830D4606464FF47A7900BFFFF7CFF9B3
:103060000446FFF7ADFE3868301AFFF707FDD8F8C1
:103070000000281AFFF718FD21464846FFF7E8F937
:10308000ECE71CB50020ED49ED4A824608700121AD
:103090001170EC490746834608708046054600904B
:1030A00004460190E8484FF001090168E7480160D3
:1030B000E748E84A0068126809FB00F18E1ABAF185
:1030C000000F2ED186422CDCE3484FF0010AE34A80
:1030D00080F800A000201070E14880F800A02DB911
:1030E000022C03D0032C01D0042C14D1304601F063
:1030F0009CF8DC48D0ED000ADB48B8EEE01AD0EDD1
:10310000000A01F079F8D948D0ED000AB4EEE00ADF
:10311000F1EE10FA01D2CC4800E0D2480168CB4869
:10312000016057B9CA48006800EB4000C11700EBC6
:103130009170B6EBA00F00DC012737EA080002D03F
:10314000C54901200870BBF1000F38D1C0480068A4
:1031500000EBD070B6EB600F31DCB648C4494FF0DD
:10316000010B00680968884205DCB348C149006862
:103170000968884200DD0125BF48C0490068096828
:10318000884201DD01200090BD48BE490068096801
:10319000884201DD01200190FFF744F900F00304AB
:1031A000641C012C0FD0022C10D0032C10D0042C46
:1031B000F2D1009805EA000101980142ECD0B8F183
:1031C000000F09D012E0002DE6D1F8E7009800E0EA
:1031D00001980028E0D1F2E79D480068C11700EB94
:1031E0009170B6EBA00F05DC4FF0010815B19A49BC
:1031F00000200870002E0ADD8E4801684FF4FA6046
:10320000814204DC8C49096881427FF751AF09F1A2
:1032100001093DB19C4802689C4801689C480068CF
:1032200000F010FE022C04D0032C04D0042C04D097
:1032300007E0984802E0984800E09848006800F0ED
:1032400083FC4FF0000A5746D346D0465546CDF88A
:1032500000A0CDF804A02BE72DE9F05F904991483C
:10326000DFF844A20A684FF0FC0902EB420300EBCE
:10327000830CDAF800004F464E461CF800404D46DD
:1032800084440B2A01DA9CF80C900B2801DA9CF894
:103290000170002801DD1CF80C6C002A01DD1CF80F
:1032A000015CDFF808A28B460AEB8301085C01F0A1
:1032B0003BF9DFF8FC8140B9611E894505D14E21FB
:1032C00088F800100520BDE8F09FDBF80000DFF86B
:1032D000D8A100EB40017548D94600EB8101DAF82E
:1032E0000000085C01F023F938B9601E874204D160
:1032F000452188F800100620E5E7CB46D9F8000004
:10330000DFF8A89100EB400109EB8100DAF800102A
:103310005746405C01F00EF938B9601E864204D170
:10332000532188F800100720CDE7DBF8000000EB00
:10333000400109EB81003968405C01F0FEF838B9C2
:10334000641EA54204D1572188F800100820BAE76E
:103350000020B8E72DE9F041544F002606EB460067
:10336000002407EB8005285D01F0EAF808BB285D22
:103370000B2E40F00F00285504DA2819017B41F08C
:1033800004010173002E05DD281910F80C1D41F011
:10339000010101700B2C04DA2819417841F0080171
:1033A0004170002C05DD281910F8011D41F00201C3
:1033B0000170641C0C2CD6DB761C0C2ECEDBBDE819
:1033C000F0812DE9F04F4FF4C8712DED028BE5B07F
:1033D000684603F08CFB344D0026314CDFF8D0906A
:1033E0002E604FF04E0A2660B04689F800A0FFF725
:1033F000B1FF01F0EEFD01F0BAF90027EB46D8E08D
:1034000020682A6800EB4001264800EB8101895CB6
:10341000FC2903D30A20FFF7ABFBCFE099F800109B
:103420004E2947D0452966D053297FD057297CD0D3
:10343000B6E0000004010020080100202B0000205D
:10344000A5000020A6000020580000202C0100202C
:1034500098000020A401002028000020290000205E
:103460002A0000205C0000202401002070010020C0
:10347000A8000020AC0000200C010020B0000020BB
:1034800010010020B400002044000020CC000020E7
:10349000C8000020600000206400002068000020B8
:1034A000140000205C02002010000020CC0100204D
:1034B00024000020206802E0761C401C206000EB05
:1034C0004001FD4800EB81002968405C01F02CF8C8
:1034D000002865D12068F94900EB400201EB820227
:1034E00029685318515C1B7B491E8B42E4D057E07E
:1034F000761C401C2860206800EB4001EE4800EB81
:1035000081002968405C01F012F860BB206800EB84
:103510004001EA4800EB810128680A18095C5278EA
:10352000491E8A42E4D03BE000E020E0206802E04F
:10353000761C401E2060E04900EB400001EB80005B
:103540002968405C00F0F6FF68B92068DB4900EBB1
:10355000400201EB820229685318515C13F80C3CBD
:10356000491E8B42E4D01BE0761C401E2860206878
:1035700000EB4001D04800EB81002968405C00F07E
:10358000DCFF68B9206800EB4001CC4800EB81010A
:1035900028680A18095C12F8012C491E8A42E3D0F7
:1035A000C74840F82760FFF757FE4BF82700002672
:1035B0007F1C00F0CBFF00283FF422AF4FF47A705D
:1035C000FEF733FFFFF7F4FCBE4889F800A00124A2
:1035D000047000F0DFFDBC4EBC4FB94D34703C7040
:1035E00000246DE04CB305EB84014968F1B300EEB3
:1035F000100AB8EEC00A00BF00F027FEB448B54973
:103600000068096888420DDDB348B449006809685C
:10361000884207DDB2480268B2480168B2480068D3
:1036200000F010FC5BF8240005283DD006283ED0B1
:1036300007283FD0082840D041E0AC4890ED000A70
:10364000B8EEC00A00F0FBFDA948D0ED000AB8EEC4
:10365000E01AC0EE010A10EE900A04F065FA9FED40
:10366000A51B53EC112B04F069F900E00DE041ECCF
:10367000180B286804F039F853EC182B03F006FEF9
:1036800003F0D2FD00EE100AB6E7DFF8709200EE0C
:10369000100AD9F800A0B8EEC00AC9F8008000F0FE
:1036A000D4FDC9F800A0A9E700F0A2FE07E000F0F1
:1036B000C0FE04E000F0DEFE01E000F0FAFE641C53
:1036C00055F8240000288DD1444687F80080FFF784
:1036D000D5F90020FFF7E8F90320FFF749FA347025
:1036E00065B0BDEC028BBDE8F08F2DE9F04F4FF4D3
:1036F000C8712DED028BE5B0684603F0F8F9804DF6
:103700000026804CDFF800822E604FF04E0A2660C3
:10371000B14688F800A0FFF71DFE01F05AFC01F049
:1037200026F80027DFF890B190E020682A6800EBC7
:103730004001624800EB8101895CFC2903D30A2027
:10374000FFF716FA87E098F800104E2906D04529B1
:1037500023D0532939D0572957D06EE0206802E092
:10376000761C401C206000EB400128680BEB8101B7
:10377000085C00F0D9FE38BB2068504900EB4002DD
:1037800001EB820229685318515C1B7B491E8B4256
:10379000E6D052E0761C401C2860206800EB400018
:1037A0000BEB80012868085C00F0C1FE60B920685E
:1037B00000EB4001414800EB810128680A18095CD0
:1037C0005278491E8A42E5D037E0206802E0761C34
:1037D000401E206000EB400128680BEB8101085C73
:1037E00000F0A8FE48BB2068344900EB400201EB22
:1037F000820229685318515C13F80C3C491E8B4215
:10380000E5D01AE0761C401E2860206800EB4001DD
:1038100028680BEB8101085C00F08FFE68B9206816
:1038200000EB4001254800EB810128680A18095C7B
:1038300012F8012C491E8A42E4D0214840F8276042
:10384000FFF70AFD4DF8270000267F1C00F07EFEE2
:1038500000283FF46AAF4FF47A70FEF7E6FDFFF7F9
:10386000A7FB88F800A0DFF860B04FF0010A5546CA
:103870008BF800A000F08EFC144FDFF848804C4617
:103880003D7088F800500025DFF880900C4E93E0E2
:10389000F5B306EB85014968D9B3401E00EE100A66
:1038A000B8EEC00A00F0D1FC89F800A05DF8250050
:1038B000052873D006282DE0CC0100205C020020F2
:1038C000EC02002028000020A60000202A00002092
:1038D00004010020D000002008010020D4000020B6
:1038E00044000020CC000020C8000020A0000020E0
:1038F00098000020CAC342AD69DEDD3F5C000020B5
:10390000100000201400002024000020A700002048
:1039100006E02BE045D0072846D0082847D048E0ED
:103920007B4890ED000AB8EEC00A00F088FC7948A8
:10393000D0ED000AB8EEE01AC0EE010A10EE900ACF
:1039400004F0F2F841EC180B306803F0CEFE1FEDE6
:10395000171B53EC112B03F0FDFF53EC182B03F056
:1039600095FC03F061FC00EE100A9BE76A490968C8
:10397000649169490C6003F0B8FE9FED681B53EC3D
:10398000112B03F0E7FF03F04FFC00EE100A00F0EC
:103990005CFC61486499016086E7FFE700F028FD60
:1039A00007E000F046FD04E000F064FD01E000F0F7
:1039B00080FD89F800406D1C56F8250000287FF432
:1039C00067AF88F800403C70FFF758F80020FFF719
:1039D0006BF80320FFF7CCF88BF8004080E670B559
:1039E00050485149524C006800EB400001EB800008
:1039F0004E490968455C20784E2803D1284600F0DE
:103A000093FDA0B92078452803D1284600F08FFD0A
:103A100068B92078532803D1284600F08BFD30B9CF
:103A20002078572805D1284600F087FD08B10120ED
:103A300070BD002070BD70B53B4C3E4B002101EBCA
:103A4000410504EB8502002003EB8505165C2E542E
:103A5000401C0C28FADB491C0C29F0DB364C374B98
:103A6000002101EB410504EB8502002003EB8505F5
:103A7000165C2E54401C0C28FADB491C0C29F0DB88
:103A800070BD70B52B4C284B002101EB410504EBB8
:103A90008502002003EB8505165C2E54401C0C2883
:103AA000FADB491C0C29F0DB244C234B002101EBF1
:103AB000410504EB8502002003EB8505165C2E54BE
:103AC000401C0C28FADB491C0C29F0DB70BD70B5DA
:103AD0004FF42F741A4D04E0FFF772F90520FEF73A
:103AE000A4FC2868A042F7DB0220FFF741F8154D3F
:103AF00005E000BFFFF764F90520FEF796FC286893
:103B0000A042F7DBBDE870400220FFF731B80000AB
:103B1000A0000020980000205C00002000000000B1
:103B20000000E03F14000020CC0100201000002025
:103B3000240000207C0400205C0200200C050020F2
:103B400004010020080100202DE9F05F04462DED5E
:103B5000028B00F01FFBA1490020DFF88CA2087047
:103B60009F49DFF888B2002608609E49012008704E
:103B70009AED000AFDEEC08A9BED000ABDEEC08AF8
:103B80009FED9B0A8AED000A8BED000AFEF74AFCC6
:103B90000746984DFEF746FC2968C01B8842F9D3BA
:103BA000FEF740FC074694480021DFF85082016090
:103BB000002C81460BDC1BE0914800684142C8F8AC
:103BC0000010FEF72FFCC01BB0F57A7F0ED8D9F895
:103BD0000000A042F0DB0FE089480168C8F800103F
:103BE000FEF720FCC01BB0F57A7F01D9012603E067
:103BF000D9F80000A042EFDCB8EEE80A0020C8F8CF
:103C000000008AED000AB8EEC80A8BED000AFEF744
:103C100009FC0446FEF706FC2968001B8842F9D31C
:103C20007049012008703046BDEC028BBDE8F09F62
:103C30002DE9F05FDFF8AC816848012688F8006064
:103C4000002404706F486649DFF8BC910068DFF813
:103C5000BCA10860C9F80040CAF80040FEF7E2FBCA
:103C60000546DFF8ACB16B4F17E000BFFFF7A8F8CF
:103C700069480168DBF8000081420BDD6748016894
:103C800067480068814205DD4FF47A613220FEF713
:103C900090FF08E00120FEF7C8FBFEF7C3FB396880
:103CA000401B8842E2D35F48544F0068404238606E
:103CB000FEF7B8FBDFF870B1054600BFFEF7B2FBB8
:103CC000411B5A48DBF80020006810448142F5D3BC
:103CD000574858493C6000680860FEF7A3FBDFF8CE
:103CE00058B1564F054600BFFEF79CFB411BDBF861
:103CF00000003A6810448142F6D388F80060C9F8A1
:103D00000040CAF8004091E72DE9F05FDFF8D48069
:103D10003248012688F80060002404703948304990
:103D2000DFF8E4900068DFF8E4A00860C9F800401C
:103D3000CAF80040FEF776FB0546DFF8D4B0354FF1
:103D400017E000BFFFF73CF833480168DBF80000DC
:103D500081420BDD3148016831480068814205DD50
:103D60004FF47A613220FEF724FF08E00120FEF7CD
:103D70005CFBFEF757FB3968401B8842E2D32948B9
:103D80001E4F00683860FEF74DFB0546DFF898B01F
:103D9000FEF748FB411B2548DBF800200068104473
:103DA0008142F5D3264823493C6000680860FEF74D
:103DB00039FBDFF884B0214F054600BFFEF732FB28
:103DC000411BDBF800003A6810448142F6D388F8C2
:103DD0000060C9F80040CAF8004027E7280000202A
:103DE0002C0100202A00002074010020780100200E
:103DF0000000C842480000201801002030010020C7
:103E0000540000205C000020940100209801002054
:103E1000D0000020840000200401002008010020C0
:103E2000D400002080000020880000208C000020AA
:103E30007C00002020010020900000209400002041
:103E4000780000202DE9F74F82B09046FEF722FF60
:103E50000190FEF71BFFDFF87C901F490090D9F816
:103E600000600968C9F800101C49012008701C494D
:103E700000200870FEF7D6FA0546DFF868A0DFF8E4
:103E800068B01A4F16E000BFFEF7B9FA0446029870
:103E9000DAF80010401AFEF7F1FD0398DBF8001085
:103EA000401AFEF701FE00BFFEF7A9FA3968001BB1
:103EB0008842F9D3FEF7B6FA411B4145E4D3019895
:103EC000FEF7FAFE0098FEF7F3FEC9F8006005B0B1
:103ED000BDE8F08F3C0000204000002028000020BA
:103EE0002A000020040100200801002044000020D6
:103EF00070B5FB480168FB480268FB4802F13203D9
:103F0000994201DD511A08E0F94BF84A1B68126822
:103F100003F13204A24202DDD11A816070BDF54B7B
:103F200000241B68994222DAF34909688A421EDAA2
:103F3000F249F64A0B68F24912680E68F149B34239
:103F40000D68F149096808DD914206DA591A711ABB
:103F50006943816000290ADC70BD9142FCDDB342F7
:103F6000FADAC91A891A694381600029F4DA84608F
:103F700070BD70B5DC4CDC4D803CD4E91C021118DE
:103F8000101AC4E9041000EE101AE14AD4ED000A38
:103F9000B8EEC00A12682B6930EEC00A92FBF3F249
:103FA000D4ED080A104430EE200A84ED080A00EE31
:103FB000100AD4ED010AD748B8EEC00A30EEC00AA4
:103FC000D4ED090A30EE200A84ED090A007878B1B0
:103FD000FFF78EFFD5E9020190FBF1F000EE100A29
:103FE000D4ED090AB8EEC00A30EE800A84ED090A61
:103FF000D4ED080A94ED0E0A94ED0A1AD4ED0F1AC6
:1040000020EE200A30EEC11A04F1280301EE810AE5
:10401000BDEEC00A10EE102A226394ED091A94ED49
:10402000100AD4ED0B1A94ED112A20EE010A71EE5C
:10403000611A02EE210ABDEEC00A10EE101A616389
:10404000501AC3EC020A1144C4E91601FEF716FD2A
:10405000E06DBDE87040FEF727BDA348B0EE001A42
:10406000803890ED020AD0ED000AB8EEC02ADFEDEC
:10407000AA1AF4EEC20AF1EE10FA11D290ED122A49
:1040800022EE011A81EE212AB8EEC01A72EE200A41
:10409000C0ED000AF4EEC10AF1EE10FA18DC1BE0E4
:1040A000B8EEC02AF4EEC20AF1EE10FA14DD90ED7B
:1040B000132A22EE011A81EE212AB8EEC01A70EE00
:1040C000C20AC0ED000AF4EEC10AF1EE10FA03D202
:1040D000B8EEC00A80ED000A90ED030AD0ED010AA7
:1040E000B8EEC01AF4EEC10AF1EE10FA11D290ED5A
:1040F000141A70EE810AB8EEC01AC0ED010AF4EE8F
:10410000C10AF1EE10FA03DDB8EEC00A80ED010A33
:104110007047B8EEC01AF4EEC10AF1EE10FAF7DDFE
:1041200090ED151A70EEC10AB8EEC01AC0ED010A82
:10413000F4EEC10AF1EE10FAE6D3704770B5FEF75F
:10414000A9FD694C803C2066FEF7A0FD226EA16EA1
:10415000511A2167E36EC4E91A20C31ACD1805EB82
:10416000D5756D10C4E91D3511441844C4E9181003
:1041700008445D4900EBD07040100860E06F401BC0
:10418000E06770BD10B5FFF7D9FFFFF766FFBDE828
:104190001040EEE610B55F48002404705F480470DC
:1041A0002046FEF76BFC0020FEF77EFC9FED5C0ACC
:1041B0004D484D49803880ED060A80ED070A80EDB4
:1041C000000A80ED010A8460C46080ED080A80ED79
:1041D000090A80ED0A0A80ED0B0A8466C46604664B
:1041E00044660C604C608465C465C467FEF75BFD83
:1041F000BDE81040FEF752BDB5EEC00AF1EE10FA70
:1042000001D8B7EE000A60EEA00A41EE410A80EE46
:10421000801AB4EE000A21EE000AB5EEC00AF1EEF3
:1042200010FA01D2B1EE400A704700EE100A3D4884
:10423000F8EEC00A90ED001A80EE810A7047394806
:10424000D0ED000A20EE200A70472DE9F0412DED57
:10425000028BB0EE408AB5EEC08AF1EE10FA01D2C0
:104260009FED2F8A2B4C2D49012020700870FEF7FE
:1042700011FD0546FEF70AFD284400EBD0701A49EF
:104280004710294D294A8039174E55E000EE100A93
:10429000F8EEC00A00EE103A03EBD373B8EEC00A92
:1042A00058EE000ABDEEE00A10EE100AB0EB630F04
:1042B00001DA00232370FFF7B8FFD2ED000AB8EE51
:1042C000E01AD1ED000AFFF797FFD1ED130AB4EE23
:1042D000E00AF1EE10FA2DD2154800682BE000003C
:1042E0000C010020B8000020A401002010010020D3
:1042F000BC000020B0000020B40000200401002019
:10430000C00000203400002008010020C40000206C
:1043100014010020280000200000C8422A000020CC
:10432000000000009C000020980000205C0000209D
:104330004C0000201068886030682B68C01B00EEBD
:10434000100AF8EEC00A00EE103AB8EEC00A28EEE5
:10435000000AF4EEC00AF1EE10FA97D310688860F4
:10436000BDEC028BBDE8F0812DE9F0471949012031
:10437000DFF86C800870184908701849097809B18D
:1043800088F80000174C184D2068A860FEF782FCE2
:104390000646FEF77BFC304400EBD070DFF84C9013
:1043A000461000BFFEF776FC0746FEF76FFCD9F813
:1043B0000010384401EBD17106EB610100EBD070C5
:1043C000B1EB600F2068A860ECDC002188F80010D9
:1043D000BDE8F087280000202A000020A40000206B
:1043E000290000205C00002024010020980000200B
:1043F00010B5484C20784E2818D0474957280978DE
:1044000004D0452808D053280CD00FE011B1FFF795
:104410000FFC0BE0414806E011B1FFF775FC05E029
:104420003F4800E03F480068FFF78EFB4E202070B9
:1044300010BD10B5374C3849207809784E2806D081
:1044400057280AD0452812D0532808D00FE011B1C0
:10445000FFF7EEFB0BE0314806E0324804E011B113
:10446000FFF752FC03E02E480068FFF76DFB452084
:10447000207010BD10B5274C21784E2906D0264853
:104480005729007804D0452908D00FE025480AE0D4
:1044900010B1FFF739FC09E0214804E010B1FFF743
:1044A000C7FB03E01D480068FFF74EFB5320207058
:1044B00010BD10B5174C1849207809784E2806D041
:1044C000572814D0452808D0532808D00FE011B140
:1044D000FFF71AFC0BE0124806E0124804E011B1A5
:1044E000FFF7A6FB03E00D480068FFF72DFB572000
:1044F000207010BD074800784E2806D0452805D00A
:10450000532804D0572803D193E7B3E7D1E76FE7E7
:104510007047000024000020A70000206400002055
:10452000600000206800002000F001007047C0F328
:1045300040007047C0F380007047C0F3C000704770
:10454000C0F300107047C0F3401070472DE9FC4FD6
:1045500076480268052A01D0062A29D174480368E2
:1045600074480178077B41F00109C17A067E41F069
:10457000020C90F8241041F0040EC17D41F00201BC
:10458000019190F82510457E41F004010091817E53
:10459000447B41F0080B417841F0010A817B3538BA
:1045A00041F008086449052B097804D0062B04D093
:1045B0000020BDE8FC8F052A0AD047F00C0780F8E0
:1045C000417080F8359080F840C0062B15D112E07C
:1045D0004E2902D0452907D00FE047F0080780F8A0
:1045E000417080F840C008E047F0040780F841704F
:1045F00080F8359001E0052A0BD046F0090680F8D6
:104600004D6080F859E0019E80F84C60062B16D171
:1046100013E0532902D0452908D010E046F00806DF
:1046200080F84D60019E80F84C6008E046F001067D
:1046300080F84D6080F859E001E0062A0BD045F083
:10464000030580F84E50009D80F85A5080F84FB016
:10465000052B16D113E0532902D0572907D010E0BB
:1046600045F0020180F84E1080F84FB009E045F0A7
:10467000010180F84E10009980F85A1001E0062AD6
:1046800006D044F0060180F8421080F836A008E019
:104690004E2902D0572907D00CE044F0020180F8DF
:1046A000421080F8438005E044F0040180F8421095
:1046B00080F836A001207CE71C481D490068096885
:1046C000084301D00020704701207047194A01EBD0
:1046D0004101A2F1350210B502EB8102125C6FEAD2
:1046E0000204164AE30702EB8101014404D0087B6F
:1046F000A20703D4FC2302E0FC20F9E74B78620711
:1047000001D4FC2201E011F80C2C240701D4FC2177
:1047100001E011F8011C834200DA1846824200DAF7
:104720001046814200DA084610BD0000100000204B
:104730001400002001020020240000205C02002060
:104740002DE9F041434F0B2505EB4500002407EB15
:10475000800641A0315D01F083FF641C0C2CF8DB66
:104760003EA001F07DFF6D1EEED5BDE8F0812DE984
:10477000F05FDFF8ECB0DFF8DC90DFF8E8A00B25A5
:1047800005EB4507002409EB8706305DFFF7CCFEFB
:1047900008B135A000E036A001F062FF641C0C2CCB
:1047A000F3DB35A001F05CFF2CA001F059FFDFF82E
:1047B000CC800024305DFFF7C0FE08B130A000E0DF
:1047C00030A001F04DFFD8F80000854216D12E48E8
:1047D0000068844212D19BF800004E2806D045287C
:1047E00006D0532806D0572806D018E027A00AE0A4
:1047F00027A008E027A006E027A004E0305DFFF72F
:10480000A2FE18B125A001F02BFF08E0305DFFF7F4
:1048100097FE0AEB8700015D0FA001F021FF641CE9
:104820000C2CC7DB16A001F01BFF0CA001F018FF39
:104830006D1EA5D500240CA001F012FF641C0C2CE9
:10484000F9DB0DA001F00CFFBDE8F05F03A001F063
:1048500007BF0000CC010020253364000A0D0000D2
:10486000240000205C0200202B2D2D2D00000000D4
:104870002B202020000000002B000000140000204E
:104880007C0000002000000010000020205E2000BE
:10489000203E200020762000203C200020782000B0
:1048A00030B52A48017841F00E010170417841F09D
:1048B0000C01417000214218491C12F8843F0C2958
:1048C00043F001031370F6DB5FF0000101EB4102DE
:1048D00000EB8202491CD37A0C2943F00203D37205
:1048E000F4DB0021425C42F004024254491C0C29D2
:1048F000F8DB002101EB4102491C10F822300C29A1
:1049000043F0080300F82230F4DB0A20104C0022A8
:1049100002EB4203002104EB83030529585401DA1A
:10492000401E03E08D1F052D00D2401C491C0C29A0
:10493000F3DB052A01DA401E03E0911F052900D2AE
:10494000401C521C0C2AE3DB30BD0000CC010020CF
:104950005C0200202DE9F84FFC48DFF8F883DFF80F
:10496000F8930468FA48FD4EDFF8F4A3056898F858
:1049700000004FF0000B4E2809D045283CD05328AA
:104980006DD057287ED0E0E00BF1010B6D1C05EBDC
:1049900045070AEB87000090005DFFF7C5FDA8B949
:1049A00000982044007BFFF7CBFD78B106EB870031
:1049B0000119005D097B401E814207D1052C01D001
:1049C000062CE1D1042D01D0052DDDD105EB4501EB
:1049D0000AEB8100005DFFF7A7FD00283BD12946C7
:1049E0002046FFF773FE06EB87012144097B30E088
:1049F0000BF1010B641C04E005EB45010AEB810798
:104A00000091385DFFF793FDA8B938194078FFF79A
:104A100097FD80B1009806EB80000119005D497890
:104A2000401E814207D1042C01D0052CE0D1052D78
:104A300001D0062DDCD1385DFFF779FD00280AD1C1
:104A400029462046FFF742FE009906EB81012144EA
:104A50004978884271D075E00BF1010B6D1E05EBB2
:104A600045070AEB87000090005DFFF763FDC8B9BA
:104A70000098204410F80C0CFFF762FD90B106EB93
:104A8000870000E024E00119005D11F80C1C401EB5
:104A9000814207D1052C01D0062CDDD1062D01D095
:104AA000072DD9D105EB45010AEB8100005DFFF729
:104AB00041FDE0BB29462046FFF708FE06EB8701D3
:104AC000214411F80C1CC4E70BF1010B641E04E037
:104AD00005EB45000AEB80070090385DFFF72DFDE0
:104AE000B8B9381910F8010CFFF72AFD88B1009801
:104AF00006EB80000119005D11F8011C401E814287
:104B000007D1062C01D0072CDED1052D01D0062DB2
:104B1000DAD1385DFFF711FD48B929462046FFF785
:104B2000D5FD0146009806EB8000204401E009E035
:104B300003E010F8010C814204D18A480168C9F8E9
:104B4000001002E00020C9F8000000EE10BAB8EE34
:104B5000C00AFFF77AFBDFF8F4917D4F05EB4500C3
:104B6000C9F800403D600AEB80005546005DFFF744
:104B7000DBFC08B1FC2408E0386800EB400006EBE1
:104B80008001D9F800000844047B3868AB4600EB8C
:104B90004001D9F8000005EB8101085CFFF7C7FC74
:104BA00008B1FC2508E0386800EB400006EB800106
:104BB000D9F80000084445783868BA4600EB40014F
:104BC000D9F800000BEB8101085CFFF7B3FC08B1DA
:104BD000FC270AE0DAF8000000EB400006EB800159
:104BE000D9F80000084410F80C7CDAF8000000EB5B
:104BF0004001D9F800000BEB8101085CFFF79DFC38
:104C000008B1FC200AE0DAF8000000EB400006EBF7
:104C10008001D9F80000084410F8010C524EAC4253
:104C200005DABC4203DA844201DA052016E0A54227
:104C300005DABD4203DA854201DA06200EE0AF4212
:104C400005DAA74203DA874201DA072006E0A84224
:104C50000BDAB84209DAA04207DA0820C6F80000E9
:104C600098F800004E282BD060E1DAF80000D9F85F
:104C7000001000EB40000BEB800054465D464F46B1
:104C8000405CFFF751FC70B92068396800EB4000C8
:104C900005EB80000844007BFFF752FC18B998F838
:104CA00000004E280AD02068396800EB400005EB70
:104CB0008000405CFFF73BFC80B11EE005203060C7
:104CC000DAF8000000EB4001D9F800000BEB81019D
:104CD000085CFFF729FC00287ED127E120683968AD
:104CE00000EB400005EB800008444078FFF728FC0B
:104CF00018B998F8000045280AD02068396800EBF8
:104D0000400005EB8000405CFFF714FC18B112E096
:104D1000062030600EE12068396800EB400005EBAA
:104D20008000084410F80C0CFFF70AFC18B998F83A
:104D3000000053281AD02068396800EB400005EBCA
:104D40008000405CFFF7F9FB98B122E010000020E2
:104D500014000020240000205C0000205C020020E1
:104D6000CC010020580000202000002007203060E7
:104D7000F0E02068396800EB400005EB8000084453
:104D800010F8010CFFF7DCFB18B998F80000572861
:104D90000AD02068396800EB400005EB8000405CD9
:104DA000FFF7C2FB18B10FE008203060E2E0206896
:104DB000396800EB400005EB80000844007BFFF7FA
:104DC000BFFB00283FF431AF2068396800EB40009A
:104DD00005EB8000405C00E0D8E0FFF7A8FB60B97D
:104DE0002068396800EB400005EB800008444078FB
:104DF000FFF7A6FB00283FF420AF2068396800EBDE
:104E0000400005EB8000405CFFF794FB68B9206828
:104E1000396800EB400005EB8000084410F80C0CEA
:104E2000FFF78EFB00283FF410AF2068396800EBD5
:104E3000400005EB8000405CFFF77FFB68B920680D
:104E4000396800EB400005EB8000084410F8010CC5
:104E5000FFF776FB00283FF400AF98F800004E28DB
:104E60000AD12068396800EB400005EB8000405C07
:104E7000FFF75AFB0028A5D098F8000045280AD172
:104E80002068396800EB400005EB8000405CFFF7CC
:104E90004EFB0028AFD098F8000053280AD12068B4
:104EA000396800EB400005EB8000405CFFF742FBF7
:104EB0000028B8D098F8000057280AD1206839682F
:104EC00000EB400005EB8000405CFFF736FB00285C
:104ED000C1D02068396800EB400005EB8000405CE1
:104EE000FFF722FB0028C6D02068396800EB40009D
:104EF00005EB8000405CFFF71AFB0028CAD0206851
:104F0000396800EB400005EB8000405CFFF712FBC6
:104F1000002888D02068396800EB400005EB80004D
:104F2000405CFFF70AFB002895D099E698F800004E
:104F300045280BD1DAF8000000EB4001D9F8000059
:104F40000BEB8101085CFFF7F2FAF8B998F8000062
:104F500053280BD1DAF8000000EB4001D9F800002B
:104F60000BEB8101085CFFF7E5FA78B998F80000CF
:104F7000572813D1DAF8000000EB4001D9F80000FF
:104F80000BEB8101085CFFF7D8FA38B1FE480268E4
:104F9000FE480168FE480068FEF754FF30680528A7
:104FA00009D006280BD007280DD008280FD1BDE85E
:104FB000F84FFFF77EBABDE8F84FFFF719BABDE822
:104FC000F84FFFF736BABDE8F84FFFF753BABDE820
:104FD000F88F2DE9F0474FF0900900263546002460
:104FE000052D01D0062D03D1052C22D0062C1ED074
:104FF000E84805EB450100EB8108294618F80470E4
:105000002046FFF763FB401CC0B208F80400B8421A
:1050100000D00126641C0C2CE2DB6D1C0C2DDEDBA9
:10502000002E02D0B9F10109D7D5BDE8F0870724D9
:10503000D6E70624D4E7D8480178D8484E29006836
:1050400006D0452907D0532908D0572909D00AE0AE
:1050500005280AD007E0062807D004E0072804D076
:1050600001E0082801D00120704700207047F0B50A
:10507000C948CB4ACB490778CB481678CB4A047845
:10508000CC480D781368CA4903EB4302006801EB72
:10509000820211184E2F2CD0452F4FD0532F71D094
:1050A000572F25D15EB1165C002846F0080616542D
:1050B00005DD11F8016C46F0020601F8016C5DB1E6
:1050C000155C002B45F00405155405DD11F80C5C4A
:1050D00045F0010501F80C5C002C09D0145C0B2B89
:1050E00044F00104145403DA087B40F00400087310
:1050F000F0BD4EB1165C0B2B46F00106165403DAD8
:105100000B7B43F004030B735DB1135C002843F089
:105110000803135405DD11F8013C43F0020301F8C4
:10512000013C002CE4D0135C0B2843F00203135421
:10513000DEDA487840F008004870F0BD4EB1165CE9
:105140000B2846F00206165403DA4E7846F008069D
:105150004E704DB1155C0B2B45F00105155403DA6B
:105160000D7B45F004050D73002CE6D0145C002B7C
:1051700044F004041454E0DD11F80C0D40F001007B
:1051800024E0FFE75EB1165C002B46F004061654DF
:1051900005DD11F80C3C43F0010301F80C3C4DB166
:1051A000135C0B2843F00203135403DA4B7843F0EB
:1051B00008034B70002CC0D0135C002843F0080398
:1051C0001354BADD11F8010D40F002000870F0BD73
:1051D0002DE9F04F4FF47A702DED028B83B0FDF77F
:1051E00024F9FDF7E5FE744801240470FEF7D2FFB0
:1051F00072480025684904707148A946AA460768A4
:105200006C482E46AB46056068482C4605604E202B
:10521000087067480078FFF793F980B96348006821
:1052200000EB4001624800EB810062490968425C82
:1052300042F01002425463480168491C0160624810
:10524000016862489FED628A0160A1E361480168DC
:105250005B487A180068151AB9F1000F31D18D42F8
:105260002FDC5D4A4FF00109DFF840C182F8009061
:105270005A4A82F80090DCF80000464A00EB4003EE
:1052800002EB83034B4AD2F8008013F80830FC2B62
:1052900077D2414B1B784E2B06D0452B06D0532B93
:1052A00007D0572B09D00CE0401C03E008F101089F
:1052B00005E0401ECCF8000003E0A8F10108C2F8A8
:1052C0000080BAF1000F09D101EB4100C21700EBD9
:1052D0009270B5EBA00F01DC4FF0010A002E51D106
:1052E00001EBD170B5EB600F4CDC3D480126016845
:1052F0003C480068814202DD2A49012008703A4892
:1053000001683A480068814202DD274801210170A6
:105310003748016837480068814208DD364801682F
:1053200036480068814202DD1D4901200870DFF81F
:105330007C80D8F8000000EB40011D4800EB8101A3
:105340001C480068085CFFF7FBF808B9FFF78FFE00
:105350001848D8F800100068FFF7B8F9D8F800101E
:10536000401C01EB41020B4901EB82021149096823
:105370005054FFF72EFED8F8000000EB40010C4817
:105380003EE087E2CEE0000044000020CC00002098
:10539000C80000205C020020240000202000002023
:1053A0001C0000201D0000201E0000201400002012
:1053B000CC01002010000020A500002029000020C2
:1053C000A401002018000020580000202C0100201B
:1053D0000000000098000020280000202A00002083
:1053E0000C010020B000002010010020B4000020BB
:1053F00004010020A800002008010020AC000020CB
:1054000000EB8101FE480068085CFFF78DF808B1E9
:10541000FC200AE0D8F8000000EB4001F94800EB5E
:105420008101F74800680844007B0190F648006855
:1054300000EB4001F54800EB8101F1480068085C91
:10544000FFF775F808B1FC200AE0EF48006800EBB0
:105450004001EC4800EB8101E948006808444078CD
:105460008046E948006800EB4001E84800EB810114
:10547000E3480068085CFFF75DF808B1FC200BE02A
:10548000E148006800EB4001DE4800EB8101DC48A8
:105490000068084410F80C0C0090DB48006800EB32
:1054A0004001DA4800EB8101D5480068085CFFF74D
:1054B00044F808B1FC200BE0D348006800EB400141
:1054C000D04800EB8101CE480068084410F8010C78
:1054D0000199414506DA009A914203DA814201DAE4
:1054E00005201DE0019A904506DA009A904503DAFE
:1054F000804501DA062013E0009A424507DA11469A
:10550000019A914203DA814201DA072008E040451E
:105510002CDA0099884229DA0199884226DA082093
:10552000BB490860DFF8EC82D8F8000000EBD070CF
:10553000B5EB600F00DC0126FFF77DFD88B1284642
:10554000FEF773FEB448B0EE481AD0ED000AFEF73D
:1055500053FEB248D0ED000AB4EEE00AF1EE10FAC4
:105560007ED2AF48AF4900680860A9E1DFF89882B1
:10557000D8F8000000EB4001A44800EB8101A048EE
:105580000068085CFEF7D0FF88B9D8F8000000EB8F
:1055900040019E4800EB8101994800680844007B67
:1055A000FEF7CEFF18B9A04800784E2898D0D8F85A
:1055B000000000EB4001954800EB81019048006835
:1055C000085CFEF7B4FF88B9D8F8000000EB400192
:1055D0008E4800EB81018A48006808444078FEF755
:1055E000AFFF18B990480078452883D08648DFF887
:1055F0001C82006800EB4001814808EB81010068D3
:10560000085CFEF797FF90B97F48006800EB400107
:105610007B4808EB81010068084410F80C0CFEF789
:105620008FFF20B98048007853283FF46EAF76484A
:10563000DFF8CC81006800EB4001744800EB810189
:10564000D8F80000085CFEF778FFA8B96E4800683B
:1056500000EB40016D4800EB8101D8F8000000E04C
:105660002CE1084410F8010CFEF76AFF20B96E48DF
:10567000007857283FF453AF6348006800EB4001BF
:10568000624800EB81015E480068085CFEF74CFF51
:1056900078B95D48006800EB40015C4800EB81018F
:1056A000574800680844007BFEF74AFF00283FF493
:1056B00017AFDFF85481D8F8000000EB40015348E1
:1056C00000EB81014E480068085CFEF730FF78B9B6
:1056D000D8F8000000EB40014C4800EB810148483D
:1056E000006808444078FEF72BFF00283FF402AF23
:1056F000D8F8000000EB4001444800EB810140482D
:105700000068085CFEF716FF80B9D8F8000000EBCF
:1057100040013E4800EB810139480068084410F818
:105720000C0CFEF70DFF00283FF4EFAE3648DFF813
:10573000DC80006800EB4001314808EB8101006823
:10574000085CFEF7FAFE70B92F48006800EB4001D4
:105750002B4808EB81010068084410F8010CFEF7A3
:10576000EFFE002886D0304800784E280CD126481D
:10577000006800EB4001224808EB81010068085CEA
:10578000FEF7D2FE002892D02748007845280CD199
:105790001D48006800EB4001194808EB81010068D2
:1057A000085CFEF7C4FE0028A0D01F4800785328EC
:1057B0000CD11548006800EB4001114808EB81014D
:1057C0000068085CFEF7B6FE0028ADD016480078E9
:1057D00057280CD10C48006800EB4001084808EB42
:1057E00081010068085CFEF7A8FE0028BAD00648D0
:1057F000006800EB4001054800EB8101004815E01E
:10580000100000205C02002014000020CC010020C9
:1058100020000020980000202401002070010020BA
:10582000580000202C010020240000200068085CA3
:10583000FEF77AFE0028A6D0DFF80084D8F8000032
:1058400000EB4001FE4800EB8101FE480068085C67
:10585000FEF76DFE0028A7D04046DFF8E883006819
:1058600000EB4001F64800EB8101D8F80000085C2D
:10587000FEF760FE0028A8D0F048006800EB400169
:10588000EF4800EB8101D8F80000085CFEF755FEF8
:105890000028ABD0EC480460EC4804700020FDF711
:1058A000EDF80020FDF700F90A20FDF761F903B0DB
:1058B000BDEC028BBDE8F04FFEF759BFE448046031
:1058C000BBF1000F09D1D8F80000C11700EB9170AF
:1058D000B5EBA00F06DC4FF0010BDE48007808B1F5
:1058E000DD480470002D53DCDFF85083D44ED54FD3
:1058F000D8F8000000EB400006EB80013868085C37
:10590000FEF71EFE70B9D8F80000396800EB4000C1
:1059100006EB8000425C42F010024254CF4801681E
:10592000491C0160DFF82C8398F8000038B1CC489E
:105930000268CC480168CC480068FEF783FAC24888
:105940000068052806D0062807D0072808D00828B0
:1059500009D00AE0FEF74CFD07E0FEF76AFD04E01F
:10596000FEF788FD01E0FEF7A4FDFFF732FBFEF72E
:10597000F1FFBE484FF00009CA460460BC484E46DD
:10598000CB460768BB4888F800400470BA480470EA
:10599000FEF7DCFD00283FF459ACDFF8D4B2DFF8A5
:1059A000DC92DFF8DCA2DFF8DC82A94E002D22DDDC
:1059B000D9F8000000EBD071B5EB610F01DAA64910
:1059C0000C703918DBF800000D1A2846FEF72DFC84
:1059D000B0EE481ADAED000AFEF70EFCD8ED000A28
:1059E000B4EEE00AF1EE10FA03D2A7480068306086
:1059F000DCE73460DAE7914D924F914E28683968C0
:105A000000EB400006EB8000405CFEF799FD68B9B2
:105A1000286800EB400006EB800138680A5C42F021
:105A200010020A548D480168491C016087480470BF
:105A30000020FDF723F80020FDF736F8FEF797FE6B
:105A40000320FDF795F89148047003B0BDEC028B7C
:105A5000BDE8F08F2DE9F0474FF090080027DFF800
:105A600030A23D4605EB450100240AEB810600BF4C
:105A700055EA04000BD016F8049029462046FEF79C
:105A800025FE401CC0B23055484500D00127641C9B
:105A90000C2CEDDB6D1C0C2DE4DB002F02D0B8F1DB
:105AA0000108DBD5BDE8F0872DE9F04F4FF47A709F
:105AB0002DED028B83B0FCF7B8FCFDF779FA734942
:105AC00001200870FEF766FB00246948DFF8C081FA
:105AD00027460668A3462546A2462046002200EB3C
