:020000040800F2
:10000000E80B002095600008F1210008F3210008AA
:10001000F5210008F7210008F92100080000000080
:10002000000000000000000000000000FB210008AC
:10003000FD21000800000000FF2100080122000847
:10004000AF600008AF600008AF600008AF60000854
:10005000AF600008AF600008AF600008AF60000844
:10006000AF600008AF600008AF600008AF60000834
:10007000AF600008AF600008AF600008AF60000824
:10008000AF600008AF600008AF600008AF60000814
:10009000AF600008AF600008AF6000081F220008D2
:1000A000AF600008AF600008AF600008AF600008F4
:1000B000AF600008AF600008AF600008AF600008E4
:1000C000AF600008AF600008AF600008AF600008D4
:1000D000AF600008AF600008AF600008AF600008C4
:1000E0007B220008AF600008AF600008AF60000826
:1000F000AF600008AF600008AF600008AF600008A4
:10010000AF600008AF600008AF600008AF60000893
:10011000AF600008AF600008AF600008AF60000883
:10012000AF600008AF600008AF600008AF60000873
:10013000AF600008AF600008AF600008AF60000863
:10014000AF600008AF600008AF600008AF60000853
:10015000AF600008AF600008AF600008AF60000843
:10016000AF600008AF600008AF600008AF60000833
:10017000AF600008AF600008AF600008AF60000823
:10018000AF600008AF60000800F002F800F060F80F
:100190000AA090E8000C82448344AAF10107DA45E2
:1001A00001D100F055F8AFF2090EBAE80F0013F0D4
:1001B000010F18BFFB1A43F001031847A875000090
:1001C000C87500000A4410F8014B14F00F0508BF71
:1001D00010F8015B240908BF10F8014B6D1E05D013
:1001E00010F8013B6D1E01F8013BF9D1641E03D0EC
:1001F000641E01F8015BFBD19142E4D3704700001B
:100200000023002400250026103A28BF78C1FBD81F
:10021000520728BF30C148BF0B607047642906F001
:10022000AB80632906F06283732906F067830020A0
:1002300070471FB507F059FA06F002FE04000020CF
:10024000002106F009FE401C60601FBD10B510BD06
:1002500006F0DAFB1146FFF7ECFF01F041FC06F077
:10026000DDFD03B4FFF7F2FF03BC02F0FDF900006F
:100270002749084327490860704770B50F21C478A3
:10028000027801234FF0E026E4B1224C246804F404
:10029000E064C4F5E064C4F30724C4F10405E1405C
:1002A0004478AC4085780D4025431B4C29011155FD
:1002B000007800F01F018B40400906EB8000C0F879
:1002C000003170BD02F01F008340500906EB800032
:1002D000C0F8803170BD114A114001430D48001F24
:1002E000016070470B4A121D0029116801D00143BB
:1002F00000E08143116070474FF0E0210428086955
:1003000003D020F004000861704740F00400FAE7D1
:100310000000FA050CED00E000E400E080FFFF1FA4
:1003200010B501210C02204600F093FC2046BDE8E8
:100330001040002100F08DBC30B54268C44B0C79F0
:100340001A400B6842EA0422134343608268C14B9F
:100350004D791A40D1E9034323438C6844EA4504AC
:10036000234313438360C26A097D22F47002491E4D
:10037000C9B242EA0151C16230BD00210160017180
:1003800041718160C1600161012101757047B24B0B
:1003900010B51A68B1490A40D0E900142143D0E9E8
:1003A0000240044321431143196010BD0021016044
:1003B00041608160C16070470029816802D041F0CE
:1003C000010101E021F00101816070474268A44B06
:1003D0001A400A4342607047416282627047426835
:1003E00022F01F020A43426070479E490028D1F85C
:1003F000040302D040F4000001E020F40000C1F842
:100400000403704797490028D1F8040302D040F450
:10041000800001E020F48000C1F80403704770B54B
:10042000072509290AD9C468A1F10A0606EB460680
:10043000B540AC43B3401C43C46007E0046901EB22
:100440004106B540AC43B3401C4304611F23072A57
:1004500009D2446B521E02EB820293409C439140AE
:100460000C43446370BD0D2A09D2046BD21F02EB0A
:10047000820293409C4391400C43046370BDC46A64
:100480000D3A02EB820293409C4391400C43C462BC
:1004900070BD816841F08041816070470146002055
:1004A0008968490200D5012070470029816802D07F
:1004B00041F4806101E021F480618160704700298E
:1004C000816802D041F0020101E021F00201816067
:1004D00070474268491E22F4604242EA413141605D
:1004E00070470029416802D041F4006101E021F425
:1004F000006141607047C06C80B270475648001D73
:10050000006870470029816802D041F4807101E0E1
:1005100021F48071816070470029816802D041F424
:10052000007101E021F40071816070474D4900289D
:10053000D1F8040302D040F4005001E020F4005050
:10054000C1F80403704770B5072409290AD9C568A2
:10055000A1F10A0606EB4606B440A543B3401D438D
:10056000C56007E0056901EB4106B440A543B3400F
:100570001D430561836BC3F30154121B921C02EBF4
:1005800082041F22A2409343A1400B43836370BDAA
:10059000826B491E22F4401242EA01518163704786
:1005A00042507047826822F470220A43826070478A
:1005B000826822F440120A4382607047816841F4E5
:1005C000800181607047014600208968490200D59A
:1005D000012070470029416802D041F4806101E0A8
:1005E00021F48061416070470029416802D041F4E4
:1005F000805101E021F48051416070470844806AD5
:1006000080B2704701238B4041680AB1194300E072
:100610009943416070470246002012680A4200D0A8
:1006200001207047C9430160704730B50246002081
:1006300054680B0A01258D4011682C40194202D0E4
:10064000002C00D0012030BD6FEA112101607047FD
:10065000FFFEFFFCFDF7FFC004230140E030FCFF7C
:10066000FFFD3FFF00200140374900200860091DC1
:100670000860091D0860091D0860334933481431BA
:100680000860704730B530498379026853B30B680E
:1006900093430B600A1D13680468A3431360027937
:1006A0000A441368046823431360274A0832136816
:1006B0000468A3431360131D1C680568AC431C60E9
:1006C0004479102C05D021440A68006802430A606E
:1006D00030BD116804682143116019680068014346
:1006E000196030BD0079084401689143016030BD54
:1006F0000021016001710C22427181717047124921
:1007000010310A6802430A60704701460E4A002011
:10071000143212680A4200D0012070470A4914318D
:1007200008607047084A014600201268064B0A40DC
:1007300014331B680B4202D0002A00D001207047FE
:100740000149143108607047003C0140FFFF7F0001
:100750007A4910B5884206D10121084600F051FAC5
:10076000002101204FE07649884206D10121022074
:1007700000F047FA0021022045E07249884206D184
:100780000121042000F03DFA002104203BE06E49E5
:10079000884206D10121082000F033FA0021082008
:1007A00031E06A49884206D10121102000F029FA7F
:1007B0000021102027E06649884206D1012120202F
:1007C00000F01FFA002120201DE06249884206D176
:1007D0000121402000F015FA0021402013E05E497D
:1007E000884206D10121802000F00BFA00218020F0
:1007F00009E05A4988420AD184150121204600F0B7
:1008000000FA00212046BDE8104000F0FAB910BD02
:10081000F0B50023012403270D6804FA03F2154004
:10082000954242D1D0F800C05E0007FA06F52CEAE6
:10083000050CC0F800C091F804C0D0F800E00CFA34
:1008400006FC4CEA0E0CC0F800C091F804C0BCF1E4
:10085000010F02D0BCF1020F1FD1D0F808C02CEA62
:10086000050CC0F808C091F805C0D0F808E00CFAF3
:1008700006FC4CEA0E0CC0F808C0D0F804C02CEA04
:10088000020CC0F804C0426891F806C00CFA03FCE0
:100890001FFA8CFC42EA0C024260C268AA43C260A2
:1008A000CA79C568B2402A43C2605B1C102BB3D31F
:1008B000F0BD4FF6FF71016000210171417181713E
:1008C000C171704741F48032C261C161C261C169C6
:1008D000C06970470246002012690A4200D0012018
:1008E0007047006980B270470246002052690A4290
:1008F00000D001207047406980B270470183704783
:10090000418370470AB10183704741837047416159
:10091000704742694A40426170474B07DB0E9A407C
:10092000C90810B500EB8100016A0F249C40A14367
:100930000162016A1143016210BD00000000024023
:100940000004024000080240000C02400010024077
:100950000014024000180240001C02400020024027
:10096000E948016841F001010160E74A00210832CD
:1009700011600268E54B1A400260031DE44A1A60E8
:10098000026822F480220260DF480C300160704768
:10099000DD490022891C0A70087070470246002059
:1009A000510901290CD002290CD0D74974310968AA
:1009B00002F01F02012393400B4200D00120704738
:1009C000D149F4E7D0497031F1E730B500244FF454
:1009D000A0653120FFF7E2FF641CAC4201D0002883
:1009E000F7D03120FFF7DAFF002800D0012030BD1A
:1009F000C5490A6822F0F80242EAC0000860704760
:100A0000C44908607047C049002270310A700A70FA
:100A1000012802D0042801D1052008707047BE4982
:100A20000860704741EA82115A0810B5BB4B029C1E
:100A300003EB02421143014341EA0460B249091D3C
:100A4000086010BDB34908667047800140EA017034
:100A5000AD49843108607047AE4988667047AD493A
:100A6000C8647047A84A08321368084323F0EC634F
:100A7000184310607047A44A08321368084323F0F3
:100A800078431843106070479F4A0832116821F07C
:100A900003010143116070479B480830006800F073
:100AA0000C007047984A0832116821F0F0010143A8
:100AB00011607047944A0832116821F4E0510143F3
:100AC00011607047904908310A6822F4604242EA96
:100AD000C0000860704770B58B4A08321168904BAF
:100AE00011F00C0104D05D10042903D0082903D0B3
:100AF00003601BE0056019E08349091D0C68C4F31D
:100B000080560C6804F03F0416B1B5FBF4F301E025
:100B1000B3FBF4F30C680968C4F388146343C1F3AE
:100B20000141491C4900B3FBF1F1016011687D4BA3
:100B300001F0F00109095C5C0168E1404160146862
:100B400004F4E054A40A1C5D21FA04F484601268E1
:100B500002F46042520B9A5CD140C16070BDC0F398
:100B60000121032908D1684A0832116821F4F813D9
:100B70006D49014019431160634970310A68C0F33F
:100B80000B0002430A6070476349443908607047AC
:100B900061494039086070476449086070475A4AA3
:100BA00030320029116801D0014300E08143116017
:100BB0007047554A34320029116801D0014300E0E2
:100BC000814311607047504A38320029116801D0C2
:100BD000014300E08143116070474B4A40320029D5
:100BE000116801D0014300E0814311607047464A1B
:100BF00044320029116801D0014300E081431160B3
:100C00007047414A10320029116801D0014300E0C9
:100C10008143116070473C4A14320029116801D0A9
:100C2000014300E0814311607047374A18320029C0
:100C3000116801D0014300E0814311607047324ADE
:100C400020320029116801D0014300E08143116086
:100C500070472D4A24320029116801D0014300E079
:100C6000814311607047284A50320029116801D031
:100C7000014300E0814311607047234A5432002948
:100C8000116801D0014300E08143116070471E4AA2
:100C900058320029116801D0014300E081431160FE
:100CA0007047194A60320029116801D0014300E001
:100CB000814311607047144A64320029116801D0E1
:100CC000014300E08143116070470F4A0D32002953
:100CD000117801D0014300E08143117070470A4848
:100CE0007430016841F08071016070470146064A26
:100CF00000200C3212680A4200D0012070470249DD
:100D00000E3108707047000000380240FFFFF6FE09
:100D10001030002400004742800E47420000FFFFD1
:100D20000024F40000000020FFFCFF0F5C0147429C
:100D300010B501218C032046FFF78BFF2046BDE84C
:100D400010400021FFF785BF11490860704710B5BA
:100D50008A07130F21F003040F220D499A4008312E
:100D600021440C6894430C600A68984002430A606E
:100D700010BD08490860704707490860704704497A
:100D8000002020310968C90500D501207047000006
:100D900000380140DC00274200042742FE4910B51C
:100DA000884206D101210846FFF753FF00210120A8
:100DB0005BE0B0F1804F09D0F84988420DD10121A4
:100DC0000220FFF73CFF0021022070E001210846CD
:100DD000FFF735FF0021012069E0F149884206D183
:100DE00001210420FFF72BFF002104205FE0ED49E3
:100DF000884206D101210820FFF721FF00210820A9
:100E000055E0E949884206D101211020FFF717FF7C
:100E1000002110204BE0E549884206D10121202025
:100E2000FFF70DFF0021202041E0E149884206D173
:100E300001210220FFF70DFF0021022015E0DD490E
:100E4000884202D101210C040AE0DB49884202D128
:100E500001214C0404E0D94988420AD101218C04C3
:100E60002046FFF7F6FE00212046BDE81040FFF7C0
:100E7000F0BED349884206D101214020FFF7DFFEB2
:100E80000021402013E0CF49884206D10121802073
:100E9000FFF7D5FE0021802009E0CB4988420AD126
:100EA000841501212046FFF7CAFE00212046BDE837
:100EB0001040FFF7C4BE10BD30B50288B64BBC4C25
:100EC00098420DD0A0420BD0B0F1804F08D0B34D66
:100ED000A84205D0B24DA84202D0B24DA84203D1DB
:100EE00022F070054A882A43AF4DA84206D0AF4D84
:100EF000A84203D022F440750A892A4302804A6836
:100F0000C2620A880285984201D0A04201D1897A42
:100F100001860121818230BD4FF0FF314160002107
:100F20000180018141808172704701858282704712
:100F3000028822F070020A430280704741627047C3
:100F4000C1627047406A7047008D70470029018870
:100F500002D041F0020101E021F00201018070475E
:100F60000029018802D041F0040101E021F00401D0
:100F7000018070470029018802D041F0800101E022
:100F800021F0800101807047028822F0080202806F
:100F900002880A4302807047028822F4407202806D
:100FA00002880A43028070470029018802D041F07C
:100FB000010101E021F001010180704730B5028C90
:100FC00022F001020284028C8388048B22F0020248
:100FD00024F073050C882C438D8915434A882A43D5
:100FE0006D4DA84202D0724DA8420DD122F00805E5
:100FF000CA8923F440732A4322F004058A882A43CD
:101000000D8A1D434B8A2B43838004838968416387
:10101000028430BD70B5028C22F010020284028C72
:101020008488038B0D8823F4E6464FF6FF7303EAAA
:10103000052535438E8922F0200203EA0616164361
:101040004A8803EA02123243534EB04202D0584E4D
:10105000B04215D122F08006CA8924F4406403EA24
:101060000212324322F040068A8803EA0212324317
:101070000E8A03EA860626434C8A03EA8404344334
:101080008480058389688163028470BD70B5028C99
:1010900022F480720284028C8488838B0D8823F072
:1010A00073031D4322F400738E894FF6FF7202EA28
:1010B00006261E434B8802EA03233343364EB042D2
:1010C00002D03B4EB04215D123F40066CB8924F404
:1010D000405402EA0323334323F480668B8802EAF8
:1010E000032333430E8A02EA061626434C8A02EA99
:1010F00004143443848085838968C163038470BD8C
:1011000070B5028C22F480520284048C8288838B16
:101110000D8823F4E6464FF6FF7303EA05253543B1
:1011200024F400568C8903EA043434434E8803EADD
:1011300006362643184CA04202D01D4CA04205D1D1
:1011400022F480440A8A03EA821222438280858341
:1011500089680164068470BD00210180418081801E
:1011600081608181C18101824182704730B5012453
:10117000058C00F118038C40A543058431B3082980
:101180002CD0091FC1F34E001844016848F6FF73C4
:101190001940016001681AE00000014000040040AD
:1011A00000080040000C0040001000400014004007
:1011B000000401400040014000440140004801405B
:1011C00000180040001C00400020004006E04FF6E0
:1011D000FF7303EA02221143016030BD03EB5100AB
:1011E00001684FF68F73194001600168F3E74163AE
:1011F000704781637047C163704701647047028B19
:1012000022F070020A4302837047028B4FF6FF738D
:1012100022F4E04203EA0121114301837047828BEB
:1012200022F070020A4382837047828B4FF6FF736D
:1012300022F4E04203EA0121114381837047028BCB
:1012400022F008020A4302837047028B4FF6FF73B5
:1012500022F4006203EA0121114301837047828B6B
:1012600022F008020A4382837047828B4FF6FF7395
:1012700022F4006203EA0121114381837047028B4B
:1012800022F004020A4302837047028B4FF6FF7379
:1012900022F4806203EA0121114301837047828BAB
:1012A00022F004020A4382837047828B4FF6FF7359
:1012B00022F4806203EA0121114381837047028B8B
:1012C00022F080020A4302837047028B4FF6FF73BD
:1012D000C2F30E0203EA0121114301837047828B9E
:1012E00022F080020A4382837047828B4FF6FF739D
:1012F000C2F30E0203EA0121114381837047028C7D
:1013000022F002020A4302847047028C22F0080293
:101310000A4302847047028C4FF6FF7322F02002CA
:1013200003EA0111114301847047028C4FF6FF73E9
:1013300022F0800203EA0111114301847047028CFC
:101340004FF6FF7322F4007203EA01211143018476
:101350007047028C4FF6FF7322F4006203EA01210A
:10136000114301847047028C4FF6FF7322F4005240
:1013700003EA013111430184704710B50123048C45
:101380008B409C430484038C8A401343038410BD28
:1013900010B50423048C8B409C430484038C8A4046
:1013A0001343038410BD828B22F440628283828BBC
:1013B0004FF6FF7303EA01210A4382837047828B51
:1013C00022F00C028283828B0A4382837047028B55
:1013D00022F440620283028B4FF6FF7303EA01217D
:1013E0000A4302837047F0B5048C24F0100404848F
:1013F000078B068C4FF6FF7404EA011527F4734738
:1014000004EA0331394304EA02220A4326F0A00128
:10141000294341F0100102830184F0BD028B22F0C8
:101420000C020283028B0A43028370472DE9F041CC
:101430000D460E884988AA882B8904460EB3042ECF
:1014400026D0082E268C4FF6FF7028D026F4805622
:101450002684A78B268C00EA022200EA013127F4B9
:1014600073473A4300EA0330104326F420420A430C
:1014700042F48051A0832184E9882046BDE8F041F0
:1014800091E700F061F9E9882046BDE8F041C5E741
:10149000FFF7A9FFE9882046BDE8F04197E726F469
:1014A00080762684A78B268C00EA012100EA0310AF
:1014B000104327F0F307384326F420620A4342F42E
:1014C0008071A0832184E9882046BDE8F04176E759
:1014D00000210180418001228280C180018170470A
:1014E0002DE9F0410C46002549880746012601B93F
:1014F0000225A288012A00D10226208823890028FB
:10150000384610D0FFF76FFFE1883846FFF75FFFDE
:10151000238932462946384600F016F9E1883846D4
:10152000BDE8F0417AE700F00FF9E1883846FFF7AF
:1015300075FF2389324629463846FFF754FFE18874
:101540003846BDE8F04142E7406B7047806B70471A
:10155000C06B7047006C704710B50A884B88CC8808
:101560001A438B8823431A430B891A434B89898971
:101570001A430A43A0F8442010BD00210180418095
:101580008180C1800181418181817047002930F8CB
:10159000441F02D041F4004101E0C1F30E0101807B
:1015A00070470029818802D041F0040101E021F058
:1015B0000401818070470029818802D041F0010137
:1015C00001E021F0010181807047002A828901D069
:1015D0000A4300E08A438281704781827047024655
:1015E0000020128A0A4200D001207047C9430182BC
:1015F000704702460020138A92890B4202EA0102D8
:1016000002D0002A00D001207047C94301827047F0
:101610001143A0F848107047002A828901D00A437C
:1016200000E08A43828170470029818802D041F01E
:10163000080101E021F0080181807047018921F053
:10164000070101817047028922F070020A4302817A
:10165000704700B50346FFF7F6FF188940F0070012
:10166000188100BD70B50D4611460446602D4FF03F
:1016700001020AD000F068F829462046FFF7E3FF90
:10168000208940F00700208170BDFFF7ACFEF3E732
:1016900030B504894FF6FF7505EA03231343E4B21E
:1016A0000B432343038130BD10B50446FFF7F0FF21
:1016B000208940F07700208110BD10B50446FFF767
:1016C000E7FF208940F48040208110BD828822F00D
:1016D0007002828082880A4382807047028922F0E9
:1016E0000702028102890A4302817047028922F0BF
:1016F0008002028102890A430281704770B5058920
:10170000048B068C25F007050D434FF6FC410C4079
:1017100040F201110C434FF6FF7101EA031126F06C
:1017200022061143314305810483018470BD0029E1
:10173000818802D041F0800101E021F080018180A8
:101740007047A0F85010704770B5048C24F0010465
:101750000484058B048C4FF6FF7606EA03131343CB
:1017600025F0F3052B4324F00A020A4342F001015D
:101770000383018470BD0000CA4910B5884206D1B8
:1017800001211020FFF765FA0021102028E0C6494A
:10179000884202D101214C0410E0C449884202D1A0
:1017A00001218C040AE0C249884202D10121CC0403
:1017B00004E0C04988420AD101210C052046FFF708
:1017C0003EFA2046BDE810400021FFF738BABA497A
:1017D000884209D101212020FFF73BFA0021202077
:1017E000BDE81040FFF735BA10BD7FB50446008A4A
:1017F0000D4620F44051E88808432082A08941F238
:101800000C618843A9882A8911436A8902431143DC
:10181000A181A08A20F44071A8890843A08268466B
:10182000FFF759F99F48844202D0A348844201D16E
:10183000039800E00298A1890904002900EBC00187
:1018400001EB0010296802DA4FEA410101E04FEA9A
:101850008101B0FBF1F26420B2FBF0F14FEA01111B
:101860004FEA11136FF018056B4302EB8302A38953
:101870001D044FF0320306D503EBC202B2FBF0F0B9
:1018800000F0070005E003EB0212B2FBF0F000F0FD
:101890000F00084320817FBD4FF4165101600021E5
:1018A0008180C18001810C2242818181704710B505
:1018B000028A4C8822F470630A8822438C88C98883
:1018C0000C4322431A43028210BD00210180418053
:1018D0008180C18070470029818902D041F4005184
:1018E00001E021F4005181817047028B02F47F42B4
:1018F0000283028B0A43028370470029818902D048
:1019000041F4004101E0C1F30E01818170470029DB
:10191000818A02D041F4006101E021F400618182FA
:101920007047C1F30801818070478088C0F30800C8
:101930007047028A22F00F020282028A0A43028260
:1019400070470029818902D041F0020101E021F0B5
:10195000020181817047828922F40062828182893A
:101960000A4382817047028A22F020020282028AA0
:101970000A43028270470029018A02D041F4804163
:1019800001E021F4804101827047818941F0010129
:10199000818170470029818A02D041F0080101E06D
:1019A00021F0080181827047028BD2B20283028B40
:1019B00042EA0121018370470029818A02D041F067
:1019C000200101E021F02001818270470029818AF5
:1019D00002D041F0100101E021F010018182704736
:1019E000828A22F004028282828A0A4382827047BB
:1019F0000029818A02D041F0020101E021F00201B8
:101A000081827047002A828A01D00A4300E08A431B
:101A10008282704710B5C1F3421301F01F04012107
:101A2000A140012B07D0022B07D01430002A0268F6
:101A300005D00A4304E00C30F8E71030F6E78A439B
:101A4000026010BD0246002012880A4200D0012028
:101A50007047C9430180704730B501F01F0201246F
:101A60000025C1F3421304FA02F2012B0FD0022B1E
:101A70000FD0838A4FEA11210088134204FA01F43F
:101A800000EA040001D000B10125284630BD838959
:101A9000F0E7038AEEE70A0A01219140C943018079
:101AA0007047000000100140004400400048004022
:101AB000004C0040005000400014014010B501F0FF
:101AC000F6F901F0B9F9FC4C207808B101F016F9EB
:101AD0006078002803D0BDE8104002F0FBBA10BDCA
:101AE00000F004FC00F076FC00F0C4FC4FF416504B
:101AF00000F06AFD00F05AFF01F016F800F090FFC8
:101B000001F082F80421ED48FEF7FAFEEC4E4FF4A6
:101B100080513046FEF7F4FEF1143046FEF7F0FE39
:101B200031153046FEF7ECFE04213046FEF7E8FEA4
:101B300008213046FEF7E4FEE24F20213846FEF74A
:101B4000DFFE10213846FEF7DBFE4FF47A78404680
:101B500000F009FC4FF47A61C82000F0C8FFD64CB1
:101B600001200025A07040F2E730C4E90405256299
:101B70006562A562E5622563A561D348E56160639E
:101B8000D248A063D248E06340422064D1486064F8
:101B90004042A06402F0A6FA01F01AF8014660681B
:101BA000814206DDE068032801D0401C0BE0E560BF
:101BB0000AE001F00DF8014660684042814209DA0E
:101BC000E06800B3401EE06001F00BF841463220AF
:101BD00000F08DFFE068C0B101281FD002282AD094
:101BE0000328D9D104213046FEF78AFE0821304669
:101BF000FEF786FE20213846FEF782FE1021384689
:101C0000FEF77CFEC8E70320DDE704213046FEF73F
:101C100075FE08213046FEF773FE07E004213046CA
:101C2000FEF76EFE08213046FEF768FE202138469A
:101C3000FEF766FE0BE004213046FEF761FE082148
:101C40003046FEF75DFE20213846FEF757FE102194
:101C50003846FEF755FE9FE72DE9F0474FF47A61CD
:101C6000C82000F044FF9CA004F028FB4FF47A70D9
:101C700000F079FB01F0F7FE02F0A4FD02F009FD8F
:101C8000642000F070FB8C4800226421D0F80C80A6
:101C9000502396242325954EDFED950A954FDFF8C6
:101CA00058C24FF08C09B8F1000F0DD04FF0C80AA0
:101CB0009FED920AB8F1010F12D0B8F1020F1DD0BA
:101CC000B8F1030F37D125E08362C0E90514C16183
:101CD000C0E90B923560C7ED000ACCED000A0AE0BE
:101CE0008362C0E90514C161C0E90BA2356087EDCC
:101CF000000A8CED000A02F0BEFE1CE08362C0E91F
:101D00000514C161C0E90B923560C7ED000ACCED46
:101D1000000A0AE08362C0E90514C161C0E90BA2B0
:101D2000356087ED000A8CED000A02F0A4FE01F098
:101D30004EFE03F010FABDE8F04771A004F0BEBA01
:101D40002DE9F05F4FF47A61C82000F0D0FE72A058
:101D500004F0B4FA4FF47A74204600F004FB01F06A
:101D600082FE554900206423D1F80C805025322290
:101D70005E4E604FDFF880C1B8F1000F0FD04FF01A
:101D80002809B8F1010F16D04FF08C0A4FF01E0B46
:101D9000B8F1020F26D0B8F1030F1CD12EE04FF49A
:101DA000C8748D620C624B610863C1E906329FED15
:101DB000500A32600BE04B618D628A614FF41673FA
:101DC0000863C1E907239FED590AC6F8009087ED23
:101DD000000A8CED000A01F0F9FABDE8F05F54A0AA
:101DE00004F06CBA8D62C1E90532C1E90BA0C1E90A
:101DF00007249FED420AC6F800B0E8E78D62C1E90A
:101E00000BA0C1E90530C1E907949FED4F0AC6F860
:101E100000B0DCE72DE9F05F4FF47A612DED028B25
:101E2000C82000F064FE49A004F048FA4FF47A702C
:101E300000F099FA01F017FE1F4C2C4EDFED2C8AB2
:101E40002C4FDFF8B480E068782570B14FF0C80BF4
:101E50004FF014094FF0280AB2EE008A01281CD076
:101E600002287DD0032817D19EE002F03BF94FF401
:101E7000C870256320621E203060C7ED008AC8ED5F
:101E8000008A4121E164DC222D21A265C4E91410FD
:101E9000C4E9170101F0EFFB7FE002F023F94FF4F2
:101EA0004870C4F830B0206219203060C7ED008A55
:101EB000C8ED008A60E053E028000020000C0240DA
:101EC000000802400000024078B7F3FF48AC0B0066
:101ED0009084E6FF80E5F9FF427574746F6E2030E0
:101EE00020707265737365640A0D00009C01002008
:101EF00000007042580100205C0100200000B44244
:101F000046696E697368656420427574746F6E20EB
:101F100030204953520A0D00427574746F6E20319F
:101F200020707265737365640A0D00000000A042A2
:101F300046696E697368656420427574746F6E20BB
:101F400031204953520A0D000000C8424275747492
:101F50006F6E203220707265737365640A0D000025
:101F600002F0C0F84FF47A70C4F830B02062192043
:101F70001FED1E0A306022E004F15003484651462E
:101F80005C22E56407C3C4E917A901F074FB784833
:101F900080ED008A774880ED008A77A0BDEC028B47
:101FA000BDE8F05F04F08AB902F09CF840F24C40C2
:101FB000C4F830B0206219209FED750A306087EDBB
:101FC000000A88ED000AD7E7F0B5724C89B0042208
:101FD0000721204600F074FE07460422092120460E
:101FE00000F06EFE064604220821204600F068FE3E
:101FF000054600F0E9FD044600F0EAFD664904AA42
:102000000968E2C2664A654912680968CDE900209C
:102010006448CDE902410368634802686348016887
:10202000634804F04BF909B0F0BD70B54FF47A6124
:10203000C82000F05CFD4FF47A75284600F093F953
:102040005CA004F03BF9604CE06830B1012807D097
:1020500002280BD0032808D167E001F0B8FC01E0AA
:1020600001F0DBFC032000F021FD7CE002F03AF8F7
:102070005021A162642060617821E162A061322078
:102080001FED620AE061514804F15003A42280ED83
:10209000000A4F4880ED000A4E4821632821016064
:1020A0003348B2EE000A80ED000A324880ED000AA3
:1020B0005120E0643C2007C3C4E9171002F04BF93B
:1020C000642000F050F902F067F9642000F04BF949
:1020D00002F081F9642000F046F902F01BF928466D
:1020E00000F041F902F077F9642000F03CF902F0C9
:1020F00053F9642000F037F902F02DF9642000F064
:1021000032F902F007F9284600F02DF902F044F9FF
:10211000642000F028F902F0FDF80020607000F063
:102120004BFC002000F05EFC1DE001F0DBFF6420B2
:1021300000F019F900F0E2FDFFF746FF012000F082
:1021400012F900F045FDD4E901215143884207DC32
:1021500000F03EFDA1686268494251438842E9DAD5
:10216000642000F000F9BDE870401BA004F0A6B8A0
:10217000600100206401002046696E69736865642F
:1021800020427574746F6E2032204953520A0D003C
:102190000000F0420020014008010020F000002073
:1021A000F800002000010020FC000020F4000020C6
:1021B00000770008427574746F6E2033207072656A
:1021C000737365640A0D0000280000205801002088
:1021D0005C0100209C01002046696E69736865649B
:1021E00020427574746F6E2033204953520A0D00DB
:1021F0007047FEE7FEE7FEE7FEE77047704770476F
:1022000037480168491C016036490868002802DA2D
:10221000354B00221A60401E0860FFF74FBC10B516
:102220002020FEF77FFA4FF4967470B1322000F050
:102230009AF82020FEF776FA20B1204600F093F8B5
:10224000FFF70AFD2020FEF77BFA4020FEF76AFA2E
:10225000002811D0322000F086F84020FEF762FA04
:10226000002809D0204600F07EF8FFF7DEFEBDE82A
:1022700010404020FEF764BA10BD70B54FF48044A2
:102280002046FEF74FFA4FF4967570B1322000F0F9
:102290006AF82046FEF746FA38B1284600F063F89F
:1022A000FFF74EFD2046FEF74BFA4FF40044204660
:1022B000FEF738FA002811D0322000F054F82046FA
:1022C000FEF730FA002809D0284600F04CF8FFF756
:1022D000A1FD2046BDE87040FEF732BA70BD000097
:1022E000D0000020E40000203404004070B503F06A
:1022F00073FF03F096FF33484FF47A710068B0FB28
:10230000F1F0401EB0F1807F16D24FF0E024606102
:1023100066170F21304600F049F80025A561072017
:1023200020614FF44070FDF7A3FF0021304600F01C
:102330003DF82548456070BDFEE74FF0E02080691C
:10234000A821B0FBF1F12048426802EB4203C3EB45
:10235000C212C1EBC20101F57A71016000687047D9
:10236000194840687047184A516853685B1A83429D
:10237000FBD1704730B50546FFF7DFFF4FEA000499
:10238000FFF7DBFF001BA842FAD130BD30B50C4689
:102390004FEA0005FFF7D1FF001BA842FAD330BD7A
:1023A000094A53685B1A8342FBD370470907090E39
:1023B000002803DA00F00F00044A00E0044A8154C8
:1023C00070470000A4010020CC00002014ED00E0C4
:1023D00000E400E07CB501210846FEF7E0FB0121A6
:1023E0000420FEF7DCFB01210820FEF7D8FB30209B
:1023F000009001208DF8040000208DF806000321D4
:102400008DF805108DF8070069461748FEF700FAA9
:102410000C20164D009069462846FEF7F9F9042075
:10242000134E022400908DF8074069463046FEF7AF
:10243000EFF94FF4E05000908DF8074069462846C8
:10244000FEF7E6F904213046FEF75AFAE102284683
:10245000FEF756FAA1022846FEF752FA6102284614
:10246000FEF74EFA7CBD000000000240000802406A
:10247000000C02402DE9F04701218F0386B0384659
:10248000FEF7B5FB01210620FEF789FB0024DFF8EB
:1024900030A18DF8104020258DF8134003A9504637
:1024A0000395FEF7B5F905210120FEF750FC0095D4
:1024B0008DF8044008268DF8056001258DF806503A
:1024C0006846FEF7DFF84FF017098DF808908DF891
:1024D00009508DF80A408DF80B5002A8FDF7CDFE8B
:1024E0008DF810408DF8134003A950460397FEF76E
:1024F0008FF90E210120FEF72AFC8DF804408DF89B
:10250000056000978DF806506846FEF7BBF828274F
:102510008DF808708DF809508DF80A408DF80B5031
:1025200002A8FDF7AAFE8DF810404FF400488DF880
:10253000134003A95046CDF80C80FEF769F90F212E
:102540000120FEF704FC8DF804408DF80560CDF8FD
:1025500000808DF806506846FEF794F88DF80870F4
:102560008DF809508DF80A408DF80B5002A8FDF740
:1025700084FE8DF8104040278DF8134003A91148C0
:102580000397FEF745F906210220FEF7E0FB8DF8E0
:1025900004408DF8056000978DF806506846FEF7F8
:1025A00071F88DF808908DF809508DF80A408DF873
:1025B0000B5002A8FDF761FE06B0BDE8F0870000F1
:1025C000000402400008024070B5054688B00121B1
:1025D0000220FEF7E4FA01211020FEF708FB6D4E01
:1025E000072209213046FEF798F907220A213046D2
:1025F000FEF793F900248DF8164001208DF817009E
:1026000002208DF814004FF4C06104918DF815007C
:1026100004A93046FEF7FCF85F4E01213046FFF773
:102620006CF9ADF808400C20ADF80A00ADF8044094
:10263000ADF80640ADF818403015ADF81A00ADF809
:102640001E400095ADF80C40ADF81C406946304680
:10265000FFF7CBF806A93046FFF729F901213046EC
:10266000FFF739F908B070BD0020704770B54A4DCA
:102670000446C1B22846FFF754F980212846FFF7E7
:10268000E1F90028F9D0204670BD43480188890649
:10269000FCD58088C0F30800704770B53E4D0446F5
:1026A00080212846FFF7CEF90028F9D0A1B22846AC
:1026B000FFF737F9204670BD10B538A003F0FEFDD6
:1026C000354C20212046FFF7BDF90028F9D02046DF
:1026D000FFF72BF9C0B210BD10B539A003F0EEFD25
:1026E0002D4C20212046FFF7ADF90028F9D02046D7
:1026F000FFF71BF901463AA003F0E0FD2046FFF783
:1027000014F9C0B210BD10B537A003F0D7FD224CAC
:1027100020212046FFF796F90028F9D02046FFF740
:1027200004F9A0F1300137A003F0C8FD2046FFF7FF
:10273000FCF8303810BD10B50446014686B033A011
:1027400001E0214638A003F0B9FD694641A003F03D
:10275000D7FE694640A003F0B1FD2146684604F06B
:102760001BF80028EDD106B010BD38B5044601466F
:102770003BA001E0214641A003F0A0FD69464AA02C
:1027800003F0BEFE1FA0009903F098FD0098A04240
:10279000F0D138BD00000240001001400D0A7072F7
:1027A00065737320616E79206B657920746F206387
:1027B0006F6E74696E75652E2E2E0D0A0D0A00005F
:1027C000706C6561736520656E746572206120634D
:1027D00068617261637465722E2E2E0D0A0000000E
:1027E00025630D0A00000000706C6561736520654B
:1027F0006E74657220612064696769742E2E2E0DD7
:102800000A00000025640D0A000000005072657384
:102810007320257320746F20436F6E74696E756525
:102820002E2E2E203A000000496E76616C696420DD
:10283000696E7075742C2070726573732025732017
:10284000746F20436F6E74696E75652E2E2E203A5C
:10285000000000002573000025730D0A0000000031
:10286000507265737320256420746F20436F6E74FB
:10287000696E75652E2E2E203A000000496E766135
:102880006C696420696E7075742C20707265737346
:1028900020256420746F20436F6E74696E75652EF9
:1028A0002E2E203A00000000256400001CB50121F6
:1028B0000420FEF792F94FF47070009002208DF81A
:1028C000040003208DF8050000208DF80600504C10
:1028D0008DF8070069462046FDF79AFF022206217F
:1028E0002046FEF71AF8022207212046FEF715F8C7
:1028F000022208212046FEF710F802220921204674
:10290000FEF70BF81CBDF0B589B040F2E730069039
:102910000320ADF8140000263E4FADF81C60ADF862
:10292000166005A93846FEF7C7FA60203A4DADF8A3
:1029300000000124ADF8024028880290ADF80C6038
:1029400069463846FEF73AFB08213846FEF777FC21
:10295000ADF802406888029069463846FEF75AFB97
:1029600008213846FEF771FCADF80240A8880290B5
:1029700069463846FEF78AFB08213846FEF76FFCA9
:10298000ADF80240E888029069463846FEF7B8FB89
:1029900008213846FEF769FC01213846FEF7EAFABD
:1029A00001213846FEF700FB09B0F0BD10B5FFF776
:1029B0007DFFBDE81040A6E718490968884200DDA0
:1029C00008464942884200DA0846124A00213C3251
:1029D000131D002802DB106019607047116040422F
:1029E000186070470D490968884200DD0846494271
:1029F000884200DA0846074A00213432131D0028B5
:102A000002DB116018607047404210601960704727
:102A10000004024000080040DC00002038000020D4
:102A200030B58BB001210220FEF7D7F84020059089
:102A300002208DF8180003218DF8191000248DF85C
:102A40001A40354D8DF81B0005A92846FDF7E0FE1C
:102A5000022206212846FDF760FF952008908B2072
:102A6000ADF81C002D4DADF82440ADF81E4007A96F
:102A70002846FEF721FA6020ADF800000120ADF8ED
:102A800002000294ADF80C4069462846FEF796FA1B
:102A900008212846FEF7D3FB01212846FEF76AFAF3
:102AA00001212846FEF780FA0BB030BD2DE9F04138
:102AB00005461B498C2068430860184F95202C3729
:102AC00038600024154EA04634360CE03868401CAF
:102AD000C00830604620FFF746FCC6F8008046205C
:102AE000FFF741FC641CAC42F0DBBDE8F0810B4A0F
:102AF00010B52C321368094C5B1C9B0834342360DE
:102B0000084B93FBF1F18C2391FBF3F1491E11600B
:102B10000349086010BD00000000024000040040AE
:102B2000E400002000BD01057CB501210920FEF76D
:102B300054F802208DF8040001208DF8070048F2B7
:102B400003002E4C009069462046FDF761FE0820E8
:102B50002B4D009069462846FDF75AFE02220021BF
:102B60002046FDF7DAFE022201212046FDF7D5FEC0
:102B700001220F212046FDF7D0FE01220321284625
:102B8000FDF7CBFE1F4C4FF0FF3529462046FEF7E0
:102B9000D7F929464FF080452846FEF7D1F90223A0
:102BA000002203212046FEF7A9FD00231A46032137
:102BB0002846FEF7A3FD01212046FEF7F5F9012185
:102BC0002846FEF7F1F97CBD0E48243000687047B6
:102BD0004FF08040406A70470A4900202431086065
:102BE00070474FF08041002048627047054924310A
:102BF000086070474FF08041486270470000024013
:102C000000040240000C004030B501218DB00802E4
:102C1000FDF7EDFF8820032500908DF80450002477
:102C20008DF8074069463048FDF7F2FD8DF80450F5
:102C300000958DF8074069462C48FDF7E9FD8DF8B1
:102C4000045033202A4D00908DF8074069462846ED
:102C5000FDF7DEFD4FF48030CDE908404FF47060A1
:102C6000CDE90A4008A8FDF792FB8DF80C400294CC
:102C70008DF80D400594069401201E4C8DF81C0023
:102C800002A92046FDF758FB012240F2052120460B
:102C9000FDF7B8FC01212046FDF78EFB0421164804
:102CA000FDF72EFEA1142846FDF72AFEE114284662
:102CB000FDF726FE21152846FDF722FE0DB030BD9A
:102CC00010B5134604460122FDF7A9FB2046FDF787
:102CD000E0FB02212046FDF79EFC0028F9D02046AB
:102CE000BDE81040FDF707BC0000024000040240B0
:102CF0000008024000200140000C02402DE9F0478E
:102D00007A4D04220A212846FFF7DAFF784C042284
:102D10000E21E0602846FFF7D3FF206104220B213B
:102D20002846FFF7CDFF606104220F212846FFF7F8
:102D3000C7FFA061FFF701FB6E4F824604213846B2
:102D4000FDF7DCFD6C4E4FF4806841463046FDF7E0
:102D5000D5FD51463C20FFF719FB04220A212846E5
:102D6000FFF7AEFFE1680422401AE0600E2128461A
:102D7000FFF7A6FF2169401A206104213846FDF7BC
:102D8000BFFD41463046FDF7BBFDE0680027002847
:102D900000DAE7602069002800DA27615146FA204E
:102DA000FFF7F4FA4FF4805949463046FDF7A6FD87
:102DB0004FF4006841463046FDF7A0FD51464FF400
:102DC000AA70FFF7E3FA04220B212846FFF778FFE9
:102DD00061690422401A60610F212846FFF770FFE5
:102DE000A169401AA06149463046FDF789FD414678
:102DF0003046FDF785FD6069002800DA6761A0694B
:102E0000002800DAA761E26821684FF47A704A432B
:102E100092FBF0F2E26022694A4392FBF0F22261F7
:102E200062694A4392FBF0F26261A2694A4392FBF3
:102E3000F0F0A061BDE8F0872DE9F04150262C4C60
:102E400000202A4F0546E061042207213846FFF79B
:102E500037FFE1696D1C0844E061B542F4DB4CF2D8
:102E6000503191FBF6F0E2695043244A104490FB44
:102E7000F1F04000E061216A01442162616A084486
:102E80006062BDE8F08110B5042203211748FFF706
:102E900017FF174C606004F056FA9FED191B53ECB6
:102EA000112B04F0C9F804F01FFAA06010BD10B592
:102EB000FFF7E9FF0E4841F658318068884213DA7F
:102EC0000D4C04212046FDF719FD08212046FDF791
:102ED00015FD0D4C20212046FDF710FD2046BDE8D4
:102EE00010401021FDF70ABD10BD00000020014078
:102EF000E8000020000C024000080240DCFEBCF9A3
:102F0000AC1C5A643BDFD33F00000240FF4FDFF8A8
:102F100000840D4606464FF47A7900BFFFF70DFA9C
:102F20000446FFF7EBFE3868301AFFF745FDD8F886
:102F30000000281AFFF756FD21464846FFF726FAFB
:102F4000ECE710B5F148F349F34C00680968884292
:102F50004FF00801204602DDFDF7D0FC01E0FDF74F
:102F6000CFFCEE48EE490068096888424FF0040142
:102F7000204602DDFDF7C2FC01E0FDF7C1FCE94897
:102F8000E949EA4C0068096888424FF01001204680
:102F900002DDFDF7B3FC01E0FDF7B2FCDC48E449DB
:102FA0000068096888424FF02001204603DDBDE833
:102FB0001040FDF7A3BCBDE81040FDF7A1BC70B503
:102FC0000D460446FFF70DFEFFF706FE2046FFF70D
:102FD000F3FC2046FFF706FD2846FFF7C4F9002062
:102FE000FFF7EAFC0020FFF7FDFC6420FFF7BBF9C8
:102FF000FFF7EAFD0446FFF7EBFD201A70BD1CB594
:103000000020CC49CC4A8246087001211170CB497E
:1030100007468346087080460546009004460190A6
:10302000C7484FF001090168C6480160C648C74A51
:103030000068126809FB00F18E1ABAF1000F2ED158
:1030400086422CDCC2484FF0010AC24A80F800A038
:1030500000201070C04880F800A02DB9022C03D0C9
:10306000032C01D0042C14D1304601F086F8BB4863
:10307000D0ED000ABA48B8EEE01AD0ED000A01F02F
:1030800063F8B848D0ED000AB4EEE00AF1EE10FAA9
:1030900001D2AB4800E0B1480168AA48016057B9C5
:1030A000A948006800EB4000C11700EB9170B6EB37
:1030B000A00F00DC012737EA080002D0A449012054
:1030C0000870BBF1000F38D19F48006800EBD0704A
:1030D000B6EB600F31DC8D488E494FF0010B006874
:1030E0000968884205DC8A48914900680968884275
:1030F00000DD012589488A4900680968884201DDA8
:10310000012000908748884900680968884201DDED
:1031100001200190FFF724F900F00304641C012C46
:103120000FD0022C10D0032C10D0042CF2D1009818
:1031300005EA000101980142ECD0B8F1000F09D076
:1031400012E0002DE6D1F8E7009800E00198002891
:10315000E0D1F2E77C480068C11700EB9170B6EB54
:10316000A00F05DC4FF0010815B179490020087067
:10317000002E0ADD654801684FF4FA60814204DCE4
:103180006349096881427FF751AF09F101093DB1F7
:1031900075480268754801687548006800F004FECB
:1031A000022C04D0032C04D0042C04D007E0714876
:1031B00002E0714800E07148006800F097FC4FF0B1
:1031C000000A5746D346D0465546CDF800A0CDF864
:1031D00004A02BE72DE9F05F69496A48DFF8A8A150
:1031E0000A684FF0FC0902EB420300EB830CDAF8AB
:1031F00000004F464E461CF800404D4684440B2AC2
:1032000001DA9CF80C900B2801DA9CF80170002878
:1032100001DD1CF80C6C002A01DD1CF8015CDFF8F4
:103220006CA18B460AEB8301085C01F00FF9DFF813
:10323000608140B9611E894505D14E2188F8001092
:103240000520BDE8F09FDBF80000DFF83CA100EBB3
:1032500040014E48D94600EB8101DAF80000085CD5
:1032600001F0F7F838B9601E874204D1452188F88B
:1032700000100620E5E7CB46D9F80000DFF80C91F6
:1032800000EB400109EB8100DAF800105746405C82
:1032900001F0E2F838B9601E864204D1532188F863
:1032A00000100720CDE7DBF8000000EB400109EB40
:1032B00081003968405C01F0D2F838B9641EA5423B
:1032C00004D1572188F800100820BAE70020B8E799
:1032D0002DE9F0412D4F002606EB4600002407EBB8
:1032E0008005285D01F0BEF870B9285D0B2E40F016
:1032F0000F00285504DA2819017B41F004010173FD
:10330000002E4CDD281945E058E00000F4000020B4
:10331000F80000209C00002000080240FC00002073
:10332000A400002000010020A800002000000240AE
:10333000A00000202A000020990000209A00002010
:1033400054000020180100208C0000209001002073
:1033500028000020980000202900002058000020AC
:10336000100100205C01002040000020C00000206F
:10337000BC0000205C0000206000002064000020F1
:10338000140000204802002010000020B801002096
:103390002400002010F80C1D41F0010101700B2CDD
:1033A00004DA2819417841F008014170002C05DD4C
:1033B000281910F8011D41F002010170641C0C2C49
:1033C0008FDB761C0C2E87DBBDE8F0812DE9F04FFA
:1033D0004FF4C8712DED028BE5B0684603F0B5F9E6
:1033E000FE4D0026FE4CDFF8FC932E604FF04E0B96
:1033F0002660B04689F800B0FFF76AFF01F058FA7E
:1034000001F047F900F06EFEF7494FF0010A00277E
:1034100081F800A0F54981F800A095E020682A68AD
:1034200000EB4001F24800EB8101895CFC2903D3E9
:103430000A20FFF73BFB8CE099F800104E2906D0DC
:10344000452925D053293CD057295BD073E020680B
:1034500002E0761C401C206000EB4001E54800EBD8
:1034600081002968405C00F0F1FF002863D12068EA
:10347000DF4900EB400201EB820229685318515CDE
:103480001B7B491E8B42E4D055E0761C401C286013
:10349000206800EB4001D74800EB81002968405CC0
:1034A00000F0D7FF50BB206800EB4001D04800EB94
:1034B000810128680A18095C5278491E8A42E4D0C2
:1034C00039E0206802E0761C401E206000EB4001DD
:1034D000C84800EB81002968405C00F0BDFF68B976
:1034E0002068C34900EB400201EB820229685318AF
:1034F000515C13F80C3C491E8B42E4D01BE0761C57
:10350000401E2860206800EB4001BA4800EB8100B3
:103510002968405C00F0A3FF68B9206800EB400117
:10352000B34800EB810128680A18095C12F8012CE5
:10353000491E8A42E3D0B04840F82760FFF74AFEB0
:103540004DF8270000267F1C00F092FF00283FF472
:1035500065AFAA4989F800B0002481F800A0A64D03
:1035600071E044B305EB84014968E9B300EE100A49
:10357000B8EEC00A00F011FEA148A249006809682F
:1035800088420DDDA048A14900680968884207DD2E
:103590009F4802689F4801689F48006800F004FC4B
:1035A0005DF82400052842D0062843D0072844D0DF
:1035B000082845D046E0994890ED000AB8EEC00AC8
:1035C00000F0E5FD9648D0ED000AB8EEE01AC0EE36
:1035D000010A10EE900A04F017F89FED921B53ECCD
:1035E000112B03F01BFF00E00DE041EC180B2868E5
:1035F00003F0A9FE53EC182B03F076FC03F042FC19
:1036000000EE100AB6E7894E3768C6F8008003F06E
:103610009AFE9FED871B53EC112B03F00BFF03F079
:1036200031FC00EE100A00F0B8FD3760A4E700F0AE
:1036300071FE07E000F08FFE04E000F0ADFE01E057
:1036400000F0C9FE641C55F82400002889D16748A1
:10365000444680F800800020FFF7AEF90020FFF715
:10366000C1F90320FFF722FA5F48047065B0BDEC92
:10367000028BBDE8F08F2DE9F04F4FF4C8712DEDAE
:10368000028BE5B0684603F060F8544D0026544CB8
:10369000DFF850A12E604FF04E0B2660B1468AF83D
:1036A00000B0FFF715FE01F003F900F0F2FF00F0A3
:1036B00019FD4D494FF00108002781F800804B4962
:1036C00081F80080C5E0206800EB4001484800EB2D
:1036D00081022968515CFC2903D30A20FFF7E6F92F
:1036E000BCE09AF800104E2906D0452925D0532970
:1036F0003CD057295BD0A3E0206802E0761C401C38
:10370000206000EB40013B4800EB81002968405CF1
:1037100000F09CFE00280CD12068354900EB4002E7
:1037200001EB820229685318515C1B7B491E8B42B6
:10373000E4D085E0761C401C2860206800EB400146
:103740002C4800EB81012868085C00F082FE50BB29
:10375000206800EB4001264800EB810128680A1828
:10376000095C5278491E8A42E4D069E0206802E090
:10377000761C401E20601F4900EB400001EB8000DA
:103780002968405C00F068FE68B92068184900EBC1
:10379000400201EB820229685318515C13F80C3C7B
:1037A000491E8B42E4D04BE0761C401E2860206806
:1037B00000EB40010F4800EB81002968405C00F0FD
:1037C0004EFEC8BB206800EB4001094800EB8101B8
:1037D00028680A18095C12F8012C2EE0100000205D
:1037E00014000020240000209A000020290000205E
:1037F00048020020B8010020D80200202800002044
:10380000F4000020C4000020F8000020C8000020C0
:1038100040000020C0000020BC00002094000020D8
:103820008C000020CAC342AD69DEDD3F5800002095
:10383000000000000000E03F02E0491E8A42B3D0D1
:10384000994840F82760FFF7C5FC4DF8270000268F
:103850007F1C00F00DFE00283FF435AF8AF800B061
:10386000C2464546DFF8448288F8005000F03AFC32
:103870004C46DFF840928E4FDFF83CB289F800509A
:103880003D700025884E64E0BDB106EB85014968B6
:10389000C9B3401E00EE100AB8EEC00A00F07DFC6D
:1038A0008BF800A05DF82500052844D0062845D0F7
:1038B000072846D0082847D048E0804890ED000A05
:1038C000B8EEC00A00F063FC7D48D0ED000AB8EE07
:1038D000E01AC0EE010A10EE900A03F095FE41ECEA
:1038E000180B306803F02FFD1FED321B53EC112B2A
:1038F00003F0A0FD53EC182B03F0F6FA03F0C2FA24
:1039000000EE100ACAE7FFE76E49096864916D4945
:103910000C6003F018FD1FED3A1B53EC112B03F064
:1039200089FD03F0AFFA00EE100A00F036FC65489E
:1039300064990160B4E700F0EDFC07E000F00BFDD6
:1039400004E000F029FD01E000F045FD8BF80040A7
:103950006D1C56F82500002896D13C7089F800406F
:10396000FFF72AF80020FFF73DF80320FFF79EF845
:1039700088F800407AE670B553485449554C0068C1
:1039800000EB400001EB800051490968455C20785C
:103990004E2803D1284600F059FDA0B920784528CB
:1039A00003D1284600F055FD68B92078532803D18B
:1039B000284600F051FD30B92078572805D1284617
:1039C00000F04DFD08B1012070BD002070BD70B544
:1039D0003E4C414B002101EB410504EB85020020E8
:1039E00003EB8505165C2E54401C0C28FADB491CA1
:1039F0000C29F0DB394C3A4B002101EB410504EB7B
:103A00008502002003EB8505165C2E54401C0C2813
:103A1000FADB491C0C29F0DB70BD70B52E4C2B4B2A
:103A2000002101EB410504EB8502002003EB850535
:103A3000165C2E54401C0C28FADB491C0C29F0DBC8
:103A4000274C264B002101EB410504EB85020020A9
:103A500003EB8505165C2E54401C0C28FADB491C30
:103A60000C29F0DB70BD70B54FF42F741D4D04E0D0
:103A7000FFF744F90520FEF776FC2868A042F7DB43
:103A80000220FFF713F8184D05E000BFFFF736F9E5
:103A90000520FEF768FC2868A042F7DBBDE870400F
:103AA0000220FFF703B80000D80200209A0000208F
:103AB00028000020290000209B0000209400002006
:103AC0008C0000205800002014000020B8010020C5
:103AD000100000202400002068040020480200207C
:103AE000F8040020F4000020F80000202DE9F05F29
:103AF000984904462DED028B0020974A0870012159
:103B000011709649DFF858A2DFF858B208609AEDB4
:103B1000000A0646FDEEC08A9BED000ABDEEC08A93
:103B20009FED910A8AED000A8BED000AFEF718FC62
:103B300007468E4DFEF714FC2968C01B8842F9D356
:103B4000FEF70EFC07468A480021DFF82882016054
:103B5000002C81460EDC21E08748006841420120AC
:103B6000C8F80010FEF7FFFBFEF7FAFBC01BB0F52C
:103B70007A7F11D8D9F80000A042EDDB12E07E4830
:103B800001680120C8F80010FEF7EDFBFEF7E8FB26
:103B9000C01BB0F57A7F01D9012603E0D9F80000F7
:103BA000A042ECDCB8EEE80A0020C8F800008AED7C
:103BB000000AB8EEC80A8BED000AFEF7D1FB0446F6
:103BC000FEF7CEFB2968001B8842F9D36249012029
:103BD00008703046BDEC028BBDE8F09F2DE9F05F28
:103BE000DFF874815B48012588F8005000260670D4
:103BF00062485A4900680860FEF7B2FB0446DFF8E5
:103C00008091DFF880A1DFF880B1604F17E000BF3E
:103C1000FFF774F8D9F80010DAF8000081420BDDE4
:103C20005B48DBF800100068814205DD4FF47A61E3
:103C30003220FEF75CFF08E00120FEF794FBFEF760
:103C40008FFB3968001B8842E2D35248494F006815
:103C500040423860FEF784FBDFF83C91DFF83CA17E
:103C6000044600BFFEF77CFB011BD9F80020DAF800
:103C7000000010448142F5D33E60FEF771FB04461C
:103C8000474E484FFEF76CFB31683A68001B114401
:103C90008842F7D388F800509EE72DE9F05FDFF8FF
:103CA000B8802C48012588F800500026067033485B
:103CB0002A4900680860FEF753FB0446DFF8C0900D
:103CC000DFF8C0A0DFF8C0B0304F16E0FFF716F8FD
:103CD000D9F80010DAF8000081420BDD2C48DBF83F
:103CE00000100068814205DD4FF47A613220FEF752
:103CF000FEFE08E00120FEF736FBFEF731FB3968D7
:103D0000001B8842E2D323481A4F00683860FEF750
:103D100027FB0446DFF88090DFF880A0FEF720FB49
:103D2000021BD9F80010DAF8000008448242F5D3EB
:103D30003E60FEF715FB0446194E1A4FFEF710FBC6
:103D400031683A68001B11448842F7D388F8005064
:103D500042E7000028000020290000201801002070
:103D600060010020640100200000C84244000020DF
:103D7000080100201C0100205000002058000020F5
:103D8000F4000020C4000020F8000020780000208B
:103D9000C8000020740000207C000020800000206B
:103DA00084000020880000202DE9F74F82B0904663
:103DB000FEF70EFF0190FEF707FFDFF87C901F492A
:103DC0000090D9F800600968C9F800101C4901206A
:103DD00008701C4900200870FEF7C2FA0546DFF89B
:103DE00068A0DFF868B01A4F16E000BFFEF7A5FA2A
:103DF00004460298DAF80010401AFEF7DDFD039839
:103E0000DBF80010401AFEF7EDFD00BFFEF795FA53
:103E10003968001B8842F9D3FEF7A2FA411B4145DD
:103E2000E4D30198FEF7E6FE0098FEF7DFFEC9F83E
:103E3000006005B0BDE8F08F380000203C00002095
:103E40002800002029000020F4000020F8000020B5
:103E500040000020FE4810B50168FE480268FE4898
:103E6000914201DD511A06E0FC4AFD4B12681B68C5
:103E70009A4202DDD11A816010BDFA4B1B6899424B
:103E800019DAF94909688A4215DAF849F94A0C68D9
:103E9000F74912680B68F8499C42096803DD8A42B9
:103EA00001DA191B04E08A42E6DD9C42E4DA511A89
:103EB00001EB4101DFE70021DDE770B5E64CE64D9F
:103EC000803CD4E91C021118101AC4E90410EB4A12
:103ED0002B69126892FBF3F2E94B1B7803B1104493
:103EE00000EE101AD4ED000AB8EEC00A30EEC00A97
:103EF000D4ED080A30EE200A84ED080A00EE100A1C
:103F0000D4ED010ADF48B8EEC00A30EEC00AD4EDA5
:103F1000090A30EE200A84ED090A007878B1FFF72B
:103F200099FFD5E9020190FBF1F000EE100AD4ED03
:103F3000090AB8EEC00A30EE800A84ED090AD4ED11
:103F4000080A94ED0E0A94ED0A1AD4ED0F1A20EE29
:103F5000200A30EEC11A04F1280301EE810ABDEEF9
:103F6000C00A10EE101A216394ED091A94ED100A9C
:103F7000D4ED0B1A94ED112A20EE010A71EE611AAC
:103F800002EE210ABDEEC00A10EE102A6263881A02
:103F9000C3EC020A1144C4E91601FEF70DFDE06D01
:103FA000BDE87040FEF71EBDAB48B0EE001A803889
:103FB00090ED020AD0ED000AB8EEC02ADFEDB21A89
:103FC000F4EEC20AF1EE10FA11D290ED122A22EEAE
:103FD000011A81EE212AB8EEC01A72EE200AC0ED55
:103FE000000AF4EEC10AF1EE10FA18DC1BE0B8EE9C
:103FF000C02AF4EEC20AF1EE10FA14DD90ED132A95
:1040000022EE011A81EE212AB8EEC01A70EEC20A21
:10401000C0ED000AF4EEC10AF1EE10FA03D2B8EED8
:10402000C00A80ED000A90ED030AD0ED010AB8EE57
:10403000C01AF4EEC10AF1EE10FA12D290ED141A81
:1040400070EE810AB8EEC01AC0ED010AF4EEC10AA2
:10405000F1EE10FA04DD00BFB8EEC00A80ED010AEF
:104060007047B8EEC01AF4EEC10AF1EE10FAF7DDAF
:1040700090ED151A70EEC10AB8EEC01AC0ED010A33
:10408000F4EEC10AF1EE10FAE6D3704770B5FEF710
:104090009FFD714C803C2066FEF796FD226EA16E5E
:1040A000511A2167E36EC4E91A20C31ACD1805EB33
:1040B000D5756D10C4E91D3511441844C4E91810B4
:1040C0000844654900EBD07040100860E06F401B69
:1040D000E06770BD10B5FFF7D9FFFFF765FFBDE8DA
:1040E0001040EAE610B56748002404706748047081
:1040F0002046FEF761FC0020FEF774FC9FED640A89
:1041000055485549803880ED060A80ED070A80ED54
:10411000000A80ED010A8460C46080ED080A80ED29
:10412000090A80ED0A0A80ED0B0A8466C4660466FB
:1041300044660C604C608465C465C467FEF751FD3D
:10414000BDE81040FEF748BDB5EEC00AF1EE10FA2A
:1041500001D8B7EE000A60EEA00A41EE410A80EEF7
:10416000801AB4EE000A21EE000AB5EEC00AF1EEA4
:1041700010FA01D2B1EE400A704700EE100A45482D
:10418000F8EEC00A90ED001A80EE810A70474148AF
:10419000D0ED000A20EE200A70472DE9F041394C9D
:1041A0003A4901202DED028BB0EE408A2070087054
:1041B000FEF70EFD0546FEF707FD284400EBD07024
:1041C00025494710344D354A8039234E2BE000BF36
:1041D00000EE100AF8EEC00A00EE103A03EBD373BB
:1041E000B8EEC00A58EE000ABDEEE00A10EE100A62
:1041F000B0EB630F01DA00232370FFF7BEFFD2EDAF
:10420000000AB8EEE01AD1ED000AFFF79DFFD1EDEC
:10421000130AB4EEE00AF1EE10FA02D22048006868
:1042200000E01068886030682B68C01B00EE100A40
:10423000F8EEC00A00EE103AB8EEC00A28EE000A06
:10424000F4EEC00AF1EE10FAC2D31068886029E0DB
:10425000FC000020AC0000209001002000010020A4
:10426000B0000020A4000020A8000020F4000020DE
:10427000B4000020F8000020B80000200401002055
:1042800098000020280000200000C84229000020DB
:1042900000000000900000208C000020580000204A
:1042A00048000020BDEC028BBDE8F0812DE9F04113
:1042B00013490120144C08701249144D08702068ED
:1042C000A860FEF785FC0646FEF77EFC304400EB56
:1042D000D0704610DFF83880FEF77AFC0746FEF70C
:1042E00073FCD8F80010384401EBD17106EB610182
:1042F00000EBD070B1EB600F2068A860ECDCD3E776
:104300002800002029000020580000201001002073
:104310008C00002010B5484C20784E2818D0474912
:104320005728097804D0452808D053280CD00FE02E
:1043300011B1FFF753FC0BE0414806E011B1FFF764
:10434000ACFC05E03F4800E03F480068FFF7CEFBCB
:104350004E20207010BD10B5374C384920780978B0
:104360004E2806D057280AD0452812D0532808D006
:104370000FE011B1FFF732FC0BE0314806E03248A4
:1043800004E011B1FFF789FC03E02E480068FFF755
:10439000ADFB4520207010BD10B5274C21784E296B
:1043A00006D026485729007804D0452908D00FE0C8
:1043B00025480AE010B1FFF770FC09E0214804E04D
:1043C00010B1FFF70BFC03E01D480068FFF78EFB00
:1043D0005320207010BD10B5174C1849207809786B
:1043E0004E2806D0572814D0452808D0532808D086
:1043F0000FE011B1FFF751FC0BE0124806E0124844
:1044000004E011B1FFF7EAFB03E00D480068FFF795
:104410006DFB5720207010BD074800784E2806D04D
:10442000452805D0532804D0572803D193E7B3E794
:10443000D1E76FE770470000240000209B000020B8
:10444000600000205C0000206400002000F00100FB
:104450007047C0F340007047C0F380007047C0F35E
:10446000C0007047C0F300107047C0F340107047A1
:104470002DE9FC4F76480268052A01D0062A29D189
:104480007448036874480178077B41F00109C17AD8
:10449000067E41F0020C90F8241041F0040EC17D1C
:1044A00041F00201019190F82510457E41F0040190
:1044B0000091817E447B41F0080B417841F0010A74
:1044C000817B353841F008086449052B097804D010
:1044D000062B04D00020BDE8FC8F052A0AD047F047
:1044E0000C0780F8417080F8359080F840C0062BAA
:1044F00015D112E04E2902D0452907D00FE047F030
:10450000080780F8417080F840C008E047F00407D1
:1045100080F8417080F8359001E0052A0BD046F014
:10452000090680F84D6080F859E0019E80F84C60E3
:10453000062B16D113E0532902D0452908D010E0EC
:1045400046F0080680F84D60019E80F84C6008E057
:1045500046F0010680F84D6080F859E001E0062A37
:104560000BD045F0030580F84E50009D80F85A505E
:1045700080F84FB0052B16D113E0532902D05729EC
:1045800007D010E045F0020180F84E1080F84FB0DF
:1045900009E045F0010180F84E10009980F85A10AA
:1045A00001E0062A06D044F0060180F8421080F8A7
:1045B00036A008E04E2902D0572907D00CE044F07D
:1045C000020180F8421080F8438005E044F00401C5
:1045D00080F8421080F836A001207CE71C481D4975
:1045E00000680968084301D0002070470120704727
:1045F000194A01EB4101A2F1350210B502EB81022B
:10460000125C6FEA0204164AE30702EB81010144DF
:1046100004D0087BA20703D4FC2302E0FC20F9E7C6
:104620004B78620701D4FC2201E011F80C2C24071E
:1046300001D4FC2101E011F8011C834200DA184684
:10464000824200DA1046814200DA084610BD0000BE
:104650001000002014000020ED01002024000020A4
:10466000480200202DE9F041434F0B2505EB4500A2
:10467000002407EB800641A0315D01F01FFE641CA1
:104680000C2CF8DB3EA001F019FE6D1EEED5BDE846
:10469000F0812DE9F05FDFF8ECB0DFF8DC90DFF8B7
:1046A000E8A00B2505EB4507002409EB8706305DE4
:1046B000FFF7CCFE08B135A000E036A001F0FEFD0A
:1046C000641C0C2CF3DB35A001F0F8FD2CA001F0EC
:1046D000F5FDDFF8CC800024305DFFF7C0FE08B1A7
:1046E00030A000E030A001F0E9FDD8F800008542DC
:1046F00016D12E480068844212D19BF800004E2843
:1047000006D0452806D0532806D0572806D018E0F2
:1047100027A00AE027A008E027A006E027A004E0E1
:10472000305DFFF7A2FE18B125A001F0C7FD08E03B
:10473000305DFFF797FE0AEB8700015D0FA001F0E7
:10474000BDFD641C0C2CC7DB16A001F0B7FD0CA04E
:1047500001F0B4FD6D1EA5D500240CA001F0AEFD46
:10476000641C0C2CF9DB0DA001F0A8FDBDE8F05F86
:1047700003A001F0A3BD0000B801002025336400B0
:104780000A0D000024000020480200202B2D2D2DB2
:10479000000000002B202020000000002B00000063
:1047A000140000207C000000200000001000002009
:1047B000205E2000203E200020762000203C2000AB
:1047C0002078200030B52A48017841F00E010170B0
:1047D000417841F00C01417000214218491C12F847
:1047E000843F0C2943F001031370F6DB5FF00001F6
:1047F00001EB410200EB8202491CD37A0C2943F001
:104800000203D372F4DB0021425C42F00402425402
:10481000491C0C29F8DB002101EB4102491C10F86E
:1048200022300C2943F0080300F82230F4DB0A2080
:10483000104C002202EB4203002104EB8303052904
:10484000585401DA401E03E08D1F052D00D2401C94
:10485000491C0C29F3DB052A01DA401E03E0911FF5
:10486000052900D2401C521C0C2AE3DB30BD00009D
:10487000B801002048020020FE480178FE484E2979
:10488000006806D0452907D0532908D0572909D0F8
:104890000AE005280AD007E0062807D004E0072828
:1048A00004D001E0082801D00120704700207047A3
:1048B0002DE9F0474FF09009002635460024052DDC
:1048C00001D0062D03D1052C22D0062C1ED0EB489A
:1048D00005EB450100EB8108294618F804702046D5
:1048E000FFF786FE401CC0B208F80400B84200D0B2
:1048F0000126641C0C2CE2DB6D1C0C2DDEDB002E73
:1049000002D0B9F10109D7D5BDE8F0870724D6E771
:104910000624D4E7F0B5D748D94ADA490778DA4807
:104920001678DA4A0478DB480D781368D84903EB27
:104930004302006801EB820211184E2F2CD0452F44
:104940004FD0532F71D0572F25D15EB1165C002860
:1049500046F00806165405DD11F8016C46F0020613
:1049600001F8016C5DB1155C002B45F00405155490
:1049700005DD11F80C5C45F0010501F80C5C002C1C
:1049800009D0145C0B2B44F00104145403DA087BA7
:1049900040F004000873F0BD4EB1165C0B2B46F0DE
:1049A0000106165403DA0B7B43F004030B735DB16D
:1049B000135C002843F00803135405DD11F8013C93
:1049C00043F0020301F8013C002CE4D0135C0B28F7
:1049D00043F002031354DEDA487840F008004870D0
:1049E000F0BD4EB1165C0B2846F00206165403DAF1
:1049F0004E7846F008064E704DB1155C0B2B45F015
:104A00000105155403DA0D7B45F004050D73002CE8
:104A1000E6D0145C002B44F004041454E0DD11F8DB
:104A20000C0D40F0010024E0FFE75EB1165C002BA6
:104A300046F00406165405DD11F80C3C43F0010362
:104A400001F80C3C4DB1135C0B2843F002031354E6
:104A500003DA4B7843F008034B70002CC0D0135C92
:104A6000002843F008031354BADD11F8010D40F09B
:104A700002000870F0BD2DE9F04F874901202DEDAF
:104A8000028B83B00870FFF72DFB824800254E2172
:104A900005607E480126A94605607648AA462F464D
:104AA00001707B48AB462C460078FFF7DBFC80B9F1
:104AB0007648006800EB4001754800EB81017548BD
:104AC00000680A5C42F010020A5474480168491CEC
:104AD00001607348734900689FED738A086081E242
:104AE0007248734A0068126806FB00F18D1AB9F12A
:104AF000000F34D1854232DC6E494FF00109634A20
:104B000081F800906C4981F8009013685B4903EBD1
:104B1000430C01EB8C08DFF87CC1DCF8001018F8BE
:104B20000180B8F1FC0F76D2DFF8488198F8008058
:104B3000B8F14E0F09D0B8F1450F08D0B8F1530FB6
:104B400007D0B8F1570F07D009E05B1C02E0491C01
:104B500003E05B1E136002E0491ECCF80010BAF1BE
:104B6000000F09D100EB4001CA1701EB9271B5EBC0
:104B7000A10F01DC4FF0010A002F79D100EBD070BA
:104B8000B5EB600F74DC4D48012701684C480068A4
:104B9000814202DD3B49012008704A484A490068C9
:104BA0000968884202DD38490120087047484849B1
:104BB00000680968884208DD464847490068096876
:104BC000884202DD2E4901200870FFF7A3FEDFF8BE
:104BD000BC803048D8F800100068FFF709FDD8F80D
:104BE0000010401C01EB4102244901EB82022949DB
:104BF00009685054FFF75CFED8F8000000EB400154
:104C0000234800EB810123480068085CFFF71EFC85
:104C100010B1FC200BE053E1D8F8000000EB40019C
:104C2000164800EB81011B4800680844007B019096
:104C30001648006800EB4001154800EB810115485B
:104C40000068085CFFF705FC08B1FC200AE00F488B
:104C5000006800EB4001094800EB81010D48006845
:104C60000844407880460948006800EB400135E080
:104C700091E00000240000202000002048020020D5
:104C80001C0000201D0000201E0000201400002039
:104C9000B80100201000002099000020180000201A
:104CA0005400002018010020000000008C000020AB
:104CB000900100202800002029000020FC00002096
:104CC000A400002000010020A8000020F400002023
:104CD0009C000020F8000020A0000020FE4800EB0F
:104CE0008101FE480068085CFFF7B6FB08B1FC20B4
:104CF0000BE0FB48006800EB4001FA4800EB810143
:104D0000F6480068084410F80C0C0090F44800685D
:104D100000EB4001F04800EB8101F0480068085CBE
:104D2000FFF79DFB08B1FC200BE0ED48006800EBAD
:104D30004001EC4800EB8101E8480068084410F8A5
:104D4000010C019A424507DA1146009A914203DAB2
:104D5000814201DA05201CE00199884506DA009AB3
:104D6000904503DA804501DA062012E000994145BA
:104D700006DA019A914203DA814201DA072008E05B
:104D8000404517DA0099884214DA0199884211DA0D
:104D90000820D5490860D548006800EBD070B5EB15
:104DA000600F00DC0127DFF8488398F80000002836
:104DB0007ED199E0DFF83C8398F800004E280DD1B1
:104DC000C748006800EB4001C34800EB8101C348BD
:104DD0000068085CFFF73AFB0028BBD098F8000099
:104DE00045280DD1BE48006800EB4001BA4800EBF1
:104DF0008101BA480068085CFFF72BFB0028B3D09C
:104E000098F8000053280DD1B548006800EB400128
:104E1000B14800EB8101B1480068085CFFF71CFB5A
:104E20000028ABD098F8000057280DD1AC48006896
:104E300000EB4001A84800EB8101A8480068085C2D
:104E4000FFF70DFB0028A3D0A548DFF8908200688B
:104E500000EB4001A04800EB8101D8F80000085C9D
:104E6000FFF7F4FA0028B8D09D48006800EB400135
:104E7000994800EB8101D8F80000085CFFF7E9FAD7
:104E80000028BCD09648006800EB4001924800EB37
:104E90008101D8F80000085CFFF7DEFA0028C0D0D6
:104EA0008F48006800EB40018B4800EB810100E077
:104EB0001DE0D8F80000085CFFF7D1FA0028C2D046
:104EC000894804608C4804700020FDF775FD0020BF
:104ED000FDF788FD0A20FDF7E9FD03B0BDEC028B6C
:104EE000BDE8F04FFFF7D5BBFFF7C6FC88B12846F9
:104EF000FFF743F98148B0EE481AD0ED000AFFF7FA
:104F000023F97F48D0ED000AB4EEE00AF1EE10FA82
:104F100004D27C487C490068086001E07A4804605B
:104F2000BBF1000F09D171480068C11700EB917007
:104F3000B5EBA00F06DC4FF0010B98F8000008B1AC
:104F400072480470002D4DDCDFF89491624FDFF859
:104F50008CA1D9F80000761C00EB400007EB800123
:104F6000DAF80000085CFFF77DFA78B9D9F800009C
:104F700000EB400007EB8001DAF800000A5C42F029
:104F800010020A5462490868401C086098F8000042
:104F900038B1604802686048016860480068FEF700
:104FA00003FF51480068052806D0062807D00728C7
:104FB00008D0082809D00AE0FFF7ACF907E0FFF7AE
:104FC000CAF904E0FFF7E8F901E0FFF704FA5448F2
:104FD00088F800404FF0000904705248CA464F4616
:104FE000CB460470FFF744FA00283FF479ADDFF8B0
:104FF000FCA0DFF834B1DFF80491DFF80481424F00
:10500000002D22DDDAF8000000EBD071B5EB610F66
:1050100001DA3E490C70DBF800107043451A28464F
:10502000FFF7ABF8B0EE481AD9ED000AFFF78CF89D
:10503000D8ED000AB4EEE00AF1EE10FA03D23148DE
:1050400000683860DCE73C60DAE7254D234F224EEC
:105050002868396800EB400006EB8000405CFFF7F1
:1050600001FA68B9286800EB400006EB8001386857
:105070000A5C42F010020A5425480168491C01608C
:105080001D4804700020FDF797FC0020FDF7AAFCE6
:10509000FFF7FFFA0320FDF709FD2448047003B071
:1050A000BDEC028BBDE8F08F2DE9F0474FF0900882
:1050B0000027DFF830A03D4605EB450100240AEB50
:1050C000810600BF55EA040038D016F8049029463E
:1050D0002046FFF78DFA2BE0B801002010000020D9
:1050E0001400002048020020200000208C00002036
:1050F0001C000020240000202900002010010020B6
:105100005C0100205400002018010020280000202D
:105110001800002040000020C0000020BC0000203B
:105120001D0000201E00002090010020990000209A
:10513000401CC0B23055484500D00127641C0C2CDF
:10514000C0DB6D1C0C2DB7DB002F02D0B8F10108BD
:10515000AED5BDE8F0872DE9F04F01202DED028B93
:1051600083B0FE490870FEF7BDFF01250024DFF87B
:10517000F0832746A2462646A3462046002200EB9F
:1051800040031146C14608EB830300BF02EB000C4D
:1051900003F801C0521C491C0C29F7DB401C0C28E9
:1051A000ECDBFFF781FFFFF737F9EE48EE490068C7
:1051B0009FEDEE8A0860E5E2ED48EE4A006812686D
:1051C00005FB00F18C1A37BB844229DCEA4A01272F
:1051D000EB4B1770E94A1770196801EB410C09EBAA
:1051E0008C02DFF8A0C3DCF8008012F80820FC2A4B
:1051F00071D2E54A12784E2A06D0452A06D0532AA3
:1052000007D0572A08D00BE0491C03E008F1010839
:1052100004E0491E196003E0A8F10108CCF8008001
:10522000BAF1000F09D100EB4001CA1701EB9271EE
:10523000B4EBA10F01DC4FF0010A002E7ED100EB90
:10524000D070B4EB600F79DCD048D14901260068FA
:105250000968884202DDCF4901200870CE48CF4955
:1052600000680968884202DDCD4801210170CD48FF
:10527000CD4900680968884208DDCC48CC490068FF
:105280000968884202DDCB4801210170FFF742FB2B
:10529000DFF8EC82BB48D8F800100068FFF7A8F9E7
:1052A000411CD8F8000000EB4002B64809EB82022E
:1052B00000681154FFF7F8FED8F8000000EB400139
:1052C000BD4800EB8101AF480068085CFFF7BEF8FD
:1052D00010B1FC200AE0C6E1D8F8000000EB400164
:1052E000A84809EB810100680844007B0190A448AC
:1052F000006800EB4001B04800EB8101A148006864
:10530000085CFFF7A6F808B1FC2009E09C4800689B
:1053100000EB40019B4809EB81010068084440789C
:1053200080469748006800EB4001A34800EB8100ED
:1053300094490968405CFFF78FF800E0D1E008B1BC
:10534000FC200AE08E48006800EB40018D4809EB24
:1053500081010068084410F80C0C0090884800682F
:1053600000EB4001944800EB810186480068085C2E
:10537000FFF775F808B1FC200AE08148006800EBEF
:105380004001804809EB81010068084410F8010CD5
:105390000199414506DA009A914203DA814201DA25
:1053A00005209CE0019A904506DA009A904503DAC0
:1053B000804501DA062112E00099414506DA019A9A
:1053C000914203DA814201DA072108E0404509DA17
:1053D0000099884206DA0199884203DA0821774861
:1053E00001607EE0DFF89881D8F8000000EB400112
:1053F000714800EB810163480068085CFFF726F8FC
:1054000070B9D8F8000000EB40016B4800EB810157
:105410005C4800680844007BFFF724F80028BFD0F0
:10542000D8F8000000EB4001634800EB81015548CB
:105430000068085CFFF70DF868B9D8F8000000EBC9
:1054400040015D4800EB81014E4800680844407807
:10545000FFF708F868B1D8F8000000EB40015648A3
:1054600000EB810147480068085CFEF7F5FF10B1CA
:1054700010E0062033E0D8F8000000EB40014E4871
:1054800000EB81003F490968084410F80C0CFEF756
:10549000E9FF70B13A48DFF82081006800EB400175
:1054A00008EB810037490968405CFEF7D8FF10B16E
:1054B0000FE0072013E03248006800EB400131485C
:1054C00008EB81010068084410F8010CFEF7CAFFE0
:1054D00020B12D4800784E2811D01EE00820374911
:1054E00008602348006800EBD070B4EB600F00DC6C
:1054F0000126DFF8C08098F8000068BBC7E02048AC
:10550000006800EB40011F4808EB81010068085C5F
:10551000FEF79CFF00283FF443AF1B480078452866
:105520000CD11748006800EB4001164808EB8101D8
:105530000068085CFEF78DFF00289AD012480078BA
:10554000532842D10E48006800EB40010D4808EB9B
:1055500081010068085C33E09CE0000099000020B5
:105560004802002054000020180100200000000024
:105570008C0000209001002028000020290000203D
:10558000140000201000002024000020FC00002057
:10559000A40000201D00002000010020A800002021
:1055A0001E000020F40000209C000020F8000020D5
:1055B000A00000201C000020B801002020000020D6
:1055C000FEF74AFF00283FF474AFFE4800785728E2
:1055D0000DD1FD48006800EB4001FC4808EB81015B
:1055E0000068085CFEF73BFF00283FF477AFF64801
:1055F000006800EB4001F64800EB8101F3480068C9
:10560000085CFEF723FF002885D0DFF8BC83D8F8BC
:10561000000000EB4001EE4800EB8101EB48006820
:10562000085CFEF716FF002887D04046DFF89C8311
:10563000006800EB4001E64800EB8101D8F800006B
:10564000085CFEF709FF0028BDD0DF48006800EBCA
:105650004001DF4800EB8101D8F80000085CFEF74C
:10566000FEFE0028C1D0DB4900200860DA4908703E
:10567000FDF7A2F90020FDF7B5F90A20FDF716FAAB
:1056800003B0BDEC028BBDE8F04FFFF702B8FFF7A7
:10569000F3F8C0B12046FEF770FDD048B0EE481ACE
:1056A000D0ED000AFEF750FDCD48D0ED000AB4EE73
:1056B000E00AF1EE10FA06D30020CA49BBF1000F50
:1056C000086003D00CE0C8480068F6E7C7480068E7
:1056D000C11700EB9170B4EBA00F07DC4FF0010B8A
:1056E00098F8000010B1C24800210170002C49DC7C
:1056F000DFF8D4A2B54FB64EDAF80000396800EBF7
:10570000400006EB80006D1C405CFEF7ABFE70B9FC
:10571000DAF80000396800EB400006EB8000425CDC
:1057200042F010024254B3480168491C016098F8E5
:10573000000038B1B0480268B0480168B04800685D
:10574000FEF732FBA3480068052806D0062807D0DC
:10575000072808D0082809D00AE0FEF7DBFD07E09B
:10576000FEF7F9FD04E0FEF717FE01E0FEF733FE59
:105770000027A44988F80070BA460F70A2493E4637
:10578000BB460F70FEF72AFF00283FF415AD974F78
:10579000DFF878A2DFF84492DFF844B2DFF8448201
:1057A0000026002C23DD386800EBD071B4EB610FCC
:1057B00001DA8F490E70DAF800106843441A204667
:1057C000FEF7DBFCB0EE481AD9ED000AFEF7BCFC90
:1057D000DBED000AB4EEE00AF1EE10FA04D28248E2
:1057E0000168C8F80010DCE7C8F80060D9E7764C1B
:1057F000774D764F206800EB400005EB800138685C
:10580000085CFEF72FFE68B9206800EB400005EB4E
:10581000800138680A5C42F010020A547548016839
:10582000491C0160FEF7F8FD6B4806700020FDF78B
:10583000C3F80020FDF7D6F8FFF73AF8FEF729FF86
:105840000320FDF733F97248067028E42DE9F04F84
:105850006F4801212DED028B83B00170FEF742FCF1
:1058600000255A480095DFF860B1056055484E2183
:10587000CBF80050017056480126A846A9462F468D
:10588000AA462C460078FEF7EDFD80B9DBF8000053
:1058900000EB40014E4800EB81004C490968425C36
:1058A00042F01002425453480168491C01604E48BE
:1058B0004C4900681FEDD38A086006E30098002871
:1058C0004A48006806FB00F107D0504A00EBD07050
:1058D0001268891AA1EB600502E04C4800680D1AB5
:1058E000B8F1000F2FD14148006885422BDC4049B8
:1058F0004FF00108DFF8D4C081F80080364981F804
:105900000080DBF80000434900EB400201EB82021B
:10591000DCF80010525CFC2A52D22A4A12784E2A35
:1059200006D0452A06D0532A06D0572A08D00AE0C6
:10593000401C02E0491C04E0401ECBF8000002E0DD
:10594000491ECCF80010B9F1000F0BD127480068B0
:1059500000EB4000C11700EB9170B5EBA00F01DC2C
:105960004FF00109002F2CD12048006800EBD070C7
:10597000B5EB600F25DC2848284901270068096835
:10598000884202DD1F480121017025482549006831
:105990000968884202DD1C48012101702248234920
:1059A00000680968884208DD2148224900680968C2
:1059B000884202DD204901200870FEF7ABFF3DE080
:1059C0007FE1D7E124000020140000201000002017
:1059D000B801002020000020290000201001002034
:1059E0005C01002018010020540000208C000020E1
:1059F000280000201800002040000020C0000020E7
:105A0000BC0000201D0000201E000020900100208E
:105A10009900002048020020FC000020A400002083
:105A200000010020A8000020F40000209C000020BD
:105A3000F8000020A00000201C000020FE48DBF839
:105A400000100068FEF7D4FDDBF80010401C01EBED
:105A50004102FA4901EB8202F74909685054FEF706
:105A600027FFDBF8000000EB4001F54800EB810167
:105A7000F1480068085CFEF7E9FC08B1FC200AE088
:105A8000DBF8000000EB4001EC4800EB8101EA4844
:105A900000680844007B0290DBF8000000EB400146
:105AA000E74800EB8101E4480068085CFEF7D1FCA0
:105AB00008B1FC200AE0DBF8000000EB4001DF4801
:105AC00000EB8101DC480068084440780190DBF875
:105AD000000000EB4001DA4800EB8101D648006885
