:020000040800F2
:10000000A80A0020ED5D0008C5210008C7210008EE
:10001000C9210008CB210008CD2100080000000004
:10002000000000000000000000000000CF210008D8
:10003000D121000800000000D3210008D5210008CC
:10004000075E0008075E0008075E0008075E0008FC
:10005000075E0008075E0008075E0008075E0008EC
:10006000075E0008075E0008075E0008075E0008DC
:10007000075E0008075E0008075E0008075E0008CC
:10008000075E0008075E0008075E0008075E0008BC
:10009000075E0008075E0008075E0008F3210008FD
:1000A000075E0008075E0008075E0008075E00089C
:1000B000075E0008075E0008075E0008075E00088C
:1000C000075E0008075E0008075E0008075E00087C
:1000D000075E0008075E0008075E0008075E00086C
:1000E0004F220008075E0008075E0008075E000850
:1000F000075E0008075E0008075E0008075E00084C
:10010000075E0008075E0008075E0008075E00083B
:10011000075E0008075E0008075E0008075E00082B
:10012000075E0008075E0008075E0008075E00081B
:10013000075E0008075E0008075E0008075E00080B
:10014000075E0008075E0008075E0008075E0008FB
:10015000075E0008075E0008075E0008075E0008EB
:10016000075E0008075E0008075E0008075E0008DB
:10017000075E0008075E0008075E0008075E0008CB
:10018000075E0008075E000800F002F800F060F863
:100190000AA090E8000C82448344AAF10107DA45E2
:1001A00001D100F055F8AFF2090EBAE80F0013F0D4
:1001B000010F18BFFB1A43F001031847007300003A
:1001C000207300000A4410F8014B14F00F0508BF1B
:1001D00010F8015B240908BF10F8014B6D1E05D013
:1001E00010F8013B6D1E01F8013BF9D1641E03D0EC
:1001F000641E01F8015BFBD19142E4D3704700001B
:100200000023002400250026103A28BF78C1FBD81F
:10021000520728BF30C148BF0B607047642905F002
:100220005787632906F00E82732906F01382002097
:1002300070471FB507F005F906F0AEFC040000207A
:10024000002106F0B5FC401C60601FBD10B510BD5C
:1002500006F086FA1146FFF7ECFF01F041FC06F0CC
:1002600089FC03B4FFF7F2FF03BC02F0E7F90000DA
:100270002749084327490860704770B50F21C478A3
:10028000027801234FF0E026E4B1224C246804F404
:10029000E064C4F5E064C4F30724C4F10405E1405C
:1002A0004478AC4085780D4025431B4C29011155FD
:1002B000007800F01F018B40400906EB8000C0F879
:1002C000003170BD02F01F008340500906EB800032
:1002D000C0F8803170BD114A114001430D48001F24
:1002E000016070470B4A121D0029116801D00143BB
:1002F00000E08143116070474FF0E0210428086955
:1003000003D020F004000861704740F00400FAE7D1
:100310000000FA050CED00E000E400E080FFFF1FA4
:1003200010B501210C02204600F093FC2046BDE8E8
:100330001040002100F08DBC30B54268C44B0C79F0
:100340001A400B6842EA0422134343608268C14B9F
:100350004D791A40D1E9034323438C6844EA4504AC
:10036000234313438360C26A097D22F47002491E4D
:10037000C9B242EA0151C16230BD00210160017180
:1003800041718160C1600161012101757047B24B0B
:1003900010B51A68B1490A40D0E900142143D0E9E8
:1003A0000240044321431143196010BD0021016044
:1003B00041608160C16070470029816802D041F0CE
:1003C000010101E021F00101816070474268A44B06
:1003D0001A400A4342607047416282627047426835
:1003E00022F01F020A43426070479E490028D1F85C
:1003F000040302D040F4000001E020F40000C1F842
:100400000403704797490028D1F8040302D040F450
:10041000800001E020F48000C1F80403704770B54B
:10042000072509290AD9C468A1F10A0606EB460680
:10043000B540AC43B3401C43C46007E0046901EB22
:100440004106B540AC43B3401C4304611F23072A57
:1004500009D2446B521E02EB820293409C439140AE
:100460000C43446370BD0D2A09D2046BD21F02EB0A
:10047000820293409C4391400C43046370BDC46A64
:100480000D3A02EB820293409C4391400C43C462BC
:1004900070BD816841F08041816070470146002055
:1004A0008968490200D5012070470029816802D07F
:1004B00041F4806101E021F480618160704700298E
:1004C000816802D041F0020101E021F00201816067
:1004D00070474268491E22F4604242EA413141605D
:1004E00070470029416802D041F4006101E021F425
:1004F000006141607047C06C80B270475648001D73
:10050000006870470029816802D041F4807101E0E1
:1005100021F48071816070470029816802D041F424
:10052000007101E021F40071816070474D4900289D
:10053000D1F8040302D040F4005001E020F4005050
:10054000C1F80403704770B5072409290AD9C568A2
:10055000A1F10A0606EB4606B440A543B3401D438D
:10056000C56007E0056901EB4106B440A543B3400F
:100570001D430561836BC3F30154121B921C02EBF4
:1005800082041F22A2409343A1400B43836370BDAA
:10059000826B491E22F4401242EA01518163704786
:1005A00042507047826822F470220A43826070478A
:1005B000826822F440120A4382607047816841F4E5
:1005C000800181607047014600208968490200D59A
:1005D000012070470029416802D041F4806101E0A8
:1005E00021F48061416070470029416802D041F4E4
:1005F000805101E021F48051416070470844806AD5
:1006000080B2704701238B4041680AB1194300E072
:100610009943416070470246002012680A4200D0A8
:1006200001207047C9430160704730B50246002081
:1006300054680B0A01258D4011682C40194202D0E4
:10064000002C00D0012030BD6FEA112101607047FD
:10065000FFFEFFFCFDF7FFC004230140E030FCFF7C
:10066000FFFD3FFF00200140374900200860091DC1
:100670000860091D0860091D0860334933481431BA
:100680000860704730B530498379026853B30B680E
:1006900093430B600A1D13680468A3431360027937
:1006A0000A441368046823431360274A0832136816
:1006B0000468A3431360131D1C680568AC431C60E9
:1006C0004479102C05D021440A68006802430A606E
:1006D00030BD116804682143116019680068014346
:1006E000196030BD0079084401689143016030BD54
:1006F0000021016001710C22427181717047124921
:1007000010310A6802430A60704701460E4A002011
:10071000143212680A4200D0012070470A4914318D
:1007200008607047084A014600201268064B0A40DC
:1007300014331B680B4202D0002A00D001207047FE
:100740000149143108607047003C0140FFFF7F0001
:100750007A4910B5884206D10121084600F051FAC5
:10076000002101204FE07649884206D10121022074
:1007700000F047FA0021022045E07249884206D184
:100780000121042000F03DFA002104203BE06E49E5
:10079000884206D10121082000F033FA0021082008
:1007A00031E06A49884206D10121102000F029FA7F
:1007B0000021102027E06649884206D1012120202F
:1007C00000F01FFA002120201DE06249884206D176
:1007D0000121402000F015FA0021402013E05E497D
:1007E000884206D10121802000F00BFA00218020F0
:1007F00009E05A4988420AD184150121204600F0B7
:1008000000FA00212046BDE8104000F0FAB910BD02
:10081000F0B50023012403270D6804FA03F2154004
:10082000954242D1D0F800C05E0007FA06F52CEAE6
:10083000050CC0F800C091F804C0D0F800E00CFA34
:1008400006FC4CEA0E0CC0F800C091F804C0BCF1E4
:10085000010F02D0BCF1020F1FD1D0F808C02CEA62
:10086000050CC0F808C091F805C0D0F808E00CFAF3
:1008700006FC4CEA0E0CC0F808C0D0F804C02CEA04
:10088000020CC0F804C0426891F806C00CFA03FCE0
:100890001FFA8CFC42EA0C024260C268AA43C260A2
:1008A000CA79C568B2402A43C2605B1C102BB3D31F
:1008B000F0BD4FF6FF71016000210171417181713E
:1008C000C171704741F48032C261C161C261C169C6
:1008D000C06970470246002012690A4200D0012018
:1008E0007047006980B270470246002052690A4290
:1008F00000D001207047406980B270470183704783
:10090000418370470AB10183704741837047416159
:10091000704742694A40426170474B07DB0E9A407C
:10092000C90810B500EB8100016A0F249C40A14367
:100930000162016A1143016210BD00000000024023
:100940000004024000080240000C02400010024077
:100950000014024000180240001C02400020024027
:10096000E948016841F001010160E74A00210832CD
:1009700011600268E54B1A400260031DE44A1A60E8
:10098000026822F480220260DF480C300160704768
:10099000DD490022891C0A70087070470246002059
:1009A000510901290CD002290CD0D74974310968AA
:1009B00002F01F02012393400B4200D00120704738
:1009C000D149F4E7D0497031F1E730B500244FF454
:1009D000A0653120FFF7E2FF641CAC4201D0002883
:1009E000F7D03120FFF7DAFF002800D0012030BD1A
:1009F000C5490A6822F0F80242EAC0000860704760
:100A0000C44908607047C049002270310A700A70FA
:100A1000012802D0042801D1052008707047BE4982
:100A20000860704741EA82115A0810B5BB4B029C1E
:100A300003EB02421143014341EA0460B249091D3C
:100A4000086010BDB34908667047800140EA017034
:100A5000AD49843108607047AE4988667047AD493A
:100A6000C8647047A84A08321368084323F0EC634F
:100A7000184310607047A44A08321368084323F0F3
:100A800078431843106070479F4A0832116821F07C
:100A900003010143116070479B480830006800F073
:100AA0000C007047984A0832116821F0F0010143A8
:100AB00011607047944A0832116821F4E0510143F3
:100AC00011607047904908310A6822F4604242EA96
:100AD000C0000860704770B58B4A08321168904BAF
:100AE00011F00C0104D05D10042903D0082903D0B3
:100AF00003601BE0056019E08349091D0C68C4F31D
:100B000080560C6804F03F0416B1B5FBF4F301E025
:100B1000B3FBF4F30C680968C4F388146343C1F3AE
:100B20000141491C4900B3FBF1F1016011687D4BA3
:100B300001F0F00109095C5C0168E1404160146862
:100B400004F4E054A40A1C5D21FA04F484601268E1
:100B500002F46042520B9A5CD140C16070BDC0F398
:100B60000121032908D1684A0832116821F4F813D9
:100B70006D49014019431160634970310A68C0F33F
:100B80000B0002430A6070476349443908607047AC
:100B900061494039086070476449086070475A4AA3
:100BA00030320029116801D0014300E08143116017
:100BB0007047554A34320029116801D0014300E0E2
:100BC000814311607047504A38320029116801D0C2
:100BD000014300E08143116070474B4A40320029D5
:100BE000116801D0014300E0814311607047464A1B
:100BF00044320029116801D0014300E081431160B3
:100C00007047414A10320029116801D0014300E0C9
:100C10008143116070473C4A14320029116801D0A9
:100C2000014300E0814311607047374A18320029C0
:100C3000116801D0014300E0814311607047324ADE
:100C400020320029116801D0014300E08143116086
:100C500070472D4A24320029116801D0014300E079
:100C6000814311607047284A50320029116801D031
:100C7000014300E0814311607047234A5432002948
:100C8000116801D0014300E08143116070471E4AA2
:100C900058320029116801D0014300E081431160FE
:100CA0007047194A60320029116801D0014300E001
:100CB000814311607047144A64320029116801D0E1
:100CC000014300E08143116070470F4A0D32002953
:100CD000117801D0014300E08143117070470A4848
:100CE0007430016841F08071016070470146064A26
:100CF00000200C3212680A4200D0012070470249DD
:100D00000E3108707047000000380240FFFFF6FE09
:100D10001030002400004742800E47420000FFFFD1
:100D20000024F40000000020FFFCFF0F5C0147429C
:100D300010B501218C032046FFF78BFF2046BDE84C
:100D400010400021FFF785BF11490860704710B5BA
:100D50008A07130F21F003040F220D499A4008312E
:100D600021440C6894430C600A68984002430A606E
:100D700010BD08490860704707490860704704497A
:100D8000002020310968C90500D501207047000006
:100D900000380140DC00274200042742FE4910B51C
:100DA000884206D101210846FFF753FF00210120A8
:100DB0005BE0B0F1804F09D0F84988420DD10121A4
:100DC0000220FFF73CFF0021022070E001210846CD
:100DD000FFF735FF0021012069E0F149884206D183
:100DE00001210420FFF72BFF002104205FE0ED49E3
:100DF000884206D101210820FFF721FF00210820A9
:100E000055E0E949884206D101211020FFF717FF7C
:100E1000002110204BE0E549884206D10121202025
:100E2000FFF70DFF0021202041E0E149884206D173
:100E300001210220FFF70DFF0021022015E0DD490E
:100E4000884202D101210C040AE0DB49884202D128
:100E500001214C0404E0D94988420AD101218C04C3
:100E60002046FFF7F6FE00212046BDE81040FFF7C0
:100E7000F0BED349884206D101214020FFF7DFFEB2
:100E80000021402013E0CF49884206D10121802073
:100E9000FFF7D5FE0021802009E0CB4988420AD126
:100EA000841501212046FFF7CAFE00212046BDE837
:100EB0001040FFF7C4BE10BD30B50288B64BBC4C25
:100EC00098420DD0A0420BD0B0F1804F08D0B34D66
:100ED000A84205D0B24DA84202D0B24DA84203D1DB
:100EE00022F070054A882A43AF4DA84206D0AF4D84
:100EF000A84203D022F440750A892A4302804A6836
:100F0000C2620A880285984201D0A04201D1897A42
:100F100001860121818230BD4FF0FF314160002107
:100F20000180018141808172704701858282704712
:100F3000028822F070020A430280704741627047C3
:100F4000C1627047406A7047008D70470029018870
:100F500002D041F0020101E021F00201018070475E
:100F60000029018802D041F0040101E021F00401D0
:100F7000018070470029018802D041F0800101E022
:100F800021F0800101807047028822F0080202806F
:100F900002880A4302807047028822F4407202806D
:100FA00002880A43028070470029018802D041F07C
:100FB000010101E021F001010180704730B5028C90
:100FC00022F001020284028C8388048B22F0020248
:100FD00024F073050C882C438D8915434A882A43D5
:100FE0006D4DA84202D0724DA8420DD122F00805E5
:100FF000CA8923F440732A4322F004058A882A43CD
:101000000D8A1D434B8A2B43838004838968416387
:10101000028430BD70B5028C22F010020284028C72
:101020008488038B0D8823F4E6464FF6FF7303EAAA
:10103000052535438E8922F0200203EA0616164361
:101040004A8803EA02123243534EB04202D0584E4D
:10105000B04215D122F08006CA8924F4406403EA24
:101060000212324322F040068A8803EA0212324317
:101070000E8A03EA860626434C8A03EA8404344334
:101080008480058389688163028470BD70B5028C99
:1010900022F480720284028C8488838B0D8823F072
:1010A00073031D4322F400738E894FF6FF7202EA28
:1010B00006261E434B8802EA03233343364EB042D2
:1010C00002D03B4EB04215D123F40066CB8924F404
:1010D000405402EA0323334323F480668B8802EAF8
:1010E000032333430E8A02EA061626434C8A02EA99
:1010F00004143443848085838968C163038470BD8C
:1011000070B5028C22F480520284048C8288838B16
:101110000D8823F4E6464FF6FF7303EA05253543B1
:1011200024F400568C8903EA043434434E8803EADD
:1011300006362643184CA04202D01D4CA04205D1D1
:1011400022F480440A8A03EA821222438280858341
:1011500089680164068470BD00210180418081801E
:1011600081608181C18101824182704730B5012453
:10117000058C00F118038C40A543058431B3082980
:101180002CD0091FC1F34E001844016848F6FF73C4
:101190001940016001681AE00000014000040040AD
:1011A00000080040000C0040001000400014004007
:1011B000000401400040014000440140004801405B
:1011C00000180040001C00400020004006E04FF6E0
:1011D000FF7303EA02221143016030BD03EB5100AB
:1011E00001684FF68F73194001600168F3E74163AE
:1011F000704781637047C163704701647047028B19
:1012000022F070020A4302837047028B4FF6FF738D
:1012100022F4E04203EA0121114301837047828BEB
:1012200022F070020A4382837047828B4FF6FF736D
:1012300022F4E04203EA0121114381837047028BCB
:1012400022F008020A4302837047028B4FF6FF73B5
:1012500022F4006203EA0121114301837047828B6B
:1012600022F008020A4382837047828B4FF6FF7395
:1012700022F4006203EA0121114381837047028B4B
:1012800022F004020A4302837047028B4FF6FF7379
:1012900022F4806203EA0121114301837047828BAB
:1012A00022F004020A4382837047828B4FF6FF7359
:1012B00022F4806203EA0121114381837047028B8B
:1012C00022F080020A4302837047028B4FF6FF73BD
:1012D000C2F30E0203EA0121114301837047828B9E
:1012E00022F080020A4382837047828B4FF6FF739D
:1012F000C2F30E0203EA0121114381837047028C7D
:1013000022F002020A4302847047028C22F0080293
:101310000A4302847047028C4FF6FF7322F02002CA
:1013200003EA0111114301847047028C4FF6FF73E9
:1013300022F0800203EA0111114301847047028CFC
:101340004FF6FF7322F4007203EA01211143018476
:101350007047028C4FF6FF7322F4006203EA01210A
:10136000114301847047028C4FF6FF7322F4005240
:1013700003EA013111430184704710B50123048C45
:101380008B409C430484038C8A401343038410BD28
:1013900010B50423048C8B409C430484038C8A4046
:1013A0001343038410BD828B22F440628283828BBC
:1013B0004FF6FF7303EA01210A4382837047828B51
:1013C00022F00C028283828B0A4382837047028B55
:1013D00022F440620283028B4FF6FF7303EA01217D
:1013E0000A4302837047F0B5048C24F0100404848F
:1013F000078B068C4FF6FF7404EA011527F4734738
:1014000004EA0331394304EA02220A4326F0A00128
:10141000294341F0100102830184F0BD028B22F0C8
:101420000C020283028B0A43028370472DE9F041CC
:101430000D460E884988AA882B8904460EB3042ECF
:1014400026D0082E268C4FF6FF7028D026F4805622
:101450002684A78B268C00EA022200EA013127F4B9
:1014600073473A4300EA0330104326F420420A430C
:1014700042F48051A0832184E9882046BDE8F041F0
:1014800091E700F061F9E9882046BDE8F041C5E741
:10149000FFF7A9FFE9882046BDE8F04197E726F469
:1014A00080762684A78B268C00EA012100EA0310AF
:1014B000104327F0F307384326F420620A4342F42E
:1014C0008071A0832184E9882046BDE8F04176E759
:1014D00000210180418001228280C180018170470A
:1014E0002DE9F0410C46002549880746012601B93F
:1014F0000225A288012A00D10226208823890028FB
:10150000384610D0FFF76FFFE1883846FFF75FFFDE
:10151000238932462946384600F016F9E1883846D4
:10152000BDE8F0417AE700F00FF9E1883846FFF7AF
:1015300075FF2389324629463846FFF754FFE18874
:101540003846BDE8F04142E7406B7047806B70471A
:10155000C06B7047006C704710B50A884B88CC8808
:101560001A438B8823431A430B891A434B89898971
:101570001A430A43A0F8442010BD00210180418095
:101580008180C1800181418181817047002930F8CB
:10159000441F02D041F4004101E0C1F30E0101807B
:1015A00070470029818802D041F0040101E021F058
:1015B0000401818070470029818802D041F0010137
:1015C00001E021F0010181807047002A828901D069
:1015D0000A4300E08A438281704781827047024655
:1015E0000020128A0A4200D001207047C9430182BC
:1015F000704702460020138A92890B4202EA0102D8
:1016000002D0002A00D001207047C94301827047F0
:101610001143A0F848107047002A828901D00A437C
:1016200000E08A43828170470029818802D041F01E
:10163000080101E021F0080181807047018921F053
:10164000070101817047028922F070020A4302817A
:10165000704700B50346FFF7F6FF188940F0070012
:10166000188100BD70B50D4611460446602D4FF03F
:1016700001020AD000F068F829462046FFF7E3FF90
:10168000208940F00700208170BDFFF7ACFEF3E732
:1016900030B504894FF6FF7505EA03231343E4B21E
:1016A0000B432343038130BD10B50446FFF7F0FF21
:1016B000208940F07700208110BD10B50446FFF767
:1016C000E7FF208940F48040208110BD828822F00D
:1016D0007002828082880A4382807047028922F0E9
:1016E0000702028102890A4302817047028922F0BF
:1016F0008002028102890A430281704770B5058920
:10170000048B068C25F007050D434FF6FC410C4079
:1017100040F201110C434FF6FF7101EA031126F06C
:1017200022061143314305810483018470BD0029E1
:10173000818802D041F0800101E021F080018180A8
:101740007047A0F85010704770B5048C24F0010465
:101750000484058B048C4FF6FF7606EA03131343CB
:1017600025F0F3052B4324F00A020A4342F001015D
:101770000383018470BD0000CA4910B5884206D1B8
:1017800001211020FFF765FA0021102028E0C6494A
:10179000884202D101214C0410E0C449884202D1A0
:1017A00001218C040AE0C249884202D10121CC0403
:1017B00004E0C04988420AD101210C052046FFF708
:1017C0003EFA2046BDE810400021FFF738BABA497A
:1017D000884209D101212020FFF73BFA0021202077
:1017E000BDE81040FFF735BA10BD7FB50446008A4A
:1017F0000D4620F44051E88808432082A08941F238
:101800000C618843A9882A8911436A8902431143DC
:10181000A181A08A20F44071A8890843A08268466B
:10182000FFF759F99F48844202D0A348844201D16E
:10183000039800E00298A1890904002900EBC00187
:1018400001EB0010296802DA4FEA410101E04FEA9A
:101850008101B0FBF1F26420B2FBF0F14FEA01111B
:101860004FEA11136FF018056B4302EB8302A38953
:101870001D044FF0320306D503EBC202B2FBF0F0B9
:1018800000F0070005E003EB0212B2FBF0F000F0FD
:101890000F00084320817FBD4FF4165101600021E5
:1018A0008180C18001810C2242818181704710B505
:1018B000028A4C8822F470630A8822438C88C98883
:1018C0000C4322431A43028210BD00210180418053
:1018D0008180C18070470029818902D041F4005184
:1018E00001E021F4005181817047028B02F47F42B4
:1018F0000283028B0A43028370470029818902D048
:1019000041F4004101E0C1F30E01818170470029DB
:10191000818A02D041F4006101E021F400618182FA
:101920007047C1F30801818070478088C0F30800C8
:101930007047028A22F00F020282028A0A43028260
:1019400070470029818902D041F0020101E021F0B5
:10195000020181817047828922F40062828182893A
:101960000A4382817047028A22F020020282028AA0
:101970000A43028270470029018A02D041F4804163
:1019800001E021F4804101827047818941F0010129
:10199000818170470029818A02D041F0080101E06D
:1019A00021F0080181827047028BD2B20283028B40
:1019B00042EA0121018370470029818A02D041F067
:1019C000200101E021F02001818270470029818AF5
:1019D00002D041F0100101E021F010018182704736
:1019E000828A22F004028282828A0A4382827047BB
:1019F0000029818A02D041F0020101E021F00201B8
:101A000081827047002A828A01D00A4300E08A431B
:101A10008282704710B5C1F3421301F01F04012107
:101A2000A140012B07D0022B07D01430002A0268F6
:101A300005D00A4304E00C30F8E71030F6E78A439B
:101A4000026010BD0246002012880A4200D0012028
:101A50007047C9430180704730B501F01F0201246F
:101A60000025C1F3421304FA02F2012B0FD0022B1E
:101A70000FD0838A4FEA11210088134204FA01F43F
:101A800000EA040001D000B10125284630BD838959
:101A9000F0E7038AEEE70A0A01219140C943018079
:101AA0007047000000100140004400400048004022
:101AB000004C0040005000400014014010B501F0FF
:101AC000DDF901F0A3F9FE4C207808B101F000F92E
:101AD0006078002803D0BDE8104002F07FBA10BD46
:101AE00000F0EEFB00F060FC00F0AEFC4FF416508E
:101AF00000F054FD00F044FF01F000F800F07AFF20
:101B000001F06CF80421EF48FEF7FAFEEE4E4FF4B8
:101B100080513046FEF7F4FEF1143046FEF7F0FE39
:101B200031153046FEF7ECFE04213046FEF7E8FEA4
:101B300008213046FEF7E4FEE44F20213846FEF748
:101B4000DFFE10213846FEF7DBFE4FF47A78404680
:101B500000F0F3FB4FF47A61C82000F0B2FFD84CDC
:101B600001200025A07040F2E730C4E90405256299
:101B70006562A562E5622563A561D548E56160639C
:101B8000D448A063D448E06340422064D3486064F2
:101B90004042A06402F02AFA01F004F801466068AD
:101BA000814206DDE068032801D0401C0BE0E560BF
:101BB0000AE000F0F7FF014660684042814209DA1E
:101BC000E06800B3401EE06000F0F5FF41463220BF
:101BD00000F077FFE068C0B101281FD002282AD0AA
:101BE0000328D9D104213046FEF78AFE0821304669
:101BF000FEF786FE20213846FEF782FE1021384689
:101C0000FEF77CFEC8E70320DDE704213046FEF73F
:101C100075FE08213046FEF773FE07E004213046CA
:101C2000FEF76EFE08213046FEF768FE202138469A
:101C3000FEF766FE0BE004213046FEF761FE082148
:101C40003046FEF75DFE20213846FEF757FE102194
:101C50003846FEF755FE9FE72DE9F0474FF47A61CD
:101C6000C82000F02EFF9EA004F0D4F94FF47A7043
:101C700000F063FB01F090FE02F014FD02F07DFC29
:101C8000642000F05AFB8E4800226421D0F80C80BA
:101C9000502396242325974EDFED970A974FDFF8C0
:101CA00060C24FF08C09B8F1000F0DD04FF0C80A98
:101CB0009FED940AB8F1010F12D0B8F1020F1DD0B8
:101CC000B8F1030F37D125E08362C0E90514C16183
:101CD000C0E90B923560C7ED000ACCED000A0AE0BE
:101CE0008362C0E90514C161C0E90BA2356087EDCC
:101CF000000A8CED000A02F023FE1CE08362C0E9BA
:101D00000514C161C0E90B923560C7ED000ACCED46
:101D1000000A0AE08362C0E90514C161C0E90BA2B0
:101D2000356087ED000A8CED000A02F009FE01F033
:101D3000EFFD03F01AF9BDE8F04773A004F06AB9AB
:101D40002DE9F05F4FF47A61C82000F0BAFE74A06C
:101D500004F060F94FF47A74204600F0EEFA01F0D6
:101D60001BFE574900206423D1F80C8050253222F5
:101D7000604E624FDFF888C1B8F1000F0FD04FF00E
:101D80002809B8F1010F16D04FF08C0A4FF01E0B46
:101D9000B8F1020F26D0B8F1030F1CD12EE04FF49A
:101DA000C8748D620C624B610863C1E906329FED15
:101DB000520A32600BE04B618D628A614FF41673F8
:101DC0000863C1E907239FED5B0AC6F8009087ED21
:101DD000000A8CED000A01F0D0FABDE8F05F56A0D1
:101DE00004F018B98D62C1E90532C1E90BA0C1E95F
:101DF00007249FED440AC6F800B0E8E78D62C1E908
:101E00000BA0C1E90530C1E907949FED510AC6F85E
:101E100000B0DCE72DE9F05F4FF47A612DED048B23
:101E2000C82000F04EFE4BA004F0F4F84FF47A7096
:101E300000F083FA01F0B0FD214C2E4EDFED2E8A2A
:101E40002E4FDFF8BC80E0684FF07E0B28254FF066
:101E5000410A80B14FF01E09012819D04FF0C80B7C
:101E6000B3EE048A4FF0200AB2EE009A02287BD02B
:101E700003287AD19FE002F0B9F84FF4C870C4F893
:101E800030B020623560C7ED008AC8ED008A0EE0F0
:101E900002F0ACF84FF47A70C4F830B020629FEDD5
:101EA000190AC6F8009087ED000A88ED000A512053
:101EB000A421A165E064C4E914A5C4E9175A55E05A
:101EC00028000020000C02400008024000000240F0
:101ED00078B7F3FF90A00B009084E6FF80E5F9FF50
:101EE000427574746F6E2030207072657373656410
:101EF0000A0D0000980100200000704254010020EB
:101F0000580100200000B44246696E697368656438
:101F100020427574746F6E2030204953520A0D00B0
:101F2000427574746F6E20312070726573736564CE
:101F30000A0D00000000A04246696E69736865647E
:101F400020427574746F6E2031204953520A0D007F
:101F50000000C842427574746F6E20322070726542
:101F6000737365640A0D000003E047E001F03DFB78
:101F700044E002F03BF84FF44870C4F830B02062FF
:101F8000C6F80090C7ED008A6F4F704EC8ED008A0A
:101F900087ED008A86ED008A5A217D20A165E064E4
:101FA000C4E914A5C4E9175A01F01FFB87ED009A94
:101FB00086ED009A22E002F019F840F24C40C4F895
:101FC00030B020621FED1E0AC6F8009087ED000AAF
:101FD0005D4E5E4F88ED000A86ED008A87ED008A2F
:101FE0005A217D20A165E064C4E914A5C4E9175A0B
:101FF00001F0FBFA86ED009A87ED009A54A0BDEC43
:10200000048BBDE8F05F04F005B8F0B5564C89B01C
:1020100004220721204600F03DFE07460422092144
:10202000204600F037FE064604220821204600F034
:1020300031FE054600F0B2FD044600F0B3FD4B4909
:1020400004AA0968E2C24B4A494912680968CDE905
:1020500000204948CDE902410368484802684848E1
:102060000168484803F0D6FF09B0F0BD10B54FF441
:102070007A61C82000F025FD4FF47A7000F05DF918
:1020800041A003F0C7FF454CE06830B1012807D0FC
:1020900002280BD0032852D133E001F039FC01E0D3
:1020A00001F058FC032000F0EBFC48E001F09EFF3B
:1020B0005021A162642060617821E162A061322038
:1020C0001FED700AE0613648A42280ED000A354811
:1020D00080ED000A216334492820B2EE000A08602E
:1020E000194981ED000A194981ED000A5121E16485
:1020F0003C21A265C4E91410C4E9170103F09DFA5C
:102100001DE001F073FF642000F017F900F0E0FD1E
:10211000FFF77BFF012000F010F900F043FDD4E948
:1021200001215143884207DC00F03CFDA168626850
:10213000494251438842E9DA642000F0FEF8BDE8E4
:1021400010401AA003F066BF5C010020600100206F
:1021500046696E697368656420427574746F6E2099
:1021600032204953520A0D0000200140080100208E
:10217000F0000020F800002000010020FC000020FA
:10218000F400002058740008427574746F6E203398
:1021900020707265737365640A0D000028000020CA
:1021A00054010020580100209801002046696E6902
:1021B0007368656420427574746F6E2033204953D0
:1021C000520A0D007047FEE7FEE7FEE7FEE77047A4
:1021D0007047704737480168491C016036490868F4
:1021E000002802DA354B00221A60401E0860FFF713
:1021F00065BC10B52020FEF795FA4FF4967470B1C7
:10220000322000F09AF82020FEF78CFA20B1204608
:1022100000F093F8FFF720FD2020FEF791FA402010
:10222000FEF780FA002811D0322000F086F8402016
:10223000FEF778FA002809D0204600F07EF8FFF774
:1022400015FFBDE810404020FEF77ABA10BD70B50A
:102250004FF480442046FEF765FA4FF4967570B14E
:10226000322000F06AF82046FEF75CFA38B12846C2
:1022700000F063F8FFF764FD2046FEF761FA4FF4C3
:1022800000442046FEF74EFA002811D0322000F01C
:1022900054F82046FEF746FA002809D0284600F0F8
:1022A0004CF8FFF7B7FD2046BDE87040FEF748BA8E
:1022B00070BD0000D0000020E40000203404004085
:1022C00070B503F035FE03F058FE33484FF47A71D1
:1022D0000068B0FBF1F0401EB0F1807F16D24FF0E5
:1022E000E024606166170F21304600F049F80025B0
:1022F000A561072020614FF44070FDF7B9FF002170
:10230000304600F03DF82548456070BDFEE74FF0CF
:10231000E0208069A821B0FBF1F12048426802EB7F
:102320004203C3EBC212C1EBC20101F57A71016035
:1023300000687047194840687047184A51685368E8
:102340005B1A8342FBD1704730B50546FFF7DFFFCC
:102350004FEA0004FFF7DBFF001BA842FAD130BDB3
:1023600030B50C464FEA0005FFF7D1FF001BA8422D
:10237000FAD330BD094A53685B1A8342FBD37047D6
:102380000907090E002803DA00F00F00044A00E0F4
:10239000044A815470470000A0010020CC000020B6
:1023A00014ED00E000E400E07CB501210846FEF7F2
:1023B000F6FB01210420FEF7F2FB01210820FEF7C5
:1023C000EEFB3020009001208DF8040000208DF8F5
:1023D000060003218DF805108DF80700694617489F
:1023E000FEF716FA0C20164D009069462846FEF7B7
:1023F0000FFA0420134E022400908DF8074069461E
:102400003046FEF705FA4FF4E05000908DF8074093
:1024100069462846FEF7FCF904213046FEF770FABB
:10242000E1022846FEF76CFAA1022846FEF768FA98
:1024300061022846FEF764FA7CBD000000000240FD
:1024400000080240000C02402DE9F04701218F03F3
:1024500086B03846FEF7CBFB01210620FEF79FFB36
:102460000024DFF830A18DF8104020258DF81340AE
:1024700003A950460395FEF7CBF905210120FEF78D
:1024800066FC00958DF8044008268DF8056001254E
:102490008DF806506846FEF7F5F84FF017098DF8ED
:1024A00008908DF809508DF80A408DF80B5002A85D
:1024B000FDF7E3FE8DF810408DF8134003A9504658
:1024C0000397FEF7A5F90E210120FEF740FC8DF8D9
:1024D00004408DF8056000978DF806506846FEF7B9
:1024E000D1F828278DF808708DF809508DF80A402A
:1024F0008DF80B5002A8FDF7C0FE8DF810404FF488
:1025000000488DF8134003A95046CDF80C80FEF723
:102510007FF90F210120FEF71AFC8DF804408DF899
:102520000560CDF800808DF806506846FEF7AAF8E1
:102530008DF808708DF809508DF80A408DF80B5011
:1025400002A8FDF79AFE8DF8104040278DF8134041
:1025500003A911480397FEF75BF906210220FEF755
:10256000F6FB8DF804408DF8056000978DF8065055
:102570006846FEF787F88DF808908DF809508DF8B9
:102580000A408DF80B5002A8FDF777FE06B0BDE8B3
:10259000F0870000000402400008024070B50546C4
:1025A00088B001210220FEF7FAFA01211020FEF77F
:1025B0001EFB6D4E072209213046FEF7AEF90722B9
:1025C0000A213046FEF7A9F900248DF816400120B3
:1025D0008DF8170002208DF814004FF4C0610491AB
:1025E0008DF8150004A93046FEF712F95F4E01215F
:1025F0003046FFF782F9ADF808400C20ADF80A002C
:10260000ADF80440ADF80640ADF818403015ADF80F
:102610001A00ADF81E400095ADF80C40ADF81C4016
:1026200069463046FFF7E1F806A93046FFF73FF963
:1026300001213046FFF74FF908B070BD0020704708
:1026400070B54A4D0446C1B22846FFF76AF98021A9
:102650002846FFF7F7F90028F9D0204670BD434817
:1026600001888906FCD58088C0F30800704770B5E2
:102670003E4D044680212846FFF7E4F90028F9D0B2
:10268000A1B22846FFF74DF9204670BD10B538A01D
:1026900003F0C0FC354C20212046FFF7D3F9002879
:1026A000F9D02046FFF741F9C0B210BD10B539A0EE
:1026B00003F0B0FC2D4C20212046FFF7C3F9002881
:1026C000F9D02046FFF731F901463AA003F0A2FC09
:1026D0002046FFF72AF9C0B210BD10B537A003F0AD
:1026E00099FC224C20212046FFF7ACF90028F9D0B4
:1026F0002046FFF71AF9A0F1300137A003F08AFC59
:102700002046FFF712F9303810BD10B504460146D7
:1027100086B033A001E0214638A003F07BFC694677
:1027200041A003F099FD694640A003F073FC2146E7
:10273000684603F0DDFE0028EDD106B010BD38B5C7
:10274000044601463BA001E0214641A003F062FCA3
:1027500069464AA003F080FD1FA0009903F05AFCCF
:102760000098A042F0D138BD0000024000100140A6
:102770000D0A707265737320616E79206B65792024
:10278000746F20636F6E74696E75652E2E2E0D0A40
:102790000D0A0000706C6561736520656E7465726A
:1027A0002061206368617261637465722E2E2E0D44
:1027B0000A00000025630D0A00000000706C6561CE
:1027C000736520656E746572206120646967697441
:1027D0002E2E2E0D0A00000025640D0A00000000B8
:1027E000507265737320257320746F20436F6E746D
:1027F000696E75652E2E2E203A000000496E7661B6
:102800006C696420696E7075742C207072657373C6
:1028100020257320746F20436F6E74696E75652E6A
:102820002E2E203A000000002573000025730D0AAB
:1028300000000000507265737320256420746F20BF
:10284000436F6E74696E75652E2E2E203A0000005F
:10285000496E76616C696420696E7075742C2070A5
:102860007265737320256420746F20436F6E7469E2
:102870006E75652E2E2E203A0000000025640000A3
:102880001CB501210420FEF7A8F94FF470700090E8
:1028900002208DF8040003208DF8050000208DF83B
:1028A0000600504C8DF8070069462046FDF7B0FF42
:1028B000022206212046FEF730F802220721204698
:1028C000FEF72BF8022208212046FEF726F8022206
:1028D00009212046FEF721F81CBDF0B589B040F271
:1028E000E73006900320ADF8140000263E4FADF807
:1028F0001C60ADF8166005A93846FEF7DDFA6020C9
:102900003A4DADF800000124ADF80240288802904D
:10291000ADF80C6069463846FEF750FB0821384692
:10292000FEF78DFCADF80240688802906946384693
:10293000FEF770FB08213846FEF787FCADF8024031
:10294000A888029069463846FEF7A0FB0821384661
:10295000FEF785FCADF80240E888029069463846EB
:10296000FEF7CEFB08213846FEF77FFC01213846F2
:10297000FEF700FB01213846FEF716FB09B0F0BD5B
:1029800010B5FFF77DFFBDE81040A6E718490968BC
:10299000884200DD08464942884200DA0846124A69
:1029A00000213C32131D002802DB106019607047C3
:1029B00011604042186070470D490968884200DD87
:1029C00008464942884200DA0846074A0021343264
:1029D000131D002802DB1160186070474042106030
:1029E000196070470004024000080040DC0000202D
:1029F0003800002030B58BB001210220FEF7EDF841
:102A00004020059002208DF8180003218DF8191040
:102A100000248DF81A40354D8DF81B0005A9284675
:102A2000FDF7F6FE022206212846FDF776FF9520E7
:102A300008908B20ADF81C002D4DADF82440ADF86A
:102A40001E4007A92846FEF737FA6020ADF80000BF
:102A50000120ADF802000294ADF80C40694628460A
:102A6000FEF7ACFA08212846FEF7E9FB01212846CB
:102A7000FEF780FA01212846FEF796FA0BB030BD2A
:102A80002DE9F04105461B498C2068430860184F2A
:102A900095202C3738600024154EA04634360CE0C3
:102AA0003868401CC00830604620FFF746FCC6F876
:102AB00000804620FFF741FC641CAC42F0DBBDE81F
:102AC000F0810B4A10B52C321368094C5B1C9B0833
:102AD00034342360084B93FBF1F18C2391FBF3F129
:102AE000491E11600349086010BD0000000002404B
:102AF00000040040E400002000BD01057CB5012178
:102B00000920FEF76AF802208DF8040001208DF8F4
:102B1000070048F203002E4C009069462046FDF75E
:102B200077FE08202B4D009069462846FDF770FE81
:102B3000022200212046FDF7F0FE0222012120465C
:102B4000FDF7EBFE01220F212046FDF7E6FE0122F4
:102B500003212846FDF7E1FE1F4C4FF0FF352946C3
:102B60002046FEF7EDF929464FF080452846FEF74E
:102B7000E7F90223002203212046FEF7BFFD0023D0
:102B80001A4603212846FEF7B9FD01212046FEF72B
:102B90000BFA01212846FEF707FA7CBD0E482430C7
:102BA000006870474FF08040406A70470A49002033
:102BB0002431086070474FF0804100204862704720
:102BC00005492431086070474FF0804148627047E2
:102BD0000000024000040240000C004030B501211A
:102BE0008DB00802FEF703F88820032500908DF8C9
:102BF000045000248DF8074069463048FDF708FE70
:102C00008DF8045000958DF8074069462C48FDF773
:102C1000FFFD8DF8045033202A4D00908DF80740B9
:102C200069462846FDF7F4FD4FF48030CDE90840B1
:102C30004FF47060CDE90A4008A8FDF7A8FB8DF8B5
:102C40000C4002948DF80D400594069401201E4C12
:102C50008DF81C0002A92046FDF76EFB012240F210
:102C600005212046FDF7CEFC01212046FDF7A4FBFF
:102C700004211648FDF744FEA1142846FDF740FE46
:102C8000E1142846FDF73CFE21152846FDF738FEE5
:102C90000DB030BD10B5134604460122FDF7BFFB51
:102CA0002046FDF7F6FB02212046FDF7B4FC002884
:102CB000F9D02046BDE81040FDF71DBC00000240E1
:102CC000000402400008024000200140000C0240C5
:102CD0002DE9F047784D04220A212846FFF7DAFF54
:102CE000764C04220E21E0602846FFF7D3FF2061D6
:102CF00004220B212846FFF7CDFF606104220F213B
:102D00002846FFF7C7FFA061FFF701FB6C4F824623
:102D100004213846FDF7F2FD6A4E4FF480684146C3
:102D20003046FDF7EBFD51463C20FFF719FB04222E
:102D30000A212846FFF7AEFFE1680422401AE0604E
:102D40000E212846FFF7A6FF2169401A20610421C1
:102D50003846FDF7D5FD41463046FDF7D1FDE06828
:102D60000027002800DAE7602069002800DA2761E0
:102D70005146FA20FFF7F4FA4FF48059494630469D
:102D8000FDF7BCFD4FF4006841463046FDF7B6FD47
:102D900051464FF4AA70FFF7E3FA04220B212846AC
:102DA000FFF778FF61690422401A60610F2128460D
:102DB000FFF770FFA169401AA06149463046FDF750
:102DC0009FFD41463046FDF79BFD6069002800DA13
:102DD0006761A069002800DAA761E26821684FF402
:102DE0007A704A4392FBF0F2E26022694A4392FB16
:102DF000F0F2226162694A4392FBF0F26261A269D9
:102E00004A4392FBF0F0A061BDE8F0872DE9F04164
:102E100028262A4C0020284F0546E061042207217D
:102E20003846FFF737FFE1696D1C0844E061B542A1
:102E3000F4DB4CF2503191FBF6F0E2695043224A48
:102E4000104490FBF1F04000E061216A08442062E8
:102E5000BDE8F08110B5042203211748FFF71AFFDF
:102E6000164C606004F01BF99FED181B53EC112BFE
:102E700003F08EFF04F0E4F8A06010BD10B5FFF77A
:102E8000E9FF0E4841F658318068884213DA0D4C4C
:102E900004212046FDF732FD08212046FDF72EFDD6
:102EA0000C4C20212046FDF729FD2046BDE81040AE
:102EB0001021FDF723BD10BD00200140E8000020D7
:102EC000000C024000080240DCFEBCF9AC1C5A6455
:102ED0003BDFD33F00000240FF4FDFF800840D4688
:102EE00006464FF47A7900BFFFF711FA0446FFF760
:102EF000EFFE3868301AFFF749FDD8F80000281AAD
:102F0000FFF75AFD21464846FFF72AFAECE710B5CD
:102F1000F148F349F34C0068096888424FF0080112
:102F2000204602DDFDF7EAFC01E0FDF7E9FCEE4892
:102F3000EE490068096888424FF00401204602DD2E
:102F4000FDF7DCFC01E0FDF7DBFCE948E949EA4C70
:102F50000068096888424FF01001204602DDFDF745
:102F6000CDFC01E0FDF7CCFCDC48E44900680968D1
:102F700088424FF02001204603DDBDE81040FDF7F8
:102F8000BDBCBDE81040FDF7BBBC70B50D460446A6
:102F9000FFF711FEFFF70AFE2046FFF7F7FC204679
:102FA000FFF70AFD2846FFF7C8F90020FFF7EEFCFF
:102FB0000020FFF701FD6420FFF7BFF9FFF7EEFDEA
:102FC0000446FFF7EFFD201A70BD1CB50020CC4968
:102FD000CC4A8246087001211170CB4907468346CE
:102FE000087080460546009004460190C7484FF09F
:102FF00001090168C6480160C648C74A00681268EE
:1030000009FB00F18E1ABAF1000F2ED186422CDC9A
:10301000C2484FF0010AC24A80F800A00020107098
:10302000C04880F800A02DB9022C03D0032C01D099
:10303000042C14D1304601F024F8BB48D0ED000A2E
:10304000BA48B8EEE01AD0ED000A01F001F8B8482D
:10305000D0ED000AB4EEE00AF1EE10FA01D2AB486E
:1030600000E0B1480168AA48016057B9A948006862
:1030700000EB4000C11700EB9170B6EBA00F00DC35
:10308000012737EA080002D0A44901200870BBF1EB
:10309000000F38D19F48006800EBD070B6EB600F8E
:1030A00031DC8D488E494FF0010B00680968884279
:1030B00005DC8A48914900680968884200DD0125DD
:1030C00089488A4900680968884201DD012000902A
:1030D0008748884900680968884201DD012001901D
:1030E000FFF728F900F00304641C012C0FD0022C18
:1030F00010D0032C10D0042CF2D1009805EA000166
:1031000001980142ECD0B8F1000F09D012E0002D77
:10311000E6D1F8E7009800E001980028E0D1F2E756
:103120007C480068C11700EB9170B6EBA00F05DC7E
:103130004FF0010815B1794900200870002E0ADD12
:10314000654801684FF4FA60814204DC634909680C
:1031500081427FF751AF09F101093DB1754802681D
:10316000754801687548006800F0A6FD022C04D07F
:10317000032C04D0042C04D007E0714802E071480D
:1031800000E07148006800F041FC4FF0000A57462B
:10319000D346D0465546CDF800A0CDF804A02BE785
:1031A0002DE9F05F6A4A69486A4B1168FC2700EB19
:1031B000C10C1868B8463E461CF800403D468444A1
:1031C000072901DA9CF80870072801DA9CF80180C9
:1031D000002801DD1CF8086C002901DD1CF8015CE9
:1031E000DFF874A193460AEBC101085C01F0B0F866
:1031F000DFF8689140B9601E874205D14E2189F8F9
:1032000000100520BDE8F09F5746DA46DBF80000C5
:10321000DFF840B107EBC001DBF80000085C01F00B
:103220009AF838B9611E884504D1452189F8001003
:103230000620E7E7DAF80010B84607EBC100DBF834
:1032400000105F46405C01F089F838B9601E864284
:1032500004D1532189F800100720D3E7DAF80010D1
:1032600008EBC1003968405C01F07BF838B9641E96
:10327000A54204D1572189F800100820C2E7002098
:10328000C0E72DE9F041344F0026002407EBC605C6
:10329000285D01F069F8E8B9285D072E40F00F00BD
:1032A000285504DA2819017A41F004010172002E30
:1032B00005DD281910F8081D41F001010170072CE7
:1032C00004DA2819417841F008014170002C4CDDE6
:1032D000281945E049E00000F4000020F800002033
:1032E0009C00002000080240FC000020A4000020F8
:1032F00000010020A800002000000240A0000020E3
:103300002A000020990000209A000020540000208C
:10331000140100208C0000208C01002028000020D7
:103320009800002029000020580000200C010020F7
:103330005801002040000020C0000020BC000020F8
:103340005C0000206000002064000020F4010020E8
:103350001400002010000020B401002024000020F0
:1033600010F8011D41F002010170641C082C8FDB74
:10337000761C082E89DBBDE8F0812DE9F04F4FF473
:10338000C8712DED028BE5B0684603F08AF8FA4D5E
:103390000026FA4CDFF8E8932E604FF04E0B2660C3
:1033A000B04689F800B0FFF76CFF01F0EBF901F0CF
:1033B000E4F800F01BFEF3494FF0010A002781F802
:1033C00000A0F14981F800A080E0F04821682A6857
:1033D00000EBC101895CFC2903D30A20FFF750FBF5
:1033E00079E099F800104E2909D045291FD05329BA
:1033F00035D057294CD060E0761C401C2060E44852
:10340000216800EBC1002968405C00F0A1FF10BBFF
:10341000DE49206801EBC00229685318515C1B7A11
:10342000491E8B42E8D048E0761C401C2860D848F2
:10343000216800EBC1002968405C00F08CFF50B9A6
:10344000D248216800EBC10128680A18095C52784B
:10345000491E8A42E8D030E0761C401E2060CC48ED
:10346000216800EBC1002968405C00F077FF20BBB9
:10347000C649206801EBC00229685318515C13F853
:10348000083C491E8B42E7D017E0761C401E28609E
:10349000BF48216800EBC1002968405C00F061FF73
:1034A00058B9BA48216800EBC10128680A18095CBC
:1034B00012F8012C491E8A42E7D0B64840F827602E
:1034C000FFF76EFE4DF8270000267F1C00F052FF2C
:1034D00000283FF47AAFB04989F800B0002481F8A1
:1034E00000A0AC4D69E044B305EB84014968E9B341
:1034F00000EE100AB8EEC00A00F0D3FDA748A849B4
:103500000068096888420DDDA648A7490068096877
:10351000884207DDA5480268A5480168A5480068FB
:1035200000F0CAFB5DF8240005283AD006283BD0FD
:1035300007283CD008283DD03EE09F4890ED000A87
:10354000B8EEC00A00F0A7FD9C48D0ED000AB8EE26
:10355000E01AC0EE010A10EE900A03F001FF9FEDA1
:10356000981B53EC112B03F005FE00E00DE041EC3D
:10357000180B286803F093FD53EC182B03F060FB45
:1035800003F02CFB00EE100AB6E78F4E00EE100A97
:103590003768B8EEC00AC6F8008000F082FD3760D8
:1035A000ACE700F039FE07E000F057FE04E000F061
:1035B00075FE01E000F091FE641C55F8240000281F
:1035C00091D17148444680F800800020FFF7DEF971
:1035D0000020FFF7F1F90320FFF752FA6948047061
:1035E00065B0BDEC028BBDE8F08F2DE9F04F4FF4D4
:1035F000C8712DED048BE5B0684602F052FF5E4DB8
:1036000000265E4CDFF878A12E604FF04E0B26604E
:10361000B1468AF800B0FFF734FE01F0B3F800F0CD
:10362000ACFF00F0E3FC57494FF00108002781F898
:103630000080554981F8008080E05448216800EB03
:10364000C1022968515CFC2903D30A20FFF718FA4C
:1036500079E09AF800104E2909D045291FD0532946
:1036600035D057294CD060E0761C401C206048487B
:10367000216800EBC1002968405C00F069FE10BBC6
:103680004249206801EBC00229685318515C1B7A3B
:10369000491E8B42E8D048E0761C401C28603C481C
:1036A000216800EBC1002968405C00F054FE50B96D
:1036B0003648216800EBC10128680A18095C527875
:1036C000491E8A42E8D030E0761C401E2060304817
:1036D000216800EBC1002968405C00F03FFE20BB80
:1036E0002A49206801EBC00229685318515C13F87D
:1036F000083C491E8B42E7D017E0761C401E28602C
:103700002349206801EBC0002968405C00F029FED5
:1037100058B91E48216800EBC10128680A18095CE5
:1037200012F8012C491E8A42E7D01A4840F8276057
:10373000FFF736FD4DF8270000267F1C00F01AFE2B
:1037400000283FF47AAF8AF800B0C2464546DFF859
:10375000348088F8005000F049FC4C46DFF828908F
:103760000D4F9FED178B89F800503D700025DFF855
:103770005CB0084E8DE00000100000201400002016
:10378000240000209A00002029000020F4010020DD
:10379000B40100203402002028000020F4000020A2
:1037A000C4000020F8000020C800002040000020D5
:1037B000C0000020BC000020940000208C000020ED
:1037C000CAC342AD69DEDD3F580000209B000020E7
:1037D000BDB106EB85014968B9B3401E00EE100A81
:1037E000B8EEC00A00F05DFC8BF800A05DF8250083
:1037F000052840D0062841D0072842D0082843D0C9
:1038000044E0764890ED000AB8EEC00A00F043FCB0
:103810007348D0ED000AB8EEE01AC0EE010A10EECF
:10382000900A03F09DFD41EC190B306803F037FC62
:1038300053EC182B03F0AAFC53EC192B03F000FAFD
:1038400003F0CCF900EE100ACCE7FFE76549096800
:10385000649164490C6003F022FC53EC182B03F0D4
:1038600095FC03F0BBF900EE100A00F01AFC5D486D
:1038700064990160B8E700F0CFFC07E000F0EDFCD0
:1038800004E000F00BFD01E000F027FD8BF80040A4
:103890006D1C56F8250000289AD13C7089F800402C
:1038A000FFF774F80020FFF787F80320FFF7E8F828
:1038B00088F8004065B0BDEC048B94E670B54B49C8
:1038C00049484C4C096800EBC10049490968455C0E
:1038D00020784E2803D1284600F03AFDA0B9207880
:1038E000452803D1284600F036FD68B920785328D2
:1038F00003D1284600F032FD30B92078572805D191
:10390000284600F02EFD08B1012070BD002070BDDA
:1039100070B5354D384C0021002005EBC10204EB99
:10392000C103165C1E54401C0828FADB491C0829F8
:10393000F2DB324C324B0021002004EBC10503EBDB
:10394000C1022E5C1654401C0828FADB491C0829C9
:10395000F2DB70BD70B5284D234C0021002005EB33
:10396000C10204EBC103165C1E54401C0828FADB9C
:10397000491C0829F2DB224C204B0021002004EBDB
:10398000C10503EBC1022E5C1654401C0828FADB6B
:10399000491C0829F2DB70BD70B54FF42F74194D26
:1039A00005E000BFFFF794F90520FEF7C6FC286884
:1039B000A042F7DB0220FFF763F8134D05E000BFDC
:1039C000FFF786F90520FEF7B8FC2868A042F7DB70
:1039D000BDE870400220FFF753B8000094000020BB
:1039E0008C00002058000020B401002014000020AA
:1039F0001000002024000020C4030020F401002057
:103A000004040020F4000020F80000202DE9F05FFD
:103A10000546944800242DED028B93490470012043
:103A200008709248DFF84892DFF848A2046099EDE8
:103A3000000AFDEEC08A9AED000ABDEEC08A9FED35
:103A40008E0A89ED000A8AED000AFEF773FC8B4EA0
:103A5000074600BFFEF76EFC3168C01B8842F9D3F1
:103A6000FEF768FC07468648A346002D0460854C97
:103A700080460DDC1DE08448006840422060012043
:103A8000FEF75BFCFEF756FCC01BB0F57A7F14D83E
:103A9000D8F80000A842EEDB0FE07B480068206009
:103AA0000120FEF74AFCFEF745FCC01BB0F57A7F0B
:103AB00003D8D8F80000A842EFDCB8EEE80AC4F852
:103AC00000B089ED000AB8EEC80A8AED000AFEF7D8
:103AD00031FC0446FEF72EFC3168001B8842F9D306
:103AE000614901200870BDEC028BBDE8F09F2DE913
:103AF000F05FDFF874815B48012588F800500026EC
:103B000006706248594900680860FEF713FC0446D5
:103B1000DFF87C91DFF87CA1DFF87CB15F4F16E025
:103B2000FFF7D6F8D9F80010DAF8000081420BDD73
:103B30005B48DBF800100068814205DD4FF47A61D4
:103B40003220FEF7BEFF08E00120FEF7F6FBFEF78D
:103B5000F1FB3968001B8842E2D35248494F0068A4
:103B600040423860FEF7E6FBDFF83C91DFF83CA10D
:103B7000044600BFFEF7DEFB011BD9F80020DAF88F
:103B8000000010448142F5D33E60FEF7D3FB0446AB
:103B9000474E484FFEF7CEFB31683A68001B114490
:103BA0008842F7D388F800509FE72DE9F05FDFF8EF
:103BB000B8802C48012588F800500026067033484C
:103BC0002A4900680860FEF7B5FB0446DFF8C0909C
:103BD000DFF8C0A0DFF8C0B0304F16E0FFF778F88C
:103BE000D9F80010DAF8000081420BDD2C48DBF830
:103BF00000100068814205DD4FF47A613220FEF743
:103C000060FF08E00120FEF798FBFEF793FB3968A0
:103C1000001B8842E2D323481A4F00683860FEF741
:103C200089FB0446DFF88090DFF880A0FEF782FB76
:103C3000021BD9F80010DAF8000008448242F5D3DC
:103C40003E60FEF777FB0446194E1A4FFEF772FBF3
:103C500031683A68001B11448842F7D388F8005055
:103C600043E7000028000020290000201401002064
:103C70005C010020600100200000C84244000020D8
:103C800008010020180100205000002058000020EA
:103C9000F4000020C4000020F8000020780000207C
:103CA000C8000020740000207C000020800000205C
:103CB00084000020880000202DE9F74F82B0904654
:103CC000FEF770FF0190FEF769FFDFF87C901F4957
:103CD0000090D9F800600968C9F800101C4901205B
:103CE00008701C4900200870FEF724FB0546DFF829
:103CF00068A0DFF868B01A4F16E000BFFEF707FBB8
:103D000004460298DAF80010401AFEF73FFE0398C6
:103D1000DBF80010401AFEF74FFE00BFFEF7F7FA7F
:103D20003968001B8842F9D3FEF704FB411B41456B
:103D3000E4D30198FEF748FF0098FEF741FFC9F869
:103D4000006005B0BDE8F08F380000203C00002086
:103D50002800002029000020F4000020F8000020A6
:103D600040000020FE4810B50168FE480268FE4889
:103D7000914201DD511A06E0FC4AFD4B12681B68B6
:103D80009A4202DDD11A816010BDFA4B1B6899423C
:103D900019DAF94909688A4215DAF849F94A0C68CA
:103DA000F74912680B68F8499C42096803DD8A42AA
:103DB00001DA191B04E08A42E6DD9C42E4DA511A7A
:103DC00001EB4101DFE70021DDE770B5E64CE64D90
:103DD000803CD4E91C208118821AC4E9041200EE48
:103DE000101AEA48D4ED000AB8EEC00A00682B6940
:103DF00030EEC00A90FBF3F0D4ED080A104430EE28
:103E0000200A84ED080A00EE100AD4ED010AE04809
:103E1000B8EEC00A30EEC00AD4ED090A30EE200A2E
:103E200084ED090A007878B1FFF79CFFD5E902011B
:103E300090FBF1F000EE100AD4ED090AB8EEC00ACA
:103E400030EE800A84ED090AD4ED080A94ED0E0ADA
:103E500094ED0A1AD4ED0F1A20EE200A30EEC11AA2
:103E600004F1280301EE810ABDEEC00A10EE101A1B
:103E7000216394ED091A94ED100AD4ED0B1A94ED18
:103E8000112A20EE010A71EE611A02EE210ABDEE3E
:103E9000C00A10EE102A6263881AC3EC020A1144A9
:103EA000C4E91601FEF772FDE06DBDE87040FEF753
:103EB00083BDAD48B0EE001A803890ED020AD0ED17
:103EC000000AB8EEC02ADFEDB31AF4EEC20AF1EE32
:103ED00010FA11D290ED122A22EE011A81EE212A57
:103EE000B8EEC01A72EE200AC0ED000AF4EEC10A64
:103EF000F1EE10FA18DC1BE0B8EEC02AF4EEC20AAC
:103F0000F1EE10FA14DD90ED132A22EE011A81EE83
:103F1000212AB8EEC01A70EEC20AC0ED000AF4EE13
:103F2000C10AF1EE10FA03D2B8EEC00A80ED000A21
:103F300090ED030AD0ED010AB8EEC01AF4EEC10A02
:103F4000F1EE10FA11D290ED141A70EE810AB8EE6B
:103F5000C01AC0ED010AF4EEC10AF1EE10FA03DD59
:103F6000B8EEC00A80ED010A7047B8EEC01AF4EE50
:103F7000C10AF1EE10FAF7DD90ED151A70EEC10AE4
:103F8000B8EEC01AC0ED010AF4EEC10AF1EE10FA63
:103F9000E6D3704770B5FEF705FE734C803C206693
:103FA000FEF7FCFD226EA16E511A2167E36EC4E993
:103FB0001A20C31ACD1805EBD5756D10C4E91D354F
:103FC00011441844C4E918100844674900EBD07044
:103FD00040100860E06F401BE06770BD10B5FFF750
:103FE000D9FFFFF766FFBDE81040EEE610B5684860
:103FF00000240470684804702046FEF7C7FC0020C7
:10400000FEF7DAFC9FED650A57485749803880ED86
:10401000060A80ED070A80ED000A80ED010A84603F
:10402000C46080ED080A80ED090A80ED0A0A80ED7F
:104030000B0A8466C466046644660C604C60846542
:10404000C465C467FEF7B7FDBDE81040FEF7AEBD1E
:10405000B5EEC00AF1EE10FA01D8B7EE000A60EE34
:10406000A00A41EE410A80EE801AB4EE000A21EE69
:10407000000AB5EEC00AF1EE10FA01D2B1EE400A24
:10408000704700EE100A4648F8EEC00A90ED001A9C
:1040900080EE810A70474248D0ED000A20EE200AE7
:1040A00070472DE9F0413A4C3B4901202DED028B40
:1040B000B0EE408A20700870FEF774FD0546FEF7EA
:1040C0006DFD284400EBD07027494710354D364A26
:1040D0008039254E2BE000BF00EE100AF8EEC00A32
:1040E00000EE103A03EBD373B8EEC00A58EE000AA4
:1040F000BDEEE00A10EE100AB0EB630F01DA002308
:104100002370FFF7BEFFD2ED000AB8EEE01AD1ED42
:10411000000AFFF79DFFD1ED130AB4EEE00AF1EEBD
:1041200010FA02D22148006800E010688860306808
:104130002B68C01B00EE100AF8EEC00A00EE103A21
:10414000B8EEC00A28EE000AF4EEC00AF1EE10FA4A
:10415000C2D310688860BDEC028BBDE8F08100001E
:10416000FC000020AC0000208C0100200001002099
:10417000B0000020A4000020A8000020F4000020CF
:10418000B4000020F8000020B80000200401002046
:10419000280000200000C842290000200000000084
:1041A000900000208C0000205800002048000020D3
:1041B0002DE9F04113490120144C08701249144DA7
:1041C00008702068A860FEF7EDFC0646FEF7E6FCE6
:1041D000304400EBD0704610DFF83880FEF7E2FC88
:1041E0000746FEF7DBFCD8F80010384401EBD1712C
:1041F00006EB610100EBD070B1EB600F2068A860A6
:10420000ECDCAAE72800002029000020580000204C
:104210000C0100208C00002010B5484C20784E285E
:1042200018D047495728097804D0452808D0532882
:104230000CD00FE011B1FFF75AFC0BE0414806E04B
:1042400011B1FFF7B2FC05E03F4800E03F480068CD
:10425000FFF7DCFB4E20207010BD10B5374C3849FD
:10426000207809784E2806D057280AD0452812D041
:10427000532808D00FE011B1FFF739FC0BE03148AB
:1042800006E0324804E011B1FFF78FFC03E02E484E
:104290000068FFF7BBFB4520207010BD10B5274C10
:1042A00021784E2906D026485729007804D0452980
:1042B00008D00FE025480AE010B1FFF776FC09E0CE
:1042C000214804E010B1FFF712FC03E01D4800682C
:1042D000FFF79CFB5320207010BD10B5174C1849F8
:1042E000207809784E2806D0572814D0452808D0C1
:1042F000532808D00FE011B1FFF757FC0BE012482C
:1043000006E0124804E011B1FFF7F1FB03E00D48AD
:104310000068FFF77BFB5720207010BD074800782E
:104320004E2806D0452805D0532804D0572803D15D
:1043300093E7B3E7D1E76FE7704700002400002060
:104340009B000020600000205C0000206400002032
:1043500000F001007047C0F340007047C0F38000D8
:104360007047C0F3C0007047C0F300107047C0F33F
:10437000401070472DE9FC4F70480268032A01D0B5
:10438000042A27D16E4803686E480178077A41F005
:104390000109C179067C41F0020C017E41F0040E56
:1043A000C17B41F002010191417E457C41F0040155
:1043B0000091817C447A41F0080B417841F0010A78
:1043C000817A133841F008085F49032B097804D03B
:1043D000042B04D00020BDE8FC8F032A09D047F04D
:1043E0000C07C77680F8139080F81AC0042B13D1FD
:1043F00010E04E2902D0452906D00DE047F008070D
:10440000C77680F81AC007E047F00407C77680F83F
:10441000139001E0032A0BD046F0090680F82360D0
:1044200080F82BE0019E80F82260042B16D113E067
:10443000532902D0452908D010E046F0080680F83C
:104440002360019E80F8226008E046F0010680F8B3
:10445000236080F82BE001E0042A0BD045F003052F
:1044600080F82450009D80F82C5080F825B0032B54
:1044700016D113E0532902D0572907D010E045F098
:10448000020180F8241080F825B009E045F0010110
:1044900080F82410009980F82C1001E0042A05D03F
:1044A00044F00601017780F814A007E04E2902D0FD
:1044B000572906D00AE044F00201017780F81D80F8
:1044C00004E044F00401017780F814A0012082E7A1
:1044D0001A481B4900680968084301D0002070474A
:1044E00001207047174A10B5133A02EBC102125C63
:1044F0006FEA0204154AE30702EBC101014404D04C
:10450000087AA20703D4FC2302E0FC20F9E74B78E9
:10451000620701D4FC2201E011F8082C240701D421
:10452000FC2101E011F8011C834200DA18468242A6
:1045300000DA1046814200DA084610BD1000002063
:1045400014000020C701002024000020F4010020F6
:104550002DE9F041404F0725002407EBC5063FA099
:10456000315D01F057FD641C082CF8DB3CA001F024
:1045700051FD6D1EF0D5BDE8F0812DE9F047DFF863
:10458000E4A0DFF8D480DFF8E0900725002408EBF2
:10459000C506305DFFF7DCFE08B134A000E035A0B1
:1045A00001F038FD641C082CF3DB34A001F032FD6F
:1045B0002BA001F02FFD324F0024305DFFF7D1FE1C
:1045C00008B130A000E030A001F024FD3868854239
:1045D00016D12E480068844212D19AF800004E2865
:1045E00006D0452806D0532806D0572806D018E014
:1045F00027A00AE027A008E027A006E027A004E003
:10460000305DFFF7B4FE18B125A001F003FD08E00E
:10461000305DFFF7A9FE09EBC500015D0FA001F0B9
:10462000F9FC641C082CC8DB16A001F0F3FC0CA0FC
:1046300001F0F0FC6D1EA9D500240CA001F0EAFCED
:10464000641C082CF9DB0DA001F0E4FCBDE8F04788
:1046500003A001F0DFBC0000B4010020253364009A
:104660000A0D000024000020F40100202B2D2D2D28
:10467000000000002B202020000000002B00000084
:10468000140000207C00000020000000100000202A
:10469000205E2000203E200020762000203C2000CC
:1046A0002078200030B52748017841F00E010170D4
:1046B000417841F00C01417000214218491C12F868
:1046C000383F082943F001031370F6DB5FF0000167
:1046D00000EBC102491CD379082943F00203D371CE
:1046E000F6DB0021425C42F004024254491C0829D6
:1046F000F8DB002110F8312042F0080200F83120E8
:10470000491C0829F6DB06210F4C0022002004EB8F
:10471000C2030328195401DA491E03E0051F032DC3
:1047200000D2491C401C0828F3DB032A01DA491E89
:1047300003E0101F032800D2491C521C082AE5DBA5
:1047400030BD0000B4010020F4010020F8480178D9
:10475000F8484E29006806D0452907D0532908D0CB
:10476000572909D00AE005280AD007E0062807D013
:1047700004E0072804D001E0082801D00120704798
:10478000002070472DE9F0474FF0400900273D46D3
:10479000E948002400EBC506032D01D0042D03D108
:1047A000032C1CD0042C18D016F80480294620466F
:1047B000FFF798FE401CC0B23055404500D001279D
:1047C000641C082CE8DB6D1C082DE1DB002F02D0F7
:1047D000B9F10109DAD5BDE8F0870524DCE7042446
:1047E000DAE7F0B5D248D54AD6490778D4481678E2
:1047F000D64A0578D6480C78D3491368006801EB8F
:10480000C30211184E2F2CD0452F4FD0532F71D0EB
:10481000572F25D15EB1165C002846F008061654C5
:1048200005DD11F8016C46F0020601F8016C5DB17E
:10483000155C002B45F00405155405DD11F8085CE6
:1048400045F0010501F8085C002C09D0145C072B29
:1048500044F00104145403DA087A40F004000872AA
:10486000F0BD4EB1165C072B46F00106165403DA74
:104870000B7A43F004030B725DB1135C002843F024
:104880000803135405DD11F8013C43F0020301F85D
:10489000013C002CE4D0135C072843F002031354BE
:1048A000DEDA487840F008004870F0BD4EB1165C82
:1048B000072846F00206165403DA4E7846F008063A
:1048C0004E704DB1155C072B45F00105155403DA08
:1048D0000D7A45F004050D72002CE6D0145C002B17
:1048E00044F004041454E0DD11F8080D40F0010018
:1048F00024E0FFE75EB1165C002B46F00406165478
:1049000005DD11F8083C43F0010301F8083C4DB106
:10491000135C072843F00203135403DA4B7843F087
:1049200008034B70002CC0D0135C002843F0080330
:104930001354BADD11F8010D40F002000870F0BD0B
:104940002DE9F04F834901202DED028B83B00870D3
:10495000FFF74CFB7E4800254E2105607B48012671
:10496000A94605607248AA462F4601707648AB46B4
:104970002C460078FFF7F8FC70B974497248096852
:1049800000EBC10072490968425C42F010024254D7
:1049900071480168491C01607048714900689FEDC9
:1049A000718A08605CE27048704A0068126806FB11
:1049B00000F18D1AB9F1000F32D1854230DC6C4A1A
:1049C0004FF00109DFF884C182F80090694A604B1A
:1049D00082F80090584ADCF8001002EBC1081A680F
:1049E00018F80280B8F1FC0F72D2DFF8448198F811
:1049F0000080B8F14E0F09D0B8F1450F08D0B8F1DA
:104A0000530F07D0B8F1570F08D009E0491C02E056
:104A1000521C04E0491ECCF8001001E0521E1A603E
:104A2000BAF1000F09D100EB4001CA1701EB9271F6
:104A3000B5EBA10F01DC4FF0010A002F77D100EB9D
:104A4000D070B5EB600F72DC4B484C490127006811
:104A50000968884202DD3A490120087048484949FE
:104A600000680968884202DD36490120087046481E
:104A7000464900680968884208DD4548454900689C
:104A80000968884202DD2D4901200870FFF7A9FE60
:104A9000DFF8B8802E48D8F800100068FFF722FD34
:104AA000254AD8F80010401C02EBC10228490968C9
:104AB0005054FFF767FE2449D8F8000001EBC0010D
:104AC00023480068085CFFF743FC10B1FC2009E0B4
:104AD00033E11949D8F8000001EBC0001C4909680E
:104AE0000844007A194901901748096800EBC10190
:104AF00017480068085CFFF72EFC08B1FC2008E0AE
:104B000012490D48096800EBC101114800680844CA
:104B100040780E4980460C48096800EBC1010C48FA
:104B20000068085CFFF71AFCB0B3FC203FE080E0AF
:104B30002400002020000020F40100201C000020A0
:104B40001D0000201E000020B401002014000020E1
:104B500010000020990000201800002054000020C0
:104B600014010020000000008C0000208C010020B7
:104B70002800002029000020FC000020A4000020C4
:104B800000010020A8000020F40000209C0000206C
:104B9000F8000020A0000020FFE7FF48FD49006862
:104BA00001EBC001FD480068084410F8080C0090B3
:104BB000F948FB49006801EBC001F8480068085C4F
:104BC000FFF7CFFB08B1FC2009E0F349F148096881
:104BD00000EBC101F1480068084410F8010C01998C
:104BE000414506DA009A914203DA814201DA052052
:104BF0001DE0019A904506DA009A904503DA804557
:104C000001DA062013E00099414507DA0A460199C6
:104C10008A4203DA824201DA072008E0404516DAC8
:104C20000099884213DA0199884210DA0820DD4998
:104C30000860DD48006800EBD070B5EB600F00DC69
:104C40000127DFF8688398F80000E8BB89E0DFF807
:104C5000608398F800004E280BD1CF49D0480968EE
:104C600000EBC101CD480068085CFFF771FB00282C
:104C7000BDD098F8000045280BD1C749C84809683D
:104C800000EBC101C5480068085CFFF764FB002821
:104C9000B7D098F8000053280BD1BF48C04900682E
:104CA00001EBC001BD480068085CFFF757FB002816
:104CB000B2D098F8000057280DD1B749B848096814
:104CC00000EBC101B54800E04EE00068085CFFF76A
:104CD00048FB0028AAD0B049B148DFF8C082096873
:104CE00000EBC101D8F80000085CFFF731FB002899
:104CF000BED0A949AA48096800EBC101D8F8000054
:104D0000085CFFF728FB0028C2D0A349A448096823
:104D100000EBC101D8F80000085CFFF71FFB00287A
:104D2000C6D09D499E48096800EBC101D8F8000033
:104D3000085CFFF716FB0028CCD09A4804609D4819
:104D400004700020FDF722FE0020FDF735FE0A204A
:104D5000FDF796FE03B0BDEC028BBDE8F04FFFF708
:104D60000CBCFFF7F3FCC8B12846FFF78AF992485C
:104D7000B0EE481AD0ED000AFFF76AF98F48D0ED7F
:104D8000000AB4EEE00AF1EE10FA04D28C48016891
:104D90008C48016006E08B48046003E0884889493C
:104DA00000680860BBF1000F09D17F480068C11797
:104DB00000EB9170B5EBA00F06DC4FF0010B98F8FB
:104DC000000008B180480470002D49DCDFF8C8916C
:104DD000DFF8C8A1724FD9F80000DAF8001007EB2D
:104DE000C000761C405CFFF7BFFA68B9D9F8000034
:104DF000DAF8001007EBC000425C42F010024254A7
:104E000072480168491C016098F8000038B1704888
:104E100002687048016870480068FEF74DFF6148FD
:104E20000068052806D0062807D0072808D00828DB
:104E300009D00AE0FFF7F0F907E0FFF70EFA04E007
:104E4000FFF72CFA01E0FFF748FA644888F80040C1
:104E50004FF0000904706248CA464F46CB460470C2
:104E6000FFF788FA00283FF49EADDFF83CA1DFF899
:104E700074B1DFF84491DFF84481524F002D22DDF8
:104E8000DAF8000000EBD071B5EB610F01DA4E49A2
:104E90000C70DBF800107043451A2846FFF7F1F854
:104EA000B0EE481AD9ED000AFFF7D2F8D8ED000AA3
:104EB000B4EEE00AF1EE10FA03D24148006838601F
:104EC000DCE73C60DAE7344E344F354D3068396802
:104ED00005EBC000405CFFF747FA58B93068396805
:104EE00005EBC000425C42F01002425437490868AA
:104EF000401C08602F4804700020FDF747FD00208B
:104F0000FDF75AFDFFF739FB0320FDF7B9FD3648E1
:104F1000047003B0BDEC028BBDE8F08F2DE9F047C3
:104F20004FF040080027DFF86CA03D4600240AEB54
:104F3000C50600BF55EA04000BD016F804902946B8
:104F40002046FFF7CFFA401CC0B23055484500D08C
:104F50000127641C082CEDDB6D1C082DE6DB002FFF
:104F600002D0B8F10108DDD535E42DE9F04F1E4837
:104F700001212DED028B83B00170FFF737F8012579
:104F80000024DFF810802746A3462646A246204686
:104F900000222BE0F401002014000020100000206B
:104FA000B4010020200000208C0000201C00002004
:104FB00024000020290000200C01002058010020BE
:104FC00054000020140100202800002018000020B8
:104FD00040000020C0000020BC0000201D00002078
:104FE0001E0000208C010020990000201146C146BF
:104FF00008EBC00302EB000C03F801C0521C491C73
:105000000829F7DB401C0828C2DBFFF787FFFFF702
:1050100085F9FE480168FE489FEDFE8A0160ACE21A
:10502000FD48FE490068096805FB00F2541A1FBBE1
:1050300084422CDCFA4A0127FB4B1770F94ADFF84F
:10504000ECC317701A68DCF8001009EBC20818F8F6
:105050000180B8F1FC0F71D2DFF8D48398F800809A
:10506000B8F14E0F09D0B8F1450F08D0B8F1530F81
:1050700007D0B8F1570F07D009E0521C02E0491CD5
:1050800003E0521E1A6002E0491ECCF80010BBF18A
:10509000000F09D100EB4001CA1701EB9271B4EB8C
:1050A000A10F01DC4FF0010B002E74D100EBD0708A
:1050B000B4EB600F6FDCDF48DF4901260068096848
:1050C000884202DDDD4901200870DD480168DD48C5
:1050D0000068814202DDDC4901200870DB4801687C
:1050E000DB480068814208DDDA48DB49006809686E
:1050F000884202DDD94901200870FFF772FBDFF812
:105100002883CA48D8F800100068FFF7EBF9C749B0
:10511000D8F80020401C096809EBC2025054FFF780
:10512000FDFECF48D8F8001000EBC101BF48006871
:10513000085CFFF70DF910B1FC2008E061E1BB4805
:10514000D8F80010006809EBC1010844007AB6499C
:105150000190C348096800EBC101B4480068085CCD
:10516000FFF7F9F808B1FC2007E0AF49AF4809683C
:10517000006809EBC10108444078AB498046B84853
:10518000096800EBC101A9480068085CFFF7E6F870
:1051900010B1FC2009E0D5E0A349A44809680068E3
:1051A00009EBC101084410F8080C9F490090AC4875
:1051B000096800EBC1019D480068085CFFF7D1F861
:1051C00008B1FC2008E0984998480968006809EB94
:1051D000C101084410F8010C0199414506DA009A12
:1051E000914203DA814201DA05211BE0884506DAA3
:1051F000009A904503DA804501DA062112E0009911
:10520000414506DA019A914203DA814201DA072127
:1052100008E0404509DA0099884206DA0199884297
:1052200003DA08218F4801608CE07F48DFF8308284
:10523000006808EBC0017D480068085CFFF788F84B
:1052400050B9794979480968006808EBC1010844F8
:10525000007AFFF789F850B173497448096800680B
:1052600008EBC101085CFFF776F810B10DE00520EE
:1052700066E06D496D480968006808EBC1010844A3
:105280004078FFF771F80028B7D067496748096888
:10529000006808EBC101085CFFF760F858B9624983
:1052A00062480968006808EBC101084410F8080C5E
:1052B000FFF75AF868B1DFF870816948D8F8001034
:1052C00000EBC10159480068085CFFF74AF810B1CB
:1052D0000EE0072034E06248D8F8001000EBC1016E
:1052E00052480068084410F8010CFFF73DF820B15F
:1052F0004F4800784E2802D00DE0082020E05848A2
:10530000D8F8001000EBC10148480068085CFFF7BE
:105310001FF80028ABD04648007845280AD15048ED
:10532000D8F8001000EBC10140480068085CFFF7A6
:1053300012F820B13E480078532811D01CE0062016
:10534000484908603448006800EBD070B4EB600F47
:1053500000DC0126DFF8048198F80000E8BB93E048
:105360003F48D8F8001000EBC10130480068085CE5
:10537000FEF7F4FF0028ACD02D48007857280BD159
:105380003748D8F8001000EBC10128480068085CD5
:10539000FEF7E7FF0028B0D023493148096800EB49
:1053A000C10122480068085CFEF7D2FF0028B1D096
:1053B0001D491E48DFF8A8800968006808EBC10194
:1053C000085CFEF7C8FF0028B9D017494046DFF84F
:1053D0005C80096800EBC10100E058E0D8F80000EB
:1053E000085CFEF7BBFF0028C5D00F491C480968C0
:1053F00000EBC101D8F80000085CFEF7B2FF0028FE
:10540000C9D018490020086006492DE0540000204A
:1054100014010020000000008C0000208C010020FE
:105420002800002029000020140000201000002087
:1054300024000020FC000020A40000201D0000200B
:1054400000010020A80000201E000020F400002021
:105450009C000020F8000020A00000201C0000207C
:10546000B4010020200000200870FDF78FFA002012
:10547000FDF7A2FA0A20FDF703FB03B0BDEC028B97
:10548000BDE8F04FFFF779B8FFF760F9C0B12046EB
:10549000FEF7F7FDF748B0EE481AD0ED000AFEF728
:1054A000D7FDF548D0ED000AB4EEE00AF1EE10FAAF
:1054B00002D2F248016800E00021F148016003E0F7
:1054C000EE48EF4900680860BAF1000F09D1ED48D5
:1054D0000068C11700EB9170B4EBA00F07DC4FF030
:1054E000010A98F8000010B1E74800210170002C73
:1054F00043DCE74FDFF894A3E64E39686D1C0AEBF6
:10550000C1003168405CFEF72FFF58B939680AEBDB
:10551000C1003168425C42F010024254DE4801682A
:10552000491C016098F8000038B1DC480268DC488A
:105530000168DC480068FEF7BFFBDB48006805280F
:1055400006D0062807D0072808D0082809D00AE086
:10555000FEF762FE07E0FEF780FE04E0FEF79EFE27
:1055600001E0FEF7BAFE0027D04988F80070BB467C
:105570000F70CF493E46BA460F70FEF7A9FF0028CC
:105580003FF44EADDFF8FC92DFF828A3DFF8E482A9
:10559000DFF8E4B2BA4F0026002C23DDD9F8000072
:1055A00000EBD071B4EB610F01DAB7490E7005FB67
:1055B00000F1DAF800000C1A2046FEF762FDB0EEAA
:1055C000481AD8ED000AFEF743FDDBED000AB4EE01
:1055D000E00AF1EE10FA03D2A84800683860DBE771
:1055E0003E60D9E7AA4DAB4FA84C2868396804EB58
:1055F000C000405CFEF7B8FE58B92868396804EB73
:10560000C000425C42F010024254A3480168491CA9
:105610000160FEF783FEA84806700020FDF7B6F98A
:105620000020FDF7C9F9FFF7ADF8FEF7A6FF03204C
:10563000FDF726FAA14806706BE42DE9F04F9F496B
:1056400001202DED028B83B00870FEF7CFFC002502
:1056500090480095DFF838B2056099484E21CBF8A4
:105660000050017089480126A846A9462F46AA463F
:105670002C460078FEF778FE70B98449DBF800000C
:1056800001EBC00083490968425C42F010024254B9
:1056900081480168491C01607848794900681FED1C
:1056A000A38A0860BAE2009800287648006809D00A
:1056B000804A06FB00F100EBD0701268891AA1EB5A
:1056C000600503E07B4970430968451AB8F1000F93
:1056D0002DD16C480068854229DC6B494FF00108E8
:1056E000784881F800807449DFF8A8C181F800800B
:1056F000DBF8001000EBC102DCF80000125CFC2AB1
:105700006FD26F4A12784E2A06D0452A06D0532A05
:1057100006D0572A08D00AE0491C02E0401C04E0E9
:10572000491ECBF8001002E0401ECCF80000B9F191
:10573000000F0BD15348006800EB4000C11700EB8D
:105740009170B5EBA00F01DC4FF00109002F77D16C
:105750004C48006800EBD070B5EB600F70DC5A4825
:105760005A49012700680968884202DD4F48012133
:1057700001705748574900680968884202DD4C4863
:10578000012101705448554900680968884208DDC4
:105790005348016853480068814202DD52490120A4
:1057A0000870FFF71EF83B48DBF800100068FEF7B2
:1057B00099FE411C4348DBF8002000EBC20235484B
:1057C00000681154FEF7DEFF3049DBF8000001EB02
:1057D000C00130480068085CFEF7BAFD10B1FC203B
:1057E00009E03AE13748DBF8001000EBC101294835
:1057F00000680844007A02902448DBF8001000EBAF
:10580000C10124480068085CFEF7A5FD08B1FC2032
:1058100008E02C48DBF8001000EBC1011D480068CF
:105820000844407801901948DBF8001000EBC101F2
:1058300018480068085CFEF791FD10B1FC200AE0F2
:1058400069E12048DBF8001000EBC1011148006855
:10585000084410F8080C00900C48DBF8001000EB2E
:10586000C1010C480068085CFEF77BFD08B1FC2014
:1058700046E03BE00C0100205801002054000020CD
:10588000140100208C00002028000020B40100201A
:10589000140000201000002018000020400000200C
:1058A000C0000020BC000020200000201D000020BF
:1058B0001E0000208C0100202900002099000020FB
:1058C00024000020F4010020FC000020A40000209F
:1058D00000010020A8000020F40000209C0000200F
:1058E000F8000020A00000201C000020F948DBF890
:1058F000001000EBC101F8480068084410F8010CE2
:10590000DDE901128A4207DA1146009A914203DA70
:10591000814201DA052020E0DDE901218A4207DA2F
:105920001146009A914203DA814201DA062014E01E
:10593000DDE90012914206DA029A914203DA8142CD
:1059400001DA072009E00199884216DA00998842B5
:1059500013DA0299884210DA0820E0490860E04929
:1059600001200870DD48006805287CD006287BD01F
:1059700007287AD0082879D0C9E0DA4800784E287C
:105980000BD1D949DBF8000001EBC001D248006817
:10599000085CFEF7DDFC0028BCD0D2480078452822
:1059A0000BD1D149DBF8000001EBC001CA48006807
:1059B000085CFEF7D0FC0028B8D0CA48007853280D
:1059C0000BD1C949DBF8000001EBC001C2480068F7
:1059D000085CFEF7C3FC0028B3D0C2480078572803
:1059E0000BD1C148DBF8001000EBC101BA480068D8
:1059F000085CFEF7B6FC0028AED0BB49DBF800001F
:105A000001EBC001B4480068085CFEF7A1FC002867
:105A100080D0B548DBF8001000EBC101AE4800684B
:105A2000085CFEF798FC002880D0AF48DBF8001037
:105A300000EBC101A8480068085CFEF78FFC002855
:105A4000CAD0A948DBF8001000EBC101A2480068E9
:105A5000085CFEF786FC0028CED0A0480460A3486E
:105A60000470002003E011E01FE02DE03BE0FCF7B4
:105A70008DFF0020FCF7A0FF0A20FDF701F803B01E
:105A8000BDEC028BBDE8F04FFEF777BD954800787E
:105A90004E283CD053283AD0954804604FF47A7091
:105AA000FCF74BFCFEF7B8FB2BE08E48007845284E
:105AB0002DD057282BD08E4804604FF47A70FCF715
:105AC0003CFCFEF7CAFB1CE08648007853281ED039
:105AD0004E281CD0864804604FF47A70FCF72DFCE9
