:020000040800F2
:10000000781900206D500008092100080B21000814
:100010000D2100080F210008112100080000000038
:100020000000000000000000000000001321000894
:100030001521000800000000172100081921000800
:100040008750000887500008875000088750000834
:100050008750000887500008875000088750000824
:100060008750000887500008875000088750000814
:100070008750000887500008875000088750000804
:1000800087500008875000088750000887500008F4
:100090008750000887500008875000083721000863
:1000A00087500008875000088750000887500008D4
:1000B00087500008875000088750000887500008C4
:1000C00087500008875000088750000887500008B4
:1000D00087500008875000088750000887500008A4
:1000E00093210008875000088750000887500008B7
:1000F0008750000887500008875000088750000884
:100100008750000887500008875000088750000873
:100110008750000887500008875000088750000863
:100120008750000887500008875000088750000853
:100130008750000887500008875000088750000843
:100140008750000887500008875000088750000833
:100150008750000887500008875000088750000823
:100160008750000887500008875000088750000813
:100170008750000887500008875000088750000803
:10018000875000088750000800F002F800F070F86F
:100190000AA090E8000C82448344AAF10107DA45E2
:1001A00001D100F065F8AFF2090EBAE80F0013F0C4
:1001B000010F18BFFB1A43F00103184798630000B2
:1001C000B86300000A444FF0000C10F8013B13F034
:1001D000070408BF10F8014B1D1108BF10F8015BA0
:1001E000641E05D010F8016B641E01F8016BF9D193
:1001F00013F0080F1EBF10F8014BAD1C0C1B09D1EA
:100200006D1E58BF01F801CBFAD505E014F8016B5B
:1002100001F8016B6D1EF9D59142D6D370470000ED
:100220000023002400250026103A28BF78C1FBD8FF
:10023000520728BF30C148BF0B607047642905F0E2
:100240008780632905F03E83732905F043830020EE
:1002500070471FB506F041F905F0DEFD04000020EF
:10026000002105F0E5FD401C60601FBD10B510BD0C
:1002700005F0B6FB1146FFF7ECFF01F041FC05F07D
:10028000B9FD03B4FFF7F2FF03BC02F079F90000F7
:100290002749084327490860704770B50F21C47883
:1002A000027801234FF0E026E4B1224C246804F4E4
:1002B000E064C4F5E064C4F30724C4F10405E1403C
:1002C0004478AC4085780D4025431B4C29011155DD
:1002D000007800F01F018B40400906EB8000C0F859
:1002E000003170BD02F01F008340500906EB800012
:1002F000C0F8803170BD114A114001430D48001F04
:10030000016070470B4A121D0029116801D001439A
:1003100000E08143116070474FF0E0210428086934
:1003200003D020F004000861704740F00400FAE7B1
:100330000000FA050CED00E000E400E080FFFF1F84
:1003400010B501210C02204600F093FC2046BDE8C8
:100350001040002100F08DBC30B54268C44B0C79D0
:100360001A400B6842EA0422134343608268C14B7F
:100370004D791A40D1E9034323438C6844EA45048C
:10038000234313438360C26A097D22F47002491E2D
:10039000C9B242EA0151C16230BD00210160017160
:1003A00041718160C1600161012101757047B24BEB
:1003B00010B51A68B1490A40D0E900142143D0E9C8
:1003C0000240044321431143196010BD0021016024
:1003D00041608160C16070470029816802D041F0AE
:1003E000010101E021F00101816070474268A44BE6
:1003F0001A400A4342607047416282627047426815
:1004000022F01F020A43426070479E490028D1F83B
:10041000040302D040F4000001E020F40000C1F821
:100420000403704797490028D1F8040302D040F430
:10043000800001E020F48000C1F80403704770B52B
:10044000072509290AD9C468A1F10A0606EB460660
:10045000B540AC43B3401C43C46007E0046901EB02
:100460004106B540AC43B3401C4304611F23072A37
:1004700009D2446B521E02EB820293409C4391408E
:100480000C43446370BD0D2A09D2046BD21F02EBEA
:10049000820293409C4391400C43046370BDC46A44
:1004A0000D3A02EB820293409C4391400C43C4629C
:1004B00070BD816841F08041816070470146002035
:1004C0008968490200D5012070470029816802D05F
:1004D00041F4806101E021F480618160704700296E
:1004E000816802D041F0020101E021F00201816047
:1004F00070474268491E22F4604242EA413141603D
:1005000070470029416802D041F4006101E021F404
:10051000006141607047C06C80B270475648001D52
:10052000006870470029816802D041F4807101E0C1
:1005300021F48071816070470029816802D041F404
:10054000007101E021F40071816070474D4900287D
:10055000D1F8040302D040F4005001E020F4005030
:10056000C1F80403704770B5072409290AD9C56882
:10057000A1F10A0606EB4606B440A543B3401D436D
:10058000C56007E0056901EB4106B440A543B340EF
:100590001D430561836BC3F30154121B921C02EBD4
:1005A00082041F22A2409343A1400B43836370BD8A
:1005B000826B491E22F4401242EA01518163704766
:1005C00042507047826822F470220A43826070476A
:1005D000826822F440120A4382607047816841F4C5
:1005E000800181607047014600208968490200D57A
:1005F000012070470029416802D041F4806101E088
:1006000021F48061416070470029416802D041F4C3
:10061000805101E021F48051416070470844806AB4
:1006200080B2704701238B4041680AB1194300E052
:100630009943416070470246002012680A4200D088
:1006400001207047C9430160704730B50246002061
:1006500054680B0A01258D4011682C40194202D0C4
:10066000002C00D0012030BD6FEA112101607047DD
:10067000FFFEFFFCFDF7FFC004230140E030FCFF5C
:10068000FFFD3FFF00200140374900200860091DA1
:100690000860091D0860091D08603349334814319A
:1006A0000860704730B530498379026853B30B68EE
:1006B00093430B600A1D13680468A3431360027917
:1006C0000A441368046823431360274A08321368F6
:1006D0000468A3431360131D1C680568AC431C60C9
:1006E0004479102C05D021440A68006802430A604E
:1006F00030BD116804682143116019680068014326
:10070000196030BD0079084401689143016030BD33
:100710000021016001710C22427181717047124900
:1007200010310A6802430A60704701460E4A0020F1
:10073000143212680A4200D0012070470A4914316D
:1007400008607047084A014600201268064B0A40BC
:1007500014331B680B4202D0002A00D001207047DE
:100760000149143108607047003C0140FFFF7F00E1
:100770007A4910B5884206D10121084600F051FAA5
:10078000002101204FE07649884206D10121022054
:1007900000F047FA0021022045E07249884206D164
:1007A0000121042000F03DFA002104203BE06E49C5
:1007B000884206D10121082000F033FA00210820E8
:1007C00031E06A49884206D10121102000F029FA5F
:1007D0000021102027E06649884206D1012120200F
:1007E00000F01FFA002120201DE06249884206D156
:1007F0000121402000F015FA0021402013E05E495D
:10080000884206D10121802000F00BFA00218020CF
:1008100009E05A4988420AD184150121204600F096
:1008200000FA00212046BDE8104000F0FAB910BDE2
:10083000F0B50023012403270D6804FA03F21540E4
:10084000954242D1D0F800C05E0007FA06F52CEAC6
:10085000050CC0F800C091F804C0D0F800E00CFA14
:1008600006FC4CEA0E0CC0F800C091F804C0BCF1C4
:10087000010F02D0BCF1020F1FD1D0F808C02CEA42
:10088000050CC0F808C091F805C0D0F808E00CFAD3
:1008900006FC4CEA0E0CC0F808C0D0F804C02CEAE4
:1008A000020CC0F804C0426891F806C00CFA03FCC0
:1008B0001FFA8CFC42EA0C024260C268AA43C26082
:1008C000CA79C568B2402A43C2605B1C102BB3D3FF
:1008D000F0BD4FF6FF71016000210171417181711E
:1008E000C171704741F48032C261C161C261C169A6
:1008F000C06970470246002012690A4200D00120F8
:100900007047006980B270470246002052690A426F
:1009100000D001207047406980B270470183704762
:10092000418370470AB10183704741837047416139
:10093000704742694A40426170474B07DB0E9A405C
:10094000C90810B500EB8100016A0F249C40A14347
:100950000162016A1143016210BD00000000024003
:100960000004024000080240000C02400010024057
:100970000014024000180240001C02400020024007
:10098000E948016841F001010160E74A00210832AD
:1009900011600268E54B1A400260031DE44A1A60C8
:1009A000026822F480220260DF480C300160704748
:1009B000DD490022891C0A70087070470246002039
:1009C000510901290CD002290CD0D749743109688A
:1009D00002F01F02012393400B4200D00120704718
:1009E000D149F4E7D0497031F1E730B500244FF434
:1009F000A0653120FFF7E2FF641CAC4201D0002863
:100A0000F7D03120FFF7DAFF002800D0012030BDF9
:100A1000C5490A6822F0F80242EAC000086070473F
:100A2000C44908607047C049002270310A700A70DA
:100A3000012802D0042801D1052008707047BE4962
:100A40000860704741EA82115A0810B5BB4B029CFE
:100A500003EB02421143014341EA0460B249091D1C
:100A6000086010BDB34908667047800140EA017014
:100A7000AD49843108607047AE4988667047AD491A
:100A8000C8647047A84A08321368084323F0EC632F
:100A9000184310607047A44A08321368084323F0D3
:100AA00078431843106070479F4A0832116821F05C
:100AB00003010143116070479B480830006800F053
:100AC0000C007047984A0832116821F0F001014388
:100AD00011607047944A0832116821F4E0510143D3
:100AE00011607047904908310A6822F4604242EA76
:100AF000C0000860704770B58B4A08321168904B8F
:100B000011F00C0104D05D10042903D0082903D092
:100B100003601BE0056019E08349091D0C68C4F3FC
:100B200080560C6804F03F0416B1B5FBF4F301E005
:100B3000B3FBF4F30C680968C4F388146343C1F38E
:100B40000141491C4900B3FBF1F1016011687D4B83
:100B500001F0F00109095C5C0168E1404160146842
:100B600004F4E054A40A1C5D21FA04F484601268C1
:100B700002F46042520B9A5CD140C16070BDC0F378
:100B80000121032908D1684A0832116821F4F813B9
:100B90006D49014019431160634970310A68C0F31F
:100BA0000B0002430A60704763494439086070478C
:100BB00061494039086070476449086070475A4A83
:100BC00030320029116801D0014300E081431160F7
:100BD0007047554A34320029116801D0014300E0C2
:100BE000814311607047504A38320029116801D0A2
:100BF000014300E08143116070474B4A40320029B5
:100C0000116801D0014300E0814311607047464AFA
:100C100044320029116801D0014300E08143116092
:100C20007047414A10320029116801D0014300E0A9
:100C30008143116070473C4A14320029116801D089
:100C4000014300E0814311607047374A18320029A0
:100C5000116801D0014300E0814311607047324ABE
:100C600020320029116801D0014300E08143116066
:100C700070472D4A24320029116801D0014300E059
:100C8000814311607047284A50320029116801D011
:100C9000014300E0814311607047234A5432002928
:100CA000116801D0014300E08143116070471E4A82
:100CB00058320029116801D0014300E081431160DE
:100CC0007047194A60320029116801D0014300E0E1
:100CD000814311607047144A64320029116801D0C1
:100CE000014300E08143116070470F4A0D32002933
:100CF000117801D0014300E08143117070470A4828
:100D00007430016841F08071016070470146064A05
:100D100000200C3212680A4200D0012070470249BC
:100D20000E3108707047000000380240FFFFF6FEE9
:100D30001030002400004742800E47420000FFFFB1
:100D40000024F40000000020FFFCFF0F5C0147427C
:100D500010B501218C032046FFF78BFF2046BDE82C
:100D600010400021FFF785BF11490860704710B59A
:100D70008A07130F21F003040F220D499A4008310E
:100D800021440C6894430C600A68984002430A604E
:100D900010BD08490860704707490860704704495A
:100DA000002020310968C90500D5012070470000E6
:100DB00000380140DC00274200042742FE4910B5FC
:100DC000884206D101210846FFF753FF0021012088
:100DD0005BE0B0F1804F09D0F84988420DD1012184
:100DE0000220FFF73CFF0021022070E001210846AD
:100DF000FFF735FF0021012069E0F149884206D163
:100E000001210420FFF72BFF002104205FE0ED49C2
:100E1000884206D101210820FFF721FF0021082088
:100E200055E0E949884206D101211020FFF717FF5C
:100E3000002110204BE0E549884206D10121202005
:100E4000FFF70DFF0021202041E0E149884206D153
:100E500001210220FFF70DFF0021022015E0DD49EE
:100E6000884202D101210C040AE0DB49884202D108
:100E700001214C0404E0D94988420AD101218C04A3
:100E80002046FFF7F6FE00212046BDE81040FFF7A0
:100E9000F0BED349884206D101214020FFF7DFFE92
:100EA0000021402013E0CF49884206D10121802053
:100EB000FFF7D5FE0021802009E0CB4988420AD106
:100EC000841501212046FFF7CAFE00212046BDE817
:100ED0001040FFF7C4BE10BD30B50288B64BBC4C05
:100EE00098420DD0A0420BD0B0F1804F08D0B34D46
:100EF000A84205D0B24DA84202D0B24DA84203D1BB
:100F000022F070054A882A43AF4DA84206D0AF4D63
:100F1000A84203D022F440750A892A4302804A6815
:100F2000C2620A880285984201D0A04201D1897A22
:100F300001860121818230BD4FF0FF3141600021E7
:100F400001800181418081727047018582827047F2
:100F5000028822F070020A430280704741627047A3
:100F6000C1627047406A7047008D70470029018850
:100F700002D041F0020101E021F00201018070473E
:100F80000029018802D041F0040101E021F00401B0
:100F9000018070470029018802D041F0800101E002
:100FA00021F0800101807047028822F0080202804F
:100FB00002880A4302807047028822F4407202804D
:100FC00002880A43028070470029018802D041F05C
:100FD000010101E021F001010180704730B5028C70
:100FE00022F001020284028C8388048B22F0020228
:100FF00024F073050C882C438D8915434A882A43B5
:101000006D4DA84202D0724DA8420DD122F00805C4
:10101000CA8923F440732A4322F004058A882A43AC
:101020000D8A1D434B8A2B43838004838968416367
:10103000028430BD70B5028C22F010020284028C52
:101040008488038B0D8823F4E6464FF6FF7303EA8A
:10105000052535438E8922F0200203EA0616164341
:101060004A8803EA02123243534EB04202D0584E2D
:10107000B04215D122F08006CA8924F4406403EA04
:101080000212324322F040068A8803EA02123243F7
:101090000E8A03EA860626434C8A03EA8404344314
:1010A0008480058389688163028470BD70B5028C79
:1010B00022F480720284028C8488838B0D8823F052
:1010C00073031D4322F400738E894FF6FF7202EA08
:1010D00006261E434B8802EA03233343364EB042B2
:1010E00002D03B4EB04215D123F40066CB8924F4E4
:1010F000405402EA0323334323F480668B8802EAD8
:10110000032333430E8A02EA061626434C8A02EA78
:1011100004143443848085838968C163038470BD6B
:1011200070B5028C22F480520284048C8288838BF6
:101130000D8823F4E6464FF6FF7303EA0525354391
:1011400024F400568C8903EA043434434E8803EABD
:1011500006362643184CA04202D01D4CA04205D1B1
:1011600022F480440A8A03EA821222438280858321
:1011700089680164068470BD0021018041808180FE
:1011800081608181C18101824182704730B5012433
:10119000058C00F118038C40A543058431B3082960
:1011A0002CD0091FC1F34E001844016848F6FF73A4
:1011B0001940016001681AE000000140000400408D
:1011C00000080040000C00400010004000140040E7
:1011D000000401400040014000440140004801403B
:1011E00000180040001C00400020004006E04FF6C0
:1011F000FF7303EA02221143016030BD03EB51008B
:1012000001684FF68F73194001600168F3E741638D
:10121000704781637047C163704701647047028BF8
:1012200022F070020A4302837047028B4FF6FF736D
:1012300022F4E04203EA0121114301837047828BCB
:1012400022F070020A4382837047828B4FF6FF734D
:1012500022F4E04203EA0121114381837047028BAB
:1012600022F008020A4302837047028B4FF6FF7395
:1012700022F4006203EA0121114301837047828B4B
:1012800022F008020A4382837047828B4FF6FF7375
:1012900022F4006203EA0121114381837047028B2B
:1012A00022F004020A4302837047028B4FF6FF7359
:1012B00022F4806203EA0121114301837047828B8B
:1012C00022F004020A4382837047828B4FF6FF7339
:1012D00022F4806203EA0121114381837047028B6B
:1012E00022F080020A4302837047028B4FF6FF739D
:1012F000C2F30E0203EA0121114301837047828B7E
:1013000022F080020A4382837047828B4FF6FF737C
:10131000C2F30E0203EA0121114381837047028C5C
:1013200022F002020A4302847047028C22F0080273
:101330000A4302847047028C4FF6FF7322F02002AA
:1013400003EA0111114301847047028C4FF6FF73C9
:1013500022F0800203EA0111114301847047028CDC
:101360004FF6FF7322F4007203EA01211143018456
:101370007047028C4FF6FF7322F4006203EA0121EA
:10138000114301847047028C4FF6FF7322F4005220
:1013900003EA013111430184704710B50123048C25
:1013A0008B409C430484038C8A401343038410BD08
:1013B00010B50423048C8B409C430484038C8A4026
:1013C0001343038410BD828B22F440628283828B9C
:1013D0004FF6FF7303EA01210A4382837047828B31
:1013E00022F00C028283828B0A4382837047028B35
:1013F00022F440620283028B4FF6FF7303EA01215D
:101400000A4302837047F0B5048C24F0100404846E
:10141000078B068C4FF6FF7404EA011527F4734717
:1014200004EA0331394304EA02220A4326F0A00108
:10143000294341F0100102830184F0BD028B22F0A8
:101440000C020283028B0A43028370472DE9F041AC
:101450000D460E884988AA882B8904460EB3042EAF
:1014600026D0082E268C4FF6FF7028D026F4805602
:101470002684A78B268C00EA022200EA013127F499
:1014800073473A4300EA0330104326F420420A43EC
:1014900042F48051A0832184E9882046BDE8F041D0
:1014A00091E700F061F9E9882046BDE8F041C5E721
:1014B000FFF7A9FFE9882046BDE8F04197E726F449
:1014C00080762684A78B268C00EA012100EA03108F
:1014D000104327F0F307384326F420620A4342F40E
:1014E0008071A0832184E9882046BDE8F04176E739
:1014F00000210180418001228280C18001817047EA
:101500002DE9F0410C46002549880746012601B91E
:101510000225A288012A00D10226208823890028DA
:10152000384610D0FFF76FFFE1883846FFF75FFFBE
:10153000238932462946384600F016F9E1883846B4
:10154000BDE8F0417AE700F00FF9E1883846FFF78F
:1015500075FF2389324629463846FFF754FFE18854
:101560003846BDE8F04142E7406B7047806B7047FA
:10157000C06B7047006C704710B50A884B88CC88E8
:101580001A438B8823431A430B891A434B89898951
:101590001A430A43A0F8442010BD00210180418075
:1015A0008180C1800181418181817047002930F8AB
:1015B000441F02D041F4004101E0C1F30E0101805B
:1015C00070470029818802D041F0040101E021F038
:1015D0000401818070470029818802D041F0010117
:1015E00001E021F0010181807047002A828901D049
:1015F0000A4300E08A438281704781827047024635
:101600000020128A0A4200D001207047C94301829B
:10161000704702460020138A92890B4202EA0102B7
:1016200002D0002A00D001207047C94301827047D0
:101630001143A0F848107047002A828901D00A435C
:1016400000E08A43828170470029818802D041F0FE
:10165000080101E021F0080181807047018921F033
:10166000070101817047028922F070020A4302815A
:10167000704700B50346FFF7F6FF188940F00700F2
:10168000188100BD70B50D4611460446602D4FF01F
:1016900001020AD000F068F829462046FFF7E3FF70
:1016A000208940F00700208170BDFFF7ACFEF3E712
:1016B00030B504894FF6FF7505EA03231343E4B2FE
:1016C0000B432343038130BD10B50446FFF7F0FF01
:1016D000208940F07700208110BD10B50446FFF747
:1016E000E7FF208940F48040208110BD828822F0ED
:1016F0007002828082880A4382807047028922F0C9
:101700000702028102890A4302817047028922F09E
:101710008002028102890A430281704770B50589FF
:10172000048B068C25F007050D434FF6FC410C4059
:1017300040F201110C434FF6FF7101EA031126F04C
:1017400022061143314305810483018470BD0029C1
:10175000818802D041F0800101E021F08001818088
:101760007047A0F85010704770B5048C24F0010445
:101770000484058B048C4FF6FF7606EA03131343AB
:1017800025F0F3052B4324F00A020A4342F001013D
:101790000383018470BD0000CA4910B5884206D198
:1017A00001211020FFF765FA0021102028E0C6492A
:1017B000884202D101214C0410E0C449884202D180
:1017C00001218C040AE0C249884202D10121CC04E3
:1017D00004E0C04988420AD101210C052046FFF7E8
:1017E0003EFA2046BDE810400021FFF738BABA495A
:1017F000884209D101212020FFF73BFA0021202057
:10180000BDE81040FFF735BA10BD7FB50446008A29
:101810000D4620F44051E88808432082A08941F217
:101820000C618843A9882A8911436A8902431143BC
:10183000A181A08A20F44071A8890843A08268464B
:10184000FFF759F99F48844202D0A348844201D14E
:10185000039800E00298A1890904002900EBC00167
:1018600001EB0010296802DA4FEA410101E04FEA7A
:101870008101B0FBF1F26420B2FBF0F14FEA0111FB
:101880004FEA11136FF018056B4302EB8302A38933
:101890001D044FF0320306D503EBC202B2FBF0F099
:1018A00000F0070005E003EB0212B2FBF0F000F0DD
:1018B0000F00084320817FBD4FF4165101600021C5
:1018C0008180C18001810C2242818181704710B5E5
:1018D000028A4C8822F470630A8822438C88C98863
:1018E0000C4322431A43028210BD00210180418033
:1018F0008180C18070470029818902D041F4005164
:1019000001E021F4005181817047028B02F47F4293
:101910000283028B0A43028370470029818902D027
:1019200041F4004101E0C1F30E01818170470029BB
:10193000818A02D041F4006101E021F400618182DA
:101940007047C1F30801818070478088C0F30800A8
:101950007047028A22F00F020282028A0A43028240
:1019600070470029818902D041F0020101E021F095
:10197000020181817047828922F40062828182891A
:101980000A4382817047028A22F020020282028A80
:101990000A43028270470029018A02D041F4804143
:1019A00001E021F4804101827047818941F0010109
:1019B000818170470029818A02D041F0080101E04D
:1019C00021F0080181827047028BD2B20283028B20
:1019D00042EA0121018370470029818A02D041F047
:1019E000200101E021F02001818270470029818AD5
:1019F00002D041F0100101E021F010018182704716
:101A0000828A22F004028282828A0A43828270479A
:101A10000029818A02D041F0020101E021F0020197
:101A200081827047002A828A01D00A4300E08A43FB
:101A30008282704710B5C1F3421301F01F040121E7
:101A4000A140012B07D0022B07D01430002A0268D6
:101A500005D00A4304E00C30F8E71030F6E78A437B
:101A6000026010BD0246002012880A4200D0012008
:101A70007047C9430180704730B501F01F0201244F
:101A80000025C1F3421304FA02F2012B0FD0022BFE
:101A90000FD0838A4FEA11210088134204FA01F41F
:101AA00000EA040001D000B10125284630BD838939
:101AB000F0E7038AEEE70A0A01219140C943018059
:101AC0007047000000100140004400400048004002
:101AD000004C0040005000400014014010B501F0DF
:101AE00072F901F035F9FE4C207808B101F092F856
:101AF0006078002803D0BDE8104001F075BF10BD2C
:101B000000F080FB00F0F2FB00F040FC4FF41650B8
:101B100000F0E6FC00F0D6FE00F092FF00F00CFFB3
:101B200000F0FEFF0421EF48FEF7FAFEEE4D4FF401
:101B300080512846FEF7F4FEE9142846FEF7F0FE31
:101B400029152846FEF7ECFE04212846FEF7E8FE9C
:101B500008212846FEF7E4FEE44E20213046FEF739
:101B6000DFFE10213046FEF7DBFE4FF47A7000F006
:101B700086FB4FF47A61C82000F045FFD84C012065
:101B8000C821A0704FF44870A0604620E060642037
:101B9000C4E90601502121623C21616220613220AA
:101BA000606114216FF04E00C4E90A1051202063D7
:101BB0006FF0AE006063AF20C4F8380000F094FF0F
:101BC0004FEAE07100EB51504FEAE0204FEAE0713C
:101BD00000EB917121F00301401A606001D5404291
:101BE0006060B0B101281DD0022828D00328E5D1BB
:101BF00004212846FEF794FE08212846FEF790FEB1
:101C000020213046FEF78CFE10213046FEF786FE7E
:101C1000D4E704212846FEF781FE08212846FEF776
:101C20007FFE07E004212846FEF77AFE08212846B9
:101C3000FEF774FE20213046FEF772FE0BE0042111
:101C40002846FEF76DFE08212846FEF769FE202192
:101C50003046FEF763FE10213046FEF761FEADE729
:101C60002DE9F0474FF4FA71C82000F0CCFEA0A097
:101C700003F010FB4FF47A7000F001FB02F07CF9E6
:101C800002F0DFF8642000F0FAFA95480024C82139
:101C9000D0F804806423502532229A4E9FED9A0A90
:101CA0009A4FDFF86CC24FF07809B8F1000F0DD0F1
:101CB0004FF08C0ADFED970AB8F1010F15D0B8F19B
:101CC000020F23D0B8F1030F41D12EE0846200F15E
:101CD0001C08C3608161A8E82202C0E904323260B6
:101CE00087ED000A8CED000A0DE0846200F11C080B
:101CF000C3608161A8E82204C0E904323260C7ED04
:101D0000000ACCED000A02F0A2FA20E0846200F1A1
:101D10001C08C3608161A8E82202C0E90432326075
:101D200087ED000A8CED000A0DE0846200F11C08CA
:101D3000C3608161A8E82204C0E904323260C7EDC3
:101D4000000ACCED000A02F082FA02F0D0FDBDE8F4
:101D5000F04771A003F09EBA2DE9F05F4FF4FA7BD3
:101D60005946C82000F04FFE71A003F093FA4FF4DB
:101D70007A7000F084FA5A48002250248C253221CF
:101D8000604F4FF0640C4FF4487328269FED610AB2
:101D9000D0F80480DFF87491DFF874A1B8F1000F77
:101DA00009D0B8F1010F0BD0B8F1020F22D0B8F171
:101DB000030F16D123E0C0F80CC04FF0C80C03E0AD
:101DC000C0F80CC04FF4C87C0161C0E9051C00BF1D
:101DD000C0E90952C0E907343E6089ED000A8AED86
:101DE000000A01F09AFA02F082FDBDE8F05F55A00A
:101DF00003F050BAC0E903C1C0E9051BE8E7C0F829
:101E00000CC04FF4167CDFE72DE9F0474FF4FA7170
:101E1000C82000F0F8FD51A003F03CFA4FF47A70AE
:101E200000F02DFA2E4800225023D0F804808C2494
:101E300032212825334E9FED370A344FDFF8D090FA
:101E40004FF0640C4FF4487AB8F1000F09D0B8F1A4
:101E5000010F12D0B8F1020F0FD0B8F1030F15D156
:101E60001DE0C0F80CC04FF42F7C0161C0E9051CD7
:101E7000C0E90942C0E907A303E0C0F80CC0D4469A
:101E800011E0356087ED000A89ED000A01F045FA9E
:101E900002F02DFDBDE8F04735A003F0FBB9C0F816
:101EA0000CC04FF4966C0161C0E9051CC0E9094201
:101EB000C0E907C3E5E7F0B5334C89B00422072138
:101EC000204600F089FE074604220921204600F042
:101ED00083FE064604220821204600F07DFE55E0E0
:101EE00034000020000C02400008024000000240C4
:101EF000427574746F6E2030207072657373656400
:101F00000A0D00006C01002000004842280100205A
:101F10002C0100200000704246696E697368656498
:101F200020427574746F6E2030204953520A0D00A0
:101F3000427574746F6E20312070726573736564BE
:101F40000A0D000046696E69736865642042757405
:101F5000746F6E2031204953520A0D00427574741B
:101F60006F6E203220707265737365640A0D000015
:101F700046696E697368656420427574746F6E207B
:101F800032204953520A0D0000200140054600F05E
:101F9000A7FD044600F0A8FD474904AA0968E2C26B
:101FA000474A464912680968CDE900204548CDE90D
:101FB000024103684448026844480168444803F009
:101FC00069F909B0F0BD2DE9F0414FF47A61C820FC
:101FD00000F019FD4FF47A7000F051F93DA003F0C4
:101FE00059F94148414DA5F50064406804F5406247
:101FF000A2F5006330B101282CD002284BD0032871
:1020000023D150E00021002005EB811704EB81165D
:1020100057F820C046F820C0401C1028F8DB491CA7
:102020001029F0DB0020002102EB801503EB801467
:1020300055F8216044F82160491C1029F8DB401C48
:102040001028F0DB032000F0BDFCBDE8F04128A023
:1020500003F020B90021002004EB811705EB811665
:1020600057F820C046F820C0401C1028F8DB491C57
:102070001029F0DB0021002003EB811502EB811415
:1020800055F8206044F82060401C1028F8DB491CFB
:102090001029F0DBD6E700F0BDFDFFF70CFF0120B3
:1020A00000F0EDF8F7E700F0B5FDFFF704FF0120C1
:1020B00000F0E5F8F7E70000DC000020C400002095
:1020C000CC000020D4000020D0000020C800002058
:1020D000F0640008427574746F6E2033207072656E
:1020E000737365640A0D0000340000208809002025
:1020F00046696E697368656420427574746F6E20FA
:1021000033204953520A0D007047FEE7FEE7FEE711
:10211000FEE770477047704737480168491C016007
:1021200036490868002802DA354B00221A60401E42
:102130000860FFF7D3BC10B52020FEF703FB4FF477
:10214000967470B10A2000F09AF82020FEF7FAFA8F
:1021500020B1204600F093F8FFF782FD2020FEF723
:10216000FFFA4020FEF7EEFA002811D00A2000F016
:1021700086F84020FEF7E6FA002809D0204600F055
:102180007EF8FFF720FFBDE810404020FEF7E8BAD8
:1021900010BD70B54FF480442046FEF7D3FA4FF4DB
:1021A000967570B10A2000F06AF82046FEF7CAFA68
:1021B00038B1284600F063F8FFF7CEFD2046FEF761
:1021C000CFFA4FF400442046FEF7BCFA002811D0A5
:1021D0000A2000F054F82046FEF7B4FA002809D08F
:1021E000284600F04CF8FFF70FFE2046BDE870408F
:1021F000FEF7B6BA70BD0000A4000020B8000020B1
:102200003404004070B502F0D3FF02F0F6FF33480B
:102210004FF47A710068B0FBF1F0401EB0F1807F9E
:1022200016D24FF0E024606166170F21304600F0AF
:1022300049F80025A561072020614FF44070FEF7A2
:1022400027F80021304600F03DF82548456070BD74
:10225000FEE74FF0E0208069A821B0FBF1F12048B3
:10226000426802EB4203C3EBC212C1EBC20101F5AB
:102270007A71016000687047194840687047184AD1
:10228000516853685B1A8342FBD1704730B50546ED
:10229000FFF7DFFF4FEA0004FFF7DBFF001BA84258
:1022A000FAD130BD30B50C464FEA0005FFF7D1FF3B
:1022B000001BA842FAD330BD094A53685B1A834217
:1022C000FBD370470907090E002803DA00F00F005E
:1022D000044A00E0044A8154704700007401002061
:1022E000A000002014ED00E000E400E07CB5012136
:1022F0000846FEF764FC01210420FEF760FC012182
:102300000820FEF75CFC3020009001208DF80400CE
:1023100000208DF8060003218DF805108DF80700C8
:1023200069461748FEF784FA0C20164D009069465E
:102330002846FEF77DFA0420134E022400908DF803
:10234000074069463046FEF773FA4FF4E0500090BC
:102350008DF8074069462846FEF76AFA04213046A0
:10236000FEF7DEFAE1022846FEF7DAFAA102284675
:10237000FEF7D6FA61022846FEF7D2FA7CBD0000CD
:102380000000024000080240000C02402DE9F04726
:1023900001218F0386B03846FEF739FC0121062063
:1023A000FEF70DFC0024DFF830A18DF81040202549
:1023B0008DF8134003A950460395FEF739FA05211D
:1023C0000120FEF7D4FC00958DF8044008268DF816
:1023D000056001258DF806506846FEF763F94FF059
:1023E00017098DF808908DF809508DF80A408DF87E
:1023F0000B5002A8FDF751FF8DF810408DF81340E7
:1024000003A950460397FEF713FA0E210120FEF7A9
:10241000AEFC8DF804408DF8056000978DF80650ED
:102420006846FEF73FF928278DF808708DF80950A7
:102430008DF80A408DF80B5002A8FDF72EFF8DF89D
:1024400010404FF400488DF8134003A95046CDF8D2
:102450000C80FEF7EDF90F210120FEF788FC8DF8C6
:1024600004408DF80560CDF800808DF80650684670
:10247000FEF718F98DF808708DF809508DF80A40AC
:102480008DF80B5002A8FDF708FF8DF8104040278B
:102490008DF8134003A911480397FEF7C9F90621E7
:1024A0000220FEF764FC8DF804408DF8056000976B
:1024B0008DF806506846FEF7F5F88DF808908DF80F
:1024C00009508DF80A408DF80B5002A8FDF7E5FE83
:1024D00006B0BDE8F087000000040240000802409A
:1024E00070B5054688B001210220FEF768FB012186
:1024F0001020FEF78CFB6D4E072209213046FEF7B7
:102500001CFA07220A213046FEF717FA00248DF83C
:10251000164001208DF8170002208DF814004FF4AA
:10252000C06104918DF8150004A93046FEF780F9CA
:102530005F4E01213046FFF7F0F9ADF808400C205E
:10254000ADF80A00ADF80440ADF80640ADF818400B
:102550003015ADF81A00ADF81E400095ADF80C40EE
:10256000ADF81C4069463046FFF74FF906A93046E2
:10257000FFF7ADF901213046FFF7BDF908B070BD96
:102580000020704770B54A4D0446C1B22846FFF797
:10259000D8F980212846FFF765FA0028F9D02046AF
:1025A00070BD434801888906FCD58088C0F30800C7
:1025B000704770B53E4D044680212846FFF752FA19
:1025C0000028F9D0A1B22846FFF7BBF9204670BD1C
:1025D00010B538A002F05EFE354C20212046FFF7F2
:1025E00041FA0028F9D02046FFF7AFF9C0B210BD7C
:1025F00010B539A002F04EFE2D4C20212046FFF7E9
:1026000031FA0028F9D02046FFF79FF901463AA099
:1026100002F040FE2046FFF798F9C0B210BD10B599
:1026200037A002F037FE224C20212046FFF71AFA8D
:102630000028F9D02046FFF788F9A0F1300137A033
:1026400002F028FE2046FFF780F9303810BD10B5A3
:102650000446014686B033A001E0214638A002F0CE
:1026600019FE694641A002F037FF694640A002F01A
:1026700011FE2146684603F07BF80028EDD106B034
:1026800010BD38B5044601463BA001E0214641A0FB
:1026900002F000FE69464AA002F01EFF1FA000994A
:1026A00002F0F8FD0098A042F0D138BD00000240D1
:1026B000001001400D0A707265737320616E7920FD
:1026C0006B657920746F20636F6E74696E75652E0B
:1026D0002E2E0D0A0D0A0000706C65617365206571
:1026E0006E746572206120636861726163746572E3
:1026F0002E2E2E0D0A00000025630D0A000000009A
:10270000706C6561736520656E746572206120640C
:10271000696769742E2E2E0D0A00000025640D0ACB
:1027200000000000507265737320257320746F20C1
:10273000436F6E74696E75652E2E2E203A00000070
:10274000496E76616C696420696E7075742C2070B6
:102750007265737320257320746F20436F6E7469E4
:102760006E75652E2E2E203A0000000025730000A5
:1027700025730D0A000000005072657373202564F4
:1027800020746F20436F6E74696E75652E2E2E2037
:102790003A000000496E76616C696420696E70755C
:1027A000742C20707265737320256420746F20432D
:1027B0006F6E74696E75652E2E2E203A0000000033
:1027C000256400001CB501210420FEF716FA4FF421
:1027D0007070009002208DF8040003208DF8050031
:1027E00000208DF80600504C8DF807006946204601
:1027F000FEF71EF8022206212046FEF79EF802226E
:1028000007212046FEF799F8022208212046FEF70C
:1028100094F8022209212046FEF78FF81CBDF0B57E
:1028200089B040F2E73006900320ADF8140000268E
:102830003E4FADF81C60ADF8166005A93846FEF7AE
:102840004BFB60203A4DADF800000124ADF802408A
:1028500028880290ADF80C6069463846FEF7BEFB4A
:1028600008213846FEF7FBFCADF80240688802906C
:1028700069463846FEF7DEFB08213846FEF7F5FCD0
:10288000ADF80240A888029069463846FEF70EFC73
:1028900008213846FEF7F3FCADF80240E8880290C4
:1028A00069463846FEF73CFC08213846FEF7EDFC49
:1028B00001213846FEF76EFB01213846FEF784FB06
:1028C00009B0F0BD10B5FFF77DFFBDE81040A6E7E9
:1028D00018490968884200DD08464942884200DA02
:1028E0000846124A00213C32131D002802DB10600A
:1028F0001960704711604042186070470D490968BF
:10290000884200DD08464942884200DA0846074A04
:1029100000213432131D002802DB1160186070475B
:1029200040421060196070470004024000080040F7
:10293000B00000203C00002030B58BB00121022007
:10294000FEF75BF94020059002208DF81800032166
:102950008DF8191000248DF81A40354D8DF81B00A4
:1029600005A92846FDF764FF022206212846FDF747
:10297000E4FF952008908B20ADF81C002D4DADF89C
:102980002440ADF81E4007A92846FEF7A5FA6020AE
:10299000ADF800000120ADF802000294ADF80C4043
:1029A00069462846FEF71AFB08212846FEF757FC21
:1029B00001212846FEF7EEFA01212846FEF704FB26
:1029C0000BB030BD2DE9F04105461B498C20684312
:1029D0000860184F95202C3738600024154EA0460B
:1029E00034360CE03868401CC00830604620FFF7E1
:1029F00046FCC6F800804620FFF741FC641CAC4250
:102A0000F0DBBDE8F0810B4A10B52C321368094C9D
:102A10005B1C9B0834342360084B93FBF1F18C233F
:102A200091FBF3F1491E11600349086010BD0000DD
:102A30000000024000040040B800002000BD010575
:102A40007CB501210920FEF7D8F802208DF804009A
:102A500001208DF8070048F203002E4C00906946D3
:102A60002046FDF7E5FE08202B4D009069462846DC
:102A7000FDF7DEFE022200212046FDF75EFF022266
:102A800001212046FDF759FF01220F212046FDF7C5
:102A900054FF012203212846FDF74FFF1F4C4FF042
:102AA000FF3529462046FEF75BFA29464FF0804560
:102AB0002846FEF755FA0223002203212046FEF79E
:102AC0002DFE00231A4603212846FEF727FE01218A
:102AD0002046FEF779FA01212846FEF775FA7CBDFB
:102AE0000E482430006870474FF08040406A7047BD
:102AF0000A4900202431086070474FF080410020CF
:102B00004862704705492431086070474FF08041A2
:102B1000486270470000024000040240000C004080
:102B200030B501218DB00802FEF771F88820032529
:102B300000908DF8045000248DF807406946304815
:102B4000FDF776FE8DF8045000958DF80740694634
:102B50002C48FDF76DFE8DF8045033202A4D00906F
:102B60008DF8074069462846FDF762FE4FF4803035
:102B7000CDE908404FF47060CDE90A4008A8FDF7A0
:102B800016FC8DF80C4002948DF80D4005940694C7
:102B900001201E4C8DF81C0002A92046FDF7DCFB2D
:102BA000012240F205212046FDF73CFD012120468F
:102BB000FDF712FC04211648FDF7B2FEA1142846C9
:102BC000FDF7AEFEE1142846FDF7AAFE21152846C2
:102BD000FDF7A6FE0DB030BD10B513460446012228
:102BE000FDF72DFC2046FDF764FC02212046FDF791
:102BF00022FD0028F9D02046BDE81040FDF78BBC2F
:102C00000000024000040240000802400020014091
:102C1000000C02402DE9F0477C4D04220A21284691
:102C2000FFF7DAFF7A4C04220E21E0602846FFF716
:102C3000D3FF206104220B212846FFF7CDFF6061FE
:102C400004220F212846FFF7C7FFA061FFF701FB11
:102C5000704F824604213846FDF760FE6E4E4FF4F9
:102C6000806841463046FDF759FE51463C20FFF74B
:102C700019FB04220A212846FFF7AEFFE16804226F
:102C8000401AE0600E212846FFF7A6FF2169401A8E
:102C9000206104213846FDF743FE41463046FDF7EA
:102CA0003FFEE0680027002800DAE760206900287E
:102CB00000DA27615146FA20FFF7F4FA4FF4805901
:102CC00049463046FDF72AFE4FF40068414630463B
:102CD000FDF724FE51464FF4AA70FFF7E3FA0422F1
:102CE0000B212846FFF778FF61690422401A6061D2
:102CF0000F212846FFF770FFA169401AA0614946DD
:102D00003046FDF70DFE41463046FDF709FE60698D
:102D1000002800DA6761A069002800DAA761E2688C
:102D200021684FF47A704A4392FBF0F2E260226924
:102D30004A4392FBF0F2226162694A4392FBF0F24D
:102D40006261A2694A4392FBF0F0A061BDE8F0879E
:102D50002DE9F04128262E4C00202C4F0546E0613D
:102D6000042208213846FFF737FFE1696D1C08444B
:102D7000E061B542F4DB4CF2503191FBF6F0E269D0
:102D80005043264A104490FBF1F0C11700EB5170FC
:102D9000C010E061216A08442062BDE8F08110B5EE
:102DA000042203211948FFF717FF194C606003F054
:102DB0000EFA9FED1B1B53EC112B03F081F803F06F
:102DC000D7F9A06010BD10B5FFF7E9FF104841F634
:102DD00058318068884218DA0F4C04212046FDF7EC
:102DE0009DFD08212046FDF799FD0F4C202120462E
:102DF000FDF794FD10212046FDF790FDBDE8104041
:102E00004FF47A71C820FFF7FEBD10BD00200140CD
:102E1000BC000020000C024000080240805274FAFE
:102E2000AC1C5A643BDFD33F00000240F94FDFF88F
:102E3000E8830D4606464FF47A7900BFFFF709FA9A
:102E40000446FFF7E7FE3868301AFFF741FDD8F86F
:102E50000000281AFFF752FD21464846FFF722FAE4
:102E6000ECE710B5EB48ED49ED4C00680968884285
:102E70004FF00801204602DDFDF750FD01E0FDF7AF
:102E80004FFDE848E8490068096888424FF00401AE
:102E9000204602DDFDF742FD01E0FDF741FDE3487C
:102EA000E349E44C0068096888424FF0100120466D
:102EB00002DDFDF733FD01E0FDF732FDD648DE49C6
:102EC0000068096888424FF02001204603DDBDE814
:102ED0001040FDF723BDBDE81040FDF721BD70B5E2
:102EE0000D460446FFF709FEFFF702FE2046FFF7F6
:102EF000EFFC2046FFF702FD2846FFF7C0F900204F
:102F0000FFF7E6FC0020FFF7F9FC6420FFF7B7F9B4
:102F1000FFF7E6FD0446FFF7E7FD201A70BD0EB58A
:102F20000020C649C64A8246087001211170C54971
:102F30000746834608708046054600900446019087
:102F4000C1484FF001090168C0480160C048C14A4A
:102F50000068126809FB00F18E1ABAF1000F40D127
:102F600086423EDCBC494FF0010ABC4A81F800A011
:102F700000211170BA4981F800A02DB9022C03D0AC
:102F8000032C01D0042C26D1B64890ED000AB8EEEF
:102F9000C00A00F0ADFDBDEEC00A10EE100A00B28E
:102FA0000290B14890ED000A00F0A2FDBDEEC00A0B
:102FB000029A10EE100A01B2304600F027FD00EE32
:102FC000100AAA48B8EEC00AD0ED000AB4EEE00A32
:102FD000F1EE10FA01D29C4800E0A24801689B483B
:102FE000016057B99A48006800EB4000C11700EB38
:102FF0009170B6EBA00F00DC012737EA080002D081
:10300000954901200870BBF1000F38D19048006845
:1030100000EBD070B6EB600F31DC7E487F494FF09B
:10302000010B00680968884205DC7B48824900681A
:103030000968884200DD01257A487B4900680968F3
:10304000884201DD012000907848794900680968CC
:10305000884201DD01200190FFF70EF900F0030422
:10306000641C012C0FD0022C10D0032C10D0042C87
:10307000F2D1009905EA010001990842ECD0B8F1BB
:10308000000F09D012E0002DE6D1F8E7009800E02B
:1030900001980028E0D1F2E76D480068C11700EB05
:1030A0009170B6EBA00F05DC4FF0010815B16A482E
:1030B00000210170002E0ADD564801684FF4FA60C5
:1030C000814204DC5449096881427FF73FAF09F12E
:1030D00001094FF47A71C820FFF795FC3DB16448AF
:1030E0000268644801686448006800F0FFFA022C36
:1030F00004D0032C04D0042C04D00AE05F4802E082
:103100005F4800E05F4890ED000AB8EEC00A00F0AA
:1031100053FA4FF0000A5746D346D0465546CDF8ED
:1031200000A0CDF804A011E72DE9F05F574A5648FA
:10313000574B1168FC2700EB811C1868B8463E46C7
:103140005CF820403D460CEB800C0F2901DADCF8DE
:1031500040700F2801DADCF80480002801DD5CF8FB
:10316000406C002901DD5CF8045CDFF828A193467F
:103170000AEB811151F8200000F09EFDDFF8189154
:1031800040B9601E874205D14E2189F80010052004
:10319000BDE8F09F5746DA46DBF80000DFF8F0B0F4
:1031A00007EB8011DBF8000051F8200000F087FDEC
:1031B00038B9611E884504D1452189F800100620E0
:1031C000E6E7DAF80010B84607EB8110DBF80010EC
:1031D0005F4650F8210000F075FD38B9601E864248
:1031E00004D1532189F800100720D1E7DAF8001044
:1031F00008EB8110396850F8210000F066FD38B9FD
:10320000641EA5424AD1572189F800100820BFE763
:1032100044E00000C8000020CC000020780000201E
:1032200000080240D000002080000020D4000020D0
:1032300084000020000002407C00002036000020B6
:10324000730000207400002058000020E8000020D7
:103250002C000020600100203400002070000020BD
:10326000350000205C000020E00000202C01002040
:103270004400002094000020900000206000002006
:103280006400002068000020880D00201400002049
:10329000100000208809002024000020002077E78B
:1032A0002DE9F041B44F0026002407EB861500BF3E
:1032B00055F8240000F00CFD38BB55F824000F2E03
:1032C00040F00F0045F8240005DA05EB8400016C9E
:1032D00041F004010164002E06DD05EB840050F886
:1032E000401D41F0010101600F2C05DA05EB84005F
:1032F000416841F008014160002C06DD05EB8400C7
:1033000050F8041D41F002010160641C102CCFDB59
:10331000761C102EC8DBBDE8F0812DE9F04FDFF8F8
:103320005CB2E5B001248BF8004000F096FB9448B5
:103330004FF4C871047093480470684602F0F1F9C4
:1033400091490024924D0C6090494FF04E0AA046DE
:103350000C6085F800A0FFF7A3FF00F085FE00F0E9
:1033600070FD0027A9468DE099F800004E280AD08C
:10337000452827D0532843D0572860D079E0641CD3
:10338000401C286001E0804E804D7B48296800EB9E
:103390008110316850F8210000F08EFC002868D1BF
:1033A0007C49286801EB8012316802EB810352F8F6
:1033B00021101B6C491E8B42E1D05AE0641C401C5A
:1033C000286001E0704D714E6B48316800EB811050
:1033D000296850F8210000F072FC58BB6D48316834
:1033E00000EB8111286801EB800251F8201052682F
:1033F000491E8A42E2D03CE0641C401E286001E085
:10340000614E624D5C48296800EB8111306851F8CB
:10341000200000F057FC68B95E49286801EB801273
:10342000316802EB810352F8211053F8403C491EE9
:103430008B42E1D01DE0641C401E286001E0524D2B
:10344000524E4D48316800EB8110296850F8210038
:1034500000F03BFC68B94F48316800EB81112868E7
:1034600001EB800251F8201052F8042C491E8A42C8
:10347000E1D0494840F82740FFF756FE4DF82700B5
:1034800000247F1C00F02AFC00283FF46DAF89F86F
:1034900000A00024404D2EE000F038FBFFF7BAFBFF
:1034A0003E483F490068096888420DDD3D483E4975
:1034B00000680968884207DD3C4802683C480168AA
:1034C0003C48006800F012F95DF82400052806D099
:1034D000062807D0072808D0082809D00AE000F0FD
:1034E0006DFB07E000F084FB04E000F09BFB01E0D3
:1034F00000F0B0FB641C55F824000028CCD1214812
:10350000444680F800800020FFF7E2F90020FFF732
:10351000F5F90320FFF756FA8BF8004065B0BDE8D7
:10352000F08F70B519491448194C096800EB8110E7
:103530001549096850F8215020784E2803D12846B3
:1035400000F0BAFBA0B92078452803D1284600F046
:10355000B6FB68B92078532803D1284600F0B2FBA7
:1035600030B92078572805D1284600F0AEFB08B1C5
:10357000012070BD002070BD88090020740000206B
:10358000340000203500002010000020140000202E
:1035900024000020880D002088110020C800002091
:1035A00098000020CC0000209C0000204400002057
:1035B00094000020900000202DE9F05F3E48002597
:1035C0002DED088B4FF0010AB0EE40BA0570DFF820
:1035D000ECB03B488BF800A00560FEF74DFE394C7F
:1035E000064600BFFEF748FE2168801B8842F9D3DB
:1035F000354836498046076889469FED359B9FEDE3
:1036000036AB0E680CE000BFB5EEC0BA3448F1EE40
:1036100010FA01D2016801E00068414231480160BE
:10362000D8F80000C01B00EE100AB8EEC00A00F087
:1036300065FAD9F80000B0EE408A801B00EE100A4F
:10364000B8EEC00A00F05AFA78EE00BAB0EE4B0AB3
:1036500000F054FA10EE100A02F0CEFE41EC180B06
:103660002148006802F0C8FE53EC192B02F0C6FD99
:1036700053EC182B02F0C2FD53EC1A2B02F020FC85
:1036800002F0ECFB00EE100A00F032FAF4EEC0BAE1
:10369000F1EE10FAB8D313480560FEF7EDFD0546CC
:1036A000FEF7EAFD2168401B8842F9D38BF800A0A1
:1036B000BDEC088BBDE8F09F3400002035000020F1
:1036C000E8000020480000204001002044010020C4
:1036D0001F85EB51B81E09400000000000806640C5
:1036E00054000020EC000020280000202DE9F74FB6
:1036F000DFF87C901F490120D9F800600968C9F8FB
:1037000000101D49174608701C4900200870FEF77C
:10371000B3FD0546DFF868A0DFF868B04FF47A78AB
:1037200015E000BFFEF795FD04460098DAF800109A
:10373000401AFFF7CDF80198DBF80010401AFFF7A8
:10374000DDF800BFFEF785FD001B4045FAD3FEF70C
:1037500093FD401BB842E5D30B480068FFF7D6F94C
:103760000A480068FFF7CEF9C9F80060BDE8FE8F8F
:103770003C000020400000203400002035000020E4
:10378000C8000020CC00002040010020440100209F
:1037900030B5FB48FE49FC4B0268FA4809680468EA
:1037A000FA48A242006803DD884201DD851A9D6067
:1037B000A24201DDA01A04E0884201DD401A00E0C7
:1037C0000020986030BD70B5EF4CEF4D803CD4E9DF
:1037D0001C010A18091AC4E90421EE482B69006883
:1037E00090FBF3F0EC4B1B782BB9EC4B1B780BB137
:1037F000084600E0084400EE102AD4ED000AB8EEB6
:10380000C00A30EEC00AD4ED080A30EE200A84ED7A
:10381000080A00EE100AD4ED010AE148B8EEC00A29
:1038200030EEC00AD4ED090A30EE200A84ED090A10
:10383000007878B1FFF7ACFFD5E9020190FBF1F019
:1038400000EE100AD4ED090AB8EEC00A30EE800A84
:1038500084ED090AD4ED080A94ED0E0A94ED0A1AD3
:10386000D4ED0F1A20EE200A30EEC11A04F128031D
:1038700001EE810ABDEEC00A10EE101A216394ED2C
:10388000091A94ED100AD4ED0B1A94ED112A20EECA
:10389000010A71EE611A02EE210ABDEEC00A10EEB5
:1038A000102A6263881AC3EC020A1144C4E91601A3
:1038B000FFF70EF8E06DBDE87040FFF71FB8B248A3
:1038C000B0EE001A803890ED020AD0ED000AB8EE92
:1038D000C02ADFEDB41AF4EEC20AF1EE10FA11D2EA
:1038E00090ED122A22EE011A81EE212AB8EEC01ABA
:1038F00072EE200AC0ED000AF4EEC10AF1EE10FAF1
:1039000018DC1BE0B8EEC02AF4EEC20AF1EE10FAA1
:1039100014DD90ED132A22EE011A81EE212AB8EE71
:10392000C01A70EEC20AC0ED000AF4EEC10AF1EE50
:1039300010FA03D2B8EEC00A80ED000A90ED030A37
:10394000D0ED010AB8EEC01AF4EEC10AF1EE10FA99
:1039500011D290ED141A70EE810AB8EEC01AC0EDC3
:10396000010AF4EEC10AF1EE10FA03DDB8EEC00A66
:1039700080ED010A7047B8EEC01AF4EEC10AF1EE0C
:1039800010FAF7DD90ED151A70EEC10AB8EEC01A04
:10399000C0ED010AF4EEC10AF1EE10FAE6D3704769
:1039A00070B5FFF7A1F8784C803C2066FFF798F8D7
:1039B000226EA16E511A2167E36EC4E91A20C31A60
:1039C000CD1805EBD5756D10C4E91D3511441844AB
:1039D000C4E9181008446C4900EBD070401008602E
:1039E000E06F401BE06770BD10B5FFF7D9FFFFF730
:1039F00066FFBDE81040E6E600EE100A6A48F8EE01
:103A0000C00A90ED001A80EE810A704700B50029C7
:103A100001DA494209B2002A01DA524212B2002800
:103A200001DC4FF00100FFF7E7FF11FB01F002FBA3
:103A300012006421484300EE900AB8EEE01AC1EE8D
:103A4000000AB5EE000A20EE800ABDEEC00A10EEB4
:103A5000100A002800DA404200BD10B5504800248A
:103A60000470524804702046FEF732FF0020FEF733
:103A700045FF9FED4F0A44484349803880ED060AD0
:103A800080ED070A80ED000A80ED010A8460C460C1
:103A900080ED080A80ED090A80ED0A0A80ED0B0A24
:103AA0008466C466046644660C604C608465C465C4
:103AB000C467FFF722F8BDE81040FFF719B8B5EE6C
:103AC000C00AF1EE10FA01D8B7EE000A60EEA00AC3
:103AD00041EE410A80EE801AB4EE000A21EE000A9F
:103AE000B5EEC00AF1EE10FA01D2B1EE400A70470D
:103AF0002D48D0ED000A20EE200A7047B5EEC00A2E
:103B0000F1EE10FA01D2B1EE400A70472DE9F04112
:103B10000546FFF7A2FF224F2449012038700870A4
:103B200019490022234B8039174EDFED211ADFF8A7
:103B300088801AE0201A0CEBDC74B0EB640F00DA1A
:103B40003A70FFF759FFB0EE611AD1ED000AFFF7A6
:103B5000B6FFD1ED130AB4EEE00AF1EE10FA03D28B
:103B6000D8F80000886000E08A60D3F800C03068B0
:103B700005FB0CF48442DDDC8A60BDE8F0810000C6
:103B8000D00000208800002060010020D400002028
:103B90008C000020D800002071000020720000205E
:103BA000340000200000C842300000203500002012
:103BB000000000002C0000204C00002010B53A4C02
:103BC00020784E2811D0572804D0452804D05328F7
:103BD00004D00AE0354802E0354800E0354890ED71
:103BE000000AB8EEC00AFFF7E7FC4E20207010BDB7
:103BF00010B52D4C20784E2806D0572806D04528E1
:103C00000DD0532804D00AE0284802E0294800E0FB
:103C1000274890ED000AB8EEC00AFFF7CDFC45201A
:103C2000207010BD10B5204C20784E2804D05728A5
:103C300004D0452804D00AE01E4802E01C4800E0F9
:103C40001A4890ED000AB8EEC00AFFF7B5FC532001
:103C5000207010BD10B5144C20784E2806D057287F
:103C60000FD0452804D0532804D00AE0104802E0C1
:103C7000104800E00D4890ED000AB8EEC00AFFF7CA
:103C80009BFC5720207010BD074800784E2806D0B6
:103C9000452805D0532804D0572803D1A8E7C1E709
:103CA000D8E78BE770470000240000206400002064
:103CB000600000206800002000F001007047C0F3A1
:103CC00040007047C0F380007047C0F3C0007047E9
:103CD000C0F300107047C0F34010704749480168B6
:103CE000072901D0082906D1474802684748072A12
:103CF00003D0082A03D000207047072913D000F50D
:103D0000CE70082A036C43F00C030364036843F08D
:103D100001030360C36B43F00203C363A0F5CE70DD
:103D200001D1072913D000F50670082A436843F033
:103D300009034360436C43F004034364036843F0A6
:103D400002030360A0F5067001D1082913D000F525
:103D50000870072A036843F003030360036C43F011
:103D600004030364436843F008034360A0F508704C
:103D700001D108290DD000F5D070016C41F004018B
:103D80000164016841F001010160416C41F00801EA
:103D90004164012070471B481B49006809680843BB
:103DA00001D00020704701207047184A10B502EB7F
:103DB000811252F820206FEA0204154AE30702EB51
:103DC000811101EB800104D0086CA20703D4FC230D
:103DD00002E0FC20F9E74B68620701D4FC2201E015
:103DE00051F8402C240701D4FC2101E051F8041CB7
:103DF000834200DA1846824200DA1046814200DA35
:103E0000084610BD10000020140000208809002082
:103E1000880D00202DE9F041444F0F25002407EBC9
:103E2000851600BF56F8241041A001F033FA641C37
:103E3000102CF7DB3FA001F02DFA6D1EEED5BDE88A
:103E4000F0812DE9F047DFF8F0A0DFF8E080DFF83F
:103E5000EC900F25002408EB851600BF56F82400CF
:103E6000FFF72AFF08B136A000E037A001F012FAF0
:103E7000641C102CF2DB36A001F00CFA2DA001F02E
:103E800009FA344F002400BF56F82400FFF71DFF45
:103E900008B131A000E031A001F0FCF9386885429A
:103EA00016D12F480068844212D19AF800004E289B
:103EB00006D0452806D0532806D0572806D01BE048
:103EC00028A00BE028A009E028A007E028A005E032
:103ED00056F82400FFF7FFFE18B126A001F0DAF92A
:103EE0000AE056F82400FFF7F3FE09EB851050F8BE
:103EF00024100FA001F0CEF9641C102CC4DB16A016
:103F000001F0C8F90BA001F0C5F96D1EA2D500247F
:103F10000BA001F0BFF9641C102CF9DB0CA001F020
:103F2000B9F9BDE8F04703A001F0B4B98809002051
:103F3000253364000A0D000024000020880D0020B5
:103F40002B2D2D2D000000002B2020200000000034
:103F50002B000000140000207C0000002000000066
:103F600010000020205E2000203E2000207620004F
:103F7000203C20002078200030B52B48016841F01B
:103F80000E010160416841F00C0141605FF00001E9
:103F900000EB8102491CD2F8C033102943F0010321
:103FA000C2F8C033F4DB002100EB8112491CD36B53
:103FB000102943F00203D363F6DB002150F82120DF
:103FC00042F0040240F82120491C1029F6DB0021B0
:103FD00000EB8112491C1368102943F00803136099
:103FE000F6DB0E22114C0021002004EB811300BFF0
:103FF00043F82020072801DA521E04E0A0F108054A
:10400000072D00D2521C401C1028F1DB072901DAD1
:10401000521E04E0A1F10800072800D2521C491CDE
:104020001029E1DB30BD000088090020880D002048
:10403000FE480178FE484E29006806D0452907D081
:10404000532908D0572909D00AE005280AD007E0EB
:10405000062807D004E0072804D001E0082801D092
:1040600001207047002070472DE9F0414FF4807621
:104070000025F04F02E000252C4608E00024072D23
:1040800001D0082D03D1072C16D0082C12D02946B8
:104090002046FFF78AFE07EB8511401C41F82400FB
:1040A000641C102CEBDB6D1C102DE7DB761EE2D5BB
:1040B000BDE8F0810924E2E70824E0E7F0B5DB4839
:1040C000DD4ADF490778DD481678DF4A0578DF48A2
:1040D0000C78DC491368006801EB831202EB800165
:1040E0004E2F32D0452F5BD0532F7DD0572F2BD161
:1040F0006EB152F82060002846F0080642F82060B1
:1041000005DD51F8046C46F0020641F8046C6DB10F
:1041100052F82050002B45F0040542F8205005DDF0
:1041200051F8405C45F0010541F8405C002C0BD093
:1041300052F820400F2B44F0010442F8204003DAEB
:10414000086C40F004000864F0BD5EB152F82060D5
:104150000F2B46F0010642F8206003DA0B6C43F0A7
:1041600004030B646DB152F82030002843F00803BB
:1041700042F8203005DD51F8043C43F0020341F8D9
:10418000043C002CE0D052F820300F2843F002030A
:1041900042F82030D8DA486840F008004860F0BDA6
:1041A0005EB152F820600F2846F0020642F8206007
:1041B00003DA4E6846F008064E605DB152F82050B2
:1041C0000F2B45F0010542F8205003DA0D6C45F045
:1041D00004050D64002CE2D052F82040002B44F07E
:1041E000040442F8204000E005E0D8DD51F8400D1D
:1041F00040F0010029E06EB152F82060002B46F03B
:10420000040642F8206005DD51F8403C43F001030C
:1042100041F8403C5DB152F820300F2843F00203D2
:1042200042F8203003DA4B6843F008034B60002C5F
:10423000B5D052F82030002843F0080342F820306F
:10424000ADDD51F8040D40F002000860F0BD2DE92D
:10425000FE4F7F4801210170FFF7FFFB0024DFF8CC
:10426000ECA1DFF8E4B17148CAF800404E21CBF868
:1042700000400170734801252746A0462646A14606
:104280000068FFF725FD80B96E48DBF8001000EBF1
:104290008111DAF8000051F8202042F0100241F8B4
:1042A00020206C480168491C01606B486B4900681C
:1042B000086072E26A486B4A0068126805FB00F108
:1042C0008C1A47BB84423ADC67480127594907707A
:1042D00066480770DBF8002001EB8212DAF8001064
:1042E00052F82110FC290CDB514900220A600270AF
:1042F0001046FEF7EDFA0020FEF700FB0A20FEF75D
:1043000061FB4A4800784E2806D0452808D053283B
:104310000AD057280ED012E0DBF80010491C06E046
:10432000DAF80010491C08E0DBF80010491ECBF851
:10433000001004E0DAF80010491ECAF80010B8F1C5
:10434000000F1DD14648006800EB4000C11700EB8C
:104350009170B4EBA00F13DC454846494FF00108BB
:1043600000680968884202DD34490120087042482B
:10437000424900680968884202DD3149012008701D
:10438000002E51D13648006800EBD070B4EB600FBE
:104390004ADC3B483B49012600680968884208DD41
:1043A0003948016839480068814202DD224901200C
:1043B0000870FFF783FEDBF80010DAF80000FFF763
:1043C000F4FC421C1B49DBF8000001EB8011DAF819
:1043D000000041F82020FFF747FE1A48DBF80010E4
:1043E00000EB8111DAF8000051F82000FFF764FCBF
:1043F00010B14FF4FA7009E00E48DBF8001000EB42
:104400008111DAF8000001EB8000006C02900D4889
:10441000DBF8001000EB8111DAF8000051F8200001
:10442000FFF74DFC08B133E029E134E0240000201F
:1044300020000020880D00201C0000201D0000200E
:104440001E00002088090020140000201000002019
:10445000730000201800002058000020E800002011
:104460002C000020600100203400002035000020D6
:10447000D000002080000020D40000208400002014
:10448000C800002078000020CC0000207C00002024
:104490004FF4FA7009E0FE48DBF8001000EB8111E0
:1044A000DAF8000001EB800040680190F948DBF881
:1044B000001000EB8111DAF8000051F82000FFF73E
:1044C00001FC10B14FF4FA700AE0F148DBF800107B
:1044D00000EB8111DAF8000001EB800050F8400C8D
:1044E0000090EC48DBF8001000EB8111DAF80000D6
:1044F00051F82000FFF7E9FB10B14FF4FA700AE021
:10450000E348DBF8001000EB8111DAF8000001EB62
:10451000800050F8040CDDE90121914206DA009A8E
:10452000914203DA814201DA052020E0DDE901123F
:10453000914207DA0A4600998A4203DA824201DA96
:10454000062014E0DDE90012914206DA029A914257
:1045500003DA814201DA072009E00199884209DA89
:104560000099884206DA0299884203DA0820CA498B
:10457000086084E0C94800784E280CD1C548DBF8B3
:10458000001000EB8111DAF8000051F82000FFF76D
:1045900093FB0028C8D0C148007845280CD1BD48FD
:1045A000DBF8001000EB8110DAF8001050F8210061
:1045B000FFF785FB0028C3D0B848007853280CD1FA
:1045C000B448DBF8001000EB8110DAF8001050F866
:1045D0002100FFF777FB0028BDD0B04800785728AE
:1045E0000CD1AC48DBF8001000EB8111DAF80000C8
:1045F00051F82000FFF769FB0028B7D0A548DBF889
:10460000001000EB8111DAF8000051F82000FFF7EC
:1046100053FB002888D09F48DBF8001000EB811185
:10462000DAF8000051F82000FFF749FB002887D096
:104630009848DBF8001000EB8111DAF8000051F81F
:104640002000FFF73FFB002885D09248DBF80010E0
:1046500000EB8111DAF8000051F82000FFF735FB7C
:10466000002883D08C49002008608D490870FEF72F
:104670002FF90020FEF742F90A20FEF7A3F9894836
:10468000006800EBD070B4EB600F00DC01268648B8
:10469000007810B9FFF7CCFCA0B12046FFF7ACF9C9
:1046A0008248D0ED000A8248B8EEE01AD0ED000A48
:1046B000FFF705FA7F48D0ED000AB4EEE00AF1EE0C
:1046C00010FA04D27C487D490068086003E077480E
:1046D00001687A480160B9F1000F09D1714800689A
:1046E000C11700EB9170B4EBA00F07DC4FF001098C
:1046F0006D48007810B1724900200870002C4CDC25
:104700006D1C4FF47A71C820FEF77DF9614EDBF81D
:104710000000574606EB8011DAF8000051F820003F
:10472000FFF7D6FA70B9DBF8000006EB80113868A5
:1047300051F8202042F0100241F820206148016821
:10474000491C01605848007838B15F4802685F48EA
:1047500001685F480068FEF7C9FF4F4800680528F8
:1047600006D0062807D0072808D0082809D00AE074
:10477000FFF724FA07E0FFF73BFA04E0FFF752FAED
:1047800001E0FFF767FA48490027B8460F70514922
:104790003E46B9460F7050490F70FFF79FFA002848
:1047A0003FF488ADDFF80C91DFF810813F4F002611
:1047B000002C26DD3B48006800EBD071B4EB610FA4
:1047C00001DA3F490E70454968430968441A20469A
:1047D000FFF712F9D7ED000A3548B8EEE01AD0ED30
:1047E000000AFFF76CF9D9ED000AB4EEE00AF1EE29
:1047F00010FA02D23048016800E03968C8F80010A9
:10480000D6E7244CDBF80000DAF8001004EB801047
:104810005D46574650F82100FFF75AFA68B92868F4
:104820003A6804EB801050F8221041F0100140F873
:10483000221024480168491C0160194806700020B4
:10484000FEF746F80020FEF759F8FFF7FAFA0320C2
:10485000FEF7B8F822480670BDE8FE8F2DE9F0415A
:10486000DFF82C804FF480760024002508EB8417B5
:1048700054EA050006D021462846FFF796FA401C68
:1048800047F825006D1C102DF2DB641C102C29E06C
:10489000880D00208809002020000020240000202E
:1048A000350000202C0000201C0000205C000020AF
:1048B000E00000202C01002058000020E80000202B
:1048C0003400002018000020440000209400002044
:1048D000900000201D0000201E000020600100202C
:1048E00073000020C1DB761EBED5BDE8F0812DE946
:1048F000FE4FFF4901200870FFF7AFF801250024A3
:10490000DFF8F0832746A1462646A246204600222D
:10491000114608EB801300BF02EB000C43F821C0E6
:10492000521C491C1029F7DB401C1028EFDBFFF755
:1049300095FFFFF7A9F9F0480168F0480160A8E287
:10494000DFF8BCB3EF4ADBF80000126805FB00F1AA
:104950008C1A37BB844232DCEB480127EB490770E5
:10496000EB4AEC480F701268006808EB821252F8AC
:104970002000FC280BDBE84A002010600870FDF7DF
:10498000A7FF0020FDF7BAFF0A20FEF71BF8E34857
:1049900000784E2806D0452806D0532809D057283D
:1049A00009D00CE0DA4800E0DA480168491C0160EF
:1049B00005E0D74900E0D7490868401E0860B9F112
:1049C000000F1DD1DBF8000000EB4000C11700EB29
:1049D0009170B4EBA00F13DCD148D2494FF001091C
:1049E00000680968884202DDCF4901200870CF487D
:1049F000CF4900680968884202DDCE49012008706D
:104A0000002E7DD1DBF8000000EBD070B4EB600F1E
:104A100076DCC948C949012600680968884208DD72
:104A2000C748C84900680968884202DDC6490120B4
:104A30000870FFF743FBB6480168B6480068FFF707
:104A4000B4F9411CB248006808EB8012B148006814
:104A500042F82010FFF702FFAD49BC48096800EB9F
:104A60008111AC48006851F82000FFF725F910B11A
:104A70004FF4FA7008E0A649A6480968006808EBF8
:104A8000811101EB8000006CA1490290AF480968D8
:104A900000EB81119F48006851F82000FFF70FF9E3
:104AA00010B14FF4FA7008E099499A480968006813
:104AB00008EB811101EB8000406801909448A34904
:104AC000006801EB80119348006851F82000FFF75F
:104AD000F9F810B14FF4FA7009E08D498D48096872
:104AE000006808EB811101EB800050F8400C009049
:104AF00087489649006801EB80118648006800E00D
:104B00003AE151F82000FFF7E0F810B14FF4FA70E5
:104B100009E07F497F480968006808EB811101EBD3
:104B2000800050F8040CDDE901128A4206DA00998F
:104B30008A4203DA824201DA052020E0019991429B
:104B400007DA0A4600998A4203DA824201DA06202D
:104B500015E0DDE900218A4207DA1146029A914206
:104B600003DA814201DA072009E00199884209DA73
:104B70000099884206DA0299884203DA08206649D9
:104B80000860F9E0654800784E280CD160496F480C
:104B9000096800EB81115F48006851F82000FFF7B9
:104BA0008BF80028C8D05D48007845280CD15849BA
:104BB0006648096800EB81115648006851F82000EA
:104BC000FFF77DF80028C2D05448007853280CD154
:104BD0004F495E48096800EB81114E48006851F862
:104BE0002000FFF76FF80028BDD04C480078572808
:104BF0000CD147495548096800EB811145480068C8
:104C000051F82000FFF761F80028B7D0434800783A
:104C10004E280CD13E494D48096800EB81113D48B2
:104C2000006851F82000FFF747F8002884D03B487F
:104C3000007845280CD136494448096800EB8111B9
:104C40003448006851F82000FFF739F80028BAD03E
:104C50003248007853280CD12D493C48096800EBB4
:104C600081112C48006851F82000FFF72BF800282C
:104C7000BAD02A48007857280CD12549334809680A
:104C800000EB81112348006851F82000FFF71DF860
:104C90000028BAD01E492D48096800EB81111D4833
:104CA000006851F82000FFF707F80028BED0184927
:104CB0002648096800EB81111648006851F8200069
:104CC000FEF7FDFF0028C2D011492048096800EB1B
:104CD00081111048006851F82000FEF7F3FF00280A
:104CE000C6D00B491948096800EB811109482FE02B
:104CF00073000020880D002058000020E8000020EC
:104D00002C0000206001002034000020350000202D
:104D100014000020100000202000002024000020AB
:104D2000D0000020800000201D000020D4000020C2
:104D3000840000201E000020C80000207800002011
:104D4000CC0000207C0000201C00002088090020EE
:104D5000006851F82000FEF7B8FF002899D0AE494E
:104D600000200860AD490870FDF7B2FD0020FDF796
:104D7000C5FD0A20FDF726FEA948006800EBD070AB
:104D8000B4EB600F00DC0126DFF898B29BF800005E
:104D900010B9FFF74DF9E0B12046FEF72DFEA2480D
:104DA000D0ED000AA148B8EEE01AD0ED000AFEF7F7
:104DB00086FE9F48D0ED000AB4EEE00AF1EE10FA4C
:104DC00007D399489B49BAF1000F0068086002D0E8
:104DD0000BE09948F6E792480068C11700EB917024
:104DE000B4EBA00F07DC4FF0010A9BF8000010B1F4
:104DF000924800210170002C4BDC6D1C4FF47A713D
:104E0000C820FDF700FE8F4EDFF834928E4F3168D8
:104E100009EB8110396850F82100FEF759FF68B995
:104E2000316809EB8110396850F8212042F01002F6
:104E300040F8212085480168491C01609BF800006A
:104E400038B1834802688348016883480068FEF7E8
:104E50004DFC71480068052806D0062807D00728B1
:104E600008D0082809D00AE0FEF7A8FE07E0FEF700
:104E7000BFFE04E0FEF7D6FE01E0FEF7EBFE0027E2
:104E800076498BF80070B9460F7075493E46BA46B0
:104E90000F70FEF780FF00283FF452ADDFF88081ED
:104EA000DFF8C0A1DFF884B1DFF888915E4F0026FB
:104EB000002C27DDD8F8000000EBD071B4EB610FB7
:104EC00001DA5E490E7005FB00F1DAF800000C1AF9
:104ED0002046FEF791FDD7ED000AB8EEE01ADBEDB3
:104EE000000AFEF7ECFD5248D0ED000AB4EEE00AED
:104EF000F1EE10FA02D25048016800E03968C9F8B2
:104F00000010D5E74F4C4E4F4F4D206807EB8011F6
:104F1000286851F82000FEF7DBFE68B92068296890
:104F200007EB801050F8212042F0100240F82120B9
:104F300046480168491C0160FEF7A6FE3748067026
:104F40000020FDF7C5FC0020FDF7D8FCFEF779FF37
:104F50000320FDF737FD444806707DE42DE9F04756
:104F6000DFF8DC904FF480760025002455EA040039
:104F700047D0072E01D0082E03D1072D41D0082D90
:104F80003FD009EB851858F82400FEF795FE074638
:104F900058F82400FEF793FE074458F82400FEF763
:104FA00091FE074458F82400FEF78FFE384403288A
:104FB00027DB58F824000F2D40F02F0148F824106B
:104FC00005DA08EB8400016C41F0040101640F2C48
:104FD00005DA08EB8400416841F008014160002DCA
:104FE00006DD08EB840050F8401D41F0010101602E
:104FF000002C06DD08EB840050F8041D41F002018E
:105000000160641C102CB1DB6D1C102DADDB761E15
:10501000AAD5BDE8F0870000200000203500002060
:105020002C0000201C0000205C000020E00000207C
:105030002C010020E800002058000020340000204F
:105040008809002014000020100000201800002013
:105050004400002094000020900000201D0000204B
:105060001E000020600100207300002009488047D6
:1050700009480047FEE7FEE7FEE7FEE7FEE7FEE73A
:10508000FEE7FEE7FEE7FEE704480549054A064B52
:1050900070470000B1510008890100087813002012
:1050A000781900207815002078150020F0B56D499A
:1050B00000200A6842F480320A604FF4A0630A6854
:1050C00000F1010012F4003F01D19842F7D10868C5
:1050D000684D5FEA803C644A644B654C664F40F221
:1050E000056605F104002AD5D2F800C04CF0805CBA
:1050F000C2F800C01A6842F480421A600268026076
:10510000026842F400420260026842F4A052026067
:105110002C600A6842F080720A600A689201FCD52D
:105120003E60016821F003010160016841F0020165
:1051300001600168C1F381010229FAD1F0BDD1F803
:1051400000C0DFF838E10CEA0E0CC1F800C0D1F85D
:1051500000C04CF0010CC1F800C0D2F800C04CF007
:10516000805CC2F800C01A6842F480421A6002688B
:105170000260026842F400420260026842F4A052F7
:1051800002602C600A6842F080720A600A6892012C
:10519000FCD53E60016821F003010160016841F027
:1051A000020101600168C1F381010229FAD1F0BD59
:1051B000334810B5016841F4700101602948016865
:1051C00041F0010101602B4A0021121D11600268AB
:1051D0002A4B1A400260031D2A4A1A60026822F410
:1051E00080220260234808300160FFF75FFF2449F6
:1051F0004FF000608039086010BD70B51D4C241D53
:105200002068214A10F00C01204804D055100429D0
:1052100003D0082903D002601AE0056018E01549A0
:105220000B68C3F380560B6803F03F0316B1B5FB60
:10523000F3F201E0B2FBF3F20B680968C3F38813E1
:105240005A43C1F30141491C4900B2FBF1F101602D
:1052500021680E4AC1F30311121D515C0268CA4055
:10526000026070BD003802404038024000700040CB
:105270001054000704380240003C0240FFFFF6FED5
:1052800088ED00E0103000240024F40074010020B8
:10529000704700000FB4044910B503AA029800F04B
:1052A0001DFB10BC5DF814FBA800002070B504467F
:1052B00085690068C10601D5302600E02026C007B8
:1052C00008D070BDD4E9012130469047206A00F132
:1052D000010020626D1EF5D570BD70B5044685696C
:1052E0000078C00708D170BDD4E901212020904783
:1052F000206A00F1010020626D1EF5D570BD70B509
:105300000C460546012A05D02878800600D5EA69B2
:10531000002302E0012305E05B1C934202D2E05C23
:105320000028F9D1A869E618C01AA861286A1844AB
:1053300028622846FFF7BAFF04E0D5E9012114F8F6
:10534000010B9047B442F8D32846FFF7C6FF70BD63
:105350002DE9F0410646002410687529314616A54E
:1053600011D0AFF30080002803DAC0F1000013A5CC
:1053700007E031688A0701D511A502E0490704D585
:1053800010A5012401E0AFF3008000210A2306F1FB
:10539000240707E0B0FBF3F203FB1200303078542F
:1053A0001046491C0028F5D123462A463046BDE860
:1053B000F04100F021BA0000000000002D000000C4
:1053C0002B000000200000002DE9F0474FF0000AFC
:1053D00089460446C0F820A02046E1688847002896
:1053E00076D0252806D0D4E901219047206A401CB8
:1053F0002062F1E7E168204600258847C4F81CA038
:1054000006460027C4F818A02A2E09D0304600F01E
:1054100007FD38B304EB8708303EC8F8186019E080
:1054200059F8041B204604EB87029161E168884724
:10543000012F064618D1E069002820DA25F0200562
:105440001DE0D8F8180000EB800006EB4000303873
:10545000C8F818002046E1688847064600F0E0FCDE
:105460000028EED1012F0AD02E2E08D12046E16867
:1054700088477F1C0646022F45F02005C4DBA06943
:10548000002803DA404245F00105A061E80701D099
:1054900025F01005B6B1A6F14100192802D8203632
:1054A00045F400654A463146204625604D46FAF7E8
:1054B000C5FE58B1012806D0ED1D25F0070000F10A
:1054C000080989E704E005F1040985E730468AE721
:1054D000206ABDE8F08700000FB400B589B00BA8C2
:1054E0006A46009003480A9900F018FA09B05DF87E
:1054F00014FB0000AC0000202DE9FF5F1D464FF0BB
:10550000FF3B91464FF000085F46D5E90146A96987
:1055100001987F1C8847296A824688470028F6D16F
:105520001AF101000CD0002E24F4C06419DD6006CD
:1055300014D5BAF12B0F09D0BAF12D0F0ED103E01B
:10554000584604B0BDE8F09F44F48064A96901980E
:105550007F1C8847761E8246002E02DDBAF1300F8E
:1055600003D0B9F1000F26D032E0A969761E019868
:105570007F1C44F400748847002E824605DDBAF192
:10558000780F06D0BAF1580F03D0B9F1000F10D040
:105590001EE0B9F1000F02D0B9F1100F18D1A969BE
:1055A000761E01987F1C24F40074884782461020E0
:1055B00002E0082000E00A20814609E0A96908FB12
:1055C0000908761E01987F1C44F4007488478246BF
:1055D000002E05DD4946504600F092F90028EDDA2C
:1055E000E96901988847A00502D46FF00100A8E797
:1055F000E00727D1600614D5600502D5C8F1000088
:1056000000E04046296801F104022A600968220589
:1056100001D5087016E0220701D5088012E0086065
:1056200010E0286800F1040129600068210502D516
:1056300080F8008006E0210702D5A0F8008001E094
:10564000C0F8008038467CE72DE9FF5F4FF0000886
:105650009946144646469169D2E901A7DDF838B06B
:1056600001988847054659EA0B0005D009E0A16971
:105670000198761C88470546216A284688470028F5
:10568000F5D1681C03D05FEACA7005D015E04FF071
:10569000FF3004B0BDE8F09F2068011D2160D0F804
:1056A00000800AE05FEACA7001D108F8015BA169D5
:1056B0007F1E0198761C88470546002F1ADD681C5E
:1056C00018D0B9F1000F0DD0E81705EBD0604211EA
:1056D00020F01F0059F822102A1A012090400142A0
:1056E000E0D107E0BBF1000FDCD12846216A8847F2
:1056F0000028D7D0E169019888470AF0010050EAF4
:105700000B0002D1002188F80010A068B84203DD28
:10571000BBF1000F03D017B16FF00100B9E73046BD
:10572000B7E74FF0000200B513469446964620397D
:1057300022BFA0E80C50A0E80C50B1F12001BFF44A
:10574000F7AF090728BFA0E80C5048BF0CC05DF8B0
:1057500004EB890028BF40F8042B08BF704748BFFE
:1057600020F8022B11F0804F18BF00F8012B704772
:105770004FF0013C50F8042B51F8043B9A4221D1E0
:10578000A2EB0C03934313EACC1317D150F8042B6C
:1057900051F8043B9A4215D1A2EB0C03934313EA50
:1057A000CC130BD150F8042B51F8043B9A4209D189
:1057B000A2EB0C03934313EACC13DBD04FF00000B1
:1057C000704700BFD01A01BAB1FA81F101F0180197
:1057D00022FA01F0CB40C1F12001DBB2C0B2C01A05
:1057E0002CFA01F3D11A914311EAC311E6D17047A3
:1057F00070477047704770472DE9F0470D4699464E
:105800009246044600F124080168880604D5E06940
:1058100021F01001216000E00120A84202DDA0EB90
:10582000050700E00027A16907EB050202EB09006C
:10583000A1EB0000A0612078C00602D42046FFF74B
:1058400035FD002608E0D4E901211AF8060090474A
:10585000206A401C761C20624E45F4DB2078C0068E
:105860000AD52046FFF722FD06E0D4E901213020C9
:105870009047206A401C2062381EA7F10107F4DC23
:1058800007E0D4E9012118F805009047206A401C80
:105890002062281EA5F10105F3DC2046FFF71DFD5F
:1058A0002078000602D50220BDE8F0870120FBE742
:1058B00010B5436913B1AFF3008001E0FFF71FFD9E
:1058C000012010BD127800F124010A7000224A70F4
:1058D0000122EDE711684FF0FF32E9E7074B70B5A1
:1058E0000D467B4400F02BF80446284600F074F87F
:1058F00010B14FF0FF3070BD204670BD9FCCFFFF50
:105900003A2800D2303820F02002412A01D3A2F1F7
:105910003700884201D34FF0FF307047034B7B4480
:105920009361034B7B44D36100F022B881CCFFFF2D
:105930006B00000001694A1C02610878704700B5DD
:105940008FB0CDE901310021059105497944CDE9B8
:10595000031011466846FFF737FD0FB000BD000089
:10596000E5FFFFFF02681144137801601846704795
:10597000D16005497944516104497944116200219B
:105980001161114600F05AB8EDFFFFFFAD000000B5
:10599000704710B54FF0FF34C1688A020FD5036B12
:1059A00042689A420BD1014690F82520104600F03B
:1059B000FDF9401C01D1204610BD002010BD11F0A2
:1059C000C00FF8D1026941689142F4D90268521CB3
:1059D000491EC0E90021F0E7007B00F0800070471D
:1059E000754600F00DFAAE4605006946534620F0B4
:1059F0000700854618B020B5FFF746FBBDE82040FC
:105A00004FF000064FF000074FF000084FF0000B7A
:105A100021F00701AC46ACE8C009ACE8C009ACE82D
:105A2000C009ACE8C0098D46704710B5044600F0C7
:105A3000EBF90068005D00F0010010BD2DE9F34FA7
:105A40004FF0000A0C4656468DB001200C9001F133
:105A50000C000B9062690B980121904705002DD036
:105A6000252D2CD0216A8847C0B162690B9801218D
:105A70009047216A88470028F7D16269411E0B9838
:105A8000904700E0761CA1690D988847216A8847F5
:105A90000028F7D1E1690D988847DBE7A1690D98E7
:105AA0008847A842074601D1761CD3E7E1690D98E3
:105AB00088477F1C02D1BAF1000F6FD06AE162699A
:105AC0000B9800273D46394690472A2804D1626941
:105AD0000B98012190470125DFF8CC8262690B9871
